:02000002D0002C
:1040000000400D0074C30D00000006000D00050106
:084010000401BD0B00000000DB
:0440180024B30D00C0
:10401C0009480A49884208B505D0094A824202D0AB
:10402C00121A07F067F80748074A0021121A07F01E
:10403C0089F8014808BD00BFE0DD0320E4C20D0093
:10404C0048DE032048DE0320F0E7032070B5074E5E
:10405C00074C05F0B9FDA41BA4080025A54200D10E
:10406C0070BD56F8043B98470135F7E7B4C20D0014
:10407C00D8C20D0000F06CBA08B500F0C7FDBDE861
:10408C00084005F063BD03F091BF03F08FBF03F050
:10409C0095BF000008B5034A00210C2003F0B8FEC0
:1040AC00FEE700BF357A0D000078B0FA80F04009C9
:1040BC007047012303707047106870477047037C8A
:1040CC0013F008031EBFC36A406A1B1A002BACBF57
:1040DC0018466FF0004070477047704710B51021BC
:1040EC00044606F01AFA204610BD10B534210446D9
:1040FC0006F013FA204610BD103002F0C3B807B515
:10410C0001228DF8071010300DF1070102F0BAF8FA
:10411C0003B05DF804FB103002F076B8103002F0FA
:10412C001DB807B501220DF10701103001F068FF31
:10413C0001280CBF9DF807004FF0FF3003B05DF86D
:10414C0004FB000010B5034B0360044603F0DEF9DA
:10415C00204610BDACBC0D0010B50446006808B17B
:10416C0003F02CFF204610BDF8B50C1E0746164672
:10417C000CDA0A2A0AD12D2105F092FA6142054681
:10418C00F2B2384605F0A5FA2844F8BD21460025C0
:10419C00F6E7000007B504F057F9C0B2022817D0B3
:1041AC00032805D0012815D0012003B05DF804FBCD
:1041BC000523019306F016F904220DEB02014FF4CE
:1041CC00827003F059FC044B019A1A600020ECE752
:1041DC000A23EEE71423ECE7ECE2032010B586B0DB
:1041EC00002301A91422044604F016F906F0FAF88B
:1041FC00142201A90A2003F03FFC2146024804F0D6
:10420C009FF8002006B010BDECE3032007B504F0C6
:10421C001BF9C0B2022817D0032805D0012815D0ED
:10422C00012003B05DF804FB0523019306F0DAF8D6
:10423C0004220DEB02014FF4827003F01DFC044BC1
:10424C00019A1A600020ECE70A23EEE71423ECE74E
:10425C0058DE032007B504F0F7F8C0B2022817D0D7
:10426C00032805D0012816D0012003B05DF804FB0B
:10427C003C23019306F0B6F804220DEB020140F248
:10428C00091003F0F9FB054B019A1A600020ECE7CA
:10429C004FF49673EDE74FF41673EAE760DE0320F4
:1042AC000EB403B503AB002153F8042B019305F0B6
:1042BC0006FB02B05DF804EB03B0704773B504461F
:1042CC0008462279A36832B1A3B90B4902B0BDE804
:1042DC00704005F0E1B9094A267B094D0949647B18
:1042EC00012E18BF2946CDE900140749FFF7D8FF66
:1042FC0002B070BD054AEFE749B30D009BB30D004A
:10430C0045B30D0041B30D005FB30D0038B30D0084
:10431C000EB403B503AB012153F8042B019305F044
:10432C00CEFA02B05DF804EB03B0704738B5044622
:10433C000E4D05F077FD0E49FFF7EAFF24782B6848
:10434C00A34207D105F06EFD0A49FFF7E1FF0023F8
:10435C002B6038BD05F066FD0749FFF7D9FF05F066
:10436C0061FD06492246FFF7D3FFF2E7E8E303209D
:10437C007CB30D009CB30D00B7B30D00FEB30D0064
:10438C0030B5264CB7B0204603F02AF9204601215F
:10439C0000F0F7FE2249AF220AA806F0ABFE00257A
:1043AC0028222323CDE9013500920DEB0203204690
:1043BC005F2100F099FF2D232946102206A80593B2
:1043CC0006F0C0FE06F00EF814220DEB02010A20D6
:1043DC0003F04AFB2046012101F0B4F9502220469B
:1043EC00612101F0ACF92946204601F0B0F90D49E4
:1043FC00204605F051F95A222046492101F09FF937
:10440C000949204605F048F905A9204605F044F96C
:10441C00204603F0E0F937B030BD00BFFCE30320C9
:10442C0044B60D000FB40D0016B40D0010B5A0B0BD
:10443C0004F0C2FB04F00EFC3D493E48002204F09F
:10444C0005FF04F0B9FB3C4A014617A804F0F2FF43
:10445C0017A804F080FC04F0AFFB364A014617A8FD
:10446C0004F0E8FF17A804F076FC17A804F075FA1E
:10447C0032490AA804F074F90AA90FA804F070F9DB
:10448C000FA804F0B3F904460FA8002C47D104F090
:10449C00CCF90094ADF81800022306AA032117A842
:1044AC0004F050FA02A803F071FD25490FA803F09F
:1044BC0056FF24490FA803F09AFF02A903F08BFFC3
:1044CC00014606A803F04BFF0FA803F0BDFE1E49E2
:1044DC000AA803F004FF1A4917A804F069FA1B4B49
:1044EC000F9300244FF47F430FA9ADF840300722FF
:1044FC00234617A88DF8424004F05DFA04F05CFBEB
:10450C00224617A904F0C6FB0AA803F09DFE06A8D4
:10451C0003F09AFE02A803F097FE20B010BD04F041
:10452C0089F900230093024610230721B7E700BF47
:10453C0039430D00C4E50320E4E50320FCE203202D
:10454C00ECE30320D1B40D001FB40D00FFFF5500A8
:10455C0070B501218AB0132005F006FF0121082057
:10456C0005F002FF0121132005F00FFF01210820A7
:10457C0005F00BFF674A6849684805F06DFB684A0F
:10458C006849664805F068FB674A6849634805F066
:10459C0063FB674A6749614805F05EFB66496748FB
:1045AC000023022203F0DAFC65496648002302224C
:1045BC0003F0D4FC644965480023022203F0CEFCCE
:1045CC0000240C230594ADF81430614B614906931B
:1045DC00042205AB6048079403F0C0FC214601207F
:1045EC0003F0C2FB0125204603F0C8FB2A4641F626
:1045FC00C6710DF103008DF8035003F0C9FB574849
:10460C00234622462146406803F070FC05F00AFC64
:10461C004FF4E13105F0FAFB4FF47A7005F092F9A2
:10462C008DF818404E4C4F4B059304F58C664E4B51
:10463C000793022205AB04F26C413046ADF82050D2
:10464C0002F03AF9F8B1266004F23C4001F012FE97
:10465C002946204601F0DFFF04F23C45014668B1D3
:10466C003F4901F23C4001F0B2FC60B194F83C349B
:10467C0013F0700F1CBF3D4B1D6004E0204601F091
:10468C00CAFF0028ECD14FF47A7005F05BF9762163
:10469C00374801F01FFC374800F083FC01213648F5
:1046AC0002F07AFC41F2883005F04CF905F09AFEE4
:1046BC0014220DEB02010A2003F0D6F905A901A87A
:1046CC0003F00DFE01A9234803F054FE01A803F0EA
:1046DC00BBFD194B0A221A60194B05221A601A4BA2
:1046EC004AF6C0021A60FFF7A1FE244B01221A7091
:1046FC00FFF746FE05F096FB214904F0E0FF41F27E
:10470C00883005F01FF905F08DFB1D4904F0D7FF2B
:10471C000AB070BD25B40D00E9410D00399C0D00A7
:10472C0033B40D0019420D004AB40D0061420D0066
:10473C0061B40D00A1410D0058DE032077B40D00CB
:10474C00ECE203208CB40D0060DE03209FB40D005E
:10475C00C5400D00ECE30320ACB40D005CE6032077
:10476C0064DE032010B60D0080F0FA02F0E50320A1
:10477C00A8E30320CCE40320FCE303205CDE03204D
:10478C00B6B40D0030B585B00D46002269460092D6
:10479C0003F04EFBB0B9009C0CB1236923B90A4A53
:1047AC0000210A2003F034FB0023ADF806300C2363
:1047BC00ADF80430042303930295236901AA012167
:1047CC002046984705B030BD357A0D0007B503205B
:1047DC0001A9FFF7D7FF40B9BDF8043000EE103A3D
:1047EC00BBEECC0A03B05DF804FBBFEE000AF9E7A0
:1047FC002DE9F0472DED028B94B0C04904460CA86E
:10480C0005F06EFB0CA805F0EFF8B0EE408A05F051
:10481C00E9FD142207A90A2003F026F907A903A829
:10482C0003F05DFD01A801F011F9B5489DF80450A5
:10483C009DF807809DF808709DF809609DF806901A
:10484C009DF805A0012100F085FF0121AC4800F086
:10485C0079FFAB4802F0C4FE0A22A948052100F0FA
:10486C006EFFA748002100F072FFA54807A904F0CD
:10487C0013FFA44B1B7805F5FA65002B00F0B081F3
:10488C00A1499F4804F008FF9D480A226E2100F0C0
:10489C0056FF0A2251469A48FFF766FC9B499848F6
:1048AC0004F0FAFE0A2249469548FFF75DFC974949
:1048BC00934804F0F1FE0A2229469148FFF754FC74
:1048CC0093498F4804F0E8FE0A2241468C48FFF7D2
:1048DC004BFC90498A4804F0DFFE0A22394688488E
:1048EC00FFF742FC8B49864804F0D6FE31460A227B
:1048FC008348FFF739FC14228148052100F01FFF83
:10490C0085497F4804F0C8FEFFF760FF02217C4810
:10491C0004F0C6FF81497A4804F0BEFE14227848A0
:10492C006E2100F00CFF7E49754804F0B5FEB0EE28
:10493C00480A0221724804F0B3FF7A49704804F027
:10494C00ABFE69460720FFF71DFF011EA8BF0099AB
:10495C006B480A22FFF708FC1E226948052100F06B
:10496C00EEFE6748002100F0F2FE6F49644804F047
:10497C0093FE618862480A2204F0ABFE1E22604856
:10498C006E2100F0DCFE69495D4804F085FEE1898A
:10499C005B480A2204F09DFE28225948052100F0AC
:1049AC00CEFE6349564804F077FEA18854480A228B
:1049BC0004F08FFE282252486E2100F0C0FE5D49A3
:1049CC004F4804F069FE218A4D480A2204F081FE0A
:1049DC0032224B48052100F0B2FE5749484804F0FA
:1049EC005BFEE18846480A2204F073FE32224448FA
:1049FC006E2100F0A4FE5149414804F04DFE618A3D
:104A0C003F480A2204F065FE3C223D48052100F097
:104A1C0096FE4B493A4804F03FFE218938480A2259
:104A2C0004F057FE3C2236486E2100F088FE4549C2
:104A3C00334804F031FEA18A31480A2204F049FEC1
:104A4C0046222F48052100F07AFE3F492C4804F0FD
:104A5C0023FE61892A480A2204F03BFE462228489C
:104A6C006E2100F06CFE3949254804F015FEE18AF0
:104A7C0023480A2204F02DFE50222148052100F083
:104A8C005EFE33491E4804F007FEA1891C480A2229
:104A9C0004F01FFE50221A486E2100F050FE2D49E2
:104AAC00174804F0F9FD218B15480A2204F011FE79
:104ABC005A221348052100F042FE2749104804F001
:104ACC00EBFD94ED070A0E48022104F0E9FE2349A0
:104ADC000B4804F0E1FDD4ED087A0948FDEEE77AC5
:104AEC000A2217EE901AFFF73FFB1D49044804F009
:104AFC00D3FDDFED1C7A94ED090A35E05CE603206A
:104B0C00FCE30320E8E20320BCB40D00C4B40D00A8
:104B1C00D0B40D00D7B40D00C6B40D00CFB40D0049
:104B2C00D3B40D00D9B40D00E1B40D00EAB40D00FE
:104B3C00F5B40D00FEB40D0009B50D0012B50D0055
:104B4C001DB50D0026B50D0031B50D003AB50D00A3
:104B5C0045B50D004EB50D0059B50D0060B50D00F5
:104B6C0068B50D0000007A441E4880EE270A022129
:104B7C0004F096FE1C491B4804F08EFD6422194873
:104B8C00052100F0DCFD1949164804F085FD184B91
:104B9C00144819680A2204F09CFD1649114804F0C7
:104BAC007BFD154B0F4819680A2204F092FD13493E
:104BBC000C4804F071FD124B0A4819680A2204F0E3
:104BCC0088FD1049074804F067FD064802F003FE13
:104BDC0003A803F039FB14B0BDEC028BBDE8F087E1
:104BEC0009494EE6FCE303206FB50D0073B50D00CB
:104BFC0058DE03207AB50D00ECE2032086B50D00DB
:104C0C0060DE032091B50D00C0B40D00F0B587B087
:104C1C0005F008F903681B699847002825DD314C1D
:104C2C00314E002323600A2505F0FCF803685B690C
:104C3C009847C0B26428307005D0236805FB030385
:104C4C00303B2360F0E705F0EDF821680A220546B9
:104C5C0004F03FFD284604F026FD244A244913683D
:104C6C00206841F8230001331360204D2B68062B7C
:104C7C002BD11F4C1F4F237D0293237C0193237B4D
:104C8C000093237A2279218804A800F0C9FD04A896
:104C9C0000F05CFE002605F0C5F854F8041B0A224F
:104CAC00FFF762FA013605F0BDF8394604F0F4FC62
:104CBC00062EF0D105F0B6F804F0F5FC4FF4FA60CE
:104CCC0004F040FE2B6801332B602B68062B06DDAD
:104CDC000948FFF78DFD41F2883004F033FE07B030
:104CEC00F0BD00BF58E4032054E403205CE403202F
:104CFC00CCE50320D1B40D0060E40320F0B51646DA
:104D0C0091B00022C0E9002204460D460BAF1946B3
:104D1C0006A803F025FD1699384603F021FD3378DB
:104D2C008DF81430189B0293179B2046CDE9007325
:104D3C0005AA06AB294604F045FA204611B0F0BD91
:104D4C0010B50446FFF7FEF92046502105F0E5FBAF
:104D5C00204610BD30B5654D654BAB60002493B05B
:104D6C002C60AC80AC71022003F06CF8614A624993
:104D7C00284605F0CDFB2146012003F073F82146AF
:104D8C005E485F4D04F0A8FE5A4A5E495B4805F048
:104D9C00BFFB5D4800F060FE4FF0FF330322CDE90E
:104DAC0002230422CDE90032FA2105237A22574846
:104DBC0001F0B6FF4F4A5649544805F0A9FB554837
:104DCC0000F0E0F8544B642283F86024534AC3F893
:104DDC0070240122DC71A3F83C4483F86A44C3F8C4
:104DEC007844A3F87C4483F874242978BFF35B8F50
:104DFC0011401C460BD128460591FFF755F9059932
:104E0C0028B1474803F046F92846FFF752F9444BBE
:104E1C00C4F86C34374A43493F4805F079FB4248A3
:104E2C00344A42494FF47A7300248360404B048225
:104E3C004460036005F06CFB3E4B3F491C70A3F8CB
:104E4C0044403E4B3E481C70A3F844403D4B1C80F4
:104E5C003D4B1C803D4B1C8003F041FA254A3C49DC
:104E6C00374805F055FB3B493B4803F05FFD3B4998
:104E7C003B4803F05BFD3B493B4803F057FD1023D7
:104E8C0039498DF81C3008A803F06AFC32490DA88A
:104E9C0003F066FC0DAB009307AA08ABCDE9014407
:104EAC0032493348FFF72AFF124A3249304805F09D
:104EBC002FFB04232A498DF81C3008A803F050FC62
:104ECC0025490DA803F04CFC2B4B01930DAB009323
:104EDC0007AA08AB294902942948FFF70FFF054A96
:104EEC002449274805F014FB13B030BDF0E2032031
:104EFC000000FFFF48DE032065410D004CE4032059
:104F0C004CDE0320059B0D00A8E30320FCE30320EB
:104F1C0051410D00CCE4032064DE032010B60D00DB
:104F2C0050DE0320E7400D0098E40320E5400D001F
:104F3C0024B60D007CE503209BB30D0034E5032063
:104F4C00ECE3032060E4032070E3032038E3032048
:104F5C0055820D0093B50D00FCE20320B8B50D0091
:104F6C0010E30320DDB50D0024E3032002B60D0091
:104F7C00E4E50320638D0D0039430D0005B60D00EB
:104F8C00C4E50320704710B50446006E05F0A6F882
:104F9C00A31E00221C3423F8022FA342FBD10120B4
:104FAC0010BD10B5122380F86430044605F060FA89
:104FBC0020662046BDE81040FFF7E5BF2DE9F04F15
:104FCC0085B01F46BDF93880BDF83C30A8EB02090E
:104FDC00A7EB010AB9F1000FB8BFC9F10009BAF18A
:104FEC00000FB8BFCAF1000AD14583460C461546DE
:104FFC0004DD3A462C4647460D469046BC4205DD3C
:10500C002A464546904622463C4617463E1BB2B2BF
:10501C000092A8EB0502002AB8BF52420192C6F3D7
:10502C00C03202FA86F64545B4BF01224FF0FF327A
:10503C0076100292BC421CDCDBF800200393D145B5
:10504C00D2F81880C7BF294622462A462146584620
:10505C00C047019A039BB61AB1B236B2002E05DADC
:10506C00029A1544009A56182DB236B2013424B265
:10507C00E0E705B0BDE8F08F704710B40468246910
:10508C00A4465DF8044B604730B40468BDF8085082
:10509C000295A46BA44630BC604730B40468BDF8DC
:1050AC0008500295E46BA44630BC604770B4BDF95F
:1050BC000C50BDF810600468CDE90356246CA4466E
:1050CC0070BC60472DE9F3411C460368BDF8208095
:1050DC005B6905461646013C34440F4624B298479A
:1050EC002B68CDF8048000949C6A28463B463246D7
:1050FC003946A0472B68DB6A284602B0BDE8F04170
:10510C0018472DE9F3411D460368BDF820805B6903
:10511C00044617460E469847CDE9007822686B1E68
:10512C003344956A20461BB23A463146A847236859
:10513C00DB6A204602B0BDE8F04118472DE9F34781
:10514C001E460368BDF928905B69BDF82C800C469F
:10515C000546174698472644B4422B680BDACDF81F
:10516C000080D3F820A021464B463A46284601340D
:10517C00D04724B2F0E7DB6A284602B0BDE8F0471E
:10518C00184713B502680191B0F90E100091146C18
:10519C00B0F90C3000221146A04702B010BD2DE929
:1051AC00F3471D460368BDF82C805B69BDF9289058
:1051BC0004460F46164698472368CDF80080D3F86E
:1051CC0024A032462B4639462046D0472368CDF8DA
:1051DC00008009F1FF323244D3F824A039462B4623
:1051EC00204612B2D0472368CDF80080D3F820A017
:1051FC0032464B4639462046D0476B1ED919236898
:10520C00CDF800801D6A20464B46324609B2A847AD
:10521C002368DB6A204602B0BDE8F04718477047A8
:10522C002DE9F74399421646BDF92870BDF82C902C
:10523C00026880460D461C4613D1BE42C8BF334699
:10524C00CDF82890C4BF3E461F467B1C946B9B1B1D
:10525C001BB2324629464046A44603B0BDE8F04393
:10526C006047BE420AD19942C2BF0B4625461C4636
:10527C00631CCDF82890D46B5B1BE9E75369984706
:10528C00CDE90079D8F8003040469F6A3246234673
:10529C002946B847D8F80030DB6A404603B0BDE871
:1052AC00F043184701F00303B0F90A204376C9070D
:1052BC00B0F9083059BF8381C2818281C3817047A4
:1052CC0030B501810024074D42818181C2814FF0AC
:1052DC00FF314FF00112C0E9051244600560046112
:1052EC00C46130BDFCBB0D002DE9F04F89B0CDE998
:1052FC0002120268BDF948800493BDF94C30526922
:10530C000593BDF850A00446904718F107024FF0E2
:10531C00000648BF08F10E024FEAE20B0196354633
:10532C00039B019ABDF904109A18059B8B4212B28B
:10533C0027DD049B33444FF0000906930FFA89F0E4
:10534C0080451FFA89F117DD4F0705BF069BC0107A
:10535C006D001D5C18BFEDB22B060AD5029B2068B0
:10536C0007921944836909B21F4620465346B84731
:10537C00079A09F10109E1E7019B013301935E44AE
:10538C00CEE72368DB6A204609B0BDE8F04F18472A
:10539C002DE9F04F2DED028B91B01646C269BDF888
:1053AC0074709DF878409846BDF870300293824630
:1053BC000D46002A40F0B780B0F90C308B4240F318
:1053CC003C81B0F90E30B34240F33781062313FB16
:1053DC000413002B40F3318106EBC403002B40F384
:1053EC002C81C37E33B9B8F1AF0F84BF08F101082B
:1053FC005FFA88F8DAF8003050465B699847052365
:10540C000993002303938F4B08EB880843440A93BA
:10541C00B3B20793039A0A9B9B5C069302FB04F9B5
:10542C00A3B219FA85F90593ABB208930FFA89F375
:10543C0008EE103A079B049313462B441BB208EE5C
:10544C00903A4FF000080FFA84F9069ADAF8003017
:10545C00D1074AD5012C3AD1079AD3F818B0029B40
:10546C00424418EE901A12B25046D847069B5B087D
:10547C000693DDE9043208F1010813449BB2B8F13C
:10548C00080F0493E1D1039B01335BB20393099B97
:10549C00013B13F0FF030993BCD1029BBB420CD020
:1054AC00012CDAF800202DD1089900970531146AE7
:1054BC004346324609B25046A047DAF80030DB6A60
:1054CC00504611B0BDEC028BBDE8F04F1847029A64
:1054DC000192CDF80090D3F81CB0BDF9102018EE55
:1054EC00101A4B465046D847C0E7029ABA42BDD074
:1054FC00012C05D1079AD3F818B042443B46B0E7CB
:10550C000197E6E7059B019703EB8301089B0B448E
:10551C001946059BDB000093D5692346324609B238
:10552C005046A847C9E7137A516812680992A8EB4C
:10553C0003085FFA88F801EBC80331F838B09A78A1
:10554C0093F906800A92012CDA780B9293F90520D4
:10555C00069295BF00230FFA88F31F46039398BF5A
:10556C000393036888BFBDF918705B69984767435C
:10557C00A3B20593ABB217FA85F5B2B20893ABB2EE
:10558C000D930E92002318FA86F21F461D460F92B9
:10559C000B9A954291D2039A05990E98DDF83480B6
:1055AC002A4402FB010212B208EE102A0699089A4C
:1055BC005618B2B204920A9A9A18D2B207920F9A5B
:1055CC0002EB05090FFA89F9079A9A4232D05A1C54
:1055DC00D2B20C925A0701BF099A12F80B700BF158
:1055EC0001031FFA83FB3B060BD5012CDAF80020D4
:1055FC0013D19369BDF910101E464A46029B5046C2
:10560C00B047049E0136B3B20493059B7F009844C7
:10561C00FFB20C9B1FFA88F8D6E7029923B2CDE9AA
:10562C000031D2690FFA88F11646504618EE102A4E
:10563C00B047E6E70135EDB2AAE711B0BDEC028B3D
:10564C00BDE8F08FF3B60D007FB5C26904460B467A
:10565C00002A32D10A2908D1438A0282027E03EB46
:10566C00C2036382012004B070BD0D29FAD0017E03
:10567C00807E70B1B4F91050062010FB0150B4F9C3
:10568C000C50A842C1BFB4F91200228200EBC10237
:10569C006282E28A0192A28A02910092B4F91010FD
:1056AC00B4F912202046FFF773FE237E228A03EB07
:1056BC00430302EB43032382D4E70A2907D10023D7
:1056CC000382937A017E428A01FB0323C9E70D29E9
:1056DC00C8D0157AA942C5D3517A9942C2D3516820
:1056EC005D1B01EBC505AE781EB3E97809B3A17E4D
:1056FC00007E91B195F905103144B4F9106000FBAE
:10570C000161B4F90C60B14207DD00262682B4F9C0
:10571C001210927A02FB00126282E28A0192A28A31
:10572C0002900092B4F91010B4F912202046FFF741
:10573C002FFE2979237E228A01FB0323BBE70182FA
:10574C0042827047012938BF012101767047C1821E
:10575C008182704781767047407E7047B0F90C00AB
:10576C007047B0F90E00704730B50F4C0023013371
:10577C00DDB2A94204D914F8015B2A4492B2F6E7CF
:10578C00022903D9830704BF013292B200EBC00196
:10579C00C31C00EBC10000EB8000013800EB930050
:1057AC00104480B230BD00BF4CBC0D0038B504466F
:1057BC000D4604F05DFE214604F0C2FC04F058FED8
:1057CC00036829469B68984704F052FE04F0C3FC1A
:1057DC0004F04EFE0122214604F0AFFC04F048FE1A
:1057EC0003685B699847C0B238BD70B5064614466D
:1057FC000D4604F03DFE314604F0A2FC04F038FEE8
:10580C00036829469B68984704F032FE03682146DA
:10581C009B68984704F02CFEBDE8704004F09BBCDC
:10582C00B1F5FA6F83709DF80030C37028BFA1F5F5
:10583C00FA619DF80430037128BF89B29DF80830D5
:10584C00017042704371704708B5827841780078D6
:10585C00FFF78AFF07230630B0FBF3F3C3EBC30358
:10586C00C01AC0B208BD2DE9F843044604F000FE8E
:10587C00682104F069FC04F0FBFD036800219B68BF
:10588C00984704F0F5FD04F066FC04F0F1FD0722E6
:10589C00682104F052FC04F0EBFD03685B69984747
:1058AC0000F07F09C0F30210A0EB800009EB400070
:1058BC005FFA80F904F0DCFD03685B699847C0F37C
:1058CC000315A5EB850500EB4500C5B204F0D0FD32
:1058DC0003685B699847C0F30316A6EB860600EBDA
:1058EC004600C6B204F0C4FD03685B69984704F037
:1058FC00BFFD03685B699847C0F30317A7EB8707E5
:10590C0000EB4700C7B204F0B3FD03685B6998472E
:10591C00C0F30318A8EB880800EB48005FFA80F886
:10592C0004F0A6FD03685B699847C0F30313A3EB6F
:10593C00830300EB4300207084F80180A770E670AD
:10594C00257184F805902046BDE8F883F8B5054626
:10595C0004F08EFD682104F0F7FB04F089FD036868
:10596C0000219B68984704F083FD69790A24B1FBF8
:10597C00F4F303EB430301EB43010368C9B29B68E7
:10598C00984704F075FD2979B1FBF4F303EB43035D
:10599C0001EB43010368C9B29B68984704F068FDAA
:1059AC00E978B1FBF4F303EB430301EB4301036828
:1059BC00C9B29B68984704F05BFD0368064628460D
:1059CC009F68FFF741FF011E08BF0721B1FBF4F0F0
:1059DC0000EB400001EB4001C9B23046B84704F07F
:1059EC0047FDA978B1FBF4F303EB430301EB43014F
:1059FC000368C9B29B68984704F03AFD6978B1FB1B
:105A0C00F4F303EB430301EB43010368C9B29B6856
:105A1C00984704F02DFD29780368B1FBF4F404EBEE
:105A2C00440401EB44019B68C9B2984704F020FD83
:105A3C0004F091FB0F216820FFF7B8FEBDE8F84099
:105A4C0000F07F020F216820FFF7CFBE10B504468F
:105A5C00FFF709FF204610BD4FF0FF33C3607047BE
:105A6C0013B50B4C2178BFF35B8F11F001010BD1F7
:105A7C0020460191FEF718FB019928B1054802F068
:105A8C0009FB2046FEF715FB024802B010BD00BF13
:105A9C004CDE032050DE03202DE9F04190F90F304D
:105AAC00013305460F4606D1FFF7DAFF3946BDE84C
:105ABC00F04102F091BB002407264FF0010895F944
:105ACC000F00002180B204F060FC95F90D0008FA7B
:105ADC0006F1394080B204F058FC95F90F00012111
:105AEC0080B204F052FC95F90E00640080B2E4B26E
:105AFC0004F064FC08B144F00104013EDFD22046FE
:105B0C00BDE8F08108B5FFF7ABFFBDE8084002F037
:105B1C00DCBA07B50190FFF7A3FF019903B05DF85C
:105B2C0004EB02F0EBBA000030B590F90C30013305
:105B3C0085B004460D4625D104F09AFC217804F07A
:105B4C00FFFA04F095FC036829469B68984704F01B
:105B5C008FFC04F000FB04F08BFC2178022204F093
:105B6C00ECFA04F085FC03685B699847054604F081
:105B7C007FFC03685B69984740EA052085B228469C
:105B8C0005B030BD90F90F3001330CD1184B009398
:105B9C0000238DF80430174B029368460123ADF8AF
:105BAC000C30FFF7B6FF94F90C00002180B204F022
:105BBC00ECFB45F080012046FFF76EFF00212046EC
:105BCC00FFF76AFF002105462046FFF765FF40EA14
:105BDC00052085B294F90C00012180B204F0D5FBAC
:105BEC0094F90F300133CAD1FFF78CFFC7E700BF20
:105BFC0010B60D0020A1070008B5FFF795FF40BABD
:105C0C0080B208BD30B590F90C30013385B0044634
:105C1C000D461DD104F02CFC217804F091FA04F00F
:105C2C0027FC036829469B68984704F021FC04F084
:105C3C0092FA04F01DFC2178012204F07EFA04F0A3
:105C4C0017FC03685B699847C5B2284605B030BDA0
:105C5C0090F90F3001330CD1144B009300238DF8C5
:105C6C000430134B029368460123ADF80C30FFF758
:105C7C0050FF94F90C00002180B204F086FB45F033
:105C8C0080012046FFF708FF00212046FFF704FFA4
:105C9C00054694F90C00012180B204F076FB94F9CE
:105CAC000F300133D1D1FFF72DFFCEE710B60D0029
:105CBC0020A1070008B5F321FFF7A4FF00F00100B5
:105CCC0008BD38B588210446FFF796FF8A2120824B
:105CDC002046FFF791FF8C2160822046FFF78CFF56
:105CEC008E21A0822046FFF787FF9021E08220467C
:105CFC00FFF782FF922120832046FFF77DFF94213E
:105D0C0060832046FFF778FF9621A0832046FFF79B
:105D1C0073FF9821E0832046FFF76EFF9A212084C1
:105D2C002046FFF769FF9C2160842046FFF764FF43
:105D3C009E21A0842046FFF75FFFA121E08420462E
:105D4C00FFF760FFE12184F828002046FFF754FF9D
:105D5C00E32160852046FFF755FFE42184F82C00F1
:105D6C002046FFF74FFFE52105462046FFF74AFF87
:105D7C0000F00F0343EA0510E085E6212046FFF70B
:105D8C0041FFE52105462046FFF73CFF031143EA9E
:105D9C0005102086E7212046FFF734FF84F83200F7
:105DAC0038BD00007FB590F90C30013304460E4627
:105DBC00154616D104F05CFB217804F0C1F904F00F
:105DCC0057FB036831469B68984704F051FB036806
:105DDC0029469B68984704F04BFB04F0BCF904B0CF
:105DEC0070BD90F90F3001330CD1144B009300238C
:105DFC008DF80430124B029368460123ADF80C3039
:105E0C00FFF787FE94F90C00002180B204F0BDFA74
:105E1C0006F07F012046FFF73FFE29462046FFF79C
:105E2C003BFE94F90C00012180B204F0AEFA94F917
:105E3C000F300133D3D1FFF765FED0E710B60D005C
:105E4C0020A10700F8B5DB0002F0070203F03803CD
:105E5C00134343EA81139DF8186080F8383090F8AA
:105E6C003C309DF81C509DF8207066F3471380F869
:105E7C003C30ED0090F8343007F0070705F038059A
:105E8C0023F03F033D4304461D4380F8345006F095
:105E9C000702F221FFF786FF94F8342002F0070185
:105EAC0002F0380343EA411343EAD2122046F521AB
:105EBC00FFF778FF94F8382002F0070102F038035E
:105ECC0043EA411343EA92122046F421BDE8F8401C
:105EDC00FFF768BF30B50446017090F90C00421C06
:105EEC0085B019D104F0C4FA04F0F8F8D02120469A
:105EFC00FFF788FE602842D12046B622E021FFF74A
:105F0C0051FF4FF4967003F01DFD2046FFF7D2FEB3
:105F1C00054628B36420F6E7012180B204F035FA77
:105F2C0094F90C00012180B204F01EFA94F90F00D0
:105F3C00431C04D1FFF794FD02F0B6F8D6E701211B
:105F4C0080B204F011FA94F90D00012180B204F032
:105F5C000BFA94F90E00002180B204F005FAC5E7A3
:105F6C002046FFF7AEFE05232046CDE901550093F0
:105F7C001A460321FFF766FF012005B030BD002053
:105F8C00FBE710B50446243000F054FA28B104F5B0
:105F9C000C70BDE8104000F04DBA10BD837801695B
:105FAC0043F00403837000F11002806800F0F8BA2B
:105FBC0010B5044680680A462430A16900F062FAE4
:105FCC0020B1A38803F00F0300EB431010BD70B594
:105FDC00047805460E464CB92422214605F0B2F849
:105FEC00AE60F379102B03D0202B07D0002004E0F7
:105FFC00202301242B70AC70204670BD4023F8E7A1
:10600C002DE9F74F0378044688461546002B5DD0E2
:10601C008278D1075AD51A072DD5C36942699B1AC4
:10602C009D4228BF1D462E464FF0000904F1100B6F
:10603C00002E00F08F8022786369A0689706C3F366
:10604C00080A4FEA53211FD5006A0144A068BAF12F
:10605C00000F42D1B6F5007F3FD3C36A99423CD0C2
:10606C00B6F5806F52D20068424600F0CDFC68B3A2
:10607C004FF4007744E09B06D5D583681A894369B1
:10608C00C3EB42139BB2CBE790F8059009EA0109E8
:10609C00BAF1000F08D1B9F1000F05D15BB9510667
:1060AC004CBF036A236A23612169A06800F00DFAD2
:1060BC0009EB0001CAE721695A4600F00CFA0028E6
:1060CC0004DBF1D1237813F0700F43D1637843F0E4
:1060DC00020363704FF0FF303DE0CAF50077B74222
:1060EC004FF0000200F1240028BF374600F0CAF937
:1060FC000028EBD000EB0A013A46404604F0FAFFC8
:10610C0063693B44B8446361F61B91E722789206BD
:10611C004FEA562A06D40279A2EB0902D2B2924572
:10612C0028BF924699424FEA4A2708D2A0685346A4
:10613C000068424600F0B0FC0028E1D1C6E75344A9
:10614C008B42F3D92430019100F074F901990028A5
:10615C00ECD1BBE7A81B03B0BDE8F08F73B50122EF
:10616C000DF10701D0E904560446FFF749FF012859
:10617C000ABF9DF807004FF0FF30C4E9045602B087
:10618C0070BD2DE9F0410278076904460D4662B1F5
:10619C004069884202D019B921616561012006E08D
:1061AC00160706D5E3698B420BD227610020BDE8A8
:1061BC00F081910605D5A3681B89B5EB431FECD97B
:1061CC00F3E7D4F808C09CF80660431E06F10901F9
:1061DC006E1ECB40CE40B34200D898B953064CBF8C
:1061EC00DCF82030236A236104F11008002ED4D08F
:1061FC002169A068424600F06EF9002806F1FF36CE
:10620C00F4DCD2E7F61AEFE738B5037804460BB99D
:10621C00012038BD83785A0723D50121FFF7C8FE2A
:10622C00054628B9637843F0010363700020F0E75A
:10623C000378E52BF6D023781B0744BFE369C361D1
:10624C00238C4383638C8382094B1B682BB100F135
:10625C001601183098472B8B6B82A37823F004031C
:10626C00A370A068FFF78DFE0028DBD0D0E700BF3D
:10627C00ECE5032010B50446FFF7C6FF002323709E
:10628C0010BD00002DE9F047037889461907044634
:10629C0017465BD583789A0758D51B0751D4636989
:1062AC00DB43BB4252D3B84604F1100A6669B8F11D
:1062BC00000F00F09180A0684379C6F3080513EA3B
:1062CC0056260ED16DB92169002946D0524600F0F0
:1062DC0002F900283ADB04D12046FFF75FFE0028C4
:1062EC0034D02169A06800F0F0F83118A06815B915
:1062FC00B8F5007F3FD2C5F50076464528BF464627
:10630C00002D36D16269E3699A4234BF012205221D
:10631C00243000F0B7F8C8B1284432464946354419
:10632C0004F0E8FEB5F5007F04D1A068243000F03D
:10633C0081F858B1636933446361B144A8EB060832
:10634C00B4E7C169FFF71DFF0028A8D1637843F0BB
:10635C00010363704FF0FF3050E0236A3BB92046D5
:10636C00FFF71CFE0028F1D023692362B9E72361F3
:10637C00B7E70122CCE7B8F5806FC26A1BD390F85F
:10638C0004C0ACEB0606F3B24FEA582E734528BF97
:10639C00734691424FEA432607D31A448A4282BF7E
:1063AC004FF0FF3280F82450C262A5684A46286834
:1063BC0000F029FCBDE7914202BF4FF0FF3380F89B
:1063CC002450C362A3684A46186800F0A6FB002854
:1063DC00BCD04FF40076ADE7E269A378B24204D2A8
:1063EC00E66143F00403A37003E0084A1268002A34
:1063FC00F7D194F90230002B02DB3846BDE8F08768
:10640C002046FFF701FF0028F7D19FE7ECE50320BA
:10641C0013B50446084659B1019104F0D1FE236826
:10642C000199DB680246204602B0BDE810401847CF
:10643C0002B010BD37B50378DA07044620D543689F
:10644C00816800F10C021868019200F066FB019A59
:10645C00054618B90025284603B030BD23789B07A4
:10646C0004D4237823F001032370F4E7D4E901303A
:10647C0019690144186800F050FB0028F1D1E9E7D4
:10648C000125E8E770B583688B4204460E46154635
:10649C0009D0FFF7CFFF08B9002070BD6B070AD5F4
:1064AC0000232370A660227805F0030520461543CF
:1064BC0000F80C5BF1E7636804F10C0218683146D4
:1064CC0000F0A2FA0028EBD1E6E7837940690239A3
:1064DC00994008447047012970B505460C4616468C
:1064EC0002D84FF0FF3070BDC3698B42F9D3C3792A
:1064FC00202B16D18169022201EBD41100F50C700E
:10650C00FFF7C0FF0028ECD004F07F0450F82430D3
:10651C0023F07043EA699A4226BF336001200020C1
:10652C00E1E7102BDDD18369C1F307210222194465
:10653C0000F50C70FFF7A6FF0028D2D0E4B230F8BB
:10654C001430E7E7012938B50C46154601D8002070
:10655C0038BDC3698B42FAD3C379202B0FD1816923
:10656C00032201EBD41100F50C70FFF78BFF002810
:10657C00EDD004F07F0440F824500120E8E7102B04
:10658C00E5D18369C1F307210322194400F50C708E
:10659C00FFF778FF0028DAD0E4B220F81450ECE7CB
:1065AC002DE9F341C4688C4205460E46904601D352
:1065BC00012701E00C460027EB690134A34202D20B
:1065CC00C7B9EC68F4E7A64214D001AA21462846C4
:1065DC00FFF781FF00280DDBEED0019B002BEBD1E8
:1065EC0007B1EC606FF0704221462846FFF7AAFF16
:1065FC00074620B90027384602B0BDE8F08116B92D
:10660C00C8F80040F7E7224631462846FFF79AFFC4
:10661C000028F5D1EEE7012370B50022C3604FF0DE
:10662C00FF330446C27100F12406806280F82420F6
:10663C00C362C0F8340280F83022C0F838320D46FC
:10664C00B9B1042901D9002070BD11463046FFF7BD
:10665C0019FF0028F7D000EB051393F8AE315B0659
:10666C00F1D105F11B0100EB0111D1F80650002D01
:10667C00E9D0002229463046FFF704FF0028E2D07B
:10668C00B0F80B30B3F5007FDDD1037C022BDAD1EF
:10669C00C389002BD7D0417B21714B1E6371002322
:1066AC00A37109260123994207D0013ECBD0A279D0
:1066BC005B000132DBB2A271F5E7C18A01B9416A14
:1066CC002161C3892B44A361B0F81120228103EB13
:1066DC0041032362B0F81110490101F2FF1103EBE1
:1066EC0051236361B0F8132002B9026AE91AA37945
:1066FC001144D9404B1CE36140F6F473994202D823
:10670C000C23E3719FE74FF6F473994285BFC36A7C
:10671C00236210232023E371012095E770B50E4E00
:10672C000D46144601F088F93368C01A0B4B984299
:10673C0008D901F089F90A4B186001F01FFC01F02F
:10674C007BF9306001F080F980B2401BA042D4BFCD
:10675C000020012070BD00BFF4E50320A0860100DD
:10676C00B4E7032038B5057A04464DB9406800F00B
:10677C006BFA63682946187D03F007FE0123237228
:10678C0038BD10B5037A04466BB143680121187DFE
:10679C0003F0FBFD6068FF2100F088FA606800F0F0
:1067AC0067FA0023237210BDF8B504460D46164651
:1067BC0001F04AF987B2606800F05DFAFF28607258
:1067CC000ED14FF47A7239462046FFF7A7FF002806
:1067DC00F1D0552320462370FFF7D3FF0020F8BDDE
:1067EC00FE2801D05023F5E760683246294600F0B8
:1067FC0047FA607208B16023ECE7606800F03BFA7E
:10680C00606800F038FA0120E9E770B504460E46DE
:10681C0001F01AF985B2324629462046FFF77EFF71
:10682C0030B9606800F027FAFF28F4D1012070BD60
:10683C000020FCE7F7B5037A019204460D460BB92C
:10684C00FFF790FF25B14FF496712046FFF7DDFF5F
:10685C00606845F0400100F029FA032601AFB95DEC
:10686C00606800F023FA013EF9D2002D60680CBF7D
:10687C009521872100F01AFA606800F0FCF90B25CD
:10688C00606800F0F8F90306607203D5013D15F05D
:10689C00FF05F5D103B0F0BD70B504460D461646A4
:1068AC0037210022FFF7C6FF324629462046BDE8B5
:1068BC007040FFF7BFBF00002DE9F04100250572C5
:1068CC00057085724160044690461E4601F0BCF886
:1068DC0041460746606800F0BBF96368494A1D727F
:1068EC000125DA601D822046FFF73CFF63682946CC
:1068FC00187D03F04AFD0A256068FF21013D00F078
:10690C00D5F915F0FF05F7D163682946187D03F01A
:10691C003CFD0A25002211462046FFF78BFF01287B
:10692C00804618D0013D15F0FF0507D120232046E5
:10693C002370FFF726FF0020BDE8F0816068FD2181
:10694C0000F0B4F94FF40278606800F094F9B8F1F3
:10695C000108F9D1DEE74FF4D57208212046FFF784
:10696C0069FF052814D184F80A800025BFB22A4695
:10697C0029212046FFF790FF0246D8B14FF4FA6266
:10698C0039462046FFF7CAFE0028F0D04323CEE755
:10699C000425606800F06FF9013D15F0FF05607289
:1069AC00F7D1AA2804D10223A3724FF08045DDE76A
:1069BC002523BCE7A37A022B18D13A212046FFF7F6
:1069CC0039FF08B13723B2E7606800F054F900F0E2
:1069DC00C000C02804BF0323A372606800F04BF909
:1069EC00606800F048F9606800F045F92046FFF750
:1069FC00C8FE63683079B168B2891A821872D9609E
:106A0C00012099E790D0030038B5837A032B18BF87
:106A1C00490215460A4611210446FFF70BFF30B117
:106A2C00302323702046FFF7ACFE00250BE02946EF
:106A3C004FF400722046FFF7B7FE05460028F1D050
:106A4C002046FFF79EFE284638BD10B5837A032BEF
:106A5C000A4618BF4A0212210446FFF7EBFE30B17A
:106A6C00312320462370FFF78CFE002010BD01203F
:106A7C00FCE710B500220C210446FFF7DBFE30B119
:106A8C00282320462370FFF77CFE002010BD2046F3
:106A9C00FFF777FE0120F9E7F8B5044616461F46C6
:106AAC00FFF7D3FF68B10025ABB29F4206EB45213F
:106ABC0009D94FF400722046FFF776FE0135002805
:106ACC00F2D10020F8BD2046BDE8F840FFF7D1BF59
:106ADC0038B504461546406800F0E8F84FF40072EB
:106AEC006068294600F0E6F86068FF2100F0DEF8E7
:106AFC006068FF2100F0DAF8606800F0BCF86072A2
:106B0C0000F01F00052806D0572320462370FFF7FE
:106B1C0038FE002038BD0120FCE770B5837A032BCA
:106B2C0018BF490215460A4618210446FFF782FE93
:106B3C00064630B1322323702046FFF722FE002593
:106B4C001FE02A46FE212046FFF7C2FF0028F3D0A3
:106B5C004FF4FA612046FFF758FE054608B95A2350
:106B6C00E9E732460D212046FFF764FE08B12923E0
:106B7C00E1E7606800F07FF80028F8D12046FFF7C5
:106B8C0000FE284670BD13B501914FF4FA6104461E
:106B9C00FFF73BFE019A30B95B2323702046FFF7C9
:106BAC00F0FD002005E0FC212046FFF791FF0028B6
:106BBC00F4D002B010BD10B5837A032B0A4618BF6F
:106BCC004A0219210446FFF735FE30B13323204623
:106BDC002370FFF7D6FD002010BD0120FCE738B56F
:106BEC004FF4FA610446FFF710FE054630B9562300
:106BFC0023702046FFF7C5FD284638BD6068FD218F
:106C0C0000F054F8F5E7F8B5044616461F46FFF7B2
:106C1C00D2FF70B10025BD4206EB4521204604D0C1
:106C2C00FFF7B1FF28B10135F5E7BDE8F840FFF7F4
:106C3C00D6BF2046FFF7A5FD0020F8BD014B012271
:106C4C001A707047F8E50320011D006801F056BA70
:106C5C0010B504460175006801F026FA207D01216B
:106C6C0003F082FB207D0121BDE8104003F08DBBB9
:106C7C00006801F02ABA0068FF2101F0ADBA0000EB
:106C8C0037B51346074A00920025074C006825705B
:106C9C000A46294601F0A6FA2378002BFCD00020E6
:106CAC0003B030BD496C0D00F8E50320006801F01D
:106CBC0093BA000037B51346064A00920025064CDD
:106CCC00006825702A4601F08DFA2378002BFCD041
:106CDC0003B030BD496C0D00F8E5032013B500235B
:106CEC008DF8043001AA01234E21044600F055FE14
:106CFC00F923ADF8043001AA02234F21204600F0FD
:106D0C004CFE02B010BD0A4611B9242100F02DBE74
:106D1C00012902D100222621F8E70020704700004B
:106D2C00F0B585B004469DF934C09DF93070CDE9BD
:106D3C00027C9DF92CC0CDF804C09DF928C0CDF87B
:106D4C0000C016460D4600F0ADFB174B236016F045
:106D5C00070307D0724202F0070258BF5342C3F137
:106D6C0008031E44754348BF0735C5F3CF01002FF8
:106D7C004FEAE500E18521860CDB012384F84C30D9
:106D8C000023C4E90D33A4F84430A4F8461020467F
:106D9C0005B0F0BD80B201F009F96063208E01F0FE
:106DAC0005F9A063F3E700BFACBC0D0010B590F97A
:106DBC002530002B044609DB94F9250080B203F042
:106DCC00FDFA48B10A2002F0BDFDF5E7BDE8104020
:106DDC004FF4FA7002F0B6BD10BD13B5C7230446CC
:106DEC008DF8043001AA0123222100F0D6FD0122E6
:106DFC002021204600F0B9FD2046FFF7D7FF94F97B
:106E0C002530002B03DA4FF47A7002F09BFD02B0B0
:106E1C0010BD00002DE9F341044600F089FB64200D
:106E2C0002F090FD2046FFF7C1FF012212212046FF
:106E3C0000F09BFD2046FFF7B9FF54238DF800307E
:106E4C006A4620460123742100F0A7FD4FF03B0851
:106E5C006A46204601237E218DF8008000F09DFDBE
:106E6C004FF4FD73ADF8003000266A46204603232C
:106E7C00012103258DF8026000F08FFD6A46204643
:106E8C00012311218DF8005000F087FD4FF4706341
:106E9C00ADF800306A4620460223442100F07DFD07
:106EAC004FF4790300936A4620460423452100F0F1
:106EBC0074FD6A46204601233C218DF8005000F0F9
:106ECC006CFD70238DF800306A46204601232C217E
:106EDC0000F063FD15238DF800306A4629462046E4
:106EEC00012300F05AFD4AF64103ADF80030322779
:106EFC002B466A46204604218DF8027000F04DFDA9
:106F0C0030238DF800306A46204601233A2100F0E8
:106F1C0044FD0A238DF800306A4641462046012381
:106F2C0000F03BFD394620460D4A462300F035FD66
:106F3C006A46204601234E218DF8006000F02DFD9D
:106F4C00F923ADF800306A4602234F21204600F0A9
:106F5C0024FD2046FFF72AFF02B0BDE8F08100BFF8
:106F6C0057BC0D0013B590F92330002B04460BDBF6
:106F7C00012301AA10218DF8043000F00EFD6420CD
:106F8C0002F0E0FC02B010BD0122122100F0EDFC79
:106F9C002046FFF70BFFF5E710B5044600F074FB35
:106FAC0020460122002100F0EBFA204601220021AC
:106FBC0000F0FEFA236820461B6EBDE8104018470F
:106FCC00012241700270704707B50190FEF748FD31
:106FDC00019903B05DF804EB01F0FEB810B504465E
:106FEC00FEF73EFD01F071F894F901000121BDE8B6
:106FFC00104080B203F0C9B930B585B00B4B00938B
:10700C000B4B0293044601230025ADF80C308DF890
:10701C000450FEF725FD694601F070F894F9010063
:10702C00294680B203F0B1F905B030BD10B60D00A1
:10703C0000093D0070B5044690F90100012180B2B1
:10704C0003F092F92046FFF7C9FF23789BB1FEF7B6
:10705C0007FD01F029F82046FFF7CEFF0325237822
:10706C00CBB1FF20FFF7B0FF013DF8D12046BDE8C2
:10707C007040FFF7B3BF94F90200012180B203F016
:10708C0073F994F90400012180B203F06DF92378AF
:10709C00002BE0D0DBE7082694F90400002180B235
:1070AC0003F073F994F90200012180B203F06DF939
:1070BC0094F90400012180B203F067F9013EEBD191
:1070CC00D2E72DE9F04F85B00D469DF838B001920E
:1070DC001E460446FFF790FF2B128DF80CB08DF86E
:1070EC000D308DF80E500DF10C0A002723781AF88C
:1070FC00019B9BB14846FFF767FFBBF1020F02D122
:10710C000137032FF2D10025AE4225DD23781BB1C8
:10711C00019B585DFFF758FF0135F5E74FF0080864
:10712C00802594F90400002180B203F02EF994F923
:10713C00020019EA050118BF012180B203F025F9FC
:10714C0094F90400012180B203F01FF9B8F1010891
:10715C004FEA5505E5D1D0E7204605B0BDE8F04F24
:10716C00FFF73CBF1FB58DF80F2000930DF10F02F8
:10717C000123FFF7A6FF05B05DF804FB2DE9F04FE6
:10718C0085B00E469DF838B0019304461546FFF7BE
:10719C0033FF33128DF80CB08DF80D308DF80E6076
:1071AC000DF10C0A002723781AF8019BABB1484665
:1071BC00FFF70AFFBBF1030F02D10137032FF2D106
:1071CC00019B2B449846A8453FD023781BB3002045
:1071DC00FFF7FAFE28700135F5E74FF00808802616
:1071EC0094F90400002180B203F0CFF894F9020066
:1071FC0019EA060118BF012180B203F0C6F894F910
:10720C000400012180B203F0C0F8B8F101084FEA84
:10721C005606E5D1CEE7082794F90400002180B288
:10722C0003F0B3F894F90400012180B203F0ADF837
:10723C0094F903002E7880B203F0C0F8760076B291
:10724C003043013F2870E7D1C5E7204605B0BDE8C3
:10725C00F04FFFF7C3BE1FB5012300920DF10F02D3
:10726C00FFF78CFF9DF80F0005B05DF804FB2DE9CE
:10727C00F74F0E461D4604469046FFF7BDFE02230F
:10728C008DF8043033128DF805308DF806600DF151
:10729C00040B002723781BF801AB7BB15046FFF79A
:1072AC0093FE0137032FF5D10027B84542D0237840
:1072BC0013B32846FFF788FE0137F6E74FF00809AD
:1072CC00802694F90400002180B203F05EF894F952
:1072DC0002001AEA060118BF012180B203F055F82A
:1072EC0094F90400012180B203F04FF8B9F10109BF
:1072FC004FEA5606E5D1D4E74FF00809802694F9F9
:10730C000400002180B203F040F894F9020015EA61
:10731C00060118BF012180B203F037F894F904007C
:10732C00012180B203F031F8B9F101094FEA560698
:10733C00E5D1C1E7204603B0BDE8F04FFFF74EBEE4
:10734C002DE9F7430F1E054614469946C0F2A68058
:10735C00FEF704FAB84240F3A180002CC0F29E80E4
:10736C002846FEF7FEF9A04240F39880B5F80A8053
:10737C0018F0070F1CBF28F0070808F1080828466A
:10738C0018BF1FFA88F8FEF7E7F9022831D0032856
:10739C0037D0012804D12A89E44322443C4617B251
:1073AC00B5F9086095F84C30013EF61B08FB064613
:1073BC00A9F10307F008BFB2C6F3CF0633B3012F10
:1073CC0094BFB5F84810B5F84A100E44B6B2032273
:1073DC00314605F12700FFF73EFF012F8DF807001E
:1073EC000DF1070017D9B9F1000F45D195F82C30E4
:1073FC0013E02989E4430139CF1B44443FB224B242
:10740C00CEE7F943414427460CB2C9E7012F80B2BD
:10741C0014D8EB6B184495F82D3093B1634203F0FC
:10742C00070304F0070458BF5C42C4F107040123AE
:10743C00A340047824EA0304047010E02B6C184475
:10744C00D1E7634203F0070304F0070458BF5C4222
:10745C000278C4F107040123A3401343037095F889
:10746C004C30DBB102780223314605F1270003B022
:10747C00BDE8F043FFF776BEB9F1020FEFD16342DE
:10748C0003F0070304F0070458BF5C42C4F107047F
:10749C00012303FA04F403785C40CDE703B0BDE8A4
:1074AC00F083000070B512B2044609B29DF9185071
:1074BC001E46FDF705FF2046134B40F8273B294697
:1074CC00FFF77EFD9DF9143084F824309DF91030BF
:1074DC0084F823309DF91C3084F82530ED430123CA
:1074EC00ED0F84F84D300023C4E90D33C4E90F339C
:1074FC00C4E9113384F8226084F84C5084F82630A7
:10750C002386E385204670BD18BD0D0010B5074BD2
:10751C0003600446406B18B100F050FD0023636318
:10752C00A06B08B100F04AFD204610BD18BD0D003F
:10753C0010B5044690F92300002820DB012180B20D
:10754C0002F012FF94F92300012180B202F01DFF1A
:10755C000A2002F0F7F994F92300002180B202F01E
:10756C0014FF0A2002F0EEF994F92300012180B2F5
:10757C0002F00BFFBDE810400A2002F0E3B910BD89
:10758C0061B990F84C3033B1B0F84430A0F84A30BF
:10759C0080F82C207047436B0364F9E70129F7D17D
:1075AC0090F84C3013B1B0F84630EFE7836BF3E74B
:1075BC0061B990F84C3033B1B0F84430A0F8483091
:1075CC0080F82D207047436BC363F9E70129F7D18D
:1075DC0090F84C3013B1B0F84630EFE7836BF3E71B
:1075EC0010B590F84C300446C3B1C28D42B194F83A
:1075FC002C30B4F84410273003B1FF23FFF737FECB
:10760C00228EFAB194F82D30B4F8461004F127000C
:10761C0003B1FF23BDE81040FFF729BE406B30B12A
:10762C0094F82C10E28D01B1FF2103F08BFDA06BBF
:10763C0040B194F82D10228E01B1FF21BDE810400D
:10764C0003F080BD10BD90F92200012180B202F040
:10765C009CBE90F92200002180B202F096BE000080
:10766C0010B50446FEF7FCF900F02FFD054B94F91C
:10767C00240000221A70BDE81040012180B202F0F3
:10768C0084BE00BFF9E5032037B501220D46002169
:10769C000446FFF775FF00220121FFF789FF90F8E0
:1076AC004C304BB127300190FFF7C4FC01980123FB
:1076BC0040220021FFF756FD94F92200012180B2EF
:1076CC0002F052FE94F92400012180B202F04CFE2B
:1076DC002046FFF7C5FF94F84D30D3B994F920003C
:1076EC00012180B202F040FE94F92100012180B208
:1076FC0002F03AFE15B12046FFF71AFF94F9250067
:10770C0000280BDB002180B203B0BDE8304002F052
:10771C002BBEFEF7A5F900F0C7FCEBE703B030BDBC
:10772C007FB50D4D2B78044673B90C4A8DF8043097
:10773C0001260B4B00920293ADF80C60FEF790F90A
:10774C00694600F0DBFC2E7094F92400002180B215
:10775C0002F01BFE04B070BDF9E5032010B60D005D
:10776C0000093D00F8B590F84D3005460E46B3B112
:10777C0090F8263063B1FFF7D3FFFEF771F931466D
:10778C0000F02AFD04462846FFF76AFF2046F8BDA4
:10779C00FEF766F93146BDE8F84000F01DBD08243F
:1077AC00802795F92100002180B202F0EEFD95F9B9
:1077BC00200016EA070118BF012180B202F0E5FD96
:1077CC0095F92100012180B202F0DFFD013C4FEA66
:1077DC005707E6D1DAE72DE9F041036804469B6DC3
:1077EC009847236800225B6D11462046984794F811
:1077FC004C50B5B304F127073846FFF7FDFB0321C6
:10780C002046FFF7AFFFB4F844102046090AFFF7F3
:10781C00A9FF94F844102046FFF7A4FF2368002129
:10782C001B6D2046984705462046FFF70CFF0026A7
:10783C00E28DB3B29A4206D929462046FFF792FF51
:10784C0001360546F4E72046FFF70AFF3846FFF7F6
:10785C00C5FB238EE3B92368DB6D2046BDE8F04100
:10786C001847236829461B6D204698472046FFF78A
:10787C00EAFEE28DABB29A4206D9626B2046D15C2D
:10788C00FFF770FF0135F4E72046FFF7E9FEE0E76C
:10789C00022002F057F8236800225B6D1146204647
:1078AC00984794F84C50ADB304F127073846FFF7CE
:1078BC00A3FB03212046FFF755FFB4F846102046E2
:1078CC00090AFFF74FFF94F846102046FFF74AFFCE
:1078DC00236801211B6D2046984705462046FFF77B
:1078EC00B2FE0026228EB3B29A4206D92946204611
:1078FC00FFF738FF01360546F4E72046FFF7B0FEE8
:10790C003846FFF76BFB23682046DB6D98472368EE
:10791C001B6EA2E7236801211B6D20469847204669
:10792C00FFF791FE228EABB29A4206D9A26B20468B
:10793C00D15CFFF717FF0135F4E72046FFF790FE07
:10794C00E1E770B50C4615460646FFF77CFE25446C
:10795C00AC4205D014F8011B3046FFF703FFF7E7E4
:10796C003046BDE87040FFF77BBE73B5044601910D
:10797C001646FFF775FE2046FFF76BFE2046FFF715
:10798C00CFFE01992046FFF7EDFE054616B12046C5
:10799C00FFF766FE284602B070BD70B5044615466A
:1079AC001E460022FFF7E1FF324629462046BDE87D
:1079BC007040FFF7C6BF000008B5024B1B689B6800
:1079CC00019308BD6802030008B5024B1B68DB6815
:1079DC00019308BD6802030008B5024B1B689B6845
:1079EC00019308BD2C02030008B5024B1B68DB6831
:1079FC00019308BD2C02030008B5024B1B681B69E0
:107A0C00019308BD2C02030008B5024B1B685B698F
:107A1C00019308BD2C02030008B5024B1B685B6880
:107A2C00019308BD1802030008B5024B1B68DB6804
:107A3C00019308BD1802030008B5024B1B681B69B3
:107A4C00019308BD1802030008B5024B1B685B6963
:107A5C00019308BD1802030008B5024B1B689B6A12
:107A6C00019308BD1802030008B5024B1B685B6C40
:107A7C00019308BD1802030008B5024B1B689B6CF0
:107A8C00019308BD1802030008B5024B1B689B68E4
:107A9C00019308BD7802030008B5024B1B681B6DEF
:107AAC00019308BD7802030008B5024B1B689B6D5F
:107ABC00019308BD7802030008B5024B1B681B6ECE
:107ACC00019308BD7802030008B5034B1B68D3F87B
:107ADC009830019308BD00007802030008B5034BF1
:107AEC001B68D3F8A830019308BD0000780203008E
:107AFC0008B5034B1B68D3F8EC30019308BD0000AC
:107B0C007802030008B5034B1B68D3F8F0300193DF
:107B1C0008BD00007802030008B5024B1B685B6CC3
:107B2C00019308BD4802030008B5024B1B689B6C0F
:107B3C00019308BD4802030008B5024B1B68DB6CBF
:107B4C00019308BD4802030008B5024B1B685B6D2E
:107B5C00019308BD4802030008B5024B1B685B6922
:107B6C00019308BD6402030008B5024B1B681B6837
:107B7C00019308BD3C02030008B5024B1B68DB688F
:107B8C00019308BD3C02030008B5024B1B681B693E
:107B9C00019308BD3C02030008B5024B1B685B69EE
:107BAC00019308BD3C02030008B5024B1B689B699E
:107BBC00019308BD3C02030008B5024B1B68DB694E
:107BCC00019308BD3C02030008B5024B1B681B6AFD
:107BDC00019308BD3C02030008B5024B1B689B6A6D
:107BEC00019308BD3C02030008B5024B1B68DB681F
:107BFC00019308BD2802030008B5024B1B689B6962
:107C0C00019308BD2802030008B5024B1B68DB6911
:107C1C00019308BD2802030008B5024B1B681B6AC0
:107C2C00019308BD2802030008B5024B1B685B6A70
:107C3C00019308BD2802030008B5024B1B689B6A20
:107C4C00019308BD2802030008B5024B1B68DB6AD0
:107C5C00019308BD2802030008B5024B1B681B6B7F
:107C6C00019308BD2802030008B5024B1B685B6B2F
:107C7C00019308BD2802030008B5024B1B681B6C5E
:107C8C00019308BD2802030008B5024B1B689B6CCE
:107C9C00019308BD2802030008B5024B1B68DB6C7E
:107CAC00019308BD2802030008B5024B1B681B6D2D
:107CBC00019308BD2802030008B5024B1B681B6822
:107CCC00019308BD3002030008B5024B1B685B69C9
:107CDC00019308BD3002030008B5024B1B68DB6939
:107CEC00019308BD3002030008B5024B1B681B6AE8
:107CFC00019308BD3002030008B5024B1B685B6A98
:107D0C00019308BD3002030008B5024B1B689B6A47
:107D1C00019308BD3002030008B5024B1B689B6B36
:107D2C00019308BD3002030008B5024B1B68DB6BE6
:107D3C00019308BD3002030008B5024B1B681B6C95
:107D4C00019308BD3002030008B5024B1B685B6C45
:107D5C00019308BD3002030008B5024B1B685B6C35
:107D6C00019308BD7402030008B5034B1B68D3F8DC
:107D7C008830019308BD00007402030008B5034B62
:107D8C001B68D3F89030019308BD00007402030007
:107D9C0008B5024B1B685B68019308BD58020300D1
:107DAC0008B5024B1B681B68019308BD4C0203000D
:107DBC0008B5024B1B685B68019308BD4C020300BD
:107DCC0008B5024B1B681B69019308BD4C020300EC
:107DDC0008B5024B1B685B69019308BD4C0203009C
:107DEC0008B5024B1B689B69019308BD4C0203004C
:107DFC0008B5024B1B68DB69019308BD4C020300FC
:107E0C0008B5024B1B681B6A019308BD4C020300AA
:107E1C0008B5024B1B685B6B019308BD6002030045
:107E2C0008B5024B1B681B6D019308BD6002030073
:107E3C0008B5034B1B68D3F89830019308BD0000BC
:107E4C006002030008B5024B1B685B68019308BD18
:107E5C002002030008B5024B1B685B69019308BD47
:107E6C002002030008B5024B1B68DB6A019308BDB6
:107E7C002002030008B5034B1B68D3F8883001932C
:107E8C0008BD00002002030008B5034B1B68D3F8A3
:107E9C009430019308BD00002002030008B5024B8A
:107EAC001B685B68019308BD4002030008B5024BD8
:107EBC001B689B68019308BD4002030008B5024B88
:107ECC001B68DB68019308BD4002030008B5024B38
:107EDC001B681B69019308BD4002030008B5024BE7
:107EEC001B685B69019308BD4002030008B5024B97
:107EFC001B689B69019308BD4002030008B5024B47
:107F0C001B68DB69019308BD4002030008B5024BF6
:107F1C001B681B6A019308BD4002030008B5024BA5
:107F2C001B681B6B019308BD4002030008B5024B94
:107F3C001B685B6B019308BD4002030008B5024B44
:107F4C001B681B6C019308BD4002030008B5024B73
:107F5C001B685B6C019308BD4002030008B5024B23
:107F6C001B681B68019308BD4402030008B5024B53
:107F7C001B685B68019308BD4402030008B5024B03
:107F8C001B689B68019308BD4402030008B5024BB3
:107F9C001B68DB69019308BD4402030008B5024B62
:107FAC001B68DB6B019308BD4402030008B5024B50
:107FBC001B681B68019308BD1C02030008B5024B2B
:107FCC001B685B68019308BD1C02030008B5024BDB
:107FDC001B689B68019308BD1C02030008B5024B8B
:107FEC001B685B6A019308BD1C02030008B5024BB9
:107FFC001B68DB6A019308BD1C02030008B5024B29
:10800C001B685B6C019308BD1C02030000224068D6
:10801C001146FFF77BBF002240681146FFF786BF71
:10802C0040680022FFF77ABF4068002281F001010E
:10803C00FFF764BF002340681A461946FFF756BF86
:10804C00002340681A461946FFF748BF00224068D3
:10805C001146FFF73BBF002240681146FFF726BFD1
:10806C00406800220221FFF729BF002340681A460E
:10807C00FFF714BF024B03225A60024A1A60704782
:10808C00FCE5032084BD0D000021FFF755BE002147
:10809C00FFF75ABE10B5044608462170FFF71CFEC8
:1080AC0000236360204610BD10B504460078FFF72E
:1080BC00EBFF48B920784FF6FF71FFF7FDFD2078F4
:1080CC00BDE81040FFF7E3BF10BD0078FFF7DFBF3E
:1080DC00400830B51860002418688842E5B206D90B
:1080EC000134082C02D040081860F5E70725024B34
:1080FC005B5D137030BD00BFB8BD0D002DE9F043C2
:10810C0006468FB000780C46FFF7BEFF00281BDB3D
:10811C0035781422002109A803F014F80B2300224F
:10812C0009A92846ADF82430FFF7E6FD9DF82D305F
:10813C0013B19DF82C5055B10027B946B84601250E
:10814C0023795DB1C3B100200FB0BDE8F083DDF839
:10815C0030809DF834909DF83570F1E7002B35D1C7
:10816C00A368434508D18DF820908DF82170BDF897
:10817C002020A3899A42E6D00023A1688DF80F3005
:10818C000A9804AB0DF10F02FFF7A2FF217985B914
:10819C0089B9A36843450ED38DF820908DF82170D2
:1081AC00BDF82020A3899A4205D1049B434502D1F6
:1081BC00C9E70029F9D100230193637B00939DF853
:1081CC000F20237B3078FFF7AFFDBCE7CDE90055DE
:1081DC002B462A460121F5E708B50078FFF774FD18
:1081EC00C0B208BD30B587B004460A9D0095007832
:1081FC00FFF78AFD3DB9207802A9FFF78DFD9DF8A8
:10820C001430DB07F7D407B030BD000010B5094BB4
:10821C00094C022200201A60084B2060A080A0713B
:10822C00A360FFF70FFE2046054A0649BDE8104043
:10823C0002F06EB910E6032004E603200000FFFFF5
:10824C0048DE032065410D0010B504460068FFF7B9
:10825C00B5FE204610BD10B50446006808B1FFF706
:10826C00ADFE0023C4E90133236010BD38B50446CC
:10827C000D4600680131FFF7A9FE10B1C4E90005F5
:10828C00012038BD10B50368044623B143688B4206
:10829C0001D3012010BD2046FFF7E8FF0028F9D0DC
:1082AC00A368002BF5D122681370F2E737B50D46A1
:1082BC00114601920446FFF7E5FF019A28B92046C2
:1082CC00FFF7C9FF204603B030BDA26029462068E5
:1082DC0002F010FF2268A3680021D154F2E70023BA
:1082EC0013B5C0E9003304468360037341B10846FB
:1082FC00019102F065FF019902462046FFF7D6FF77
:10830C00204602B010BD38B5054600680C4668B171
:10831C006A688B689A4207D3096802F049FFA36820
:10832C00AB600023A36038BDFFF748FE23682B60C9
:10833C0063686B60A368AB600023C4E90033F1E7AA
:10834C00884210B5044605D00B682BB18A681946D3
:10835C00FFF7ACFF204610BDFFF77DFFFAE710B525
:10836C0000230446C0E9003383600373FFF7E8FF82
:10837C00204610BD884210B5044601D0FFF7C3FF5C
:10838C00204610BD13B5044659B10846019102F0C0
:10839C0017FF019902462046FFF788FF204602B0DE
:1083AC0010BDFFF758FFF9E770B505460E4609B941
:1083BC00002070BD6AB1846814442146FFF762FF47
:1083CC000028F5D02868AB683146184402F0F0FE5E
:1083DC00AC600120EDE710B58A6809680446FFF728
:1083EC00E3FF10B92046FFF736FF204610BD13B54A
:1083FC00044629B92046FFF72EFF204602B010BDD7
:10840C000846019102F0DCFE019902462046FFF776
:10841C00CBFF0028EED0F0E758B50E462AB121B1BB
:10842C008468A34202D300230B7058BDE41A013AAE
:10843C000168944228BF144619442246304602F083
:10844C00C7FE00233355F0E7006808B102F032BED6
:10845C00704770477047704770470000064B994251
:10846C0010B500F10C0405D0084602F05DF80028A8
:10847C0008BF0024204610BD08BF0D00064B9942D2
:10848C0010B500F10C0405D0084602F04DF8002898
:10849C0008BF0024204610BD08BF0D00064B9942B2
:1084AC0010B500F10C0405D0084602F03DF8002888
:1084BC0008BF0024204610BD08BF0D0010B5682170
:1084CC00044602F02AF8204610BD10B528210446B7
:1084DC0002F023F8204610BD10B53021044602F0FE
:1084EC001CF8204610BDFBF7D2BDFBF7D0BDFBF747
:1084FC00CEBD10B5036804469B689847A368013B42
:10850C00A3602BB923682046DB68BDE810401847F0
:10851C0010BD10B50446006808B1FFF705FB2046F6
:10852C0010BD000010B5044B04461868FFF704FB9F
:10853C000123237010BD00BF1CE6032010B5044BB3
:10854C0004461868FFF700FB0023237010BD00BF22
:10855C001CE60320F0B50025EC1C8C420DD86E1CDB
:10856C00445D875D974205D12644B14205D31D6019
:10857C00601CF0BD01342544EEE70020F9E72DE93D
:10858C00F34704469DF828701E46894601AB904679
:10859C000A46016AFFF7DEFF256AB31C17BB08B356
:1085AC005F193F1A1F2F19D8DDF8049009F1020A40
:1085BC00A5EB0902121A00EB090106EB0A0092B2B4
:1085CC002144204402F0A4FD731C04F80930324607
:1085DC00414604EB0A0002F08DFD2762206A02B0CE
:1085EC00BDE8F0872B441F2BF8D8731C6355A81CCF
:1085FC0025442062324685F801904146204402F021
:10860C0079FD236A33442362E8E70000024A002123
:10861C000A20FFF7FDBB00BF357A0D00022A38B5E2
:10862C00044607D0032A11D0012A01D10B6823601C
:10863C00002038BD08200D68FBF725FD03460028F7
:10864C00F5D095E8030083E80300F0E70068002804
:10865C00EED0082101F061FFEAE730B40D46114677
:10866C001A46036809682868D3E90043A44630BC5D
:10867C00604710B58368044613B10322014698473E
:10868C00204610BD10B504465830FFF7F2FF04F138
:10869C004800BDE81040FFF7D7BDA0F13003DAB2B7
:1086AC00092A01D818467047A0F16103052B01D89F
:1086BC0057387047A0F14103052B94BF37384FF062
:1086CC00FF30704710B5002304460370FFF72AFFF4
:1086DC00204610BD10B5037804460BB1FFF72EFFF2
:1086EC00204610BD82B00346086849686A4603C23A
:1086FC006A4603CA18601846596002B0704708B53C
:10870C0082798B799A4206D1062202F0E5FCB0FA06
:10871C0080F0400908BD0020FCE74FF0FF330360F8
:10872C00838000207047002108B50160416002463B
:10873C00FFF7F3FF9171104608BD000001220261A2
:10874C00064A11680160516841601189927A8272FF
:10875C0000220181C0F80B20C273704710BF0D00BE
:10876C0010B50B69036101F11002034651F8044B7B
:10877C0043F8044B9142F9D110BD10B50B46044699
:10878C00B1B1012A01F110020AD1014653F8040BD0
:10879C0041F8040B9342F9D101232361204610BD0B
:1087AC00411E12F8010D01F8010F9A42F9D1F3E7BD
:1087BC00102202F0C7FCF1E738B5044615461A46FC
:1087CC00FFF7DBFFA581204638BD000008B5026924
:1087DC0022B98089003818BF012008BD0249102237
:1087EC0002F07AFCF6E700BF30BF0D00006970475D
:1087FC0038B50C4614220021054602F0A3FC23696F
:10880C003BB9627B2B74237B43EA02232B802846E3
:10881C0038BD01232B7404F110022B4654F8041BB1
:10882C0043F8041B9442F9D1F1E7427B007B40EA08
:10883C0002207047704708B502690B699A4206D14D
:10884C00102202F049FCB0FA80F0400908BD00206B
:10885C00FCE7000001232DE9F3410361324B1A6858
:10886C0002605A68426000251A899B7A028104468C
:10887C008372C0F80B50C5730E4621B324213046C9
:10888C0002F0B9FC042821D1ADF8045001AFB51C9D
:10889C00063615F8020CFFF700FFB0F1000810DBEC
:1088AC0015F8010CFFF7F9FE00280ADB023540EA47
:1088BC000810AE4207F8010BEBD1BDF804305BBADF
:1088CC00A3810023236102B0BDE8F081102724218D
:1088DC00304602F090FCA84206D827440023BC4244
:1088EC00F1D007F8013DFAE7002FECD0705DFFF7EF
:1088FC00D4FE030615D40001013F5FFA80F804F89A
:10890C0007802421304602F076FC0135A84208D9B4
:10891C00705DFFF7C2FE40B20028A4BF40EA080019
:10892C00E0550135D3E700BF10BF0D0013B5044669
:10893C000191FFF703FF20460199FFF78BFF2046BB
:10894C0002B010BD30B49DF8085012B9006A30BCAA
:10895C007047029530BCFFF712BE1FB504460246A5
:10896C0000F11F01002302F8013B9142FBD123626D
:10897C000093062201238DF80F2019460DF10F02EA
:10898C002046FFF7DFFF204604B010BD1FB50A4696
:10899C00044614211046039202F02DFC00210346DC
:1089AC000091039A09212046FFF7CCFF04B010BDBB
:1089BC000968FFF7EBBF07B5009313460A46FF2182
:1089CC00FFF7C0FF03B05DF804FB73B50A460E4613
:1089DC0001AB016A0446FFF7BDFD054678B101986D
:1089EC00226A4119121A2144521B204402F082FBC4
:1089FC00206A401B206231462046FFF7E6FF02B09A
:108A0C0070BD000038B54FF6FF7300250446438057
:108A1C000E22294605700571063002F093FB04F115
:108A2C001400FFF78BFE04F12800FFF787FE0449C2
:108A3C0004F13C00FFF753FC6565204638BD00BFD0
:108A4C009BB30D0010B5D0E9063203EBC202934282
:108A5C00184606D0046824888C4203F10803F6D12A
:108A6C0010BD0020FCE700002DE9F0410026066057
:108A7C00074628200C46FBF706FB051E05F10C08E3
:108A8C000FD00123C5E90133084B2B604046FFF79B
:108A9C0055FE0FCC2E6285F8246046460FC623681F
:108AAC003360C7E900853846BDE8F081D8BE0D00BB
:108ABC0070B50025056006463020FBF7E4FA044645
:108ACC0088B10123C0E90133094B03604FF6FF73F2
:108ADC0083810E30FFF727FEC4E90655C4E908551B
:108AEC00C4E90A55A57574600C343460304670BD09
:108AFC00F4BE0D0037B50D46044601A8FFF7E2FDA4
:108B0C002A6852F8023F23605368636001A8FFF79C
:108B1C00E1FD204603B030BD30B5054687B00C46AC
:108B2C0001A8FFF7CFFD2A68236812881B889A4298
:108B3C000DD1294602A8FFF7DDFF214604A8FFF757
:108B4C00D9FF04A902A8FFF7DAFD044600B90024F6
:108B5C0001A8FFF7BFFD204607B030BD10B5044695
:108B6C005420FBF790FA014660B10023C0E90033B2
:108B7C00C0E90233C0E90433C0E906330362C362BF
:108B8C00C363C364216019B9094A0A20FFF740F98D
:108B9C000020FEF779FF20B1054A00210A20FFF7DB
:108BAC0037F9216803480022FEF7ACFF204610BDC0
:108BBC00357A0D004D8F0D0010B50B4C2378BFF39B
:108BCC005B8FDB070ED42046FBF76EFA50B10748DB
:108BDC00FFF7C4FF2046FBF76CFA054A054903482A
:108BEC0001F096FC014810BD14E6032020E603209A
:108BFC0048DE0320CD8D0D0030B50368093B012BF9
:108C0C008DB004460D4611D8FFF7D6FFA188006839
:108C1C00FFF718FF034658B92022CDE904200B4A70
:108C2C0000920B4904AA3220FFF7FAF80DB030BDC0
:108C3C006A6D002AFAD0D4E9032105F14C00CDE984
:108C4C000312AC6D04AA03A9A047EFE7E7BD0D0022
:108C5C00C0BD0D0008B50020FEF716FF00EAE0705D
:108C6C0008BD084611B90A46FEF716BF096A00226C
:108C7C00FAE707B5084629B90A4603B05DF804EBD4
:108C8C00FEF712BF01210190FFF79FFE0198002211
:108C9C00016AF2E738B504461546FFF7E2FF0028F3
:108CAC000ADB29462046FFF7E4FF002804DBBDE879
:108CBC0038400020FEF700BF38BD000038B5002357
:108CCC000446836008200D46FBF7DDF918B12B68CC
:108CDC0003606B684360034BE360034B2060A3604D
:108CEC00204638BD67860D0029860D000B68036091
:108CFC0013B15A6801325A60704710B551F8043BF1
:108D0C00044640F8043BFFF7F1FF23680BB9FFF76B
:108D1C007DFC204610BD10B551F8043B044640F8CC
:108D2C00043BFFF7E3FF204610BD10B551F8043BA0
:108D3C00044640F8043BFFF7D9FF204610BD10B5A0
:108D4C000446006828B14368013B43600BB9FFF748
:108D5C00D0FB204610BD10B504460430FFF7EFFFE2
:108D6C00204610BD70B5D0E90053044605EBC30690
:108D7C00AE4204D0281DFFF7E2FF0835F8E7206863
:108D8C00FFF71CF9204670BD70B5D0E900530446BE
:108D9C0005EBC306AE4204D0281DFFF7D0FF083503
:108DAC00F8E72068FFF70AF9204670BD10B50446B5
:108DBC002430FFF7E9FF04F11800FFF7D3FF10BDD3
:108DCC00F8B50468064624B304F14400FFF751FCDF
:108DDC0004F13400FFF74DFC04F12400FFF749FCCB
:108DEC00D4E9065305EBC307AF4204D0281DFFF7A7
:108DFC00A6FF0835F8E7A069FFF7E0F804F10C00CE
:108E0C00FFF7C2FF2046FFF7ADFF5421204601F0CB
:108E1C0084FB3046F8BD826810B50AB901F081FBBD
:108E2C00BDE81040C36818478842F8B504460D46A3
:108E3C00164614D9904213D2A2F10806751AA1F164
:108E4C0008072C44B74218D01CB131462046FFF716
:108E5C006CFF301DFFF773FF083E083CF2E70CD0A7
:108E6C00B5420AD01CB129462046FFF75EFF281DEB
:108E7C00FFF765FF08350834F2E7F8BD2DE9F0413E
:108E8C00D0E900430546884604EBC307A74203D14B
:108E9C0000263046BDE8F08141462046FFF73CFEF7
:108EAC00064608B90834F1E7002CF1D0201DFFF775
:108EBC0046FFD5E9003204F1080103EBC20220465B
:108ECC00FFF7B2FF6B68013B6B60E2E7F7B5044656
:108EDC0046686846FFF729FFD4E901739F4212DB0D
:108EEC000137002F29DDF800FFF760F80546F0B1D7
:108EFC00D4E9001201EBC202FFF796FF2068FFF7DE
:108F0C005DF82560A7602368626803EBC60603EB77
:108F1C00C202314606F10800FFF786FF1EB1694612
:108F2C003046FFF702FF636801336360012501A837
:108F3C00FFF705FF284603B0F0BD0025DEE7000073
:108F4C002DE9F04105468EB003A80C46FFF7BAFB9D
:108F5C002E68042E6BD007D8032E28D003A8FFF759
:108F6C00B9FB0EB0BDE8F081A6F10C03032BF5D8CC
:108F7C00A9892046FFF766FD07460028EED0E36C72
:108F8C00002BEBD01022002107A802F0DBF80D2EED
:108F9C0006978DF81C6040F092806B68099306234D
:108FAC000893236D06A904F144009847D6E704A85A
:108FBC00FFF77EFD049BAA891A8069680498083122
:108FCC000230FFF78FFB04A906A8FFF7AEFE06A937
:108FDC0004F11800FFF77AFF054607A8FFF7AFFE6C
:108FEC00202306938DB93E4B3E49009332202B46ED
:108FFC0006AA0795FEF714FF049B29461888FEF76E
:10900C0063FD05A8FFF79BFEA8E7374A00920023F3
:10901C003449079306AA0120FEF702FFE36A002BEE
:10902C00EFD004A904F12400FFF7F5FEE9E7A989C4
:10903C002046FFF707FD064600288FD00568D5E9C6
:10904C0006314FF6FF722A8003EBC101994203D01F
:10905C0053F8080B4280F9E7D5E9037307EBC30813
:10906C00B84504D0381DFFF76AFE0837F8E700232F
:10907C002B61D5E9067307EBC308B84504D0381D3E
:10908C00FFF75DFE0837F8E70023EB61AB72E36B8B
:10909C0023B1314604F13400FFF7BDFE002320223A
:1090AC00CDE90623114A00920E4906AA0120FEF7CB
:1090BC00B7FE314604F11800FFF7E0FE4EE70F2E25
:1090CC007FF46FAF6B6809932B7A03F00102C3F343
:1090DC0040038DF829308DF82820082360E700BF65
:1090EC00FFBD0D00C0BD0D0025BE0D0042BE0D0024
:1090FC0013B500230446D1E90002C1E9003323680B
:10910C00009320606368626001A80193FFF717FE6B
:10911C00204602B010BD13B50B460246D0E9000143
:10912C006C4684E8030093E8030082E8030094E8AB
:10913C00030083E8030002B010BD38B505460C46A9
:10914C00FFF7E9FFAB68A268AA60A360EB68E2686E
:10915C00EA60E36038BD1FB5002304460846694643
:10916C000293FFF7EAFF21466846FFF7E6FF6846E1
:10917C00FFF77FFA204604B010BD70B50E4688B0DC
:10918C00044601921D46FFF73DFC3378019923718B
:10919C0004F13C00FFF7F6F804F14C0685B10C9B8A
:1091AC00029502A904A80393FFF788FD04A9304691
:1091BC00FFF7D1FF04A8FFF75CFA204608B070BD9A
:1091CC000695F3E72DE9F04786B007461D46682063
:1091DC000023894692460493FAF755FF061E06F1C2
:1091EC000C081DD001233446C6E90133154B44F855
:1091FC00203B9AF800308DF80C30109B00934A46B7
:10920C000F9B03A94046FFF7B8FF0FCD0FC42B6887
:10921C000E9D23600FCD06F134040FC42B68236020
:10922C0004A93846CDE90486FFF762FF05A8FFF7CD
:10923C0086FD396819B9044A0A20FEF7E9FD06B023
:10924C00BDE8F087BCBE0D00357A0D0010B5046882
:10925C0086B04C3471B1CDE9001202A86946FFF713
:10926C002DFD02A92046FFF776FF02A8FFF701FAB1
:10927C0006B010BD0491F4E78842F8B504460D46DB
:10928C00164614D9904213D2A2F10806751AA1F110
:10929C0008072C44B74218D01CB131462046FFF7C2
:1092AC003AFD301DFFF74BFD083E083CF2E70CD0B1
:1092BC00B5420AD01CB129462046FFF72CFD281DCB
:1092CC00FFF73DFD08350834F2E7F8BD70B50E1E0A
:1092DC00054611DDF000FEF769FE044658B1D5E9EC
:1092EC00001201EBC202FFF7C7FF2868FEF766FE0B
:1092FC002C60AE60012070BD0024F6E773B5044607
:10930C0045686846FFF707FDD4E90113994210DA66
:10931C002368626803EBC50503EBC202294605F11D
:10932C000800FFF7A9FF8DB963680133636001265C
:10933C0006E001312046FFF7C9FF06460028E7D1B9
:10934C0001A8FFF7FCFC304602B070BD6946284608
:10935C00FFF7E1FCE8E78842F8B504460D461646EF
:10936C0014D9904213D2A2F10806751AA1F108077C
:10937C002C44B74218D01CB131462046FFF7BDFC37
:10938C00301DFFF7DCFC083E083CF2E70CD0B54280
:10939C000AD01CB129462046FFF7AFFC281DFFF769
:1093AC00CEFC08350834F2E7F8BD70B50E1E054644
:1093BC0011DDF000FEF7FAFD044658B1D5E90012B4
:1093CC0001EBC202FFF7C7FF2868FEF7F7FD2C6020
:1093DC00AE60012070BD0024F6E773B50446456805
:1093EC006846FFF78AFCD4E90113994210DA236826
:1093FC00626803EBC50503EBC202294605F10800C0
:10940C00FFF7A9FF8DB9636801336360012606E09D
:10941C0001312046FFF7C9FF06460028E7D101A815
:10942C00FFF78DFC304602B070BD69462846FFF749
:10943C0064FCE8E72DE9F04F1746A1B080460AA876
:10944C000E46FFF73FF93C68237953B9394640463D
:10945C00FFF753FC0AA8FFF73DF9404621B0BDE8E1
:10946C00F08F3368D3E9035305EBC303039304F183
:10947C00280A04F1140B039B9D4221D0D5F80090CF
:10948C00584609F11401FFF7D6F9B8B109F12801D2
:10949C005046FFF7D0F988B12368D9F80020534023
:1094AC0033F47F430AD12022CDE915235E4A009282
:1094BC0015AA5E493220FEF7B3FCC7E70835DAE798
:1094CC005046FFF783F960B95949012215A815AD2B
:1094DC00FFF753F90FCDD446ACE80F002B68CCF84E
:1094EC0000303368D3E9005305EBC30B5D45A94647
:1094FC0051466ED055F8080BFFF79DF90028F5D0B2
:10950C0004F1140A5046FFF761F988B9494B4849F0
:10951C001A88013292B21A8015A8012315ADFFF7F3
:10952C004BF90FCDD446ACE80F002B68CCF80030CB
:10953C002822002116A801F005FE3F4B1593514639
:10954C0004A8FFF755F904AB18AA0DF1200C186804
:10955C005968154603C5083363452A46F7D1186880
:10956C00286023798DF85830D9F800309B8AADF8F3
:10957C007430E36B1793314B0022A11D15A8CDE974
:10958C001E34FEF7B5FA00287FF460AF0123237078
:10959C00346839460C340DA8FFF7AFFB20460DA9F3
:1095AC00FFF71BFF04460EA8FFF7C9FB002C7FF446
:1095BC004DAF2023CDE90D34214B00930DAA23464A
:1095CC0077E739464046FFF798FB0CA8FFF7B7FB47
:1095DC0040E70BA8FFF748FA514615A8FFF708F922
:1095EC000B9A0023143215A90120FEF777FA0028F4
:1095FC00E7D135680BA90DA8FFF78DFB28460DA9FF
:10960C00FFF77CFE05460EA8FFF799FB002DD8D07E
:10961C0032685368126803F10053013B0CA802EB4B
:10962C00C309FFF78CFB6BE761BE0D00C0BD0D00DD
:10963C0020BF0D0018E6032001002C00058C0D0046
:10964C008CBE0D0010B5064C002320462360FEF79F
:10965C0063FA2046034A0449BDE8104000F058BFA5
:10966C001CE6032048DE03201F850D00F8B50646D6
:10967C000D468F180024BD420CD0336815F8011B21
:10968C009B6830469847031E01DB1C44F3E7002C13
:10969C0008BF1C462046F8BD08B5FCF7B9FE08BD4E
:1096AC0003689B68184738B50D210546FFF7F8FF8E
:1096BC000A2104462846FFF7F3FF204438BD38B58D
:1096CC000546FCF7A5FE04462846FFF7ECFF2044B0
:1096DC0038BD30B58BB000238DF82430012A98BFEB
:1096EC000A2209AC0D46B1FBF2F101FB125303F057
:1096FC00FF03092B94BF30333733DBB2AA4204F893
:10970C00013DEFD92146FCF783FE0BB030BD0000C4
:10971C002DE9F74F55EC104B06460F4610EE102A6C
:10972C0010EE100A2B46294601F066FC40B1534955
:10973C003046FCF76DFE8246504603B0BDE8F08F14
:10974C0025F000494E4B4FF0FF322046494601F0C0
:10975C0053FC48B94A4B4FF0FF322046494601F0C2
:10976C002DFC08B94749E3E7474B4FF060422046D0
:10977C00294601F037FC08B14449D9E7444B4FF076
:10978C0060422046294601F00FFC0028F4D100224B
:10979C0000232046294601F007FCD0B12D2130468C
:1097AC00FFF77EFF05F1004382461D463949DFF87D
:1097BC00EC904FF0000B00204FF000085FFA8BF399
:1097CC009F4208D942464B4601F0A6FA0BF1010B19
:1097DC00F4E78246EAE722462B4600F0BDFF0D4631
:1097EC00044601F047FC804601F0F2F802460B46B5
:1097FC002046294600F0AEFF0A2204460D463046AC
:10980C004146FFF766FF824427B123493046FCF7F7
:10981C00FFFD8244DFF884904FF00008013FFFB257
:10982C00FF2F89D042464B462046294601F04AF983
:10983C0004460D4601F0F6FBB0F1000B1ADA2D21AF
:10984C003046FFF72DFFCBF1000103460A223046CC
:10985C000193FFF73EFF019B18448244584601F0E8
:10986C00C7F802460B462046294600F073FF044613
:10987C000D46D3E759460023E8E700BF40BF0D0073
:10988C00FFFFEF7F44BF0D00FFFFEF4148BF0D000E
:10989C00FFFFEFC10000E03FB1BE0D00000024400F
:1098AC0038B5044610EE100ACDB201F0B3F841EC15
:1098BC00100B29462046BDE83840FFF729BF2DE99B
:1098CC00F04186B000AF05460E46381D14211446F3
:1098DC003B60FEF783FB13280ED8391D2846FCF796
:1098EC0097FD04461EB12846FFF7DDFE04442046D2
:1098FC001837BD46BDE8F08100F1080323F00703DB
:10990C00E846ADEB030D2246411C3B686846FEF76A
:10991C0065FB69462846FCF77BFD0446C546E1E736
:10992C00014B024A1A60704724E603204CBF0D001D
:10993C00024B1A68024B1A60704700BFE0DD03202F
:10994C0028E603200021FEF785BA10B50446FEF781
:10995C0090FE204610BD00000348044A0449002331
:10996C00836000F0D5BD00BF2CE6032048DE032049
:10997C0057990D007047007B7047037B4BB103690F
:10998C00B3F1004F05D08069B0F1004018BF012041
:10999C0070470020704703681B6A184770B503684E
:1099AC000D461B690646984702212846FFF778FFAB
:1099BC002C2104462846FFF773FE336804449B6948
:1099CC003046984702212846FFF76AFF204470BDB5
:1099DC00A0F10400FFF7E2BF10B52021044600F00F
:1099EC009CFD204610BD0000037B7BB14369002B1E
:1099FC000CDB07EE903A9FED077AF8EEE77A87EEEC
:109A0C00870ADFED057A20EE270A7047BFEE000AC1
:109A1C00704700BF00FF7F470000C842037B63B163
:109A2C000369B3F1004F08D007EE903A9FED047A2A
:109A3C00F8EEE77A87EE870A70479FED020A7047C7
:109A4C000000C84200000000037B7BB1C369002BFF
:109A5C000CDB07EE903A9FED077AF8EEE77A87EE8B
:109A6C00870ADFED057A20EE270A7047BFEE000A61
:109A7C00704700BF00FF7F470000C842037B63B103
:109A8C008369B3F1004F08D007EE903A9FED047A4A
:109A9C00F8EEE77A87EE870A70479FED020A704767
:109AAC000000C8420000000030B50D4600F108046B
:109ABC000FCD0FC495E8030084E80300012030BDEE
:109ACC00006800F04BBB10B50446016002710AB18E
