:02000002D0002C
:1040000000400D00B4F30D00000006000D00050196
:084010000401BD0B00000000DB
:04401800B4E10D0002
:1040200009480A49884208B505D0094A824202D0A7
:10403000121A09F0ADFF0748074A0021121A09F0C9
:10404000CFFF014808BD00BFACDD03201CF30D000D
:104050001CDE032020DE0320F4E7032070B5074EAA
:10406000074C07F04DF8A41BA4080025A54200D179
:1040700070BD56F8043B98470135F7E7ECF20D00A8
:1040800010F30D0000F01CBD08B501F0E3F8BDE829
:10409000084006F0F7BF05F0E3B805F0E1B805F019
:1040A000E7B8000008B5034A00210C2004F0DAFF4D
:1040B000FEE700BF4D8C0D000078B0FA80F040099B
:1040C0007047012303707047106870477047037C86
:1040D00013F008031EBFC36A406A1B1A002BACBF53
:1040E00018466FF0004070477047704710B51021B8
:1040F000044607F0AEFC204610BD10B5342104463E
:1041000007F0A7FC204610BD103003F0ADB810300A
:1041100002F0C8BF07B501220DF10701103002F00F
:1041200013FF01280CBF9DF807004FF0FF3003B0CC
:104130005DF804FB103003F021B907B501228DF8BA
:10414000071010300DF1070103F018F903B05DF806
:1041500004FB000010B5034B0360044604F070FA42
:10416000204610BDC4EC0D0010B50446006808B12F
:1041700005F07EF8204610BD08B5002005F058F87F
:1041800028B105F03DF880F00100C0B208BD012063
:10419000FCE7F8B50C1E074616460CDA0A2A0AD1C7
:1041A0002D2106F059FC61420546F2B2384606F070
:1041B0006CFC2844F8BD21460025F6E707B505F05C
:1041C0001AFBC0B2022817D0032805D0012816D048
:1041D000012003B05DF804FB3C23019307F09EFB34
:1041E00004220DEB020140F2091004F057FD054BCB
:1041F000019A1A600020ECE74FF49673EDE74FF454
:104200001673EAE738DE032010B586B0002301A953
:104210001422044605F0D7FA07F080FB142201A906
:104220000A2004F03BFD2146024805F04DFA00202B
:1042300006B010BDC4E3032007B505F0DCFAC0B238
:10424000022817D0032805D0012815D0012003B07B
:104250005DF804FB0523019307F060FB04220DEBDE
:1042600002014FF4827004F019FD044B019A1A60A8
:104270000020ECE70A23EEE71423ECE7C4E2032076
:1042800007B505F0B8FAC0B2022817D0032805D048
:10429000012815D0012003B05DF804FB052301932C
:1042A00007F03CFB04220DEB02014FF4827004F096
:1042B000F5FC044B019A1A600020ECE70A23EEE7B4
:1042C0001423ECE730DE03200EB403B503AB00216A
:1042D00053F8042B019306F0CEFC02B05DF804EB1A
:1042E00003B0704773B5044608462279A36832B11B
:1042F000A3B90B4902B0BDE8704006F0A9BB094A5A
:10430000267B094D0949647B012E18BF2946CDE95A
:1043100000140749FFF7D8FF02B070BD054AEFE768
:10432000D9E10D002BE20D00D5E10D00D1E10D002A
:10433000EFE10D00C8E10D000EB403B503AB0121A0
:1043400053F8042B019306F096FC02B05DF804EBE1
:1043500003B0704738B504460E4D06F0FFFF0E4916
:10436000FFF7EAFF24782B68A34207D106F0F6FF97
:104370000A49FFF7E1FF00232B6038BD06F0EEFF8E
:104380000749FFF7D9FF06F0E9FF06492246FFF784
:10439000D3FFF2E7C0E303200CE20D002CE20D0096
:1043A00047E20D008EE20D002DE9F04F2DED028B5E
:1043B000A7B0044608EE101A0A22418822A805F088
:1043C000B7F900230AA9062222A805F0FCF922A8C1
:1043D00005F0FEF8A1880A2222A805F0A9F9002319
:1043E0000CA9062222A805F0EEF922A805F0F0F8A3
:1043F0000EADE1880A2222A805F09AF90023294689
:10440000062222A805F0DFF922A805F0E1F82189AB
:104410000A2222A805F08CF9002310A9062222A85E
:1044200005F0D1F922A805F0D3F861890A2222A863
:1044300005F07EF9002312A9062222A805F0C3F98F
:1044400022A805F0C5F814AEA1890A2222A805F019
:104450006FF900233146062222A805F0B4F922A8FC
:1044600005F0B6F816AFA18A0A2222A805F060F975
:1044700000233946062222A805F0A5F922A805F056
:10448000A7F80DF16008E18A0A2222A805F050F988
:1044900000234146062222A805F095F922A805F03E
:1044A00097F80DF16809218B0A2222A805F040F93E
:1044B00000234946062222A805F085F922A805F026
:1044C00087F80DF1700AE1890A2222A805F030F977
:1044D00000235146062222A805F075F922A805F00E
:1044E00077F80DF1780B218A0A2222A805F020F92D
:1044F00000235946062222A805F065F922A805F0F6
:1045000067F8618A0A2220AC22A805F011F9214639
:104510000023062222A805F056F922A805F058F833
:1045200012AB029310ABCDE90053CDE908B4CDE94D
:10453000069ACDE904780649039618EE100A0CABEA
:104540000AAA04F0A5FE27B0BDEC028BBDE8F08FEF
:1045500024E30D002DE9F04F2DED028B0446CDB084
:1045600008EE101A26A9FFF71FFFE069394D08F081
:104570008DFE02460B4610A8294604F089FE206AEB
:1045800008F084FE0DF14C0902460B4648462946C8
:1045900004F07EFE606A08F079FE0DF1640A0246BE
:1045A0000B465046294604F073FEA06A08F06EFEE2
:1045B0000DF1580B02460B465846294604F068FE9A
:1045C00094F82C30009394F82D3094F82E20224942
:1045D0001CA804F05DFE94F82F30009394F830305E
:1045E000628E1E490AAE21A804F052FE0DF12C087D
:1045F0001B490022304604F04BFE0CAF1849002244
:10460000404604F045FE00221549384604F040FEBD
:10461000606B08F03BFE0DAC02460B462046294677
:1046200004F036FE10AB059326ABCDE90383CDE94C
:1046300007ABCDE901760B49CDF8189018EE100ABA
:1046400000941CAB21AA04F023FE4DB0BDEC028BFC
:10465000BDE8F08F9FE20D00A4E20D00ADE20D0079
:10466000B3E20D00B6E20D00F0B50024D7B0026849
:10467000ADF85440054623460F4615A84149424E21
:1046800002F02FFE2A68414B4FF47A7100285ED168
:10469000CDE91601ADF864003A49159319A844F222
:1046A000022319AD02F01DFE0FCD06F110040FC458
:1046B0000FCD0FC42B682360169B7360179BB360EC
:1046C000189BF360324B1393324B1293324B11937E
:1046D000324B1093324B0F93324B0E93324B0D9360
:1046E000324B0C93324B0B93324B0A93324B099360
:1046F000324B0893324B0793324B0693324B059360
:10470000324B0493324B0393324B0293324B01935F
:10471000324B334A3349009315A8334B04F0B8FDAC
:10472000324B3046196806F0A6F915A9304606F056
:10473000A2F9337C2E4C3BB13968134806F09BF943
:104740002C4802F0C7FD0123237057B0F0BDCDE91E
:104750001641ADF864400B49159319A844F20223A1
:1047600019AC02F0BEFD0FCC06F110050FC50FCC41
:104770000FC523682B60169B7360179BB360189B53
:10478000F360D6E778E2032064E4032048E60D00F6
:1047900060E30D0068E30D006FE30D0075E30D00AD
:1047A0007DE30D0086E30D0090E30D0098E30D001E
:1047B000A1E30D00ABE30D00B3E30D00BBE30D007F
:1047C000C2E30D00C9E30D00D0E30D00D7E30D00F7
:1047D000DEE30D00E8E30D00F1E30D00F5E30D006D
:1047E000EEE20D00F3E20D00E9E20D00C4E3032068
:1047F000C0E2032074E4032000B5CDB006F0AEFDA6
:104800000D4906F038F909A90C48FFF7A3FE0C4939
:1048100001A804F028FF09A905A804F024FF05A9B0
:1048200001A8FFF721FF05A804F0D2FE01A804F0BB
:10483000CFFE4DB05DF804FBFDE30D002CE403203A
:1048400008E40D0042884B6813444B6082888B68F3
:1048500013448B60C288CB681344CB6002890B6918
:1048600013440B6142894B6913444B6182898B6904
:1048700013448B61C289CB691344CB61028A0B6AF2
:1048800013440B62428A4B6A13444B62828A8B6ADE
:1048900013448B62C28ACB6A1344CB62028B0B6BCC
:1048A000D1ED0D7A13440B6390ED077AB1F84430E3
:1048B00077EE877A0133C1ED0D7A90ED087AD1ED6C
:1048C0000E7A77EE877AC1ED0E7A90ED097AD1ED06
:1048D0000F7A77EE877AC1ED0F7A90ED0A7AD1EDF3
:1048E000107AA1F8443077EE877AC1ED107A7047DC
:1048F00030B5264CB7B0204603F00CFF204601210E
:1049000001F015F82249AF220AA809F041FB002561
:1049100028222323CDE9013500920DEB0203204626
:104920005F2101F0B7F82D232946102206A8059330
:1049300009F056FB06F0F2FF14220DEB02010A20EB
:1049400004F0A4F92046012101F0D2FA50222046B9
:10495000612101F0CAFA2946204601F0CEFA0D493C
:10496000204606F075F85A222046492101F0BDFA8A
:104970000949204606F06CF805A9204606F068F8BB
:10498000204603F0C2FF37B030BD00BFD4E30320A0
:1049900068E60D0011E40D0018E40D0010B5A0B09C
:1049A00005F0E0FA05F02CFB3D493E48002205F0F9
:1049B00029FE05F0D7FA3C4A014617A805F016FF74
:1049C00017A805F0A4FB05F0CDFA364A014617A852
:1049D00005F00CFF17A805F09AFB17A805F093F94E
:1049E00032490AA805F092F80AA90FA805F08EF836
:1049F0000FA805F0D1F804460FA8002C47D105F008
:104A0000EAF80094ADF81800022306AA032117A8BB
:104A100005F06EF902A804F0FBFB25490FA804F08D
:104A200062FE24490FA804F0B9FE02A904F0AAFE10
:104A3000014606A804F057FE0FA804F0C9FD1E4960
:104A40000AA804F010FE1A4917A805F087F91B4BB5
:104A50000F9300244FF47F430FA9ADF84030072295
:104A6000234617A88DF8424005F07BF905F07AFA45
:104A7000224617A905F0E4FA0AA804F0A9FD06A841
:104A800004F0A6FD02A804F0A3FD20B010BD05F0BF
:104A9000A7F800230093024610230721B7E700BFC1
:104AA00055430D00A4E50320ACE50320D4E2032028
:104AB000C4E30320CFE40D0021E40D00FFFF550007
:104AC00070B501218AB0132006F0EAFE012108200A
:104AD00006F0E6FE0121132006F0F3FE0121082076
:104AE00006F0EFFE624A6349634806F051FB634AF1
:104AF0006349614806F04CFB624A63495E4806F030
:104B000047FB624A62495C4806F042FB61496248E1
:104B10000023022204F05CFB60496148002302226A
:104B200004F056FB5F4960480023022204F050FB6A
:104B300000240C230594ADF814305C4B5C490693BB
:104B4000042205AB5B48079404F042FB2146012098
:104B500004F034FA0125204604F03AFA2A4641F6D8
:104B6000C6710DF103008DF8035004F03BFA524872
:104B7000234622462146406804F0F2FA06F0EEFB96
:104B80004FF4E13106F0DEFB4FF47A7006F076F96F
:104B90008DF81840494C4A4B059304F58C66494BF7
:104BA0000793022205AB04F26C413046ADF8205069
:104BB00002F01CFFF8B1266004F23C4002F08AFBD0
:104BC0002946204602F0C0FD04F23C45014668B18A
:104BD0003A4901F23C4002F09EF960B194F83C344D
:104BE00013F0700F1CBF384B1D6004E0204602F02C
:104BF000ABFD0028ECD14FF47A7006F03FF9762136
:104C0000324801F0C1FD324800F05FFD012131481A
:104C100003F05CFA41F2883006F030F906F07EFECF
:104C200014220DEB02010A2004F030F805A901A8B6
:104C300004F019FD01A91E4804F060FD01A804F06C
:104C4000C7FC144B0A221A60144B05221A60154B3C
:104C50004AF6C0021A60FFF7A1FE1F4B01221A702C
:104C6000FFF746FE41F2883006F008F90AB070BD41
:104C700027E40D0009420D0065B10D0035E40D007B
:104C800081420D004CE40D00BD410D0063E40D00B8
:104C900039420D0030DE032079E40D00C4E2032028
:104CA0008EE40D0038DE0320A1E40D00C9400D00A4
:104CB000C4E30320AEE40D0060E603203CDE0320E5
:104CC00034E60D0080F0FA02B8E5032080E303200B
:104CD00098E40320D4E3032034DE032030B585B00C
:104CE0000D4600226946009204F0CCF9B0B9009C50
:104CF0000CB1236923B90A4A00210A2004F0B2F951
:104D00000023ADF806300C23ADF8043004230393E0
:104D10000295236901AA01212046984705B030BDBC
:104D20004D8C0D0007B5032001A9FFF7D7FF40B94F
:104D3000BDF8043000EE103ABBEECC0A03B05DF8CB
:104D400004FBBFEE000AF9E710B50446374800F04F
:104D5000C9FC06F017F8B0B106F05AF884F82C0038
:104D600006F04AF884F82D0006F03AF884F82E0090
:104D700006F05AF884F82F0006F062F884F8300044
:104D800006F066F86086294800F0E2FC608027485B
:104D900000F0E0FCA080254800F0DEFCE080234825
:104DA00000F0DCFC2081214800F0DAFC60811F4823
:104DB00000F0D8FCA0811D4800F0C4FCE0811B4835
:104DC00000F0C2FC2082194800F0C0FC6082174845
:104DD00000F0B2FCA082154800F0B0FCE08213485D
:104DE00000F0AEFC2083124801F06CF9104884ED0D
:104DF000070A01F017FB0E4884ED080A01F090F94C
:104E00000B4884ED090A9FED0B0A01F065FA84ED69
:104E10000A0AFFF787FF084984ED0D0A2046FFF7CD
:104E200011FDBDE810400549FFF70CBD98E40320D3
:104E300080E3032000507D4414E503205CE503205B
:104E40002DE9F0472DED028B94B0C14904460CA822
:104E500006F0E2FA0CA806F063F8B0EE408A06F01D
:104E60005DFD142207A90A2003F010FF07A903A87B
:104E700004F0F9FB01A803F0ABFEB6489DF804501E
:104E80009DF807809DF808709DF809609DF80690D0
:104E90009DF805A0012101F033F80121AD4801F092
:104EA00027F8AC4803F036FC0A22AA48052101F095
:104EB0001CF8A848002101F020F8A64807A905F031
:104EC000C7FDA54B1B7805F5FA65002B00F0AC81FA
:104ED000A249A04805F0BCFD0A2251469D48FFF7B3
:104EE00058F99F499B4805F0B3FD0A224946994865
:104EF000FFF74FF99A49974805F0AAFD0A2229467B
:104F00009448FFF746F99749924805F0A1FD0A2217
:104F100041469048FFF73DF993498E4805F098FDCA
:104F20000A2239468B48FFF734F98F49894805F042
:104F30008FFD31460A228748FFF72BF91422854856
:104F4000052100F0D2FF8949824805F081FDFFF775
:104F5000E9FE02217F4805F07FFE85497D4805F086
:104F600077FD14227B486E2100F0BFFF814979480C
:104F700005F06EFDB0EE480A0221764805F06CFEA1
:104F80007D49744805F064FD69460720FFF7A6FED9
:104F9000011EA8BF00996F480A22FFF7FAF81E22E7
:104FA0006C48052100F0A1FF6A48002100F0A5FF30
:104FB0007249684805F04CFD618866480A2205F090
:104FC00064FD1E2263486E2100F08FFF6C4961482A
:104FD00005F03EFDE1895F480A2205F056FD2822D2
:104FE0005C48052100F081FF66495A4805F030FD14
:104FF000A18858480A2205F048FD282255486E210C
:1050000000F073FF6049534805F022FD218A5148A2
:105010000A2205F03AFD32224E48052100F065FFD4
:105020005A494C4805F014FDE1884A480A2205F027
:105030002CFD322247486E2100F057FF5449454865
:1050400005F006FD618A43480A2205F01EFD3C2258
:105050004048052100F049FF4E493E4805F0F8FC64
:1050600021893C480A2205F010FD3C2239486E2176
:1050700000F03BFF4849374805F0EAFCA18A354873
:105080000A2205F002FD46223248052100F02DFFDC
:105090004249304805F0DCFC61892E480A2205F0BF
:1050A000F4FC46222B486E2100F01FFF3C492948A2
:1050B00005F0CEFCE18A27480A2205F0E6FC5022E2
:1050C0002448052100F011FF3649224805F0C0FCB4
:1050D000A18920480A2205F0D8FC50221D486E21E3
:1050E00000F003FF30491B4805F0B2FC218B194842
:1050F0000A2205F0CAFC5A221648052100F0F5FEE6
:105100002A49144805F0A4FC94ED070A114802212D
:1051100005F0A2FD26490F4805F09AFCD4ED087A67
:105120000C48FDEEE77A0A2217EE901AFFF731F8E5
:105130002049084805F08CFCDFED1F7A94ED090A40
:10514000044880EE270A022105F086FD36E000BF04
:1051500060E60320D4E30320C0E20320B8E40D009E
:10516000C2E40D00CEE40D00D5E40D00C4E40D0052
:10517000CDE40D00D1E40D00D7E40D00DFE40D0017
:10518000E8E40D00F3E40D00FCE40D0007E50D007C
:1051900010E50D001BE50D0024E50D002FE50D00C9
:1051A00038E50D0043E50D004CE50D0057E50D0019
:1051B0005EE50D0066E50D0000007A441B491C48C1
:1051C00005F046FC64221A48052100F08EFE1949BC
:1051D000174805F03DFC184B154819680A2205F0E0
:1051E00054FC1649124805F033FC154B1048196859
:1051F0000A2205F04AFC13490D4805F029FC124B20
:105200000B4819680A2205F040FC1049084805F0CF
:105210001FFC074803F079FB03A804F0D9F914B088
:10522000BDEC028BBDE8F087094952E66DE50D0043
:10523000D4E3032071E50D0030DE032078E50D0096
:10524000C4E2032084E50D0038DE03208FE50D0065
:10525000BDE40D002DE9F04F634CDFF8C4812368F5
:10526000624E634D87B033B1D8F800301BB133685C
:105270000BB12B6883B903F0F9FC206003F0F6FC56
:10528000C8F8000003F0F2FC306003F0EFFC286087
:1052900003F0ECFC574B186003F0E8FC824603F087
:1052A000E5FC814603F0E2FC074603F0DFFC8346A1
:1052B00003F0DCFC00230022054604A90020CDE910
:1052C000042303F0BDFF4C4BABEB0000984225D903
:1052D00003F096FF10B1002003F0A2FF002003F0BE
:1052E000EDFC4FF0000B0390002003F0E7FC039B64
:1052F000C31A009361EB0B030193DDE90001002366
:1053000042F20F728B4208BF824205D3FEF734FF90
:1053100010B903F06DFFE7E7FEF72EFF2368AAEB55
:105320000302364B19684FF47A734B439A4221D3E8
:105330003348FFF709FD334B00201870FFF75CFA84
:105340000220FFF759FA06F009F82F4905F093FB00
:105350002E4B1B7863B104F005FE04F084FE38B1D7
:1053600005F0FCFF2A4905F086FB0420FFF744FA0C
:10537000C4F800A0D8F80030A9EB0302254B196847
:105380004FF47A734B439A4204D31D48FFF758FDFC
:10539000C8F800903368FA1A1F4B19684FF47A73F3
:1053A0004B439A4203D30120FFF726FA3760114C92
:1053B0002268A91A194A10684FF47A72424391423E
:1053C0000FD304F0CFFD04F04EFE104B28B901229C
:1053D0001A700320FFF710FA02E01B78002BF8D1B7
:1053E000256007B0BDE8F08F08E5032004E5032041
:1053F0000CE5032000E50320FF5B2605C4E2032043
:105400002CE40320C0E2032091E50D0034DE0320EC
:10541000A4E50D0030DE032038DE0320ACDD0320E0
:1054200010E50320F0B5164691B00022C0E9002235
:1054300004460D460BAF194606A804F067FB169903
:10544000384604F063FB33788DF81430189B0293D0
:10545000179B2046CDE9007305AA06AB294605F047
:105460008DF8204611B0F0BD10B50446FEF772FE6F
:105470002046502106F0EDFA204610BD30B5654DAE
:10548000654BAB60002493B02C60AC80AC71022003
:1054900003F00AFE614A6249284606F0D5FA214621
:1054A000012003F011FE21465E485F4D05F0B0FD7E
:1054B0005A4A5E495B4806F0C7FA5D4800F02AFD8B
:1054C0004FF0FF330322CDE902230422CDE900325D
:1054D000FA2105237A22574802F0BCFC4F4A56496C
:1054E000544806F0B1FA554800F0E0F8544B6422F5
:1054F00083F86024534AC3F870240122DC71A3F8B6
:105500003C4483F86A44C3F87844A3F87C4483F8A5
:1055100074242978BFF35B8F11401C460BD12846B9
:105520000591FEF7C9FD059928B1474803F024FF0E
:105530002846FEF7C6FD444BC4F86C34374A43494D
:105540003F4806F081FA4248344A42494FF47A73A0
:1055500000248360404B04824460036006F074FAC8
:105560003E4B3F491C70A3F844403E4B3E481C70E4
:10557000A3F844403D4B1C803D4B1C803D4B1C80A0
:1055800004F071F8254A3C49374806F05DFA3B497A
:105590003B4804F0A1FB3B493B4804F09DFB3B49E1
:1055A0003B4804F099FB102339498DF81C3008A8BA
:1055B00004F0ACFA32490DA804F0A8FA0DAB009340
:1055C00007AA08ABCDE9014432493348FFF72AFF67
:1055D000124A3249304806F037FA04232A498DF836
:1055E0001C3008A804F092FA25490DA804F08EFAA0
:1055F0002B4B01930DAB009307AA08AB29490294EA
:105600002948FFF70FFF054A2449274806F01CFAEE
:1056100013B030BDC8E203200000FFFF20DE0320EE
:1056200069410D0024E4032024DE032031B00D0085
:1056300080E30320D4E3032055410D0098E40320C8
:105640003CDE032034E60D0028DE0320EB400D0095
:1056500064E40320E9400D0048E60D005CE503200A
:105660002BE20D0014E50320C4E303202CE4032007
:1056700048E3032010E30320D1950D00B7E50D00AA
:10568000D4E20320DCE50D00E8E2032001E60D0092
:10569000FCE2032026E60D00ACE503200FA10D007F
:1056A00055430D0029E60D00A4E50320704710B511
:1056B0000446006E05F0AEFFA31E00221C3423F842
:1056C000022FA342FBD1012010BD10B5122380F898
:1056D0006430044606F068F920662046BDE81040B4
:1056E000FFF7E5BFF8B5202204461221006E05F051
:1056F000C0FF00252E46206E03681B6998476F1C6B
:1057000050B1206E03685B699847EDB204EB450524
:105710000126E8833D46EEE72046A31E04F11C0166
:10572000448C828C02EB042223F8022F994200F170
:105730000400F5D13046F8BD408870478088704736
:10574000C0887047008970474089704780897047DA
:10575000C0897047008A7047408A7047808A7047C6
:10576000C08A7047008B70472DE9F04F85B01F4607
:10577000BDF93880BDF83C30A8EB0209A7EB010A5F
:10578000B9F1000FB8BFC9F10009BAF1000FB8BFF5
:10579000CAF1000AD14583460C46154604DD3A4657
:1057A0002C4647460D469046BC4205DD2A464546F6
:1057B000904622463C4617463E1BB2B20092A8EBEA
:1057C0000502002AB8BF52420192C6F3C03202FA63
:1057D00086F64545B4BF01224FF0FF3276100292A3
:1057E000BC421CDCDBF800200393D145D2F81880C2
:1057F000C7BF294622462A4621465846C047019A35
:10580000039BB61AB1B236B2002E05DA029A1544DD
:10581000009A56182DB236B2013424B2E0E705B032
:10582000BDE8F08F704710B404682469A4465DF8A1
:10583000044B604730B40468BDF808500295A46B6F
:10584000A44630BC604730B40468BDF808500295E7
:10585000E46BA44630BC604770B4BDF90C50BDF891
:1058600010600468CDE90356246CA44670BC604700
:105870002DE9F3411C460368BDF820805B690546AD
:105880001646013C34440F4624B298472B68CDF8A5
:10589000048000949C6A28463B4632463946A0471D
:1058A0002B68DB6A284602B0BDE8F04118472DE9B5
:1058B000F3411D460368BDF820805B690446174626
:1058C0000E469847CDE9007822686B1E3344956AEE
:1058D00020461BB23A463146A8472368DB6A204679
:1058E00002B0BDE8F04118472DE9F3471E460368B2
:1058F000BDF928905B69BDF82C800C46054617461B
:1059000098472644B4422B680BDACDF80080D3F8D0
:1059100020A021464B463A4628460134D04724B2BF
:10592000F0E7DB6A284602B0BDE8F047184713B538
:1059300002680191B0F90E100091146CB0F90C30AE
:1059400000221146A04702B010BD2DE9F3471D46C5
:105950000368BDF82C805B69BDF9289004460F46AA
:10596000164698472368CDF80080D3F824A0324625
:105970002B4639462046D0472368CDF8008009F1F0
:10598000FF323244D3F824A039462B46204612B2C7
:10599000D0472368CDF80080D3F820A032464B468C
:1059A00039462046D0476B1ED9192368CDF80080B0
:1059B0001D6A20464B46324609B2A8472368DB6A77
:1059C000204602B0BDE8F047184770472DE9F7437D
:1059D00099421646BDF92870BDF82C9002688046A1
:1059E0000D461C4613D1BE42C8BF3346CDF82890A1
:1059F000C4BF3E461F467B1C946B9B1B1BB23246AA
:105A000029464046A44603B0BDE8F0436047BE4285
:105A10000AD19942C2BF0B4625461C46631CCDF8ED
:105A20002890D46B5B1BE9E753699847CDE900796F
:105A3000D8F8003040469F6A324623462946B84788
:105A4000D8F80030DB6A404603B0BDE8F0431847A1
:105A500001F00303B0F90A204376C907B0F9083012
:105A600059BF8381C2818281C381704730B5018172
:105A70000024074D42818181C2814FF0FF314FF0F8
:105A80000112C0E90512446005600461C46130BDC3
:105A900020EC0D002DE9F04F89B0CDE9021202682B
:105AA000BDF948800493BDF94C3052690593BDF8A7
:105AB00050A00446904718F107024FF0000648BF77
:105AC00008F10E024FEAE20B01963546039B019A5C
:105AD000BDF904109A18059B8B4212B227DD049B76
:105AE00033444FF0000906930FFA89F080451FFAFE
:105AF00089F117DD4F0705BF069BC0106D001D5CC7
:105B000018BFEDB22B060AD5029B206807921944F4
:105B1000836909B21F4620465346B847079A09F1E0
:105B20000109E1E7019B013301935E44CEE723685D
:105B3000DB6A204609B0BDE8F04F18472DE9F04F69
:105B40002DED028B91B01646C269BDF874709DF8B8
:105B500078409846BDF87030029382460D46002A80
:105B600040F0B780B0F90C308B4240F33C81B0F983
:105B70000E30B34240F33781062313FB0413002B8E
:105B800040F3318106EBC403002B40F32C81C37E2C
:105B900033B9B8F1AF0F84BF08F101085FFA88F894
:105BA000DAF8003050465B699847052309930023D3
:105BB00003938F4B08EB880843440A93B3B20793CF
:105BC000039A0A9B9B5C069302FB04F9A3B219FAA1
:105BD00085F90593ABB208930FFA89F308EE103AF2
:105BE000079B049313462B441BB208EE903A4FF0E8
:105BF00000080FFA84F9069ADAF80030D1074AD57E
:105C0000012C3AD1079AD3F818B0029B424418EEFF
:105C1000901A12B25046D847069B5B080693DDE9FE
:105C2000043208F1010813449BB2B8F1080F049341
:105C3000E1D1039B01335BB20393099B013B13F05A
:105C4000FF030993BCD1029BBB420CD0012CDAF8B4
:105C500000202DD1089900970531146A4346324639
:105C600009B25046A047DAF80030DB6A504611B05E
:105C7000BDEC028BBDE8F04F1847029A0192CDF8B7
:105C80000090D3F81CB0BDF9102018EE101A4B4646
:105C90005046D847C0E7029ABA42BDD0012C05D180
:105CA000079AD3F818B042443B46B0E70197E6E7BD
:105CB000059B019703EB8301089B0B441946059B49
:105CC000DB000093D5692346324609B25046A84707
:105CD000C9E7137A516812680992A8EB03085FFAC2
:105CE00088F801EBC80331F838B09A7893F9068048
:105CF0000A92012CDA780B9293F90520069295BF4F
:105D000000230FFA88F31F46039398BF0393036899
:105D100088BFBDF918705B6998476743A3B20593C4
:105D2000ABB217FA85F5B2B20893ABB20D930E92EF
:105D3000002318FA86F21F461D460F920B9A9542D1
:105D400091D2039A05990E98DDF834802A4402FB1B
:105D5000010212B208EE102A0699089A5618B2B239
:105D600004920A9A9A18D2B207920F9A02EB050986
:105D70000FFA89F9079A9A4232D05A1CD2B20C9281
:105D80005A0701BF099A12F80B700BF101031FFAB1
:105D900083FB3B060BD5012CDAF8002013D1936965
:105DA000BDF910101E464A46029B5046B047049E5D
:105DB0000136B3B20493059B7F009844FFB20C9B5D
:105DC0001FFA88F8D6E7029923B2CDE90031D269EB
:105DD0000FFA88F11646504618EE102AB047E6E74B
:105DE0000135EDB2AAE711B0BDEC028BBDE8F08F32
:105DF00017E70D007FB5C26904460B46002A32D171
:105E00000A2908D1438A0282027E03EBC20363821D
:105E1000012004B070BD0D29FAD0017E807E70B1E2
:105E2000B4F91050062010FB0150B4F90C50A842F0
:105E3000C1BFB4F91200228200EBC1026282E28A81
:105E40000192A28A02910092B4F91010B4F91220C2
:105E50002046FFF773FE237E228A03EB430302EB07
:105E600043032382D4E70A2907D100230382937ACC
:105E7000017E428A01FB0323C9E70D29C8D0157AA8
:105E8000A942C5D3517A9942C2D351685D1B01EB37
:105E9000C505AE781EB3E97809B3A17E007E91B145
:105EA00095F905103144B4F9106000FB0161B4F9B3
:105EB0000C60B14207DD00262682B4F91210927AF6
:105EC00002FB00126282E28A0192A28A0290009290
:105ED000B4F91010B4F912202046FFF72FFE2979EB
:105EE000237E228A01FB0323BBE7018242827047A3
:105EF000012938BF012101767047C1828182704734
:105F000081767047407E7047B0F90C007047B0F959
:105F10000E0070474FF0FF33C360704713B50B4C52
:105F20002178BFF35B8F11F001010BD12046019165
:105F3000FEF7C2F8019928B1054803F01DFA204682
:105F4000FEF7BFF8024802B010BD00BF24DE0320F8
:105F500028DE03202DE9F04190F90F30013305468A
:105F60000F4606D1FFF7DAFF3946BDE8F04103F0EE
:105F7000A5BA002407264FF0010895F90F0000216B
:105F800080B205F09EFC95F90D0008FA06F1394043
:105F900080B205F096FC95F90F00012180B205F062
:105FA00090FC95F90E00640080B2E4B205F0A2FC0A
:105FB00008B144F00104013EDFD22046BDE8F08183
:105FC00008B5FFF7ABFFBDE8084003F0F0B907B52F
:105FD0000190FFF7A3FF019903B05DF804EB03F014
:105FE000FFB9000030B590F90C30013385B004469C
:105FF0000D462AD105F0D8FC217805F03DFB05F0CF
:10600000D3FC036829469B68984705F0CDFC05F052
:106010003EFB05F0C9FC2178032205F02AFB05F0C0
:10602000C3FC03685B699847050205F0BDFC036883
:106030005B6998472843050205F0B6FC03685B6975
:1060400098470543284605B030BD90F90F3001331D
:106050000CD11A4B009300238DF80430184B029397
:1060600068460123ADF80C30FFF7B1FF94F90C003E
:10607000002180B205F025FC45F080012046FFF7A5
:1060800069FF00212046FFF765FF00210502204639
:10609000FFF760FF2843050200212046FFF75AFF63
:1060A000054394F90C00012180B205F00AFC94F933
:1060B0000F300133C6D1FFF783FFC3E734E60D008D
:1060C00020A1070010B5FA210446FFF78BFFB0F5B9
:1060D000000F1ED0218A9FED107A4B00C1EB2022C9
:1060E000C3EBE011B4F9123052435943B4F9143000
:1060F000121353439B1303EBE123A36003EB8303CE
:1061000080331B1207EE903AF8EEE77A87EE870AA3
:1061100010BD9FED020AFBE70000C8420000C07FEF
:106120002DE9F8430446FFF7CDFFF7212046FFF79E
:1061300059FFB0F5000F054600F0BF80A068B4F924
:106140001860B0F5FA334FEAE07141F1FF32A3FB7A
:10615000038903FB02F109EB4109F71706FB02F182
:1061600003FB0711A6FB03670F44390341EA1651ED
:106170003003B4F91A60F71706FB09FC08FB07CCDB
:10618000A6FB086767444FEA162C4CEA076CE68AC0
:106190004FEA272E1CEB00004EEB010E00304EF5AF
:1061A000004EA0FB060106FB0E114E10CF1756EA5B
:1061B000070100F08580B4F9200000FB09FCC1173D
:1061C00008FB01CCA0FB0801B4F91E804FEAE87976
:1061D00008FB02F203FB0922A8FB038991446144F6
:1061E0004FEA48424FEA494C2D111218C5F5801567
:1061F0004CEAD83CB4F91C804CEB010C0023E917A5
:106200009B184FEAC17E4FEAC5704FEAC80141EBC7
:106210000C0C4EEA550EC01A40F635436EEB0C0ED0
:10622000A0FB030103FB0E1132463B4607F0DCFCEA
:10623000B4F926204D13460B46EAC14602FB05F78A
:10624000D31706FB0377A2FB06233B44554306FB0B
:106250000355A2FB06232B44550E45EAC315B4F99A
:106260002420B4F922402D184FEA636641EB06065C
:10627000D317514300FB0311A2FB00230B44D10CA5
:1062800041EA43316D184FEAE34046EB00032A0A26
:10629000E51742EA0362191220012B0143EA147345
:1062A000801843EB010107F061FC9FED070A07EE40
:1062B000900A27EE800ABDE8F8839FED040AFAE70A
:1062C0009FED030AF7E700BF0000803B0000C07F9E
:1062D000000000000000000008B52DED028BB0EEBC
:1062E000408AFFF71DFF9FED167AC0EE077AC7EED2
:1062F000887A17EE900A06F0C9FF9FED0D1B41EC5E
:10630000100B05F0C1FC0F4953EC102B002006F0D8
:106310005DFE09A3D3E9002307F010F807F006FBA0
:10632000BDEC028B00EE100A08BD00BFAFF3008089
:10633000EBE2361AC05BC83F0000000040A5E54014
:106340000000C8420000F03F30B590F90C30013336
:1063500085B004460D4625D105F026FB217805F0D1
:106360008BF905F021FB036829469B68984705F0E7
:106370001BFB05F08CF905F017FB2178022205F0D4
:1063800078F905F011FB03685B699847054605F04D
:106390000BFB03685B69984740EA052085B22846F5
:1063A00005B030BD90F90F3001330CD1184B00937C
:1063B00000238DF80430174B029368460123ADF893
:1063C0000C30FFF704FE94F90C00002180B205F0B8
:1063D00078FA45F080012046FFF7BCFD00212046F9
:1063E000FFF7B8FD002105462046FFF7B3FD40EA60
:1063F000052085B294F90C00012180B205F061FA04
:1064000094F90F300133CAD1FFF7DAFDC7E700BFB7
:1064100034E60D0020A1070008B5FFF795FF40BA4C
:1064200080B208BD38B50446FFF74CFEFD2120467A
:10643000FFF78AFFB0F5004F38D0B4F92E50A268AC
:10644000B4F930302D05A2F59632C5EB803002FB51
:10645000130303F58043D91394F82C305343DB1214
:1064600003F5004094F9323053439B1243439B128F
:1064700003F50012B4F92A30534303F500539B137C
:106480004B43DA1394F828105243D2114A43A3EB3A
:10649000221323EAE373B3F1C85FA8BF4FF0C853D8
:1064A0001B1300EE103ABAEECB0A38BD9FED010A7D
:1064B000FBE700BF0000C07F30B590F90C3001331E
:1064C00085B004460D461DD105F06EFA217805F021
:1064D000D3F805F069FA036829469B68984705F0E8
:1064E00063FA05F0D4F805F05FFA2178012205F08F
:1064F000C0F805F059FA03685B699847C5B22846A9
:1065000005B030BD90F90F3001330CD1144B00931E
:1065100000238DF80430134B029368460123ADF835
:106520000C30FFF754FD94F90C00002180B205F007
:10653000C8F945F080012046FFF70CFD00212046F8
:10654000FFF708FD054694F90C00012180B205F023
:10655000B8F994F90F300133D1D1FFF731FDCEE70F
:1065600034E60D0020A1070008B5F321FFF7A4FFD2
:1065700000F0010008BD38B588210446FFF74CFF44
:106580008A2120822046FFF747FF8C216082204627
:10659000FFF742FF8E21A0822046FFF73DFF9021AA
:1065A000E0822046FFF738FF922120832046FFF744
:1065B00033FF942160832046FFF72EFF9621A083AE
:1065C0002046FFF729FF9821E0832046FFF724FFAC
:1065D0009A2120842046FFF71FFF9C2160842046DB
:1065E000FFF71AFF9E21A0842046FFF715FFA12187
:1065F000E0842046FFF760FFE12184F82800204670
:10660000FFF70AFFE32160852046FFF755FFE421ED
:1066100084F82C002046FFF74FFFE5210546204671
:10662000FFF74AFF00F00F0343EA0510E085E6217B
:106630002046FFF741FFE52105462046FFF73CFFD6
:10664000031143EA05102086E7212046FFF734FFB7
:1066500084F8320038BD00007FB590F90C3001336A
:1066600004460E46154616D105F09EF9217805F030
:1066700003F805F099F9036831469B68984705F0DF
:1066800093F9036829469B68984705F08DF904F053
:10669000FEFF04B070BD90F90F3001330CD1144BE4
:1066A000009300238DF80430124B029368460123B7
:1066B000ADF80C30FFF78BFC94F90C00002180B290
:1066C00005F0FFF806F07F012046FFF743FC29465E
:1066D0002046FFF73FFC94F90C00012180B205F041
:1066E000F0F894F90F300133D3D1FFF769FCD0E70C
:1066F00034E60D0020A10700F8B5DB0002F0070228
:1067000003F03803134343EA81139DF8186080F8BF
:10671000383090F83C309DF81C509DF8207066F39E
:10672000471380F83C30ED0090F8343007F007074D
:1067300005F0380523F03F033D4304461D4380F830
:10674000345006F00702F221FFF786FF94F8342058
:1067500002F0070102F0380343EA411343EAD21280
:106760002046F521FFF778FF94F8382002F0070162
:1067700002F0380343EA411343EA92122046F4211F
:10678000BDE8F840FFF768BF30B50446017090F9E6
:106790000C00421C85B019D105F006F904F03AFF4F
:1067A000D0212046FFF788FE602842D12046B6223D
:1067B000E021FFF751FF4FF4967004F05FFB204695
:1067C000FFF7D2FE054628B36420F6E7012180B228
:1067D00005F077F894F90C00012180B205F060F81B
:1067E00094F90F00431C04D1FFF798FB02F0CEFD93
:1067F000D6E7012180B205F053F894F90D0001218C
:1068000080B205F04DF894F90E00002180B205F039
:1068100047F8C5E72046FFF7AEFE05232046CDE941
:10682000015500931A460321FFF766FF012005B0CA
:1068300030BD0020FBE710B50446243000F076FEA2
:1068400028B104F50C70BDE8104000F06FBE10BD1B
:10685000411E00F10A030020420842EAC01011F86C
:10686000012F52FA80F08B42C0B2F5D17047000080
:106870002DE9F047064610F8013B202BFAD06B4D6E
:106880008E600024335DC3B12F2B16D05C2B02D158
:106890000020BDE8F087A3F12200C0B21D2803D874
:1068A00025FA00F0C007F3D403F0BF003C28EFD076
:1068B000203B5E2BECD80134E4E733191846074639
:1068C00010F8015B202DFAD02F2DF8D017604CB1B5
:1068D00013F8012D2E2A01D0202A01D1013CF6E720
:1068E000FF2CD5DC4C6001F10D0301F118022020D2
:1068F00003F8010B9342FBD14FF0000816F8083063
:106900002E2B01D0202B02D108F10108F6E7B8FAAE
:1069100088F04009651E6B1C02D0735D2E2B14D1CC
:106920004FF0000907274A46CA464FF0080EA04517
:1069300069DA16F80830202B03D02E2B07D1A84592
:1069400012D0002008F10108F1E7013DE3E7222B16
:1069500008D07C2B06D0A3F12A0CBCF1050F0BD874
:106960002D2B13D0A8455CD10A2F4BD0A8460A275F
:1069700008224FF0100EE5E7A3F13A0CBCF1050F29
:10698000F0D9A3F15B0CBCF1020FEBD9A3F1210C00
:10699000BCF15D0FE6D8A845E6D0BA4230D8A3F1E5
:1069A000610CBCF1190F1AD8203B4EEA0909DBB281
:1069B0005FFA89F902F1010C5FFA8CFC0A44BCF120
:1069C000060F537301D881F80CC06246BAE7A84598
:1069D00018DCA8460A2708224FF0100EB1E7A3F1F1
:1069E000410CBCF1190F98BF4EEA0A0AE2E70B7B93
:1069F0000120087019447E234B7331238B7348E7C1
:106A00000A2FE4D100204B7B202B3FF441AF00281C
:106A1000EDD01AEA090F18BF4FF0020981F8009073
:106A200037E7BA42ECD85F230020C3E70101003109
:106A30002DE9F84391F80C9006460C4602257E2776
:106A400001F10D086168A2686B189BB21144914274
:106A500006D012F8010B03EB431343409BB2F6E759
:106A6000B9F1030F28BF4FF0030909F10402D2B2B4
:106A700003F00F01A018013A0929D2B294BF3031B6
:106A80003731914541734FEA1313F1D104EB0903F8
:106A900000215F73304600F037FB0121304600F0E3
:106AA00014FB014628B97078B0FA80F04009BDE8BF
:106AB000F88303786BB1C37A1B07EED40B224046F0
:106AC00007F058FA0028E8D10135ADB2642DB9D1EC
:106AD000EDE70120EBE700002DE9F04F2DED028BF3
:106AE00089B00D4605930B78069013F0700F904611
:106AF00005D1002009B0BDEC028BBDE8F08F069BEC
:106B00001B78002BF5D153680493137899071CBFA9
:106B1000049B03F10C074FF0000118BF0D2328461A
:106B20001DBFB7FBF3F70137FFB2012700F0ECFA06
:106B300008F10D02002308EE102A9B461C461E4653
:106B400003939A466A69079301212846C2F34F19B5
:106B500000F0BBFA079B00286ED16B78002BC8D1E0
:106B6000059B9A05C5D503F00303013B012BC0D853
:106B7000039B002C08BF4B460393BC42C0F003812B
:106B8000BAF1000F40F01B81039B2846590100F029
:106B9000BBFA0028ADD0013F5FFA87FA56464FF0A6
:106BA00000090F27002E00F021810021284600F067
:106BB0008CFA044600289CD0AA6892F824305645E6
:106BC00043F001030CBF46F0400BB34682F824307B
:106BD00080F800B0C77280F80C9008F10D00FFF744
:106BE00037FE0BF01F0B607384F81A9084F81B902B
:106BF0000BF1FF3B0D22D8F808C002FB0BF200237B
:106C00000499914240F2E3801CF80210042B5FFAD1
:106C100083FE03F1010000F2E08004EB4303A3F8DC
:106C200001100D2802F101020346E9D1013EF6B23E
:106C3000B8E74FF0010A85E70278E52A00D07AB973
:106C40000399002C08BF4946BC4238BF0134039168
:106C500038BFE4B2002A83D0E52A04D1002671E7C8
:106C6000BC4238BF00242E2AF8D0C17A0F295DD14A
:106C70003EBB12F040063FF465AF02F01F06437BB7
:106C8000B3460BF1FF324FF00D0E0EFB02FE049ADD
:106C90007245E3D9A2EB0E0207924FF0000CBCF153
:106CA000040F0CEB0E095FFA8CF214D800EB4C02C7
:106CB000B2F8012007998C451BD1002A18BF002685
:106CC00040E70BF1FF3B5FFA8BFB5A45C6D1427B95
:106CD0009A42D6D0C2E70A2A95BF0CF1FF320CF1D6
:106CE000010200EB420200EB420294BFD28892887C
:106CF000E0E7FF2AB2D8D2B2A2F141011929D8F8AF
:106D0000081011F8091098BF2032A1F1410998BF6D
:106D1000D2B2B9F1190F9CBF2031C9B291429DD1B5
:106D20000CF1010CBCF10D0FB9D10BE70A0795D49A
:106D300066B1BBF1010F03937FF4DBAEFFF788FD73
:106D4000039B98427FF4D5AEB2460FE018EE101ABE
:106D50000B22079307F00EF9079B00287FF4F2AE91
:106D600098F800A01AF0010A7FF463AF059B19059B
:106D70003FF5BFAE059B0698CDF800A04A462946D0
:106D800000F005FAB6E60021284600F09EF998B911
:106D90006B78002B7FF4ADAE284600F06FF800282A
:106DA0003FF4A7AEAB681B79012B3FF6E9AE103478
:106DB000E4B2A742F0D8E3E60134E4B2DDE64146AE
:106DC0002846FFF735FE00287FF4DEAE91E614BFBB
:106DD0004FF0FF31002189B218E7BEF10A0F94BFCE
:106DE00004EB430304EB400399801AE7314628463D
:106DF0006F6900F06AF9044600283FF47AAE202259
:106E0000314607F0EDF8434653F80D2F22605A68DB
:106E100062601A8922819B7AA37298F8003003F08D
:106E2000180323730F4B1B689BB104F10E0104F18F
:106E300010009847238A63822383E389E382AA6848
:106E400092F8243043F00103C7F34F1982F824303D
:106E500090E721232374282363740823A673E37324
:106E6000E8E700BFB4E503208378016943F0040339
:106E7000837000F11002806800F00EBC2DE9F04133
:106E8000017811F02005044603D000263046BDE805
:106E9000F0814269174B9A42F7D2FFF7E5FF0646A9
:106EA0000028F2D02169A06800F08BFB0746A0689B
:106EB00005223946243000F061FB80460028E4D0EA
:106EC00029464FF4007207F08BF80125A3681A7960
:106ED000AA4209D918684246E91900F0B8FE00280C
:106EE000D3D00135EDB2F1E7636903EB422363616F
:106EF000CCE700BF00FE1F0010B5044680680A46BC
:106F00002430A16900F03AFB20B1A38803F00F03FD
:106F100000EB431010BD70B5047805460E464CB921
:106F20002422214607F05CF8AE60F379102B03D0E1
:106F3000202B07D0002004E0202301242B70AC700C
:106F4000204670BD4023F8E72DE9F74F037804464B
:106F500088461546002B5DD08278D1075AD51A078E
:106F60002DD5C36942699B1A9D4228BF1D462E46F6
:106F70004FF0000904F1100B002E00F08F802278F2
:106F80006369A0689706C3F3080A4FEA53211FD527
:106F9000006A0144A068BAF1000F42D1B6F5007F43
:106FA0003FD3C36A99423CD0B6F5806F52D2006895
:106FB000424600F0C3FD68B34FF4007744E09B06FF
:106FC000D5D583681A894369C3EB42139BB2CBE7DB
:106FD00090F8059009EA0109BAF1000F08D1B9F15A
:106FE000000F05D15BB951064CBF036A236A2361C8
:106FF0002169A06800F0E5FA09EB0001CAE7216900
:107000005A4600F0E4FA002804DBF1D1237813F0AB
:10701000700F43D1637843F0020363704FF0FF3089
:107020003DE0CAF50077B7424FF0000200F12400BE
:1070300028BF374600F0A2FA0028EBD000EB0A0187
:107040003A46404606F0A4FF63693B44B844636196
:10705000F61B91E7227892064FEA562A06D4027967
:10706000A2EB0902D2B2924528BF924699424FEA5A
:107070004A2708D2A06853460068424600F0A6FDA1
:107080000028E1D1C6E753448B42F3D92430019163
:1070900000F04CFA01990028ECD1BBE7A81B03B023
:1070A000BDE8F08F73B501220DF10701D0E9045658
:1070B0000446FFF749FF01280ABF9DF807004FF07B
:1070C000FF30C4E9045602B070BD37B5436913F40C
:1070D000F07F0446C3F3431500D099B901220DF1A6
:1070E00007012046FFF730FF40B2012802D0002000
:1070F00003B030BD63691F33A0686361303000EBBB
:107100004510F5E72033F7E72DE9F04102780769EC
:1071100004460D4662B14069884202D019B9216126
:107120006561012006E0160706D5E3698B420BD2A4
:1071300027610020BDE8F081910605D5A3681B8971
:10714000B5EB431FECD9F3E7D4F808C09CF8066010
:10715000431E06F109016E1ECB40CE40B34200D85B
:1071600098B953064CBFDCF82030236A236104F140
:107170001008002ED4D02169A068424600F027FAFA
:10718000002806F1FF36F4DCD2E7F61AEFE7F8B58F
:107190000F4616460021242204461D4606F020FF15
:1071A000B868A060A68000F1300206F00F063B6AC6
:1071B000E360710102EB4616F37A1F0746D44318C9
:1071C00093F83B3003F017032370F27A12F0180F94
:1071D00004BF43F0080323709DF81830E37005F0F6
:1071E0000303012B2CD0022B28D07BBB6A052DD4A6
:1071F0000123A370A278930704D52378DF0625D452
:10720000DE0723D4AB1123F07F0305F008063343D8
:107210001343A370C36AA3614318B3F84420B3F8BF
:107220004A1041EA02416A0513D559B9A37843F0DF
:107230000403A3706B0410D40120F8BD0323D8E726
:107240000223D6E700F063FA0028EFD10020207077
:10725000F3E72162DB6CE361ECE7E1692046FFF7CD
:1072600053FF0028E8D1F1E738B5037804460BB99D
:10727000012038BD83785A0723D50121FFF73CFE52
:10728000054628B9637843F0010363700020F0E7F6
:107290000378E52BF6D023781B0744BFE369C3616D
:1072A000238C4383638C8382094B1B682BB100F1D1
:1072B0001601183098472B8B6B82A37823F00403B8
:1072C000A370A068FFF7B7FA0028DBD0D0E700BFB3
:1072D000B4E5032010B50446FFF7C6FF0023237072
:1072E00010BDF0B593B01F460023ADF824300378ED
:1072F000019206460C4613B1002013B0F0BD0B7886
:1073000013F0700FF8D013782F2B12D1019A137845
:107310002F2B02D101320192F8E7A1681BB9304648
:10732000FFF7F9FDE9E709A8FFF7F5FD0028E3D02D
:1073300009AC019801AA03A9FFF79AFA0028DBD04B
:10734000019B1B789BB1002303AA21463046FFF71F
:10735000C3FB0028D0D035460FCD09AC0FC40FCDEC
:107360000FC42B6823603046FFF7B4FFE0E73B46CD
:1073700003AA21463046FFF7AFFBBEE72DE9F047F1
:10738000037889461907044617465BD583789A0720
:1073900058D51B0751D46369DB43BB4252D3B8466F
:1073A00004F1100A6669B8F1000F00F09180A0683E
:1073B0004379C6F3080513EA56260ED16DB9216943
:1073C000002946D0524600F002F900283ADB04D1E9
:1073D0002046FFF749FD002834D02169A06800F05D
:1073E000F0F83118A06815B9B8F5007F3FD2C5F59F
:1073F0000076464528BF4646002D36D16269E369CE
:107400009A4234BF01220522243000F0B7F8C8B1F7
:10741000284432464946354406F0BAFDB5F5007FAA
:1074200004D1A068243000F081F858B16369334476
:107430006361B144A8EB0608B4E7C169FFF764FED5
:107440000028A8D1637843F0010363704FF0FF3048
:1074500050E0236A3BB92046FFF706FD0028F1D033
:1074600023692362B9E72361B7E70122CCE7B8F5C6
:10747000806FC26A1BD390F804C0ACEB0606F3B26F
:107480004FEA582E734528BF734691424FEA432670
:1074900007D31A448A4282BF4FF0FF3280F824504B
:1074A000C262A5684A46286800F047FCBDE79142E1
:1074B00002BF4FF0FF3380F82450C362A3684A46EE
:1074C000186800F0C4FB0028BCD04FF40076ADE78C
:1074D000E269A378B24204D2E66143F00403A370E8
:1074E00003E0084A1268002AF7D194F90230002B11
:1074F00002DB3846BDE8F0872046FFF7B5FE0028DE
:10750000F7D19FE7B4E5032013B50446084659B107
:10751000019106F0A3FD23680199DB68024620462D
:1075200002B0BDE81040184702B010BD37B503786F
:10753000DA07044620D54368816800F10C02186818
:10754000019200F084FB019A054618B900252846EF
:1075500003B030BD23789B0704D4237823F00103C4
:107560002370F4E7D4E9013019690144186800F088
:107570006EFB0028F1D1E9E70125E8E770B58368E3
:107580008B4204460E46154609D0FFF7CFFF08B9D7
:10759000002070BD6B070AD500232370A6602278F7
:1075A00005F003052046154300F80C5BF1E763681E
:1075B00004F10C021868314600F0C0FA0028EBD143
:1075C000E6E7837940690239994008447047012908
:1075D00070B505460C46164602D84FF0FF3070BD18
:1075E000C3698B42F9D3C379202B16D1816902225A
:1075F00001EBD41100F50C70FFF7C0FF0028ECD0B0
:1076000004F07F0450F8243023F07043EA699A4272
:1076100026BF336001200020E1E7102BDDD1836914
:10762000C1F307210222194400F50C70FFF7A6FFF1
:107630000028D2D0E4B230F81430E7E7012938B599
:107640000C46154601D8002038BDC3698B42FAD3D9
:10765000C379202B0FD18169032201EBD41100F5EE
:107660000C70FFF78BFF0028EDD004F07F0440F88A
:1076700024500120E8E7102BE5D18369C1F30721ED
:107680000322194400F50C70FFF778FF0028DAD0C8
:10769000E4B220F81450ECE72DE9F341C4688C42C1
:1076A00005460E46904601D3012701E00C4600270F
:1076B000EB690134A34202D2C7B9EC68F4E7A642F1
:1076C00014D001AA21462846FFF781FF00280DDBD0
:1076D000EED0019B002BEBD107B1EC606FF0704254
:1076E00021462846FFF7AAFF074620B9002738465B
:1076F00002B0BDE8F08116B9C8F80040F7E72246AD
:1077000031462846FFF79AFF0028F5D1EEE773B51A
:1077100005460C4601AA21462846FFF758FF061EDB
:1077200010DB002221462846FFF788FF50B1EB68A6
:10773000A34224BF04F1FF34EC60019C002EE9D188
:1077400002B070BD0020FBE7012370B50022C360CA
:107750004FF0FF330446C27100F12406806280F8C6
:107760002420C362C0F8340280F83022C0F83832D6
:107770000D46B9B1042901D9002070BD114630462B
:10778000FFF7FCFE0028F7D000EB051393F8AE31AD
:107790005B06F1D105F11B0100EB0111D1F8065098
:1077A000002DE9D0002229463046FFF7E7FE0028E9
:1077B000E2D0B0F80B30B3F5007FDDD1037C022BB3
:1077C000DAD1C389002BD7D0417B21714B1E637165
:1077D0000023A37109260123994207D0013ECBD093
:1077E000A2795B000132DBB2A271F5E7C18A01B96F
:1077F000416A2161C3892B44A361B0F81120228121
:1078000003EB41032362B0F81110490101F2FF11AB
:1078100003EB51236361B0F8132002B9026AE91A3D
:10782000A3791144D9404B1CE36140F6F4739942AB
:1078300002D80C23E3719FE74FF6F473994285BF9A
:10784000C36A236210232023E371012095E700001F
:1078500070B50E4E0D46144601F000FA3368C01A9A
:107860000B4B984208D901F001FA0A4B186001F05D
:10787000BFFC01F0F3F9306001F0F8F980B2401B71
:10788000A042D4BF0020012070BD00BFBCE5032092
:10789000A0860100B8E7032038B5057A04464DB943
:1078A000406800F06BFA63682946187D04F009F817
:1078B0000123237238BD10B5037A04466BB14368C7
:1078C0000121187D03F0FDFF6068FF2100F088FAB8
:1078D000606800F067FA0023237210BDF8B5044613
:1078E0000D46164601F0C2F987B2606800F05DFAF5
:1078F000FF2860720ED14FF47A7239462046FFF7A6
:10790000A7FF0028F1D0552320462370FFF7D3FFAF
:107910000020F8BDFE2801D05023F5E7606832460C
:10792000294600F047FA607208B16023ECE760680E
:1079300000F03BFA606800F038FA0120E9E770B522
:1079400004460E4601F092F985B232462946204699
:10795000FFF77EFF30B9606800F027FAFF28F4D106
:10796000012070BD0020FCE7F7B5037A01920446C0
:107970000D460BB9FFF790FF25B14FF496712046E5
:10798000FFF7DDFF606845F0400100F029FA0326AB
:1079900001AFB95D606800F023FA013EF9D2002D15
:1079A00060680CBF9521872100F01AFA606800F02A
:1079B000FCF90B25606800F0F8F90306607203D546
:1079C000013D15F0FF05F5D103B0F0BD70B50446DB
:1079D0000D46164637210022FFF7C6FF32462946DC
:1079E0002046BDE87040FFF7BFBF00002DE9F04121
:1079F00000250572057085724160044690461E465A
:107A000001F034F941460746606800F0BBF963684D
:107A1000494A1D720125DA601D822046FFF73CFFAE
:107A200063682946187D03F04CFF0A256068FF2132
:107A3000013D00F0D5F915F0FF05F7D1636829463F
:107A4000187D03F03EFF0A25002211462046FFF76D
:107A50008BFF0128804618D0013D15F0FF0507D1A6
:107A6000202320462370FFF726FF0020BDE8F08189
:107A70006068FD2100F0B4F94FF40278606800F00E
:107A800094F9B8F10108F9D1DEE74FF4D572082175
:107A90002046FFF769FF052814D184F80A800025E5
:107AA000BFB22A4629212046FFF790FF0246D8B1EF
:107AB0004FF4FA6239462046FFF7CAFE0028F0D09C
:107AC0004323CEE70425606800F06FF9013D15F00F
:107AD000FF056072F7D1AA2804D10223A3724FF0E8
:107AE0008045DDE72523BCE7A37A022B18D13A2194
:107AF0002046FFF739FF08B13723B2E7606800F08E
:107B000054F900F0C000C02804BF0323A3726068CA
:107B100000F04BF9606800F048F9606800F045F942
:107B20002046FFF7C8FE63683079B168B2891A82CF
:107B30001872D960012099E790D0030038B5837A94
:107B4000032B18BF490215460A4611210446FFF7C8
:107B50000BFF30B1302323702046FFF7ACFE002529
:107B60000BE029464FF400722046FFF7B7FE0546AA
:107B70000028F1D02046FFF79EFE284638BD10B5FC
:107B8000837A032B0A4618BF4A0212210446FFF7E4
:107B9000EBFE30B1312320462370FFF78CFE00202E
:107BA00010BD0120FCE710B500220C210446FFF7B0
:107BB000DBFE30B1282320462370FFF77CFE002037
:107BC00010BD2046FFF777FE0120F9E7F8B504461F
:107BD00016461F46FFF7D3FF68B10025ABB29F42A0
:107BE00006EB452109D94FF400722046FFF776FED7
:107BF00001350028F2D10020F8BD2046BDE8F8404C
:107C0000FFF7D1BF38B504461546406800F0E8F8E4
:107C10004FF400726068294600F0E6F86068FF21C2
:107C200000F0DEF86068FF2100F0DAF8606800F02C
:107C3000BCF8607200F01F00052806D057232046CC
:107C40002370FFF738FE002038BD0120FCE770B537
:107C5000837A032B18BF490215460A4618210446A9
:107C6000FFF782FE064630B1322323702046FFF72D
:107C700022FE00251FE02A46FE212046FFF7C2FF14
:107C80000028F3D04FF4FA612046FFF758FE05466E
:107C900008B95A23E9E732460D212046FFF764FE72
:107CA00008B12923E1E7606800F07FF80028F8D1E7
:107CB0002046FFF700FE284670BD13B501914FF432
:107CC000FA610446FFF73BFE019A30B95B2323704B
:107CD0002046FFF7F0FD002005E0FC212046FFF7DD
:107CE00091FF0028F4D002B010BD10B5837A032BA9
:107CF0000A4618BF4A0219210446FFF735FE30B183
:107D0000332320462370FFF7D6FD002010BD01204D
:107D1000FCE738B54FF4FA610446FFF710FE05465C
:107D200030B9562323702046FFF7C5FD284638BDDD
:107D30006068FD2100F054F8F5E7F8B504461646F2
:107D40001F46FFF7D2FF70B10025BD4206EB45216B
:107D5000204604D0FFF7B1FF28B10135F5E7BDE8B3
:107D6000F840FFF7D6BF2046FFF7A5FD0020F8BD7D
:107D7000014B01221A707047C0E50320011D006805
:107D800001F02EBB10B504460175006801F0FEFA43
:107D9000207D012103F084FD207D0121BDE81040FC
:107DA00003F08FBD006801F002BB0068FF2101F005
:107DB00085BB000037B51346074A00920025074CE3
:107DC000006825700A46294601F07EFB2378002BC7
:107DD000FCD0002003B030BD717D0D00C0E5032054
:107DE000006801F06BBB000037B51346064A0092ED
:107DF0000025064C006825702A4601F065FB2378B3
:107E0000002BFCD003B030BD717D0D00C0E5032018
:107E100013B500238DF8043001AA01234E21044636
:107E200000F055FEF923ADF8043001AA02234F21DA
:107E3000204600F04CFE02B010BD0A4611B92421C4
:107E400000F02DBE012902D100222621F8E70020F2
:107E500070470000F0B585B004469DF934C09DF927
:107E60003070CDE9027C9DF92CC0CDF804C09DF99D
:107E700028C0CDF800C016460D4600F0ADFB174BEC
:107E8000236016F0070307D0724202F0070258BFC2
:107E90005342C3F108031E44754348BF0735C5F379
:107EA000CF01002F4FEAE500E18521860CDB01239D
:107EB00084F84C300023C4E90D33A4F84430A4F80E
:107EC0004610204605B0F0BD80B201F0C9F96063EC
:107ED000208E01F0C5F9A063F3E700BFC4EC0D00EC
:107EE00010B590F92530002B044609DB94F92500E4
:107EF00080B203F0FFFC48B10A2002F0BFFFF5E7B3
:107F0000BDE810404FF4FA7002F0B8BF10BD13B5D1
:107F1000C72304468DF8043001AA0123222100F072
:107F2000D6FD01222021204600F0B9FD2046FFF7B2
:107F3000D7FF94F92530002B03DA4FF47A7002F062
:107F40009DFF02B010BD00002DE9F341044600F092
:107F500089FB642002F092FF2046FFF7C1FF012257
:107F60001221204600F09BFD2046FFF7B9FF542365
:107F70008DF800306A4620460123742100F0A7FDE9
:107F80004FF03B086A46204601237E218DF8008091
:107F900000F09DFD4FF4FD73ADF8003000266A46F9
:107FA00020460323012103258DF8026000F08FFD98
:107FB0006A462046012311218DF8005000F087FD0C
:107FC0004FF47063ADF800306A4620460223442126
:107FD00000F07DFD4FF4790300936A4620460423A8
:107FE000452100F074FD6A46204601233C218DF8AE
:107FF000005000F06CFD70238DF800306A4620467A
:1080000001232C2100F063FD15238DF800306A4612
:1080100029462046012300F05AFD4AF64103ADF8F7
:10802000003032272B466A46204604218DF8027024
:1080300000F04DFD30238DF800306A4620460123C4
:108040003A2100F044FD0A238DF800306A4641468B
:108050002046012300F03BFD394620460D4A4623C9
:1080600000F035FD6A46204601234E218DF8006060
:1080700000F02DFDF923ADF800306A4602234F21B0
:10808000204600F024FD2046FFF72AFF02B0BDE89D
:10809000F08100BF70EC0D0013B590F92330002B78
:1080A00004460BDB012301AA10218DF8043000F0F7
:1080B0000EFD642002F0E2FE02B010BD012212218A
:1080C00000F0EDFC2046FFF70BFFF5E710B5044686
:1080D00000F074FB20460122002100F0EBFA20465C
:1080E0000122002100F0FEFA236820461B6EBDE845
:1080F00010401847012241700270704707B5019087
:10810000FDF70CFF019903B05DF804EB01F0D6B95F
:1081100010B50446FDF702FF01F049F994F901009A
:108120000121BDE8104080B203F0CBBB30B585B073
:108130000B4B00930B4B0293044601230025ADF833
:108140000C308DF80450FDF7E9FE694601F048F95E
:1081500094F90100294680B203F0B3FB05B030BDAD
:1081600034E60D0000093D0070B5044690F90100A9
:10817000012180B203F094FB2046FFF7C9FF23786A
:108180009BB1FDF7CBFE01F001F92046FFF7CEFFD2
:1081900003252378CBB1FF20FFF7B0FF013DF8D1D5
:1081A0002046BDE87040FFF7B3BF94F902000121FB
:1081B00080B203F075FB94F90400012180B203F052
:1081C0006FFB2378002BE0D0DBE7082694F904004E
:1081D000002180B203F075FB94F90200012180B206
:1081E00003F06FFB94F90400012180B203F069FBF6
:1081F000013EEBD1D2E72DE9F04F85B00D469DF859
:1082000038B001921E460446FFF790FF2B128DF8FE
:108210000CB08DF80D308DF80E500DF10C0A0027C2
:1082200023781AF8019B9BB14846FFF767FFBBF123
:10823000020F02D10137032FF2D10025AE4225DD16
:1082400023781BB1019B585DFFF758FF0135F5E717
:108250004FF00808802594F90400002180B203F053
:1082600030FB94F9020019EA050118BF012180B220
:1082700003F027FB94F90400012180B203F021FBF5
:10828000B8F101084FEA5505E5D1D0E7204605B021
:10829000BDE8F04FFFF73CBF1FB58DF80F200093EE
:1082A0000DF10F020123FFF7A6FF05B05DF804FBF7
:1082B0002DE9F04F85B00E469DF838B00193044685
:1082C0001546FFF733FF33128DF80CB08DF80D30E3
:1082D0008DF80E600DF10C0A002723781AF8019B27
:1082E000ABB14846FFF70AFFBBF1030F02D10137DC
:1082F000032FF2D1019B2B449846A8453FD0237809
:108300001BB30020FFF7FAFE28700135F5E74FF0A8
:108310000808802694F90400002180B203F0D1FA05
:1083200094F9020019EA060118BF012180B203F096
:10833000C8FA94F90400012180B203F0C2FAB8F13E
:1083400001084FEA5606E5D1CEE7082794F9040064
:10835000002180B203F0B5FA94F90400012180B243
:1083600003F0AFFA94F903002E7880B203F0C2FA5A
:10837000760076B23043013F2870E7D1C5E720464A
:1083800005B0BDE8F04FFFF7C3BE1FB50123009253
:108390000DF10F02FFF78CFF9DF80F0005B05DF89F
:1083A00004FB2DE9F74F0E461D4604469046FFF7A5
:1083B000BDFE02238DF8043033128DF805308DF8A0
:1083C00006600DF1040B002723781BF801AB7BB18D
:1083D0005046FFF793FE0137032FF5D10027B8452C
:1083E00042D0237813B32846FFF788FE0137F6E71B
:1083F0004FF00809802694F90400002180B203F0B0
:1084000060FA94F902001AEA060118BF012180B24D
:1084100003F057FA94F90400012180B203F051FAF5
:10842000B9F101094FEA5606E5D1D4E74FF0080942
:10843000802694F90400002180B203F042FA94F9F6
:10844000020015EA060118BF012180B203F039FAD3
:1084500094F90400012180B203F033FAB9F1010963
:108460004FEA5606E5D1C1E7204603B0BDE8F04F1C
:10847000FFF74EBE2DE9F7430F1E054614469946F9
:10848000C0F2A680FDF740FDB84240F3A180002C69
:10849000C0F29E802846FDF73AFDA04240F3988046
:1084A000B5F80A8018F0070F1CBF28F0070808F17C
:1084B0000808284618BF1FFA88F8FDF723FD022890
:1084C00031D0032837D0012804D12A89E44322443B
:1084D0003C4617B2B5F9086095F84C30013EF61BE2
:1084E00008FB0646A9F10307F008BFB2C6F3CF06A2
:1084F00033B3012F94BFB5F84810B5F84A100E44B5
:10850000B6B20322314605F12700FFF73EFF012FE7
:108510008DF807000DF1070017D9B9F1000F45D10B
:1085200095F82C3013E02989E4430139CF1B4444EA
:108530003FB224B2CEE7F943414427460CB2C9E723
:10854000012F80B214D8EB6B184495F82D3093B1FD
:10855000634203F0070304F0070458BF5C42C4F110
:1085600007040123A340047824EA0304047010E004
:108570002B6C1844D1E7634203F0070304F00704AF
:1085800058BF5C420278C4F107040123A34013439F
:10859000037095F84C30DBB102780223314605F1C7
:1085A000270003B0BDE8F043FFF776BEB9F1020F34
:1085B000EFD1634203F0070304F0070458BF5C42A5
:1085C000C4F10704012303FA04F403785C40CDE707
:1085D00003B0BDE8F083000070B512B2044609B2E2
:1085E0009DF918501E46FDF741FA2046134B40F8FE
:1085F000273B2946FFF77EFD9DF9143084F824308F
:108600009DF9103084F823309DF91C3084F8253012
:10861000ED430123ED0F84F84D300023C4E90D3301
:10862000C4E90F33C4E9113384F8226084F84C5054
:1086300084F826302386E385204670BD30ED0D009A
:1086400010B5074B03600446406B18B100F010FEF4
:1086500000236363A06B08B100F00AFE204610BD42
:1086600030ED0D0010B5044690F92300002820DB02
:10867000012180B203F014F994F92300012180B2A2
:1086800003F01FF90A2002F0F9FB94F923000021FE
:1086900080B203F016F90A2002F0F0FB94F92300EF
:1086A000012180B203F00DF9BDE810400A2002F06C
:1086B000E5BB10BD61B990F84C3033B1B0F844302F
:1086C000A0F84A3080F82C207047436B0364F9E728
:1086D0000129F7D190F84C3013B1B0F84630EFE7EC
:1086E000836BF3E761B990F84C3033B1B0F84430A4
:1086F000A0F8483080F82D207047436BC363F9E73A
:108700000129F7D190F84C3013B1B0F84630EFE7BB
:10871000836BF3E710B590F84C300446C3B1C28DBB
:1087200042B194F82C30B4F84410273003B1FF2341
:10873000FFF737FE228EFAB194F82D30B4F84610C8
:1087400004F1270003B1FF23BDE81040FFF729BE65
:10875000406B30B194F82C10E28D01B1FF2105F08F
:108760003FFCA06B40B194F82D10228E01B1FF2187
:10877000BDE8104005F034BC10BD90F92200012185
:1087800080B203F09EB890F92200002180B203F07D
:1087900098B8000010B50446FDF7C0FB00F007FED6
:1087A000054B94F9240000221A70BDE81040012105
:1087B00080B203F086B800BFC1E5032037B50122BF
:1087C0000D4600210446FFF775FF00220121FFF747
:1087D00089FF90F84C304BB127300190FFF7C4FC73
:1087E0000198012340220021FFF756FD94F9220051
:1087F000012180B203F054F894F92400012180B2E1
:1088000003F04EF82046FFF7C5FF94F84D30D3B97A
:1088100094F92000012180B203F042F894F921007C
:10882000012180B203F03CF815B12046FFF71AFF92
:1088300094F9250000280BDB002180B203B0BDE8CD
:10884000304003F02DB8FDF769FB00F09FFDEBE72A
:1088500003B030BD7FB50D4D2B78044673B90C4A7B
:108860008DF8043001260B4B00920293ADF80C609A
:10887000FDF754FB694600F0B3FD2E7094F9240017
:10888000002180B203F01DF804B070BDC1E50320E3
:1088900034E60D0000093D00F8B590F84D3005466E
:1088A0000E46B3B190F8263063B1FFF7D3FFFDF762
:1088B00035FB314600F002FE04462846FFF76AFF0A
:1088C0002046F8BDFDF72AFB3146BDE8F84000F030
:1088D000F5BD0824802795F92100002180B202F01F
:1088E000F0FF95F9200016EA070118BF012180B2B8
:1088F00002F0E7FF95F92100012180B202F0E1FFCB
:10890000013C4FEA5707E6D1DAE72DE9F041036869
:1089100004469B6D9847236800225B6D11462046F4
:10892000984794F84C50B5B304F127073846FFF741
:10893000FDFB03212046FFF7AFFFB4F844102046AB
:10894000090AFFF7A9FF94F844102046FFF7A4FF97
:10895000236800211B6D2046984705462046FFF7F7
:108960000CFF0026E28DB3B29A4206D92946204672
:10897000FFF792FF01360546F4E72046FFF70AFFAE
:108980003846FFF7C5FB238EE3B92368DB6D20462D
:10899000BDE8F0411847236829461B6D20469847DB
:1089A0002046FFF7EAFEE28DABB29A4206D9626B2F
:1089B0002046D15CFFF770FF0135F4E72046FFF752
:1089C000E9FEE0E7022002F059FA236800225B6D1D
:1089D00011462046984794F84C50ADB304F1270750
:1089E0003846FFF7A3FB03212046FFF755FFB4F8F5
:1089F00046102046090AFFF74FFF94F8461020461C
:108A0000FFF74AFF236801211B6D20469847054662
:108A10002046FFF7B2FE0026228EB3B29A4206D954
:108A200029462046FFF738FF01360546F4E7204681
:108A3000FFF7B0FE3846FFF76BFB23682046DB6D7F
:108A4000984723681B6EA2E7236801211B6D20460F
:108A500098472046FFF791FE228EABB29A4206D984
:108A6000A26B2046D15CFFF717FF0135F4E72046E3
:108A7000FFF790FEE1E770B50C4615460646FFF796
:108A80007CFE2544AC4205D014F8011B3046FFF7AC
:108A900003FFF7E73046BDE87040FFF77BBE73B5D4
:108AA000044601911646FFF775FE2046FFF76BFE60
:108AB0002046FFF7CFFE01992046FFF7EDFE054661
:108AC00016B12046FFF766FE284602B070BD70B5AD
:108AD000044615461E460022FFF7E1FF32462946AE
:108AE0002046BDE87040FFF7C6BF2DE9F8430446B5
:108AF00002F05AFF682102F0C3FD02F055FF03683F
:108B000000219B68984702F04FFF02F0C0FD02F081
:108B10004BFF0722682102F0ACFD02F045FF03681D
:108B20005B69984700F07F09C0F30210A0EB80005A
:108B300009EB40005FFA80F902F036FF03685B69D9
:108B40009847C0F30315A5EB850500EB4500C5B2BA
:108B500002F02AFF03685B699847C0F30316A6EB8F
:108B6000860600EB4600C6B202F01EFF03685B6992
:108B7000984702F019FF03685B699847C0F3031731
:108B8000A7EB870700EB4700C7B202F00DFF0368B1
:108B90005B699847C0F30318A8EB880800EB48000E
:108BA0005FFA80F802F000FF03685B699847C0F342
:108BB0000313A3EB830300EB4300207084F80180D0
:108BC000A770E670257184F805902046BDE8F8830B
:108BD00010B50446FFF789FF204610BD08B5024BCB
:108BE0001B689B68019308BD6802030008B5024B2F
:108BF0001B68DB68019308BD6802030008B5024BDF
:108C00001B689B68019308BD2C02030008B5024B4A
:108C10001B68DB68019308BD2C02030008B5024BFA
:108C20001B681B69019308BD2C02030008B5024BA9
:108C30001B685B69019308BD2C02030008B5024B59
:108C40001B685B68019308BD1802030008B5024B5E
:108C50001B68DB68019308BD1802030008B5024BCE
:108C60001B681B69019308BD1802030008B5024B7D
:108C70001B685B69019308BD1802030008B5024B2D
:108C80001B689B6A019308BD1802030008B5024BDC
:108C90001B685B6C019308BD1802030008B5024B0A
:108CA0001B689B6C019308BD1802030008B5024BBA
:108CB0001B689B6D019308BD1802030008B5024BA9
:108CC0001B68DB6D019308BD1802030008B5024B59
:108CD0001B685B6E019308BD1802030008B5024BC8
:108CE0001B689B68019308BD7802030008B5024B1E
:108CF0001B681B6D019308BD7802030008B5024B89
:108D00001B689B6D019308BD7802030008B5024BF8
:108D10001B681B6E019308BD7802030008B5034B66
:108D20001B68D3F89830019308BD00007802030057
:108D300008B5034B1B68D3F8A830019308BD0000A9
:108D40007802030008B5034B1B68D3F8EC3001939D
:108D500008BD00007802030008B5034B1B68D3F878
:108D6000F030019308BD00007802030008B5024B03
:108D70001B685B6C019308BD4802030008B5024BF9
:108D80001B689B6C019308BD4802030008B5024BA9
:108D90001B68DB6C019308BD4802030008B5024B59
:108DA0001B685B6D019308BD4802030008B5024BC8
:108DB0001B685B69019308BD6402030008B5024BA0
:108DC0001B681B68019308BD3C02030008B5024BF9
:108DD0001B68DB68019308BD3C02030008B5024B29
:108DE0001B681B69019308BD3C02030008B5024BD8
:108DF0001B685B69019308BD3C02030008B5024B88
:108E00001B689B69019308BD3C02030008B5024B37
:108E10001B68DB69019308BD3C02030008B5024BE7
:108E20001B681B6A019308BD3C02030008B5024B96
:108E30001B689B6A019308BD3C02030008B5024B06
:108E40001B68DB68019308BD2802030008B5024BCC
:108E50001B689B69019308BD2802030008B5024BFB
:108E60001B68DB69019308BD2802030008B5024BAB
:108E70001B681B6A019308BD2802030008B5024B5A
:108E80001B685B6A019308BD2802030008B5024B0A
:108E90001B689B6A019308BD2802030008B5024BBA
:108EA0001B68DB6A019308BD2802030008B5024B6A
:108EB0001B681B6B019308BD2802030008B5024B19
:108EC0001B685B6B019308BD2802030008B5024BC9
:108ED0001B681B6C019308BD2802030008B5024BF8
:108EE0001B689B6C019308BD2802030008B5024B68
:108EF0001B68DB6C019308BD2802030008B5024B18
:108F00001B681B6D019308BD2802030008B5024BC6
:108F10001B681B68019308BD3002030008B5024BB3
:108F20001B685B69019308BD3002030008B5024B62
:108F30001B68DB69019308BD3002030008B5024BD2
:108F40001B681B6A019308BD3002030008B5024B81
:108F50001B685B6A019308BD3002030008B5024B31
:108F60001B689B6A019308BD3002030008B5024BE1
:108F70001B689B6B019308BD3002030008B5024BD0
:108F80001B68DB6B019308BD3002030008B5024B80
:108F90001B681B6C019308BD3002030008B5024B2F
:108FA0001B685B6C019308BD3002030008B5024BDF
:108FB0001B685B6C019308BD7402030008B5034B8A
:108FC0001B68D3F88830019308BD000074020300C9
:108FD00008B5034B1B68D3F89030019308BD00001F
:108FE0007402030008B5024B1B685B68019308BD5F
:108FF0005802030008B5024B1B681B68019308BDAB
:109000004C02030008B5024B1B685B68019308BD66
:109010004C02030008B5024B1B681B69019308BD95
:109020004C02030008B5024B1B685B69019308BD45
:109030004C02030008B5024B1B689B69019308BDF5
:109040004C02030008B5024B1B68DB69019308BDA5
:109050004C02030008B5024B1B681B6A019308BD54
:109060004C02030008B5024B1B685B6B019308BD03
:109070006002030008B5024B1B681B6D019308BD1D
:109080006002030008B5034B1B68D3F898300193C6
:1090900008BD00006002030008B5024B1B681B6896
:1090A000019308BD2002030008B5024B1B685B68F2
:1090B000019308BD2002030008B5024B1B685B69E1
:1090C000019308BD2002030008B5024B1B68DB6A50
:1090D000019308BD2002030008B5024B1B689B6D7D
:1090E000019308BD2002030008B5034B1B68D3F8A9
:1090F0008830019308BD00002002030008B5034B2F
:109100001B68D3F89430019308BD000020020300CF
:1091100008B5024B1B685B68019308BD4002030061
:1091200008B5024B1B689B68019308BD4002030011
:1091300008B5024B1B68DB68019308BD40020300C1
:1091400008B5024B1B681B69019308BD4002030070
:1091500008B5024B1B685B69019308BD4002030020
:1091600008B5024B1B689B69019308BD40020300D0
:1091700008B5024B1B68DB69019308BD4002030080
:1091800008B5024B1B681B6A019308BD400203002F
:1091900008B5024B1B681B6B019308BD400203001E
:1091A00008B5024B1B685B6B019308BD40020300CE
:1091B00008B5024B1B681B6C019308BD40020300FD
:1091C00008B5024B1B685B6C019308BD40020300AD
:1091D00008B5024B1B681B68019308BD44020300DD
:1091E00008B5024B1B685B68019308BD440203008D
:1091F00008B5024B1B689B68019308BD440203003D
:1092000008B5024B1B685B69019308BD440203006B
:1092100008B5024B1B68DB69019308BD44020300DB
:1092200008B5024B1B68DB6A019308BD44020300CA
:1092300008B5024B1B681B6B019308BD4402030079
:1092400008B5024B1B685B6B019308BD4402030029
:1092500008B5024B1B68DB6B019308BD4402030099
:1092600008B5024B1B681B68019308BD1C02030074
:1092700008B5024B1B685B68019308BD1C02030024
:1092800008B5024B1B689B68019308BD1C020300D4
:1092900008B5024B1B68DB68019308BD1C02030084
:1092A00008B5024B1B685B6A019308BD1C020300F2
:1092B00008B5024B1B68DB6A019308BD1C02030062
:1092C00008B5024B1B68DB6B019308BD1C02030051
:1092D00008B5024B1B685B6C019308BD1C020300C0
:1092E00008B5024B1B68DB6C019308BD1C02030030
:1092F000002240681146FFF743BF00224068114634
:10930000FFF74EBF40680022FFF742BF40680022CF
:1093100081F00101FFF72CBF002340681A4619466F
:10932000FFF71EBF002340681A461946FFF710BF1B
:10933000002240681146FFF703BF00224068114633
:10934000FFF7EEBE406800220221FFF7F1BE0023C6
:1093500040681A46FFF7DCBE024B03225A60024AFD
:109360001A607047C4E503209CED0D000021FFF753
:109370000DBE0021FFF712BE10B50446084621704D
:10938000FFF7D4FD00236360204610BD10B50446EE
:109390000078FFF7EBFF48B920784FF6FF71FFF731
:1093A000B5FD2078BDE81040FFF7E3BF10BD0078A1
:1093B000FFF7DFBF400830B5186000241868884206
:1093C000E5B206D90134082C02D040081860F5E750
:1093D0000725024B5B5D137030BD00BFD0ED0D0063
:1093E0002DE9F04306468FB000780C46FFF7BEFF2C
:1093F00000281BDB35781422002109A804F0F0FDB9
:109400000B23002209A92846ADF82430FFF79EFD62
:109410009DF82D3013B19DF82C5055B10027B94659
:10942000B846012523795DB1C3B100200FB0BDE876
:10943000F083DDF830809DF834909DF83570F1E7C9
:10944000002B35D1A368434508D18DF820908DF8C5
:109450002170BDF82020A3899A42E6D00023A1689C
:109460008DF80F300A9804AB0DF10F02FFF7A2FF41
:10947000217985B989B9A36843450ED38DF8209029
:109480008DF82170BDF82020A3899A4205D1049B54
:10949000434502D1C9E70029F9D100230193637B39
:1094A00000939DF80F20237B3078FFF767FDBCE722
:1094B000CDE900552B462A460121F5E708B500788D
:1094C000FFF72CFDC0B208BD30B587B004460A9D39
:1094D00000950078FFF742FD3DB9207802A9FFF71B
:1094E00045FD9DF81430DB07F7D407B030BD000010
:1094F00010B5094B094C022200201A60084B20606D
:10950000A080A071A360FFF7CFFD2046054A064961
:10951000BDE8104002F098BAD8E50320CCE503205E
:109520000000FFFF20DE032069410D0010B5044656
:1095300004F094FD013823182046834206D90278AE
:10954000197800F8011B03F80129F6E710BD70B582
:109550000C46911E2229054622D820466DB1B5FB46
:10956000F2F602FB1655E9B2092D94BF303157319E
:10957000C9B200F8011B3546F0E70246234430210A
:10958000934202D902F8011BFAE71A1A834238BF44
:109590000022002383542046FFF7C8FF204670BDF9
:1095A0000020FCE738B5031E0C4615460EDAB3F171
:1095B000004F4FF02D0214BF5842184601230A7085
:1095C0002A461944FFF7C3FF204638BD0123F9E7B7
:1095D00010B504460068FFF74BFE204610BD10B5DD
:1095E0000446006808B1FFF743FE0023C4E90133D5
:1095F000236010BD38B504460D4600680131FFF701
:109600003FFE10B1C4E90005012038BD10B5036864
:10961000044623B143688B4201D3012010BD20468C
:10962000FFF7E8FF0028F9D0A368002BF5D12268E6
:109630001370F2E737B50D46114601920446FFF765
:10964000E5FF019A28B92046FFF7C9FF204603B07D
:1096500030BDA2602946206804F09AFC2268A36805
:109660000021D154F2E7002313B5C0E900330446CA
:109670008360037341B10846019104F0EFFC019946
:1096800002462046FFF7D6FF204602B010BD38B58F
:10969000054600680C4668B16A688B689A4207D331
:1096A000096804F0D3FCA368AB600023A36038BD55
:1096B000FFF7DEFD23682B6063686B60A368AB6017
:1096C0000023C4E90033F1E7884210B5044605D011
:1096D0000B682BB18A681946FFF7ACFF204610BD16
:1096E000FFF77DFFFAE710B500230446C0E9003319
:1096F00083600373FFF7E8FF204610BD884210B572
:10970000044601D0FFF7C3FF204610BD13B5044641
:1097100059B10846019104F0A1FC01990246204686
:10972000FFF788FF204602B010BDFFF758FFF9E7AA
:1097300010B504468AB00023C4E90033A360237344
:10974000084601A9FFF72EFF01A92046FFF7DEFF1B
:1097500020460AB010BD70B505460E4609B9002076
:1097600070BD6AB1846814442146FFF74FFF00289A
:10977000F5D02868AB683146184404F067FCAC604B
:109780000120EDE710B58A6809680446FFF7E3FF9A
:1097900010B92046FFF723FF204610BD13B504463D
:1097A00029B92046FFF71BFF204602B010BD08462E
:1097B000019104F053FC019902462046FFF7CBFFCC
:1097C0000028EED0F0E758B50E462AB121B18468E2
:1097D000A34202D300230B7058BDE41A013A01687A
:1097E000944228BF144619442246304604F03EFCF9
:1097F00000233355F0E7006808B104F0A9BB7047B7
:109800007047704770477047064B994210B500F19A
:109810000C0405D0084602F023F9002808BF0024F4
:10982000204610BD20EF0D00064B994210B500F107
:109830000C0405D0084602F013F9002808BF0024E4
:10984000204610BD20EF0D00064B994210B500F1E7
:109850000C0405D0084602F003F9002808BF0024D4
:10986000204610BD20EF0D0010B56821044602F01F
:10987000F0F8204610BD10B52821044602F0E9F8A2
:10988000204610BD10B53021044602F0E2F8204613
:1098900010BDFAF704BCFAF702BCFAF700BC10B529
:1098A000036804469B689847A368013BA3602BB9F3
:1098B00023682046DB68BDE81040184710BD10B58E
:1098C0000446006808B1FFF759FA204610BD0000B1
:1098D00010B5044B04461868FFF758FA01232370AB
:1098E00010BD00BFE4E5032010B5044B0446186822
:1098F000FFF754FA0023237010BD00BFE4E50320F6
:10990000F0B50025EC1C8C420DD86E1C445D875DC3
:10991000974205D12644B14205D31D60601CF0BDBD
:1099200001342544EEE70020F9E72DE9F34704462A
:109930009DF828701E46894601AB90460A46016A8A
:10994000FFF7DEFF256AB31C17BB08B35F193F1A88
:109950001F2F19D8DDF8049009F1020AA5EB0902BE
:10996000121A00EB090106EB0A0092B221442044CE
:1099700004F01CFB731C04F809303246414604EB2A
:109980000A0004F005FB2762206A02B0BDE8F087F8
:109990002B441F2BF8D8731C6355A81C2544206248
:1099A000324685F801904146204404F0F1FA236ADA
:1099B00033442362E8E70000024A00210A20FFF74F
:1099C00051BB00BF4D8C0D00022A38B5044607D0AC
:1099D000032A11D0012A01D10B682360002038BD71
:1099E00008200D68FAF757FB03460028F5D095E8E4
:1099F000030083E80300F0E700680028EED00821A8
:109A000002F027F8EAE730B40D4611461A4603681B
:109A100009682868D3E90043A44630BC604710B504
:109A20008368044613B1032201469847204610BDBF
:109A300010B504465830FFF7F2FF04F14800BDE8C6
:109A40001040FFF7C5BDA0F13003DAB2092A01D8F2
:109A500018467047A0F16103052B01D857387047AD
:109A6000A0F14103052B94BF37384FF0FF3070470A
:109A700010B5002304460370FFF72AFF204610BDEF
:109A800010B5037804460BB1FFF72EFF204610BD3A
:109A900082B00346086849686A4603C26A4603CA38
:109AA00018601846596002B0704708B582798B7902
:109AB0009A4206D1062204F05DFAB0FA80F040091D
:109AC00008BD0020FCE74FF0FF33036083800020D7
:109AD0007047002108B5016041600246FFF7F3FFBF
