:02000002D0002C
:1040000000400D0030FF0D00000006000D0005010E
:084010000401BD0B00000000DB
:044018008CEC0D001F
:1040200009480A49884208B505D0094A824202D0A7
:10403000121A0AF0EDFC0748074A0021121A0AF08A
:104040000FFD014808BD00BFA8DD03209CFE0D0048
:1040500014DE032018DE0320F4E7032070B5074EBA
:10406000074C07F0DDFAA41BA4080025A54200D1E7
:1040700070BD56F8043B98470135F7E76CFE0D001C
:1040800090FE0D0000F09CBD08B501F0DFFABDE820
:10409000084007F087BA05F00BBB05F009BB05F037
:1040A0000FBB000008B5034A00210C2005F0EAF917
:1040B000FEE700BF09900D000078B0FA80F04009DB
:1040C0007047012303707047106870477047037C86
:1040D00013F008031EBFC36A406A1B1A002BACBF53
:1040E00018466FF0004070477047704710B51021B8
:1040F000044608F0EEF9204610BD10B53421044600
:1041000008F0E7F9204610BD103003F003BB103073
:1041100003F01DBA07B501220DF10701103003F0BD
:1041200033F901280CBF9DF807004FF0FF3003B0B2
:104130005DF804FB103003F077BB07B501228DF862
:10414000071010300DF1070103F06EFB03B05DF8AE
:1041500004FB000010B5034B0360044604F0C6FCEA
:10416000204610BD28F80D0010B50446006808B1BF
:1041700005F0A6FA204610BD08B5002005F080FA2B
:1041800028B105F05DFA80F00100C0B208BD012041
:10419000FCE7F8B50C1E074616460CDA0A2A0AD1C7
:1041A0002D2106F0E9FE61420546F2B2384606F0DE
:1041B000FCFE2844F8BD21460025F6E707B505F0CA
:1041C0004AFDC0B2022817D0032805D0012816D016
:1041D000012003B05DF804FB3C23019308F0DEF8F6
:1041E00004220DEB020140F2091004F035FF054BEB
:1041F000019A1A600020ECE74FF49673EDE74FF454
:104200001673EAE730DE032010B586B0002301A95B
:104210001422044605F007FD08F0C0F8142201A995
:104220000A2004F019FF2146024805F07DFC002019
:1042300006B010BDC0E3032007B505F00CFDC0B209
:10424000022817D0032805D0012815D0012003B07B
:104250005DF804FB0523019308F0A0F804220DEBA0
:1042600002014FF4827004F0F7FE044B019A1A60C9
:104270000020ECE70A23EEE71423ECE7BCE203207E
:1042800007B505F0E8FCC0B2022817D0032805D016
:10429000012815D0012003B05DF804FB052301932C
:1042A00008F07CF804220DEB02014FF4827004F058
:1042B000D3FE044B019A1A600020ECE70A23EEE7D4
:1042C0001423ECE728DE03200EB403B503AB002172
:1042D00053F8042B019306F05EFF02B05DF804EB87
:1042E00003B0704773B5044608462279A36832B11B
:1042F000A3B90B4902B0BDE8704006F039BE094AC7
:10430000267B094D0949647B012E18BF2946CDE95A
:1043100000140749FFF7D8FF02B070BD054AEFE768
:10432000B1EC0D0003ED0D00ADEC0D00A9EC0D009E
:10433000C7EC0D00A0EC0D000EB403B503AB0121DA
:1043400053F8042B019306F026FF02B05DF804EB4E
:1043500003B0704738B504460E4D07F02BFD0E49EB
:10436000FFF7EAFF24782B68A34207D107F022FD6C
:104370000A49FFF7E1FF00232B6038BD07F01AFD63
:104380000749FFF7D9FF07F015FD06492246FFF759
:10439000D3FFF2E7BCE30320E4EC0D0004ED0D00D5
:1043A0001FED0D0066ED0D002DE9F04F2DED028B98
:1043B000A7B0044608EE101A0A22418822A805F088
:1043C000E7FB00230AA9062222A805F02CFC22A85C
:1043D00005F02EFBA1880A2222A805F0D9FB0023B4
:1043E0000CA9062222A805F01EFC22A805F020FB3D
:1043F0000EADE1880A2222A805F0CAFB0023294657
:10440000062222A805F00FFC22A805F011FB218945
:104410000A2222A805F0BCFB002310A9062222A82C
:1044200005F001FC22A805F003FB61890A2222A8FD
:1044300005F0AEFB002312A9062222A805F0F3FB2B
:1044400022A805F0F5FA14AEA1890A2222A805F0E7
:104450009FFB00233146062222A805F0E4FB22A898
:1044600005F0E6FA16AFA18A0A2222A805F090FB11
:1044700000233946062222A805F0D5FB22A805F024
:10448000D7FA0DF16008E18A0A2222A805F080FB24
:1044900000234146062222A805F0C5FB22A805F00C
:1044A000C7FA0DF16809218B0A2222A805F070FBDA
:1044B00000234946062222A805F0B5FB22A805F0F4
:1044C000B7FA0DF1700AE1890A2222A805F060FB13
:1044D00000235146062222A805F0A5FB22A805F0DC
:1044E000A7FA0DF1780B218A0A2222A805F050FBC9
:1044F00000235946062222A805F095FB22A805F0C4
:1045000097FA618A0A2220AC22A805F041FB2146D5
:104510000023062222A805F086FB22A805F088FACF
:1045200012AB029310ABCDE90053CDE908B4CDE94D
:10453000069ACDE904780649039618EE100A0CABEA
:104540000AAA05F0CDF827B0BDEC028BBDE8F08FCC
:10455000FCED0D002DE9F04F2DED028B0446CDB0A2
:1045600008EE101A26A9FFF71FFFE069394D09F080
:10457000CDFB02460B4610A8294605F0B1F8206A8B
:1045800009F0C4FB0DF14C0902460B46484629468A
:1045900005F0A6F8606A09F0B9FB0DF1640A02465D
:1045A0000B465046294605F09BF8A06A09F0AEFB81
:1045B0000DF1580B02460B465846294605F090F877
:1045C00094F82C30009394F82D3094F82E20224942
:1045D0001CA805F085F894F82F30009394F830303B
:1045E000628E1E490AAE21A805F07AF80DF12C085A
:1045F0001B490022304605F073F80CAF1849002221
:10460000404605F06DF800221549384605F068F877
:10461000606B09F07BFB0DAC02460B462046294639
:1046200005F05EF810AB059326ABCDE90383CDE929
:1046300007ABCDE901760B49CDF8189018EE100ABA
:1046400000941CAB21AA05F04BF84DB0BDEC028BD9
:10465000BDE8F08F77ED0D007CED0D0085ED0D00D0
:104660008BED0D008EED0D00F0B50024D7B0026883
:10467000ADF85440054623460F4615A84149424E21
:1046800003F085F82A68414B4FF47A7100285ED117
:10469000CDE91601ADF864003A49159319A844F222
:1046A000022319AD03F073F80FCD06F110040FC407
:1046B0000FCD0FC42B682360169B7360179BB360EC
:1046C000189BF360324B1393324B1293324B11937E
:1046D000324B1093324B0F93324B0E93324B0D9360
:1046E000324B0C93324B0B93324B0A93324B099360
:1046F000324B0893324B0793324B0693324B059360
:10470000324B0493324B0393324B0293324B01935F
:10471000324B334A3349009315A8334B04F0E0FF82
:10472000324B3046196806F036FC15A9304606F0C3
:1047300032FC337C2E4C3BB13968134806F02BFC1D
:104740002C4803F01DF80123237057B0F0BDCDE9CC
:104750001641ADF864400B49159319A844F20223A1
:1047600019AC03F014F80FCC06F110050FC50FCCEF
:104770000FC523682B60169B7360179BB360189B53
:10478000F360D6E770E2032060E40320ACF10D0093
:1047900038EE0D0040EE0D0047EE0D004DEE0D0021
:1047A00055EE0D005EEE0D0068EE0D0070EE0D0092
:1047B00079EE0D0083EE0D008BEE0D0093EE0D00F3
:1047C0009AEE0D00A1EE0D00A8EE0D00AFEE0D006B
:1047D000B6EE0D00C0EE0D00C9EE0D00CDEE0D00E1
:1047E000C6ED0D00CBED0D00C1ED0D00C0E30320C3
:1047F000B8E2032070E4032042884B6813444B6006
:1048000082888B6813448B60C288CB681344CB606A
:1048100002890B6913440B6142894B6913444B6154
:1048200082898B6913448B61C289CB691344CB6144
:10483000028A0B6A13440B62428A4B6A13444B622E
:10484000828A8B6A13448B62C28ACB6A1344CB621E
:10485000028B0B6BD1ED0D7A13440B6390ED077A4D
:10486000B1F8443077EE877A0133C1ED0D7A90EDDF
:10487000087AD1ED0E7A77EE877AC1ED0E7A90ED57
:10488000097AD1ED0F7A77EE877AC1ED0F7A90ED44
:104890000A7AD1ED107AA1F8443077EE877AC1ED2B
:1048A000107A7047536810B5B2F84440B3FBF4F384
:1048B0004B80B2F844409368B3FBF4F38B80B2F8BA
:1048C0004440D368B3FBF4F3CB80B2F8444013699F
:1048D000B3FBF4F30B81B2F844405369B3FBF4F338
:1048E0004B81B2F844409369B3FBF4F38B81B2F887
:1048F0004440D369B3FBF4F3CB81B2F84440136A6C
:10490000B3FBF4F30B82B2F84440536AB3FBF4F305
:104910004B82B2F84440936AB3FBF4F38B82B2F853
:104920004440D36AB3FBF4F3CB82B2F84440136B38
:10493000B3FBF4F30B83B2F84430D2ED0D6A07EE0B
:10494000903AF8EEE77A86EEA77A81ED077AB2F828
:104950004430D2ED0E6A07EE903AF8EEE77A86EE32
:10496000A77A81ED087AB2F84430D2ED0F6A07EEEB
:10497000903AF8EEE77A86EEA77A81ED097AB2F8F6
:104980004430D2ED106A07EE903AF8EEE77A86EE00
:10499000A77A81ED0A7A90F82C3081F82C3090F8C3
:1049A0002D3081F82D3090F82E3081F82E3090F88F
:1049B0002F3081F82F3090F8303081F83030438E2E
:1049C0004B8610BD00230022C0E90133C0E9033348
:1049D000C0E90533C0E90733C0E90933C0E90B3347
:1049E000037042638263C2630264A0F8443070477C
:1049F00030B5264CB7B0204604F0E2F8204601213D
:104A000001F03DF92249AF220AA80AF001F8002579
:104A100028222323CDE9013500920DEB0203204625
:104A20005F2101F0DFF92D232946102206A8059306
:104A30000AF016F807F0B2FC14220DEB02010A206E
:104A400004F002FB2046012101F0FAFB502220462F
:104A5000612101F0F2FB2946204601F0F6FB0D49E9
:104A6000204606F085FA5A222046492101F0E5FB4E
:104A70000949204606F07CFA05A9204606F078FA96
:104A8000204604F098F937B030BD00BFD0E30320D2
:104A9000CCF10D00D5EE0D00DCEE0D0010B5A0B090
:104AA00005F0F0FC05F03CFD3D493E48002206F0D3
:104AB00039F805F0E7FC3C4A014617A806F026F94C
:104AC00017A805F0B4FD05F0DDFC364A014617A82D
:104AD00006F01CF917A805F0AAFD17A805F043FB7E
:104AE00032490AA805F042FA0AA90FA805F03EFAD1
:104AF0000FA805F081FA04460FA8002C47D105F055
:104B00009AFA0094ADF81800022306AA032117A808
:104B100005F01EFB02A804F09BFD25490FA805F037
:104B200012F824490FA805F069F802A905F05AF80F
:104B3000014606A805F007F80FA804F079FF1E4902
:104B40000AA804F0C0FF1A4917A805F037FB1B4B51
:104B50000F9300244FF47F430FA9ADF84030072294
:104B6000234617A88DF8424005F02BFB05F08AFC80
:104B7000224617A905F0F4FC0AA804F059FF06A87C
:104B800004F056FF02A804F053FF20B010BD05F05A
:104B900057FA00230093024610230721B7E700BF0E
:104BA00055430D00A0E50320A8E50320CCE2032037
:104BB000C0E3032056F00D00E5EE0D00FFFF5500A9
:104BC00070B501218AB0132007F0AAFB012108204B
:104BD00007F0A6FB0121132007F0B3FB01210820F9
:104BE00007F0AFFB624A6349634806F0A6FD634ADB
:104BF0006349614806F0A1FD624A63495E4806F0D8
:104C00009CFD624A62495C4806F097FD6149624832
:104C10000023022204F0FCFC6049614800230222C8
:104C200004F0F6FC5F4960480023022204F0F0FC27
:104C300000240C230594ADF814305C4B5C490693BA
:104C4000042205AB5B48079404F0E2FC21460120F6
:104C500004F0C4FB0125204604F0CAFB2A4641F6B5
:104C6000C6710DF103008DF8035004F0CBFB5248E0
:104C7000234622462146406804F092FC07F09AF849
:104C80004FF4E13107F08AF84FF47A7006F086FBB2
:104C90008DF81840494C4A4B059304F58C66494BF6
:104CA0000793022205AB04F26C413046ADF8205068
:104CB00003F0F2F8F8B1266004F23C4002F060FD27
:104CC0002946204602F096FF04F23C45014668B1B1
:104CD0003A4901F23C4002F03EFB60B194F83C34AA
:104CE00013F0700F1CBF384B1D6004E0204602F02B
:104CF00081FF0028ECD14FF47A7006F04FFB76214B
:104D0000324801F061FF324800F087FE012131484E
:104D100003F032FC41F2883006F040FB07F03EFB26
:104D200014220DEB02010A2004F08EF905A901A856
:104D300004F0C9FE01A91E4804F010FF01A804F008
:104D400077FE144B0A221A60144B05221A60154B89
:104D50004AF6C0021A60FFF7A1FE1F4B01221A702B
:104D6000FFF746FE41F2883006F018FB0AB070BD2E
:104D7000EBEE0D0009420D000FB70D00F9EE0D002E
:104D800081420D0010EF0D00BD410D0027EF0D0019
:104D900039420D0028DE03203DEF0D00BCE2032068
:104DA00052EF0D0030DE032065EF0D00C9400D000D
:104DB000C0E3032072EF0D0060E6032034DE032021
:104DC00098F10D0080F0FA02B4E503207CE30320A3
:104DD00094E40320D0E303202CDE032070B5C4B09C
:104DE0000546002401AE284609F0A3FEA04203D9DF
:104DF0002B5DA3550134F6E72CB10448002322466D
:104E000001A905F037FA44B070BD00BFA8E5032042
:104E1000F0B591B0074606F0CDFF4C494C4E06F078
:104E2000BAF84FF47A7205924A4A4B49039200232A
:104E30004A4AADF81C3007A807AC049302F0A7FC5F
:104E40000FCC06F110050FC50FCC0FC523682B60E2
:104E5000049B7360059BB360069BF360337C002B5F
:104E600048D006F0A7FF3E493E4C06F094F83E4A73
:104E70006FF0010310685168236003AB03C39068AF
:104E80003A4A18605168106812896B4603C303A838
:104E90001A80FFF7A3FF06F08DFF054604F0C4F863
:104EA0000A220146284606F080F8284606F067F8F0
:104EB000274D05F110062846FFF709F928B300230E
:104EC00040F209123946304602F00CFBE8B1384690
:104ED000FFF784FF23680133236005F0D3FA05F060
:104EE00052FB0028E7D106F065FF214906F053F890
:104EF00011B0F0BD06F05EFF1E4906F04CF8337CA1
:104F0000002BAED11C4A1370F2E71C4802F038FCAB
:104F10006846FFF763FF4FF47A7006F03FFA06F039
:104F200049FF1749FFF708FA06F044FF044604F06A
:104F30007BF80A220146204606F037F8204606F0A4
:104F40001EF80D4B00221A70D2E700BF7CEF0D0057
:104F500060E40320ACF10D0070E2032099EF0D0036
:104F6000A4EF0D00BCE30320F5EF0D0001F00D00F0
:104F7000CDEF0D00B0EF0D002CDE032070E4032018
:104F8000DDEF0D0010B5CEB0044606F013FF444926
:104F900006F001F8042C1AD8DFE804F003291B55A9
:104FA000780040480BA9FFF7D5FA3F4903A804F061
:104FB0008AFD0BA907A804F086FD07A903A8FFF73F
:104FC00053FB07A804F034FD03A804F031FD4EB0F4
:104FD00010BD0BA93348FFF7BDFA05F053FA05F0F1
:104FE000D2FA0028F3D00BA8FFF7F8FEEFE72F4A1C
:104FF0002F492C48FFF756FC2D480BA9FFF7AAFABA
:105000002C4B2D491B788DF800300BAA3C2307A8A8
:1050100006F086FC089C7CB16368013B63605BB969
:10502000236820469B689847A368013BA3601BB98F
:1050300023682046DB6898471D4B1C4801221A70E4
:10504000FFF7C0FCC3E705F01DFA05F09CFA002845
:10505000BDD11A4A1A491348FFF724FC18480BA976
:10506000FFF778FA174903A804F02DFD0BA907A84C
:1050700004F029FD07A903A8FFF7F6FA07A804F032
:10508000D7FC03A804F0D4FC0C48D9E706F092FE44
:105090000D4905F080FF0BA8FFF7BAFE97E700BFA8
:1050A0000BF00D0028E4032016F00D0058E5032056
:1050B00044E3032008E303201FF00D0010E5032064
:1050C0000CE3032099EF0D0033F00D0030B585B0EF
:1050D0000D4600226946009204F0E4F9B0B9009C44
:1050E0000CB1236923B90A4A00210A2004F0CAF945
:1050F0000023ADF806300C23ADF8043004230393ED
:105100000295236901AA01212046984705B030BDC8
:1051100009900D0007B5032001A9FFF7D7FF40B99B
:10512000BDF8043000EE103ABBEECC0A03B05DF8D7
:1051300004FBBFEE000AF9E710B50446394800F059
:1051400079FC06F0AFF8B0B106F0F2F884F82C0064
:1051500006F0E2F884F82D0006F0D2F884F82E006C
:1051600006F0F2F884F82F0006F0FAF884F8300020
:1051700006F0FEF860862B4800F092FC608029481B
:1051800000F090FCA080274800F08EFCE0802548CD
:1051900000F08CFC2081234800F08AFC60812148CB
:1051A00000F088FCA0811F4800F074FCE0811D48DD
:1051B00000F072FC20821B4800F070FC60821948ED
:1051C00000F062FCA082174800F060FCE082154805
:1051D00000F05EFC2083144801F096F9124884ED3B
:1051E000070A01F03FFB104884ED080A01F0BAF904
:1051F0009FED0E7A0C48C0EE077A9FED0D0AC4EDC4
:10520000097A01F089FA84ED0A0AFFF783FF094958
:1052100084ED0D0A2046FFF7EFFABDE8104006497D
:10522000FFF7EABA94E403207CE3032000007A4409
:1052300000507D4410E5032058E503202DE9F04798
:105240002DED028B94B0C14904460CA806F010FE67
:105250000CA806F0F5F8B0EE408A07F09FF814228B
:1052600007A90A2003F0F0FE07A903A804F02BFC0D
:1052700001A801F06AF8B6489DF804509DF807802F
:105280009DF808709DF809609DF806909DF805A0AE
:10529000012100F0DDFF0121AD4800F0D1FFAC4855
:1052A00003F08EFC0A22AA48052100F0C6FFA84898
:1052B000002100F0CAFFA64807A905F059FEA54B3A
:1052C0001B7805F5FA65002B00F0AC81A249A048D7
:1052D00005F04EFE0A2251469D48FEF75AFF9F49AF
:1052E0009B4805F045FE0A2249469948FEF751FFC2
:1052F0009A49974805F03CFE0A2229469448FEF751
:1053000048FF9749924805F033FE0A2241469048EB
:10531000FEF73FFF93498E4805F02AFE0A223946E0
:105320008B48FEF736FF8F49894805F021FE31464C
:105330000A228748FEF72DFF14228548052100F038
:105340007CFF8949824805F013FEFFF7E3FE022146
:105350007F4805F011FF85497D4805F009FE1422BC
:105360007B48692100F069FF8149794805F000FE1A
:10537000B0EE480A0221764805F0FEFE7D497448E9
:1053800005F0F6FD69460720FFF7A0FE011EA8BF45
:1053900000996F480A22FEF7FCFE1E226C48052188
:1053A00000F04BFF6A48002100F04FFF7249684847
:1053B00005F0DEFD618866480A2205F0F6FD1E2232
:1053C0006348692100F039FF6C49614805F0D0FD60
:1053D000E1895F480A2205F0E8FD28225C480521A2
:1053E00000F02BFF66495A4805F0C2FDA1885848D5
:1053F0000A2205F0DAFD28225548692100F01DFF38
:105400006049534805F0B4FD218A51480A2205F04D
:10541000CCFD32224E48052100F00FFF5A494C487E
:1054200005F0A6FDE1884A480A2205F0BEFD3222B9
:105430004748692100F001FF5449454805F098FDAF
:10544000618A43480A2205F0B0FD3C22404805210C
:1054500000F0F3FE4E493E4805F08AFD21893C48A4
:105460000A2205F0A2FD3C223948692100F0E5FE40
:105470004849374805F07CFDA18A35480A2205F0E5
:1054800094FD46223248052100F0D7FE42493048BB
:1054900005F06EFD61892E480A2205F086FD462240
:1054A0002B48692100F0C9FE3C49294805F060FD00
:1054B000E18A27480A2205F078FD50222448052178
:1054C00000F0BBFE3649224805F052FDA189204874
:1054D0000A2205F06AFD50221D48692100F0ADFE48
:1054E00030491B4805F044FD218B19480A2205F07C
:1054F0005CFD5A221648052100F09FFE2A491448F7
:1055000005F036FD94ED070A1148022105F034FE3E
:1055100026490F4805F02CFDD4ED087A0C48FDEE25
:10552000E77A0A2217EE901AFEF733FE2049084860
:1055300005F01EFD94ED090A0548022105F01CFE48
:105540001C49034805F014FD36E000BF60E6032067
:10555000D0E30320B8E203203FF00D0049F00D0036
:1055600055F00D005CF00D004BF00D0054F00D00F7
:1055700058F00D005EF00D0066F00D006FF00D00AC
:105580007AF00D0083F00D008EF00D0097F00D0005
:10559000A2F00D00ABF00D00B6F00D00BFF00D0055
:1055A000CAF00D00D3F00D00DEF00D00E5F00D00A7
:1055B000EDF00D00F4F00D0064221B48052100F011
:1055C0003CFE1A49184805F0D3FC194B16481968D7
:1055D0000A2205F0EAFC1749134805F0C9FC164BEE
:1055E000114819680A2205F0E0FC14490E4805F03C
:1055F000BFFC134B0C4819680A224FF46163B1FBDE
:10560000F3F105F0D2FC0F49074805F0B1FC06485C
:1056100003F0D1FB03A804F00BFA14B0BDEC028B2D
:10562000BDE8F087084952E6D0E30320F8F00D000A
:1056300028DE0320FFF00D00BCE203200BF10D007B
:1056400030DE032016F10D0044F00D002DE9F74F78
:105650003C4C3D4D23683D4F3D4E2BB12B681BB15B
:105660003B680BB133687BB903F0DEFC206003F0CC
:10567000DBFC286003F0D8FC386003F0D5FC306018
:1056800003F0D2FC334B186003F0CEFC074603F066
:10569000CBFC064603F0C8FC03F0C6FC824603F0D0
:1056A000C3FC0023002269460020CDE9002303F05B
:1056B000EFFF294BAAEB0000984221D903F0C0FF6D
:1056C00010B1002003F0D4FF002003F0D5FC4FF010
:1056D000000B8246002003F0CFFCB0EB0A0861EB20
:1056E0000B09002342F20F724B4508BF424505D318
:1056F000FEF742FD10B903F09BFFEBE7FEF73CFD20
:105700002368FA1A154B19684FF47A734B439A427F
:1057100008D31348FFF710FD124B00201870FFF755
:1057200031FC27602B68F21A0F4B19684FF47A731B
:105730004B439A4203D30A48FFF780FD2E6003B023
:10574000BDE8F08F04E503200CE5032000E503200D
:1057500008E50320FCE40320FF5B2605BCE20320F0
:1057600028E40320B8E2032028DE0320F0B5164623
:1057700091B00022C0E9002204460D460BAF194645
:1057800006A804F0F3FB1699384604F0EFFB3378D3
:105790008DF81430189B0293179B2046CDE90073B7
:1057A00005AA06AB294605F079F9204611B0F0BDEF
:1057B00010B50446FEF7CEFC2046502106F089FEC7
:1057C000204610BD70B5664B664D012600241E7044
:1057D000654BAB6092B02C60AC80AC71022003F0E2
:1057E00073FE624A6249284606F06EFE2146304644
:1057F00003F07AFE21465F485F4D05F099FE5B4A53
:105800005E495C4806F060FE5D4800F0A4FD4FF084
:10581000FF330322CDE902230422CDE90032FA212D
:1058200005237A22574802F06BFD504A56495548E5
:1058300006F04AFE554800F0E1F8554B642283F823
:105840006024544ADC71A3F83C4483F86A44C3F8EA
:105850007844A3F87C44C3F8702483F874642978EE
:10586000BFF35B8F31401C460BD128460591FEF7F4
:1058700023FC059928B1484803F0AEFF2846FEF7FF
:1058800020FC454BC4F86C34384A4449404806F083
:105890001BFE4348354A43494FF47A730024836022
:1058A000414B04824460036006F00EFE3F4B4049CA
:1058B0001C70A3F844403F4B3F481C70A3F8444081
:1058C0003E4B1C803E4B1C803E4B1C8004F0FBF882
:1058D000264A3D49384806F0F7FD3C493C4804F06B
:1058E0002BFC3C493C4804F027FC3C493C4804F074
:1058F00023FC10233A498DF81C3008A804F036FB2D
:1059000033490DA804F032FB0DAB009307AA08AB96
:10591000CDE9014433493448FFF728FF134A33499E
:10592000314806F0D1FD04232B498DF81C3008A81E
:1059300004F01CFB26490DA804F018FB2C4B019326
:105940000DAB009307AA08AB2A4902942A48FFF737
:105950000DFF064A2549284806F0B6FD12B070BD75
:1059600008E30320C0E203200000FFFF18DE03204D
:1059700069410D0020E403201CDE032051B50D0019
:105980007CE30320D0E3032055410D0094E4032081
:1059900034DE032098F10D0020DE0320EB400D00E3
:1059A00060E40320E9400D00ACF10D0058E5032050
:1059B00003ED0D0010E50320C0E3032028E40320DD
:1059C00044E303200CE30320319A0D0018F10D008D
:1059D000CCE203203DF10D00E0E2032062F10D0076
:1059E000F4E2032087F10D00A8E503202FA60D00A7
:1059F00055430D008AF10D00A0E50320704710B556
:105A00000446006E06F046FBA31E00221C3423F859
:105A1000022FA342FBD1012010BD10B5122380F844
:105A20006430044606F000FD20662046BDE81040C4
:105A3000FFF7E5BFF8B5202204461221006E06F0FC
:105A400058FB00252E46206E03681B6998476F1C83
:105A500050B1206E03685B699847EDB204EB4505D1
:105A60000126E8833D46EEE72046A31E04F11C0113
:105A7000448C828C02EB042223F8022F994200F11D
:105A80000400F5D13046F8BD4088704780887047E3
:105A9000C088704700897047408970478089704787
:105AA000C0897047008A7047408A7047808A704773
:105AB000C08A7047008B70472DE9F04F85B01F46B4
:105AC000BDF93880BDF83C30A8EB0209A7EB010A0C
:105AD000B9F1000FB8BFC9F10009BAF1000FB8BFA2
:105AE000CAF1000AD14583460C46154604DD3A4604
:105AF0002C4647460D469046BC4205DD2A464546A3
:105B0000904622463C4617463E1BB2B20092A8EB96
:105B10000502002AB8BF52420192C6F3C03202FA0F
:105B200086F64545B4BF01224FF0FF32761002924F
:105B3000BC421CDCDBF800200393D145D2F818806E
:105B4000C7BF294622462A4621465846C047019AE1
:105B5000039BB61AB1B236B2002E05DA029A15448A
:105B6000009A56182DB236B2013424B2E0E705B0DF
:105B7000BDE8F08F704710B404682469A4465DF84E
:105B8000044B604730B40468BDF808500295A46B1C
:105B9000A44630BC604730B40468BDF80850029594
:105BA000E46BA44630BC604770B4BDF90C50BDF83E
:105BB00010600468CDE90356246CA44670BC6047AD
:105BC0002DE9F3411C460368BDF820805B6905465A
:105BD0001646013C34440F4624B298472B68CDF852
:105BE000048000949C6A28463B4632463946A047CA
:105BF0002B68DB6A284602B0BDE8F04118472DE962
:105C0000F3411D460368BDF820805B6904461746D2
:105C10000E469847CDE9007822686B1E3344956A9A
:105C200020461BB23A463146A8472368DB6A204625
:105C300002B0BDE8F04118472DE9F3471E4603685E
:105C4000BDF928905B69BDF82C800C4605461746C7
:105C500098472644B4422B680BDACDF80080D3F87D
:105C600020A021464B463A4628460134D04724B26C
:105C7000F0E7DB6A284602B0BDE8F047184713B5E5
:105C800002680191B0F90E100091146CB0F90C305B
:105C900000221146A04702B010BD2DE9F3471D4672
:105CA0000368BDF82C805B69BDF9289004460F4657
:105CB000164698472368CDF80080D3F824A03246D2
:105CC0002B4639462046D0472368CDF8008009F19D
:105CD000FF323244D3F824A039462B46204612B274
:105CE000D0472368CDF80080D3F820A032464B4639
:105CF00039462046D0476B1ED9192368CDF800805D
:105D00001D6A20464B46324609B2A8472368DB6A23
:105D1000204602B0BDE8F047184770472DE9F74329
:105D200099421646BDF92870BDF82C90026880464D
:105D30000D461C4613D1BE42C8BF3346CDF828904D
:105D4000C4BF3E461F467B1C946B9B1B1BB2324656
:105D500029464046A44603B0BDE8F0436047BE4232
:105D60000AD19942C2BF0B4625461C46631CCDF89A
:105D70002890D46B5B1BE9E753699847CDE900791C
:105D8000D8F8003040469F6A324623462946B84735
:105D9000D8F80030DB6A404603B0BDE8F04318474E
:105DA00001F00303B0F90A204376C907B0F90830BF
:105DB00059BF8381C2818281C381704730B501811F
:105DC0000024074D42818181C2814FF0FF314FF0A5
:105DD0000112C0E90512446005600461C46130BD70
:105DE00084F70D002DE9F04F89B0CDE90212026869
:105DF000BDF948800493BDF94C3052690593BDF854
:105E000050A00446904718F107024FF0000648BF23
:105E100008F10E024FEAE20B01963546039B019A08
:105E2000BDF904109A18059B8B4212B227DD049B22
:105E300033444FF0000906930FFA89F080451FFAAA
:105E400089F117DD4F0705BF069BC0106D001D5C73
:105E500018BFEDB22B060AD5029B206807921944A1
:105E6000836909B21F4620465346B847079A09F18D
:105E70000109E1E7019B013301935E44CEE723680A
:105E8000DB6A204609B0BDE8F04F18472DE9F04F16
:105E90002DED028B91B01646C269BDF874709DF865
:105EA00078409846BDF87030029382460D46002A2D
:105EB00040F0B780B0F90C308B4240F33C81B0F930
:105EC0000E30B34240F33781062313FB0413002B3B
:105ED00040F3318106EBC403002B40F32C81C37ED9
:105EE00033B9B8F1AF0F84BF08F101085FFA88F841
:105EF000DAF8003050465B69984705230993002380
:105F000003938F4B08EB880843440A93B3B207937B
:105F1000039A0A9B9B5C069302FB04F9A3B219FA4D
:105F200085F90593ABB208930FFA89F308EE103A9E
:105F3000079B049313462B441BB208EE903A4FF094
:105F400000080FFA84F9069ADAF80030D1074AD52A
:105F5000012C3AD1079AD3F818B0029B424418EEAC
:105F6000901A12B25046D847069B5B080693DDE9AB
:105F7000043208F1010813449BB2B8F1080F0493EE
:105F8000E1D1039B01335BB20393099B013B13F007
:105F9000FF030993BCD1029BBB420CD0012CDAF861
:105FA00000202DD1089900970531146A43463246E6
:105FB00009B25046A047DAF80030DB6A504611B00B
:105FC000BDEC028BBDE8F04F1847029A0192CDF864
:105FD0000090D3F81CB0BDF9102018EE101A4B46F3
:105FE0005046D847C0E7029ABA42BDD0012C05D12D
:105FF000079AD3F818B042443B46B0E70197E6E76A
:10600000059B019703EB8301089B0B441946059BF5
:10601000DB000093D5692346324609B25046A847B3
:10602000C9E7137A516812680992A8EB03085FFA6E
:1060300088F801EBC80331F838B09A7893F90680F4
:106040000A92012CDA780B9293F90520069295BFFB
:1060500000230FFA88F31F46039398BF0393036846
:1060600088BFBDF918705B6998476743A3B2059371
:10607000ABB217FA85F5B2B20893ABB20D930E929C
:10608000002318FA86F21F461D460F920B9A95427E
:1060900091D2039A05990E98DDF834802A4402FBC8
:1060A000010212B208EE102A0699089A5618B2B2E6
:1060B00004920A9A9A18D2B207920F9A02EB050933
:1060C0000FFA89F9079A9A4232D05A1CD2B20C922E
:1060D0005A0701BF099A12F80B700BF101031FFA5E
:1060E00083FB3B060BD5012CDAF8002013D1936912
:1060F000BDF910101E464A46029B5046B047049E0A
:106100000136B3B20493059B7F009844FFB20C9B09
:106110001FFA88F8D6E7029923B2CDE90031D26997
:106120000FFA88F11646504618EE102AB047E6E7F7
:106130000135EDB2AAE711B0BDEC028BBDE8F08FDE
:106140007BF20D007FB5C26904460B46002A32D1AE
:106150000A2908D1438A0282027E03EBC2036382CA
:10616000012004B070BD0D29FAD0017E807E70B18F
:10617000B4F91050062010FB0150B4F90C50A8429D
:10618000C1BFB4F91200228200EBC1026282E28A2E
:106190000192A28A02910092B4F91010B4F912206F
:1061A0002046FFF773FE237E228A03EB430302EBB4
:1061B00043032382D4E70A2907D100230382937A79
:1061C000017E428A01FB0323C9E70D29C8D0157A55
:1061D000A942C5D3517A9942C2D351685D1B01EBE4
:1061E000C505AE781EB3E97809B3A17E007E91B1F2
:1061F00095F905103144B4F9106000FB0161B4F960
:106200000C60B14207DD00262682B4F91210927AA2
:1062100002FB00126282E28A0192A28A029000923C
:10622000B4F91010B4F912202046FFF72FFE297997
:10623000237E228A01FB0323BBE70182428270474F
:10624000012938BF012101767047C18281827047E0
:1062500081767047407E7047B0F90C007047B0F906
:106260000E0070472DE9F843044606F0DDF868217A
:1062700005F046FF06F0D8F8036800219B689847B0
:1062800006F0D2F805F043FF06F0CEF807226821A9
:1062900005F02FFF06F0C8F803685B69984700F027
:1062A0007F09C0F30210A0EB800009EB40005FFA09
:1062B00080F906F0B9F803685B699847C0F30315E5
:1062C000A5EB850500EB4500C5B206F0ADF8036807
:1062D0005B699847C0F30316A6EB860600EB460001
:1062E000C6B206F0A1F803685B69984706F09CF80F
:1062F00003685B699847C0F30317A7EB870700EBB8
:106300004700C7B206F090F803685B699847C0F38E
:106310000318A8EB880800EB48005FFA80F806F045
:1063200083F803685B699847C0F30313A3EB830307
:1063300000EB4300207084F80180A770E67025719F
:1063400084F805902046BDE8F88310B50446FFF7B1
:1063500089FF204610BD4FF0FF33C3607047000037
:1063600013B50B4C2178BFF35B8F11F001010BD1FA
:1063700020460191FDF7A0FE019928B1054803F0E0
:106380002BFA2046FDF79DFE024802B010BD00BF6B
:106390001CDE032020DE03202DE9F04190F90F30B0
:1063A000013305460F4606D1FFF7DAFF3946BDE84F
:1063B000F04103F0B3BA002407264FF0010895F925
:1063C0000F00002180B205F0BCFF95F90D0008FA1E
:1063D00006F1394080B205F0B4FF95F90F000121B4
:1063E00080B205F0AEFF95F90E00640080B2E4B211
:1063F00005F0C0FF08B144F00104013EDFD22046A1
:10640000BDE8F08108B5FFF7ABFFBDE8084003F039
:10641000FEB907B50190FFF7A3FF019903B05DF83E
:1064200004EB03F00DBA000030B590F90C300133E5
:1064300085B004460D462AD105F0F6FF217805F017
:106440005BFE05F0F1FF036829469B68984705F05D
:10645000EBFF05F05CFE05F0E7FF2178032205F075
:1064600048FE05F0E1FF03685B699847050205F007
:10647000DBFF03685B6998472843050205F0D4FFFA
:1064800003685B6998470543284605B030BD90F91D
:106490000F3001330CD11A4B009300238DF80430D8
:1064A000184B029368460123ADF80C30FFF7B1FF9B
:1064B00094F90C00002180B205F043FF45F0800103
:1064C0002046FFF769FF00212046FFF765FF002106
:1064D00005022046FFF760FF284305020021204601
:1064E000FFF75AFF054394F90C00012180B205F033
:1064F00028FF94F90F300133C6D1FFF783FFC3E7BC
:1065000098F10D0020A1070010B5FA210446FFF70D
:106510008BFFB0F5000F1ED0218A9FED107A4B0043
:10652000C1EB2022C3EBE011B4F9123052435943BE
:10653000B4F91430121353439B1303EBE123A3600C
:1065400003EB830380331B1207EE903AF8EEE77AF1
:1065500087EE870A10BD9FED020AFBE70000C842E4
:106560000000C07F2DE9F8430446FFF7CDFFF72177
:106570002046FFF759FFB0F5000F054600F0BF8039
:10658000A068B4F91860B0F5FA334FEAE07141F150
:10659000FF32A3FB038903FB02F109EB4109F71763
:1065A00006FB02F103FB0711A6FB03670F44390347
:1065B00041EA16513003B4F91A60F71706FB09FCDB
:1065C00008FB07CCA6FB086767444FEA162C4CEA89
:1065D000076CE68A4FEA272E1CEB00004EEB010EFB
:1065E00000304EF5004EA0FB060106FB0E114E10CA
:1065F000CF1756EA070100F08580B4F9200000FBB0
:1066000009FCC11708FB01CCA0FB0801B4F91E80EE
:106610004FEAE87908FB02F203FB0922A8FB038991
:10662000914461444FEA48424FEA494C2D111218F7
:10663000C5F580154CEAD83CB4F91C804CEB010C34
:106640000023E9179B184FEAC17E4FEAC5704FEA55
:10665000C80141EB0C0C4EEA550EC01A40F635430A
:106660006EEB0C0EA0FB030103FB0E1132463B4602
:1066700007F0FAFFB4F926204D13460B46EAC1464F
:1066800002FB05F7D31706FB0377A2FB06233B4467
:10669000554306FB0355A2FB06232B44550E45EA42
:1066A000C315B4F92420B4F922402D184FEA6366CB
:1066B00041EB0606D317514300FB0311A2FB002355
:1066C0000B44D10C41EA43316D184FEAE34046EBED
:1066D00000032A0AE51742EA0362191220012B017E
:1066E00043EA1473801843EB010107F07FFF9FED2D
:1066F000070A07EE900A27EE800ABDE8F8839FEDAF
:10670000040AFAE79FED030AF7E700BF0000803BA9
:106710000000C07F0000000008B52DED028BB0EE38
:10672000408AFFF71FFF9FED167AC0EE077AC7EE8B
:10673000887A17EE900A07F0E9FA9FED0D1B41ECFD
:10674000100B05F0E1FF0F4953EC102B002007F070
:106750007DF909A3D3E9002307F030FB07F026FEFB
:10676000BDEC028B00EE100A08BD00BFAFF3008045
:10677000EBE2361AC05BC83F0000000040A5E540D0
:106780000000C8420000F03F30B590F90C300133F2
:1067900085B004460D4625D105F046FE217805F06A
:1067A000ABFC05F041FE036829469B68984705F05D
:1067B0003BFE05F0ACFC05F037FE2178022205F027
:1067C00098FC05F031FE03685B699847054605F0C3
:1067D0002BFE03685B69984740EA052085B228468E
:1067E00005B030BD90F90F3001330CD1184B009338
:1067F00000238DF80430174B029368460123ADF84F
:106800000C30FFF706FE94F90C00002180B205F071
:1068100098FD45F080012046FFF7BEFD002120468F
:10682000FFF7BAFD002105462046FFF7B5FD40EA17
:10683000052085B294F90C00012180B205F081FD9C
:1068400094F90F300133CAD1FFF7DCFDC7E700BF71
:1068500098F10D0020A1070008B5FFF795FF40BA99
:1068600080B208BD38B50446FFF74EFEFD21204634
:10687000FFF78AFFB0F5004F38D0B4F92E50A26868
:10688000B4F930302D05A2F59632C5EB803002FB0D
:10689000130303F58043D91394F82C305343DB12D0
:1068A00003F5004094F9323053439B1243439B124B
:1068B00003F50012B4F92A30534303F500539B1338
:1068C0004B43DA1394F828105243D2114A43A3EBF6
:1068D000221323EAE373B3F1C85FA8BF4FF0C85394
:1068E0001B1300EE103ABAEECB0A38BD9FED010A39
:1068F000FBE700BF0000C07F30B590F90C300133DA
:1069000085B004460D461DD105F08EFD217805F0B9
:10691000F3FB05F089FD036829469B68984705F05D
:1069200083FD05F0F4FB05F07FFD2178012205F0E1
:10693000E0FB05F079FD03685B699847C5B228461E
:1069400005B030BD90F90F3001330CD1144B0093DA
:1069500000238DF80430134B029368460123ADF8F1
:106960000C30FFF756FD94F90C00002180B205F0C1
:10697000E8FC45F080012046FFF70EFD002120468F
:10698000FFF70AFD054694F90C00012180B205F0DD
:10699000D8FC94F90F300133D1D1FFF733FDCEE7A6
:1069A00098F10D0020A1070008B5F321FFF7A4FF1F
:1069B00000F0010008BD38B588210446FFF74CFF00
:1069C0008A2120822046FFF747FF8C2160822046E3
:1069D000FFF742FF8E21A0822046FFF73DFF902166
:1069E000E0822046FFF738FF922120832046FFF700
:1069F00033FF942160832046FFF72EFF9621A0836A
:106A00002046FFF729FF9821E0832046FFF724FF67
:106A10009A2120842046FFF71FFF9C216084204696
:106A2000FFF71AFF9E21A0842046FFF715FFA12142
:106A3000E0842046FFF760FFE12184F8280020462B
:106A4000FFF70AFFE32160852046FFF755FFE421A9
:106A500084F82C002046FFF74FFFE521054620462D
:106A6000FFF74AFF00F00F0343EA0510E085E62137
:106A70002046FFF741FFE52105462046FFF73CFF92
:106A8000031143EA05102086E7212046FFF734FF73
:106A900084F8320038BD00007FB590F90C30013326
:106AA00004460E46154616D105F0BEFC217805F0C9
:106AB00023FB05F0B9FC036831469B68984705F055
:106AC000B3FC036829469B68984705F0ADFC05F0C8
:106AD0001EFB04B070BD90F90F3001330CD1144B84
:106AE000009300238DF80430124B02936846012373
:106AF000ADF80C30FFF78DFC94F90C00002180B24A
:106B000005F01FFC06F07F012046FFF745FC2946F3
:106B10002046FFF741FC94F90C00012180B205F0FA
:106B200010FC94F90F300133D3D1FFF76BFCD0E7A1
:106B300098F10D0020A10700F8B5DB0002F0070274
:106B400003F03803134343EA81139DF8186080F87B
:106B5000383090F83C309DF81C509DF8207066F35A
:106B6000471380F83C30ED0090F8343007F0070709
:106B700005F0380523F03F033D4304461D4380F8EC
:106B8000345006F00702F221FFF786FF94F8342014
:106B900002F0070102F0380343EA411343EAD2123C
:106BA0002046F521FFF778FF94F8382002F007011E
:106BB00002F0380343EA411343EA92122046F421DB
:106BC000BDE8F840FFF768BF30B50446017090F9A2
:106BD0000C00421C85B019D105F026FC05F05AFACC
:106BE000D0212046FFF788FE602842D12046B622F9
:106BF000E021FFF751FF4FF4967004F0CFFB2046E1
:106C0000FFF7D2FE054628B36420F6E7012180B2E3
:106C100005F097FB94F90C00012180B205F080FB90
:106C200094F90F00431C04D1FFF79AFB02F0DEFD3C
:106C3000D6E7012180B205F073FB94F90D00012124
:106C400080B205F06DFB94F90E00002180B205F0D2
:106C500067FBC5E72046FFF7AEFE05232046CDE9DA
:106C6000015500931A460321FFF766FF012005B086
:106C700030BD0020FBE710B50446243000F0ACFE28
:106C800028B104F50C70BDE8104000F0A5BE10BDA1
:106C9000411E00F10A030020420842EAC01011F828
:106CA000012F52FA80F08B42C0B2F5D1704700003C
:106CB0002DE9F047064610F8013B202BFAD06B4D2A
:106CC0008E600024335DC3B12F2B16D05C2B02D114
:106CD0000020BDE8F087A3F12200C0B21D2803D830
:106CE00025FA00F0C007F3D403F0BF003C28EFD032
:106CF000203B5E2BECD80134E4E7331918460746F5
:106D000010F8015B202DFAD02F2DF8D017604CB170
:106D100013F8012D2E2A01D0202A01D1013CF6E7DB
:106D2000FF2CD5DC4C6001F10D0301F1180220208D
:106D300003F8010B9342FBD14FF0000816F808301E
:106D40002E2B01D0202B02D108F10108F6E7B8FA6A
:106D500088F04009651E6B1C02D0735D2E2B14D188
:106D60004FF0000907274A46CA464FF0080EA045D3
:106D700069DA16F80830202B03D02E2B07D1A8454E
:106D800012D0002008F10108F1E7013DE3E7222BD2
:106D900008D07C2B06D0A3F12A0CBCF1050F0BD830
:106DA0002D2B13D0A8455CD10A2F4BD0A8460A271B
:106DB00008224FF0100EE5E7A3F13A0CBCF1050FE5
:106DC000F0D9A3F15B0CBCF1020FEBD9A3F1210CBC
:106DD000BCF15D0FE6D8A845E6D0BA4230D8A3F1A1
:106DE000610CBCF1190F1AD8203B4EEA0909DBB23D
:106DF0005FFA89F902F1010C5FFA8CFC0A44BCF1DC
:106E0000060F537301D881F80CC06246BAE7A84553
:106E100018DCA8460A2708224FF0100EB1E7A3F1AC
:106E2000410CBCF1190F98BF4EEA0A0AE2E70B7B4E
:106E30000120087019447E234B7331238B7348E77C
:106E40000A2FE4D100204B7B202B3FF441AF0028D8
:106E5000EDD01AEA090F18BF4FF0020981F800902F
:106E600037E7BA42ECD85F230020C3E701010031C5
:106E70002DE9F84391F80C9006460C4602257E2732
:106E800001F10D086168A2686B189BB21144914230
:106E900006D012F8010B03EB431343409BB2F6E715
:106EA000B9F1030F28BF4FF0030909F10402D2B270
:106EB00003F00F01A018013A0929D2B294BF303172
:106EC0003731914541734FEA1313F1D104EB0903B4
:106ED00000215F73304600F06CFB0121304600F06A
:106EE00049FB014628B97078B0FA80F04009BDE846
:106EF000F88303786BB1C37A1B07EED40B224046AC
:106F000007F078FD0028E8D10135ADB2642DB9D184
:106F1000EDE70120EBE700002DE9F04F2DED028BAE
:106F200089B00D4605930B78069013F0700F9046CC
:106F300005D1002009B0BDEC028BBDE8F08F069BA7
:106F40001B78002BF5D153680493137899071CBF65
:106F5000049B03F10C074FF0000118BF0D232846D6
:106F60001DBFB7FBF3F70137FFB2012700F021FB8C
:106F700008F10D02002308EE102A9B461C461E460F
:106F800003939A466A69079301212846C2F34F1971
:106F900000F0F0FA079B00286ED16B78002BC8D167
:106FA000059B9A05C5D503F00303013B012BC0D80F
:106FB000039B002C08BF4B460393BC42C0F00381E7
:106FC000BAF1000F40F01B81039B2846590100F0E5
:106FD000F0FA0028ADD0013F5FFA87FA56464FF02D
:106FE00000090F27002E00F021810021284600F023
:106FF000C1FA044600289CD0AA6892F8243056456D
:1070000043F001030CBF46F0400BB34682F8243036
:1070100080F800B0C77280F80C9008F10D00FFF7FF
:1070200037FE0BF01F0B607384F81A9084F81B90E6
:107030000BF1FF3B0D22D8F808C002FB0BF2002336
:107040000499914240F2E3801CF80210042B5FFA8D
:1070500083FE03F1010000F2E08004EB4303A3F898
:1070600001100D2802F101020346E9D1013EF6B2FA
:10707000B8E74FF0010A85E70278E52A00D07AB92F
:107080000399002C08BF4946BC4238BF0134039124
:1070900038BFE4B2002A83D0E52A04D1002671E784
:1070A000BC4238BF00242E2AF8D0C17A0F295DD106
:1070B0003EBB12F040063FF465AF02F01F06437B73
:1070C000B3460BF1FF324FF00D0E0EFB02FE049A99
:1070D0007245E3D9A2EB0E0207924FF0000CBCF10F
:1070E000040F0CEB0E095FFA8CF214D800EB4C0283
:1070F000B2F8012007998C451BD1002A18BF002641
:1071000040E70BF1FF3B5FFA8BFB5A45C6D1427B50
:107110009A42D6D0C2E70A2A95BF0CF1FF320CF191
:10712000010200EB420200EB420294BFD288928837
:10713000E0E7FF2AB2D8D2B2A2F141011929D8F86A
:10714000081011F8091098BF2032A1F1410998BF29
:10715000D2B2B9F1190F9CBF2031C9B291429DD171
:107160000CF1010CBCF10D0FB9D10BE70A0795D456
:1071700066B1BBF1010F03937FF4DBAEFFF788FD2F
:10718000039B98427FF4D5AEB2460FE018EE101A7A
:107190000B22079307F02EFC079B00287FF4F2AE2A
:1071A00098F800A01AF0010A7FF463AF059B190557
:1071B0003FF5BFAE059B0698CDF800A04A4629468C
:1071C00000F03AFAB6E60021284600F0D3F998B963
:1071D0006B78002B7FF4ADAE284600F06FF80028E6
:1071E0003FF4A7AEAB681B79012B3FF6E9AE103434
:1071F000E4B2A742F0D8E3E60134E4B2DDE641466A
:107200002846FFF735FE00287FF4DEAE91E614BF76
:107210004FF0FF31002189B218E7BEF10A0F94BF89
:1072200004EB430304EB400399801AE731462846F8
:107230006F6900F09FF9044600283FF47AAE2022DF
:10724000314607F00DFC434653F80D2F22605A6873
:1072500062601A8922819B7AA37298F8003003F049
:10726000180323730F4B1B689BB104F10E0104F14B
:1072700010009847238A63822383E389E382AA6804
:1072800092F8243043F00103C7F34F1982F82430F9
:1072900090E721232374282363740823A673E373E0
:1072A000E8E700BFB0E503208378016943F00403F9
:1072B000837000F11002806800F044BC2DE9F041B9
:1072C000017811F02005044603D000263046BDE8C1
:1072D000F0814269174B9A42F7D2FFF7E5FF064665
:1072E0000028F2D02169A06800F0C1FB0746A06821
:1072F00005223946243000F097FB80460028E4D070
:1073000029464FF4007207F0ABFB0125A3681A79F8
:10731000AA4209D918684246E91900F0EEFE002891
:10732000D3D00135EDB2F1E7636903EB422363612A
:10733000CCE700BF00FE1F0010B5044680680A4677
:107340002430A16900F070FB20B1A38803F00F0383
:1073500000EB431010BD70B5047805460E464CB9DD
:107360002422214607F07CFBAE60F379102B03D07A
:10737000202B07D0002004E0202301242B70AC70C8
:10738000204670BD4023F8E72DE9F74F0378044607
:1073900088461546002B5DD08278D1075AD51A074A
:1073A0002DD5C36942699B1A9D4228BF1D462E46B2
:1073B0004FF0000904F1100B002E00F08F802278AE
:1073C0006369A0689706C3F3080A4FEA53211FD5E3
:1073D000006A0144A068BAF1000F42D1B6F5007FFF
:1073E0003FD3C36A99423CD0B6F5806F52D2006851
:1073F000424600F0F9FD68B34FF4007744E09B0685
:10740000D5D583681A894369C3EB42139BB2CBE796
:1074100090F8059009EA0109BAF1000F08D1B9F115
:10742000000F05D15BB951064CBF036A236A236183
:107430002169A06800F01BFB09EB0001CAE7216984
:107440005A4600F01AFB002804DBF1D1237813F030
:10745000700F43D1637843F0020363704FF0FF3045
:107460003DE0CAF50077B7424FF0000200F124007A
:1074700028BF374600F0D8FA0028EBD000EB0A010D
:107480003A46404607F0C4FA63693B44B844636136
:10749000F61B91E7227892064FEA562A06D4027923
:1074A000A2EB0902D2B2924528BF924699424FEA16
:1074B0004A2708D2A06853460068424600F0DCFD27
:1074C0000028E1D1C6E753448B42F3D9243001911F
:1074D00000F082FA01990028ECD1BBE7A81B03B0A9
:1074E000BDE8F08F2DE9F34780460E4691461F46D2
:1074F0004FF0FF354FF0000A0AF101044C451FDA46
:1075000001220DF107014046FFF73EFF05B2012DB4
:1075100016D19DF807100D29F0D006F80A1024B2F4
:107520003FB90A290AD100233355204602B0BDE8ED
:10753000F087384607F0C0FA0028F4D1A246DBE70E
:10754000002D01DB5446EEE74FF0FF34EDE773B555
:1075500001220DF10701D0E904560446FFF714FF9C
:1075600001280ABF9DF807004FF0FF30C4E9045618
:1075700002B070BD37B5436913F4F07F0446C3F31E
:10758000431500D099B901220DF107012046FFF7FC
:10759000FBFE40B2012802D0002003B030BD636979
:1075A0001F33A0686361303000EB4510F5E72033EE
:1075B000F7E72DE9F0410278076904460D4662B10C
:1075C0004069884202D019B921616561012006E055
:1075D000160706D5E3698B420BD227610020BDE870
:1075E000F081910605D5A3681B89B5EB431FECD943
:1075F000F3E7D4F808C09CF80660431E06F10901C1
:107600006E1ECB40CE40B34200D898B953064CBF53
:10761000DCF82030236A236104F11008002ED4D056
:107620002169A068424600F028FA002806F1FF36DA
:10763000F4DCD2E7F61AEFE7F8B50F46164600215C
:10764000242204461D4607F00BFAB868A060A68005
:1076500000F1300206F00F063B6AE360710102EBB5
:107660004616F37A1F0746D4431893F83B3003F0CD
:1076700017032370F27A12F0180F04BF43F00803C7
:1076800023709DF81830E37005F00303012B2CD014
:10769000022B28D07BBB6A052DD40123A370A278CE
:1076A000930704D52378DF0625D4DE0723D4AB1156
:1076B00023F07F0305F0080633431343A370C36A26
:1076C000A3614318B3F84420B3F84A1041EA0241D9
:1076D0006A0513D559B9A37843F00403A3706B046A
:1076E00010D40120F8BD0323D8E70223D6E700F029
:1076F00064FA0028EFD100202070F3E72162DB6CF0
:10770000E361ECE7E1692046FFF753FF0028E8D189
:10771000F1E7000038B5037804460BB9012038BD05
:1077200083785A0723D50121FFF706FE054628B9BD
:10773000637843F0010363700020F0E70378E52BE2
:10774000F6D023781B0744BFE369C361238C4383CE
:10775000638C8382094B1B682BB100F11601183032
:1077600098472B8B6B82A37823F00403A370A06847
:10777000FFF781FA0028DBD0D0E700BFB0E5032097
:1077800010B50446FFF7C6FF0023237010BDF0B507
:1077900093B01F460023ADF82430037801920646CB
:1077A0000C4613B1002013B0F0BD0B7813F0700F2E
:1077B000F8D013782F2B12D1019A13782F2B02D1E6
:1077C00001320192F8E7A1681BB93046FFF7C3FD0B
:1077D000E9E709A8FFF7BFFD0028E3D009AC01984D
:1077E00001AA03A9FFF764FA0028DBD0019B1B78EC
:1077F0009BB1002303AA21463046FFF78DFB0028EA
:10780000D0D035460FCD09AC0FC40FCD0FC42B68B7
:1078100023603046FFF7B4FFE0E73B4603AA21466A
:107820003046FFF779FBBEE72DE9F047037889463C
:107830001907044617465BD583789A0758D51B0766
:1078400051D46369DB43BB4252D3B84604F1100AFA
:107850006669B8F1000F00F09180A0684379C6F323
:10786000080513EA56260ED16DB92169002946D0C4
:10787000524600F002F900283ADB04D12046FFF717
:1078800013FD002834D02169A06800F0F0F8311809
:10789000A06815B9B8F5007F3FD2C5F5007646451A
:1078A00028BF4646002D36D16269E3699A4234BF4B
:1078B00001220522243000F0B7F8C8B1284432462E
:1078C0004946354407F0A4F8B5F5007F04D1A06817
:1078D000243000F081F858B1636933446361B144E6
:1078E000A8EB0608B4E7C169FFF763FE0028A8D13A
:1078F000637843F0010363704FF0FF3050E0236A78
:107900003BB92046FFF7D0FC0028F1D02369236261
:10791000B9E72361B7E70122CCE7B8F5806FC26A07
:107920001BD390F804C0ACEB0606F3B24FEA582E16
:10793000734528BF734691424FEA432607D31A4442
:107940008A4282BF4FF0FF3280F82450C262A5689D
:107950004A46286800F047FCBDE7914202BF4FF05D
:10796000FF3380F82450C362A3684A46186800F0C9
:10797000C4FB0028BCD04FF40076ADE7E269A378E1
:10798000B24204D2E66143F00403A37003E0084A64
:107990001268002AF7D194F90230002B02DB384636
:1079A000BDE8F0872046FFF7B5FE0028F7D19FE736
:1079B000B0E5032013B50446084659B1019107F01C
:1079C000B8F823680199DB680246204602B0BDE89A
:1079D0001040184702B010BD37B50378DA070446E7
:1079E00020D54368816800F10C021868019200F00C
:1079F00084FB019A054618B90025284603B030BD1E
:107A000023789B0704D4237823F001032370F4E741
:107A1000D4E9013019690144186800F06EFB0028B0
:107A2000F1D1E9E70125E8E770B583688B420446A8
:107A30000E46154609D0FFF7CFFF08B9002070BDEC
:107A40006B070AD500232370A660227805F0030592
:107A50002046154300F80C5BF1E7636804F10C0263
:107A60001868314600F0C0FA0028EBD1E6E78379C8
:107A700040690239994008447047012970B50546AC
:107A80000C46164602D84FF0FF3070BDC3698B42DA
:107A9000F9D3C379202B16D18169022201EBD411CD
:107AA00000F50C70FFF7C0FF0028ECD004F07F0455
:107AB00050F8243023F07043EA699A4226BF3360BD
:107AC00001200020E1E7102BDDD18369C1F30721FC
:107AD0000222194400F50C70FFF7A6FF0028D2D04F
:107AE000E4B230F81430E7E7012938B50C46154602
:107AF00001D8002038BDC3698B42FAD3C379202B4B
:107B00000FD18169032201EBD41100F50C70FFF74E
:107B10008BFF0028EDD004F07F0440F824500120B2
:107B2000E8E7102BE5D18369C1F30721032219444B
:107B300000F50C70FFF778FF0028DAD0E4B220F8E7
:107B40001450ECE72DE9F341C4688C4205460E461B
:107B5000904601D3012701E00C460027EB69013470
:107B6000A34202D2C7B9EC68F4E7A64214D001AA36
:107B700021462846FFF781FF00280DDBEED0019B50
:107B8000002BEBD107B1EC606FF070422146284624
:107B9000FFF7AAFF074620B90027384602B0BDE824
:107BA000F08116B9C8F80040F7E72246314628466A
:107BB000FFF79AFF0028F5D1EEE773B505460C46AE
:107BC00001AA21462846FFF758FF061E10DB0022B7
:107BD00021462846FFF788FF50B1EB68A34224BF37
:107BE00004F1FF34EC60019C002EE9D102B070BDBD
:107BF0000020FBE7012370B50022C3604FF0FF3384
:107C00000446C27100F12406806280F82420C36219
:107C1000C0F8340280F83022C0F838320D46B9B1CD
:107C2000042901D9002070BD11463046FFF7FCFE43
:107C30000028F7D000EB051393F8AE315B06F1D1C5
:107C400005F11B0100EB0111D1F80650002DE9D020
:107C5000002229463046FFF7E7FE0028E2D0B0F8C0
:107C60000B30B3F5007FDDD1037C022BDAD1C38961
:107C7000002BD7D0417B21714B1E63710023A37170
:107C800009260123994207D0013ECBD0A2795B009F
:107C90000132DBB2A271F5E7C18A01B9416A216103
:107CA000C3892B44A361B0F81120228103EB410367
:107CB0002362B0F81110490101F2FF1103EB5123C7
:107CC0006361B0F8132002B9026AE91AA37911447A
:107CD000D9404B1CE36140F6F473994202D80C235F
:107CE000E3719FE74FF6F473994285BFC36A23623D
:107CF00010232023E371012095E7000070B50E4E9C
:107D00000D46144601F088F93368C01A0B4B9842AF
:107D100008D901F089F90A4B186001F089FC01F0DB
:107D20007BF9306001F080F980B2401BA042D4BFE3
:107D30000020012070BD00BFB8E50320A08601002F
:107D4000B8E7032038B5057A04464DB9406800F01D
:107D50006BFA63682946187D04F0F3FA0123237255
:107D600038BD10B5037A04466BB143680121187D14
:107D700004F0E7FA6068FF2100F088FA606800F01C
:107D800067FA0023237210BDF8B504460D46164667
:107D900001F04AF987B2606800F05DFAFF2860726E
:107DA0000ED14FF47A7239462046FFF7A7FF00281C
:107DB000F1D0552320462370FFF7D3FF0020F8BDF4
:107DC000FE2801D05023F5E760683246294600F0CE
:107DD00047FA607208B16023ECE7606800F03BFA94
:107DE000606800F038FA0120E9E770B504460E46F5
:107DF00001F01AF985B2324629462046FFF77EFF88
:107E000030B9606800F027FAFF28F4D1012070BD76
:107E10000020FCE7F7B5037A019204460D460BB942
:107E2000FFF790FF25B14FF496712046FFF7DDFF75
:107E3000606845F0400100F029FA032601AFB95D02
:107E4000606800F023FA013EF9D2002D60680CBF93
:107E50009521872100F01AFA606800F0FCF90B25E3
:107E6000606800F0F8F90306607203D5013D15F073
:107E7000FF05F5D103B0F0BD70B504460D461646BA
:107E800037210022FFF7C6FF324629462046BDE8CB
:107E90007040FFF7BFBF00002DE9F04100250572DB
:107EA000057085724160044690461E4601F0BCF89C
:107EB00041460746606800F0BBF96368494A1D7295
:107EC0000125DA601D822046FFF73CFF63682946E2
:107ED000187D04F036FA0A256068FF21013D00F0A4
:107EE000D5F915F0FF05F7D163682946187D04F030
:107EF00028FA0A25002211462046FFF78BFF0128A9
:107F0000804618D0013D15F0FF0507D120232046FB
:107F10002370FFF726FF0020BDE8F0816068FD2197
:107F200000F0B4F94FF40278606800F094F9B8F109
:107F30000108F9D1DEE74FF4D57208212046FFF79A
:107F400069FF052814D184F80A800025BFB22A46AB
:107F500029212046FFF790FF0246D8B14FF4FA627C
:107F600039462046FFF7CAFE0028F0D04323CEE76B
:107F70000425606800F06FF9013D15F0FF0560729F
:107F8000F7D1AA2804D10223A3724FF08045DDE780
:107F90002523BCE7A37A022B18D13A212046FFF70C
:107FA00039FF08B13723B2E7606800F054F900F0F8
:107FB000C000C02804BF0323A372606800F04BF91F
:107FC000606800F048F9606800F045F92046FFF766
:107FD000C8FE63683079B168B2891A821872D960B4
:107FE000012099E790D0030038B5837A032B18BF9E
:107FF000490215460A4611210446FFF70BFF30B12E
:10800000302323702046FFF7ACFE00250BE0294605
:108010004FF400722046FFF7B7FE05460028F1D066
:108020002046FFF79EFE284638BD10B5837A032B05
:108030000A4618BF4A0212210446FFF7EBFE30B190
:10804000312320462370FFF78CFE002010BD012055
:10805000FCE710B500220C210446FFF7DBFE30B12F
:10806000282320462370FFF77CFE002010BD204609
:10807000FFF777FE0120F9E7F8B5044616461F46DC
:10808000FFF7D3FF68B10025ABB29F4206EB452155
:1080900009D94FF400722046FFF776FE013500281B
:1080A000F2D10020F8BD2046BDE8F840FFF7D1BF6F
:1080B00038B504461546406800F0E8F84FF4007201
:1080C0006068294600F0E6F86068FF2100F0DEF8FD
:1080D0006068FF2100F0DAF8606800F0BCF86072B8
:1080E00000F01F00052806D0572320462370FFF715
:1080F00038FE002038BD0120FCE770B5837A032BE1
:1081000018BF490215460A4618210446FFF782FEA9
:10811000064630B1322323702046FFF722FE0025A9
:108120001FE02A46FE212046FFF7C2FF0028F3D0B9
:108130004FF4FA612046FFF758FE054608B95A2366
:10814000E9E732460D212046FFF764FE08B12923F6
:10815000E1E7606800F07FF80028F8D12046FFF7DB
:1081600000FE284670BD13B501914FF4FA61044634
:10817000FFF73BFE019A30B95B2323702046FFF7DF
:10818000F0FD002005E0FC212046FFF791FF0028CC
:10819000F4D002B010BD10B5837A032B0A4618BF85
:1081A0004A0219210446FFF735FE30B13323204639
:1081B0002370FFF7D6FD002010BD0120FCE738B585
:1081C0004FF4FA610446FFF710FE054630B9562316
:1081D00023702046FFF7C5FD284638BD6068FD21A5
:1081E00000F054F8F5E7F8B5044616461F46FFF7C9
:1081F000D2FF70B10025BD4206EB4521204604D0D8
:10820000FFF7B1FF28B10135F5E7BDE8F840FFF70A
:10821000D6BF2046FFF7A5FD0020F8BD014B012287
:108220001A707047BCE50320011D006801F008BB0F
:1082300010B504460175006801F0D8FA207D0121CF
:1082400004F06EF8207D0121BDE8104004F079B8FB
:10825000006801F0DCBA0068FF2101F05FBB00009C
:1082600037B51346074A00920025074C0068257071
:108270000A46294601F058FB2378002BFCD0002049
:1082800003B030BD1D820D00BCE50320006801F085
:1082900045BB000037B51346064A00920025064C40
:1082A000006825702A4601F03FFB2378002BFCD0A4
:1082B00003B030BD1D820D00BCE5032013B50023C3
:1082C0008DF8043001AA01234E21044600F055FE2A
:1082D000F923ADF8043001AA02234F21204600F013
:1082E0004CFE02B010BD0A4611B9242100F02DBE8B
:1082F000012902D100222621F8E700207047000062
:10830000F0B585B004469DF934C09DF93070CDE9D3
:10831000027C9DF92CC0CDF804C09DF928C0CDF891
:1083200000C016460D4600F0ADFB174B236016F05B
:10833000070307D0724202F0070258BF5342C3F14D
:1083400008031E44754348BF0735C5F3CF01002F0E
:108350004FEAE500E18521860CDB012384F84C30EF
:108360000023C4E90D33A4F84430A4F84610204695
:1083700005B0F0BD80B201F09BF96063208E01F082
:1083800097F9A063F3E700BF28F80D0010B590F946
:108390002530002B044609DB94F9250080B203F058
:1083A000E9FF48B10A2002F0F9FFF5E7BDE8104007
:1083B0004FF4FA7002F0F2BF10BD13B5C7230446A4
:1083C0008DF8043001AA0123222100F0D6FD0122FC
:1083D0002021204600F0B9FD2046FFF7D7FF94F991
:1083E0002530002B03DA4FF47A7002F0D7FF02B089
:1083F00010BD00002DE9F341044600F089FB642024
:1084000002F0CCFF2046FFF7C1FF012212212046D7
:1084100000F09BFD2046FFF7B9FF54238DF8003094
:108420006A4620460123742100F0A7FD4FF03B0867
:108430006A46204601237E218DF8008000F09DFDD4
:108440004FF4FD73ADF8003000266A462046032342
:10845000012103258DF8026000F08FFD6A46204659
:10846000012311218DF8005000F087FD4FF4706357
:10847000ADF800306A4620460223442100F07DFD1D
:108480004FF4790300936A4620460423452100F007
:1084900074FD6A46204601233C218DF8005000F00F
:1084A0006CFD70238DF800306A46204601232C2194
:1084B00000F063FD15238DF800306A4629462046FA
:1084C000012300F05AFD4AF64103ADF8003032278F
:1084D0002B466A46204604218DF8027000F04DFDBF
:1084E00030238DF800306A46204601233A2100F0FF
:1084F00044FD0A238DF800306A4641462046012398
:1085000000F03BFD394620460D4A462300F035FD7C
:108510006A46204601234E218DF8006000F02DFDB3
:10852000F923ADF800306A4602234F21204600F0BF
:1085300024FD2046FFF72AFF02B0BDE8F08100BF0E
:10854000D4F70D0013B590F92330002B04460BDB54
:10855000012301AA10218DF8043000F00EFD6420E3
:1085600002F01CFF02B010BD0122122100F0EDFC50
:108570002046FFF70BFFF5E710B5044600F074FB4B
:1085800020460122002100F0EBFA204601220021C2
:1085900000F0FEFA236820461B6EBDE81040184725
:1085A000012241700270704707B50190FDF7D8FEB7
:1085B000019903B05DF804EB01F0B0B910B50446C1
:1085C000FDF7CEFE01F023F994F901000121BDE889
:1085D000104080B203F0B5BE30B585B00B4B0093B0
:1085E0000B4B0293044601230025ADF80C308DF8A7
:1085F0000450FDF7B5FE694601F022F994F9010037
:10860000294680B203F09DFE05B030BD98F10D0003
:1086100000093D0070B5044690F90100012180B2C7
:1086200003F07EFE2046FFF7C9FF23789BB1FDF7DC
:1086300097FE01F0DBF82046FFF7CEFF03252378F5
:10864000CBB1FF20FFF7B0FF013DF8D12046BDE8D8
:108650007040FFF7B3BF94F90200012180B203F02C
:108660005FFE94F90400012180B203F059FE2378E3
:10867000002BE0D0DBE7082694F90400002180B24B
:1086800003F05FFE94F90200012180B203F059FE6D
:1086900094F90400012180B203F053FE013EEBD1B6
:1086A000D2E72DE9F04F85B00D469DF838B0019224
:1086B0001E460446FFF790FF2B128DF80CB08DF884
:1086C0000D308DF80E500DF10C0A002723781AF8A2
:1086D000019B9BB14846FFF767FFBBF1020F02D138
:1086E0000137032FF2D10025AE4225DD23781BB1DF
:1086F000019B585DFFF758FF0135F5E74FF008087B
:10870000802594F90400002180B203F01AFE94F948
:10871000020019EA050118BF012180B203F011FE21
:1087200094F90400012180B203F00BFEB8F10108B6
:108730004FEA5505E5D1D0E7204605B0BDE8F04F3A
:10874000FFF73CBF1FB58DF80F2000930DF10F020E
:108750000123FFF7A6FF05B05DF804FB2DE9F04FFC
:1087600085B00E469DF838B0019304461546FFF7D4
:1087700033FF33128DF80CB08DF80D308DF80E608C
:108780000DF10C0A002723781AF8019BABB148467B
:10879000FFF70AFFBBF1030F02D10137032FF2D11C
:1087A000019B2B449846A8453FD023781BB300205B
:1087B000FFF7FAFE28700135F5E74FF0080880262C
:1087C00094F90400002180B203F0BBFD94F902008B
:1087D00019EA060118BF012180B203F0B2FD94F935
:1087E0000400012180B203F0ACFDB8F101084FEAAA
:1087F0005606E5D1CEE7082794F90400002180B29F
:1088000003F09FFD94F90400012180B203F099FD6B
:1088100094F903002E7880B203F0ACFD760076B2B6
:108820003043013F2870E7D1C5E7204605B0BDE8D9
:10883000F04FFFF7C3BE1FB5012300920DF10F02E9
:10884000FFF78CFF9DF80F0005B05DF804FB2DE9E4
:10885000F74F0E461D4604469046FFF7BDFE022325
:108860008DF8043033128DF805308DF806600DF167
:10887000040B002723781BF801AB7BB15046FFF7B0
:1088800093FE0137032FF5D10027B84542D0237856
:1088900013B32846FFF788FE0137F6E74FF00809C3
:1088A000802694F90400002180B203F04AFD94F977
:1088B00002001AEA060118BF012180B203F041FD4F
:1088C00094F90400012180B203F03BFDB9F10109E4
:1088D0004FEA5606E5D1D4E74FF00809802694F90F
:1088E0000400002180B203F02CFD94F9020015EA87
:1088F000060118BF012180B203F023FD94F90400A2
:10890000012180B203F01DFDB9F101094FEA5606BD
:10891000E5D1C1E7204603B0BDE8F04FFFF74EBEFA
:108920002DE9F7430F1E054614469946C0F2A6806E
:10893000FDF792FCB84240F3A180002CC0F29E806B
:108940002846FDF78CFCA04240F39880B5F80A80D9
:1089500018F0070F1CBF28F0070808F10808284680
:1089600018BF1FFA88F8FDF775FC022831D00328DC
:1089700037D0012804D12A89E44322443C4617B267
:10898000B5F9086095F84C30013EF61B08FB064629
:10899000A9F10307F008BFB2C6F3CF0633B3012F26
:1089A00094BFB5F84810B5F84A100E44B6B2032289
:1089B000314605F12700FFF73EFF012F8DF8070034
:1089C0000DF1070017D9B9F1000F45D195F82C30FA
:1089D00013E02989E4430139CF1B44443FB224B258
:1089E000CEE7F943414427460CB2C9E7012F80B2D4
:1089F00014D8EB6B184495F82D3093B1634203F013
:108A0000070304F0070458BF5C42C4F107040123C4
:108A1000A340047824EA0304047010E02B6C18448B
:108A2000D1E7634203F0070304F0070458BF5C4238
:108A30000278C4F107040123A3401343037095F89F
:108A40004C30DBB102780223314605F1270003B038
:108A5000BDE8F043FFF776BEB9F1020FEFD16342F4
:108A600003F0070304F0070458BF5C42C4F1070495
:108A7000012303FA04F403785C40CDE703B0BDE8BA
:108A8000F083000070B512B2044609B29DF9185087
:108A90001E46FDF793F92046134B40F8273B294625
:108AA000FFF77EFD9DF9143084F824309DF91030D5
:108AB00084F823309DF91C3084F82530ED430123E0
:108AC000ED0F84F84D300023C4E90D33C4E90F33B2
:108AD000C4E9113384F8226084F84C5084F82630BD
:108AE0002386E385204670BD94F80D0010B5074B32
:108AF00003600446406B18B100F0E2FD002363639D
:108B0000A06B08B100F0DCFD204610BD94F80D000C
:108B100010B5044690F92300002820DB012180B223
:108B200003F0FEFB94F92300012180B203F009FC5D
:108B30000A2002F033FC94F92300002180B203F0F4
:108B400000FC0A2002F02AFC94F92300012180B2E3
:108B500003F0F7FBBDE810400A2002F01FBC10BD77
:108B600061B990F84C3033B1B0F84430A0F84A30D5
:108B700080F82C207047436B0364F9E70129F7D193
:108B800090F84C3013B1B0F84630EFE7836BF3E761
:108B900061B990F84C3033B1B0F84430A0F84830A7
:108BA00080F82D207047436BC363F9E70129F7D1A3
:108BB00090F84C3013B1B0F84630EFE7836BF3E731
:108BC00010B590F84C300446C3B1C28D42B194F850
:108BD0002C30B4F84410273003B1FF23FFF737FEE1
:108BE000228EFAB194F82D30B4F8461004F1270023
:108BF00003B1FF23BDE81040FFF729BE406B30B141
:108C000094F82C10E28D01B1FF2105F029FFA06B33
:108C100040B194F82D10228E01B1FF21BDE8104023
:108C200005F01EBF10BD90F92200012180B203F0B3
:108C300088BB90F92200002180B203F082BB0000C3
:108C400010B50446FDF78CFB00F0E1FD054B94F9EF
:108C5000240000221A70BDE81040012180B203F008
:108C600070BB00BFBDE5032037B501220D460021D2
:108C70000446FFF775FF00220121FFF789FF90F8F6
:108C80004C304BB127300190FFF7C4FC0198012311
:108C900040220021FFF756FD94F92200012180B205
:108CA00003F03EFB94F92400012180B203F038FB6D
:108CB0002046FFF7C5FF94F84D30D3B994F9200052
:108CC000012180B203F02CFB94F92100012180B234
:108CD00003F026FB15B12046FFF71AFF94F9250093
:108CE00000280BDB002180B203B0BDE8304003F068
:108CF00017BBFDF735FB00F079FDEBE703B030BDA6
:108D00007FB50D4D2B78044673B90C4A8DF80430AD
:108D100001260B4B00920293ADF80C60FDF720FB8F
:108D2000694600F08DFD2E7094F92400002180B278
:108D300003F007FB04B070BDBDE5032098F10D0002
:108D400000093D00F8B590F84D3005460E46B3B128
:108D500090F8263063B1FFF7D3FFFDF701FB3146F2
:108D600000F0DCFD04462846FFF76AFF2046F8BD08
:108D7000FDF7F6FA3146BDE8F84000F0CFBD082413
:108D8000802795F92100002180B203F0DAFA95F9E5
:108D9000200016EA070118BF012180B203F0D1FAC2
:108DA00095F92100012180B203F0CBFA013C4FEA92
:108DB0005707E6D1DAE72DE9F041036804469B6DD9
:108DC0009847236800225B6D11462046984794F827
:108DD0004C50B5B304F127073846FFF7FDFB0321DC
:108DE0002046FFF7AFFFB4F844102046090AFFF70A
:108DF000A9FF94F844102046FFF7A4FF2368002140
:108E00001B6D2046984705462046FFF70CFF0026BD
:108E1000E28DB3B29A4206D929462046FFF792FF67
:108E200001360546F4E72046FFF70AFF3846FFF70C
:108E3000C5FB238EE3B92368DB6D2046BDE8F04116
:108E40001847236829461B6D204698472046FFF7A0
:108E5000EAFEE28DABB29A4206D9626B2046D15C43
:108E6000FFF770FF0135F4E72046FFF7E9FEE0E782
:108E7000022002F093FA236800225B6D114620461F
:108E8000984794F84C50ADB304F127073846FFF7E4
:108E9000A3FB03212046FFF755FFB4F846102046F8
:108EA000090AFFF74FFF94F846102046FFF74AFFE4
:108EB000236801211B6D2046984705462046FFF791
:108EC000B2FE0026228EB3B29A4206D92946204627
:108ED000FFF738FF01360546F4E72046FFF7B0FEFE
:108EE0003846FFF76BFB23682046DB6D9847236805
:108EF0001B6EA2E7236801211B6D20469847204680
:108F0000FFF791FE228EABB29A4206D9A26B2046A1
:108F1000D15CFFF717FF0135F4E72046FFF790FE1D
:108F2000E1E770B50C4615460646FFF77CFE254482
:108F3000AC4205D014F8011B3046FFF703FFF7E7FA
:108F40003046BDE87040FFF77BBE73B50446019123
:108F50001646FFF775FE2046FFF76BFE2046FFF72B
:108F6000CFFE01992046FFF7EDFE054616B12046DB
:108F7000FFF766FE284602B070BD70B50446154680
:108F80001E460022FFF7E1FF324629462046BDE893
:108F90007040FFF7C6BF000008B5024B1B689B6816
:108FA000019308BD6802030008B5024B1B68DB682B
:108FB000019308BD6802030008B5024B1B689B685B
:108FC000019308BD2C02030008B5024B1B68DB6847
:108FD000019308BD2C02030008B5024B1B681B69F6
:108FE000019308BD2C02030008B5024B1B685B69A6
:108FF000019308BD2C02030008B5024B1B685B6897
:10900000019308BD1802030008B5024B1B68DB681A
:10901000019308BD1802030008B5024B1B681B69C9
:10902000019308BD1802030008B5024B1B685B6979
:10903000019308BD1802030008B5024B1B689B6A28
:10904000019308BD1802030008B5024B1B685B6C56
:10905000019308BD1802030008B5024B1B689B6C06
:10906000019308BD1802030008B5024B1B689B6DF5
:10907000019308BD1802030008B5024B1B68DB6DA5
:10908000019308BD1802030008B5024B1B685B6E14
:10909000019308BD1802030008B5024B1B689B68CA
:1090A000019308BD7802030008B5024B1B681B6DD5
:1090B000019308BD7802030008B5024B1B689B6D45
:1090C000019308BD7802030008B5024B1B681B6EB4
:1090D000019308BD7802030008B5034B1B68D3F861
:1090E0009830019308BD00007802030008B5034BD7
:1090F0001B68D3F8A830019308BD00007802030074
:1091000008B5034B1B68D3F8B430019308BD0000C9
:109110007802030008B5034B1B68D3F8D8300193DD
:1091200008BD00007802030008B5034B1B68D3F8A4
:10913000DC30019308BD00007802030008B5034B42
:109140001B68D3F8EC30019308BD000078020300DF
:1091500008B5034B1B68D3F8F030019308BD00003D
:109160007802030008B5034B1B68D3F80031019364
:1091700008BD00007802030008B5034B1B68D3F854
:109180000431019308BD00007802030008B5024BCA
:109190001B685B6C019308BD4802030008B5024BD5
:1091A0001B689B6C019308BD4802030008B5024B85
:1091B0001B68DB6C019308BD4802030008B5024B35
:1091C0001B685B6D019308BD4802030008B5024BA4
:1091D0001B685B69019308BD6402030008B5024B7C
:1091E0001B681B68019308BD3C02030008B5024BD5
:1091F0001B68DB68019308BD3C02030008B5024B05
:109200001B681B69019308BD3C02030008B5024BB3
:109210001B685B69019308BD3C02030008B5024B63
:109220001B689B69019308BD3C02030008B5024B13
:109230001B68DB69019308BD3C02030008B5024BC3
:109240001B681B6A019308BD3C02030008B5024B72
:109250001B689B6A019308BD3C02030008B5024BE2
:109260001B68DB68019308BD2802030008B5024BA8
:109270001B689B69019308BD2802030008B5024BD7
:109280001B68DB69019308BD2802030008B5024B87
:109290001B681B6A019308BD2802030008B5024B36
:1092A0001B685B6A019308BD2802030008B5024BE6
:1092B0001B689B6A019308BD2802030008B5024B96
:1092C0001B68DB6A019308BD2802030008B5024B46
:1092D0001B681B6B019308BD2802030008B5024BF5
:1092E0001B685B6B019308BD2802030008B5024BA5
:1092F0001B681B6C019308BD2802030008B5024BD4
:109300001B689B6C019308BD2802030008B5024B43
:109310001B68DB6C019308BD2802030008B5024BF3
:109320001B681B6D019308BD2802030008B5024BA2
:109330001B681B68019308BD3002030008B5024B8F
:109340001B685B69019308BD3002030008B5024B3E
:109350001B68DB69019308BD3002030008B5024BAE
:109360001B681B6A019308BD3002030008B5024B5D
:109370001B685B6A019308BD3002030008B5024B0D
:109380001B689B6A019308BD3002030008B5024BBD
:109390001B689B6B019308BD3002030008B5024BAC
:1093A0001B68DB6B019308BD3002030008B5024B5C
:1093B0001B681B6C019308BD3002030008B5024B0B
:1093C0001B685B6C019308BD3002030008B5024BBB
:1093D0001B685B6C019308BD7402030008B5034B66
:1093E0001B68D3F88830019308BD000074020300A5
:1093F00008B5034B1B68D3F89030019308BD0000FB
:109400007402030008B5024B1B685B68019308BD3A
:109410005802030008B5024B1B681B68019308BD86
:109420004C02030008B5024B1B685B68019308BD42
:109430004C02030008B5024B1B681B69019308BD71
:109440004C02030008B5024B1B685B69019308BD21
:109450004C02030008B5024B1B689B69019308BDD1
:109460004C02030008B5024B1B68DB69019308BD81
:109470004C02030008B5024B1B681B6A019308BD30
:109480004C02030008B5024B1B685B6B019308BDDF
:109490006002030008B5024B1B681B6D019308BDF9
:1094A0006002030008B5034B1B68D3F898300193A2
:1094B00008BD00006002030008B5024B1B681B6872
:1094C000019308BD2002030008B5024B1B685B68CE
:1094D000019308BD2002030008B5024B1B685B69BD
:1094E000019308BD2002030008B5024B1B68DB6A2C
:1094F000019308BD2002030008B5024B1B68DB6C1A
:10950000019308BD2002030008B5024B1B685B6D88
:10951000019308BD2002030008B5024B1B689B6D38
:10952000019308BD2002030008B5034B1B68D3F864
:109530008830019308BD00002002030008B5034BEA
:109540001B68D3F89430019308BD0000200203008B
:1095500008B5024B1B685B68019308BD400203001D
:1095600008B5024B1B689B68019308BD40020300CD
:1095700008B5024B1B68DB68019308BD400203007D
:1095800008B5024B1B681B69019308BD400203002C
:1095900008B5024B1B685B69019308BD40020300DC
:1095A00008B5024B1B689B69019308BD400203008C
:1095B00008B5024B1B68DB69019308BD400203003C
:1095C00008B5024B1B681B6A019308BD40020300EB
:1095D00008B5024B1B681B6B019308BD40020300DA
:1095E00008B5024B1B685B6B019308BD400203008A
:1095F00008B5024B1B681B6C019308BD40020300B9
:1096000008B5024B1B685B6C019308BD4002030068
:1096100008B5024B1B681B68019308BD4402030098
:1096200008B5024B1B685B68019308BD4402030048
:1096300008B5024B1B689B68019308BD44020300F8
:1096400008B5024B1B685B69019308BD4402030027
:1096500008B5024B1B68DB69019308BD4402030097
:1096600008B5024B1B681B6A019308BD4402030046
:1096700008B5024B1B68DB6A019308BD4402030076
:1096800008B5024B1B681B6B019308BD4402030025
:1096900008B5024B1B685B6B019308BD44020300D5
:1096A00008B5024B1B68DB6B019308BD4402030045
:1096B00008B5024B1B681B68019308BD1C02030020
:1096C00008B5024B1B685B68019308BD1C020300D0
:1096D00008B5024B1B689B68019308BD1C02030080
:1096E00008B5024B1B68DB68019308BD1C02030030
:1096F00008B5024B1B685B6A019308BD1C0203009E
:1097000008B5024B1B68DB6A019308BD1C0203000D
:1097100008B5024B1B681B6B019308BD1C020300BC
:1097200008B5024B1B68DB6B019308BD1C020300EC
:1097300008B5024B1B685B6C019308BD1C0203005B
:1097400008B5024B1B68DB6C019308BD1C020300CB
:10975000002240681146FFF733BF002240681146DF
:10976000FFF73EBF40680022FFF732BF406800228B
:1097700081F00101FFF71CBF002340681A4619461B
:10978000FFF70EBF002340681A461946FFF700BFD7
:10979000002240681146FFF7F3BE002240681146E0
:1097A000FFF7DEBE406800220221FFF7E1BE002382
:1097B00040681A46FFF7CCBE024B03225A60024AA9
:1097C0001A607047C0E5032000F90D000021FFF783
:1097D000EDBD0021FFF7F2BD10B50446084621702B
:1097E000FFF7B4FD00236360204610BD10B50446AA
:1097F0000078FFF7EBFF48B920784FF6FF71FFF7CD
:1098000095FD2078BDE81040FFF7E3BF10BD00785C
:10981000FFF7DFBF400830B51860002418688842A1
:10982000E5B206D90134082C02D040081860F5E7EB
:109830000725024B5B5D137030BD00BF34F90D008E
:109840002DE9F04306468FB000780C46FFF7BEFFC7
:1098500000281BDB35781422002109A805F000F947
:109860000B23002209A92846ADF82430FFF77EFD1E
:109870009DF82D3013B19DF82C5055B10027B946F5
:10988000B846012523795DB1C3B100200FB0BDE812
:10989000F083DDF830809DF834909DF83570F1E765
:1098A000002B35D1A368434508D18DF820908DF861
:1098B0002170BDF82020A3899A42E6D00023A16838
:1098C0008DF80F300A9804AB0DF10F02FFF7A2FFDD
:1098D000217985B989B9A36843450ED38DF82090C5
:1098E0008DF82170BDF82020A3899A4205D1049BF0
:1098F000434502D1C9E70029F9D100230193637BD5
:1099000000939DF80F20237B3078FFF747FDBCE7DD
:10991000CDE900552B462A460121F5E708B5007828
:10992000FFF70CFDC0B208BD30B587B004460A9DF4
:1099300000950078FFF722FD3DB9207802A9FFF7D6
:1099400025FD9DF81430DB07F7D407B030BD0000CB
:1099500010B5094B094C022200201A60084B206008
:10996000A080A071A360FFF7AFFD2046054A06491D
:10997000BDE8104002F0A8BDD4E50320C8E50320EF
:109980000000FFFF18DE032069410D0010B50446FA
:1099900005F0CFF8013823182046834206D9027813
:1099A000197800F8011B03F80129F6E710BD70B51E
:1099B0000C46911E2229054622D820466DB1B5FBE2
:1099C000F2F602FB1655E9B2092D94BF303157313A
:1099D000C9B200F8011B3546F0E7024623443021A6
:1099E000934202D902F8011BFAE71A1A834238BFE0
:1099F0000022002383542046FFF7C8FF204670BD95
:109A00000020FCE738B5031E0C4615460EDAB3F10C
:109A1000004F4FF02D0214BF5842184601230A7020
:109A20002A461944FFF7C3FF204638BD0123F9E752
:109A300010B504460068FFF743FE204610BD10B580
:109A40000446006808B1FFF73BFE0023C4E9013378
:109A5000236010BD38B504460D4600680131FFF79C
:109A600037FE10B1C4E90005012038BD10B5036808
:109A7000044623B143688B4201D3012010BD204628
:109A8000FFF7E8FF0028F9D0A368002BF5D1226882
:109A90001370F2E737B50D46114601920446FFF701
:109AA000E5FF019A28B92046FFF7C9FF204603B019
:109AB00030BDA2602946206804F0AAFF2268A3688E
:109AC0000021D154F2E7002313B5C0E90033044666
:109AD0008360037341B10846019105F02AF80199AA
