:02000002D0002C
:1040000000400D0060EF0D00000006000D000501EE
:084010000401BD0B00000000DB
:0440180084DD0D0036
:1040200009480A49884208B505D0094A824202D0A7
:10403000121A09F095FD0748074A0021121A09F0E3
:10404000B7FD014808BD00BFB0DD0320CCEE0D0078
:104050001CDE032020DE0320F4E7032070B5074EAA
:10406000074C06F061FEA41BA4080025A54200D160
:1040700070BD56F8043B98470135F7E794EE0D0004
:10408000B8EE0D0000F0D6BC08B501F04DF8BDE863
:10409000084006F00BBE04F08BBF04F089BF04F0AB
:1040A0008FBF000008B5034A00210C2004F092FEE7
:1040B000FEE700BF158A0D000078B0FA80F04009D5
:1040C0007047012303707047106870477047037C86
:1040D00013F008031EBFC36A406A1B1A002BACBF53
:1040E00018466FF0004070477047704710B51021B8
:1040F000044607F098FA204610BD10B53421044656
:1041000007F091FA204610BD103003F009B81030C6
:1041100002F024BF07B501220DF10701103002F0B3
:104120006FFE01280CBF9DF807004FF0FF3003B071
:104130005DF804FB103003F07DB807B501228DF85F
:10414000071010300DF1070103F074F803B05DF8AB
:1041500004FB000008B505F00EFAC0B201380228D1
:104160009FBF034B05221A60002088BF012008BDB5
:10417000C4E2032010B5034B0360044604F0BCF90D
:10418000204610BDA8E80D0010B50446006808B12F
:1041900004F016FF204610BD07B505F0ECF9C0B2DB
:1041A000022817D0032805D0012816D0012003B01B
:1041B0005DF804FB3C23019307F09AF904220DEB10
:1041C000020140F2091004F04DFC054B019A1A60FF
:1041D0000020ECE74FF49673EDE74FF41673EAE72F
:1041E00038DE032010B586B0002301A9142204464E
:1041F00005F0A9F907F07CF9142201A90A2004F0BE
:1042000031FC2146024805F00CF9002006B010BD33
:10421000CCE3032007B505F0AEF9C0B2022817D0F1
:10422000032805D0012815D0012003B05DF804FB58
:104230000523019307F05CF904220DEB02014FF412
:10424000827004F00FFC044B0A221A600020ECE795
:104250000A23EEE71423ECE730DE03200EB403B5A7
:1042600003AB002153F8042B019306F0BEFB02B010
:104270005DF804EB03B0704773B504460846227935
:10428000A36832B1A3B90B4902B0BDE8704006F093
:1042900099BA094A267B094D0949647B012E18BF4A
:1042A0002946CDE900140749FFF7D8FF02B070BDD9
:1042B000054AEFE7A9DD0D00FBDD0D00A5DD0D00D2
:1042C000A1DD0D00BFDD0D0098DD0D000EB403B5BE
:1042D00003AB012153F8042B019306F086FB02B0D7
:1042E0005DF804EB03B0704738B504460E4D06F098
:1042F00049FE0E49FFF7EAFF24782B68A34207D155
:1043000006F040FE0A49FFF7E1FF00232B6038BDAD
:1043100006F038FE0749FFF7D9FF06F033FE0649DD
:104320002246FFF7D3FFF2E7C4E30320DCDD0D00F4
:10433000FCDD0D0017DE0D005EDE0D002DE9F04FF7
:104340002DED028BA7B0044608EE101A0A22418810
:1043500022A805F09AF800230AA9062222A805F04F
:10436000F2F822A804F0E1FFA1880A2222A805F0B1
:104370008CF800230CA9062222A805F0E4F822A854
:1043800004F0D3FF0EADE1880A2222A805F07DF8E3
:1043900000232946062222A805F0D5F822A804F019
:1043A000C4FF21890A2222A805F06FF8002310A972
:1043B000062222A805F0C7F822A804F0B6FF6189FA
:1043C0000A2222A805F061F8002312A9062222A8D9
:1043D00005F0B9F822A804F0A8FF14AEA1890A22BA
:1043E00022A805F052F800233146062222A805F043
:1043F000AAF822A804F099FF16AFA18A0A2222A8DF
:1044000005F043F800233946062222A805F09BF860
:1044100022A804F08AFF0DF16008E18A0A2222A88E
:1044200005F033F800234146062222A805F08BF858
:1044300022A804F07AFF0DF16809218B0A2222A834
:1044400005F023F800234946062222A805F07BF850
:1044500022A804F06AFF0DF1700AE1890A2222A85D
:1044600005F013F800235146062222A805F06BF848
:1044700022A804F05AFF0DF1780B218A0A2222A803
:1044800005F003F800235946062222A805F05BF840
:1044900022A804F04AFF618A0A2220AC22A804F074
:1044A000F4FF21460023062222A805F04CF822A89A
:1044B00004F03BFF12AB029310ABCDE90053CDE902
:1044C00008B4CDE9069ACDE904780649039618EEBA
:1044D000100A0CAB0AAA04F083FD27B0BDEC028BD6
:1044E000BDE8F08F01DF0D002DE9F04F2DED028BBF
:1044F0000446D3B008EE101A2CA9FFF71FFFE0699D
:10450000414D08F0ABFC02460B4612A8294604F0C8
:1045100067FD206A08F0A2FC02460B4615A8294652
:1045200004F05EFD606A08F099FC0DF16C0A024629
:104530000B465046294604F053FDA06A08F08EFC55
:104540000DF1600B02460B465846294604F048FD23
:1045500094F82C30009322AE94F82D3094F82E204D
:104560002A49304604F03CFD94F82F30009394F82B
:104570003030628E26490DF1280827A804F030FD5E
:104580000DF12C0923490022404604F029FD0CAF0F
:1045900020490022484604F023FD00221D493846E8
:1045A00004F01EFD606B08F059FC0FAC02460B4690
:1045B0002046294604F014FD174B0A2219681EA84C
:1045C00004F076FF0DA9002306221EA804F0BBFF0D
:1045D0001EA804F0AAFE15AB079312AB06932CABF2
:1045E000CDE90493CDE908ABCDE90278CDE90064CB
:1045F0000A4918EE100A27AB0DAA04F0F1FC53B0DB
:10460000BDEC028BBDE8F08F6FDE0D0074DE0D0097
:104610007DDE0D0083DE0D00C8E3032086DE0D0085
:10462000F0B50024D9B00268ADF85C4005462346D9
:104630000F4617A84249434E02F0AFFD2A68424B8D
:104640004FF47A71002860D1CDE91801ADF86C0003
:104650003B4917931BA844F202231BAD02F09DFDBA
:104660000FCD06F110040FC40FCD0FC42B682360CB
:10467000189B7360199BB3601A9BF360334B1493C0
:10468000334B1393334B1293334B1193334B1093A0
:10469000334B0F93334B0E93334B0D93334B0C93A0
:1046A000334B0B93334B0A93334B0993334B0893A0
:1046B000334B0793334B0693334B0593334B0493A0
:1046C000334B0393334B0293334B0193334B344AB5
:1046D0003449009317A8344B04F082FC334B304626
:1046E000196806F082F817A9304606F07EF8337C88
:1046F0002F4C3BB13968134806F077F82D4802F08B
:1047000045FD0123237059B0F0BDCDE91841ADF846
:104710006C400B4917931BA844F202231BAC02F018
:104720003CFD0FCC06F110050FC50FCC0FC523685B
:104730002B60189B7360199BB3601A9BF360D6E7DC
:1047400078E203206CE403202CE20D003DDF0D0035
:1047500045DF0D004CDF0D0052DF0D005ADF0D006C
:1047600063DF0D006DDF0D0075DF0D007EDF0D00D6
:1047700088DF0D0090DF0D0098DF0D009FDF0D003A
:10478000A6DF0D00ADDF0D00B4DF0D00BBDF0D00B7
:10479000C5DF0D00CEDF0D00D2DF0D00DADF0D002A
:1047A000C3DE0D00CBDE0D00BEDE0D00CCE303202A
:1047B000C0E203207CE4032042884B6813444B6032
:1047C00082888B6813448B60C288CB681344CB60AB
:1047D00002890B6913440B6142894B6913444B6195
:1047E00082898B6913448B61C289CB691344CB6185
:1047F000028A0B6A13440B62428A4B6A13444B626F
:10480000828A8B6A13448B62C28ACB6A1344CB625E
:10481000028B0B6BD1ED0D7A13440B6390ED077A8D
:10482000B1F8443077EE877A0133C1ED0D7A90ED1F
:10483000087AD1ED0E7A77EE877AC1ED0E7A90ED97
:10484000097AD1ED0F7A77EE877AC1ED0F7A90ED84
:104850000A7AD1ED107AA1F8443077EE877AC1ED6B
:10486000107A704730B5264CB7B0204603F0AEFE44
:104870002046012100F03FFF2249AF220AA809F09B
:104880006FF9002528222323CDE9013500920DEB95
:10489000020320465F2100F0E1FF2D23294610226C
:1048A00006A8059309F084F906F022FE14220DEB08
:1048B00002010A2004F0CEF82046012101F0FCF9A3
:1048C00050222046612101F0F4F92946204601F0EA
:1048D000F8F90D49204605F075FF5A222046492176
:1048E00001F0E7F90949204605F06CFF05A92046CB
:1048F00005F068FF204603F064FF37B030BD00BF0D
:10490000DCE303204CE20D00DFDF0D00E6DF0D00ED
:1049100010B5A0B005F0E6F905F032FA3D493E4881
:10492000002205F029FD05F0DDF93C4A014617A8F3
:1049300005F016FE17A805F0A4FA05F0D3F9364ADB
:10494000014617A805F00CFE17A805F09AFA17A85B
:1049500005F099F832490AA804F098FF0AA90FA8AF
:1049600004F094FF0FA804F0D7FF04460FA8002C12
:1049700047D104F0F0FF0094ADF81800022306AA16
:10498000032117A805F074F802A804F0F9FA2549E4
:104990000FA804F055FD24490FA804F0BFFD02A99B
:1049A00004F0B0FD014606A804F04AFD0FA804F08B
:1049B000BCFC1E490AA804F003FD1A4917A805F01B
:1049C0008DF81B4B0F9300244FF47F430FA9ADF8D4
:1049D00040300722234617A88DF8424005F081F8A1
:1049E00005F080F9224617A905F0EAF90AA804F0B3
:1049F0009CFC06A804F099FC02A804F096FC20B0E8
:104A000010BD04F0ADFF00230093024610230721E0
:104A1000B7E700BFE9420D00A0E50320A8E50320A9
:104A2000D4E20320CCE30320D9E00D00EFDF0D003A
:104A3000FFFF550070B501218AB0132006F01AFD62
:104A40000121082006F016FD0121132006F023FDA8
:104A50000121082006F01FFD0121072006F00AFDB4
:104A60005A4A5B495B4806F0A7F95B4A5B495948DB
:104A700006F0A2F95A4A5B49564806F09DF95A4A8F
:104A80005A49544806F098F959495A4800230222D5
:104A900004F056FA584959480023022204F050FA0B
:104AA000574958480023022204F04AFA00240C23F4
:104AB0000594ADF81430544B54490693042205ABC9
:104AC0005348079404F03CFA5248234622462146B4
:104AD000406804F0FDF906F055FA4FF4E13106F0B4
:104AE00045FA4FF47A7006F083F88DF818404A4C76
:104AF0004A4B059304F58C66494B0793012505AB9A
:104B0000022204F26C413046ADF8205002F0CAFE99
:104B1000F8B1266004F23C4002F038FB29462046FA
:104B200002F06EFD04F23C45014668B13A4901F2DB
:104B30003C4002F04CF960B194F83C3413F0700F33
:104B40001CBF384B1D6004E0204602F059FD0028D0
:104B5000ECD14FF47A7006F04BF87621324801F030
:104B60006FFD324800F095FC0121314803F00AFA4C
:104B700041F2883006F03CF806F0BAFC14220DEB46
:104B800002010A2003F066FF05A901A804F018FC41
:104B900001A91E4804F05FFC01A804F0C6FB144BF9
:104BA0003C221A60144B05221A60154B4AF6C002CB
:104BB0001A60FFF7ADFE1F4B00221A70FFF752FE7E
:104BC00041F2883006F014F80AB070BDF5DF0D0030
:104BD000E5410D008DAD0D0003E00D0015420D0007
:104BE0001AE00D0099410D0031E00D0055410D0016
:104BF00030DE032047E00D00C4E203205CE00D003E
:104C000038DE03206FE00D00C9400D00CCE3032027
:104C10007CE00D0060E603203CDE032018E20D007E
:104C200080F0FA02B4E5032084E30320A0E403202B
:104C3000DCE3032034DE032030B585B00D460022CE
:104C40006946009204F0D6F8B0B9009C0CB1236913
:104C500023B90A4A00210A2004F0BCF80023ADF869
:104C600006300C23ADF80430042303930295236926
:104C700001AA01212046984705B030BD158A0D00D4
:104C800007B5032001A9FFF7D7FF40B9BDF80430ED
:104C900000EE103ABBEECC0A03B05DF804FBBFEEA9
:104CA000000AF9E710B50446394800F0FFFB05F0AB
:104CB00023FFB0B105F066FF84F82C0005F056FF25
:104CC00084F82D0005F046FF84F82E0005F066FFFD
:104CD00084F82F0005F06EFF84F8300005F072FFB5
:104CE00060862B4800F018FC6080294800F016FC14
:104CF000A080274800F014FCE080254800F012FC5A
:104D00002081234800F010FC6081214800F00EFC57
:104D1000A0811F4800F0FAFBE0811D4800F0F8FB7D
:104D200020821B4800F0F6FB6082194800F0E8FB87
:104D3000A082174800F0E6FBE082154800F0E4FB93
:104D40002083144801F01CF9124884ED070A01F091
:104D5000C5FA104884ED080A01F040F99FED0E7A7B
:104D60000C48C0EE077A9FED0D0AC4ED097A01F0F8
:104D70000FFA84ED0A0AFFF783FF094984ED0D0A53
:104D80002046FFF719FDBDE810400649FFF714BDA6
:104D9000A0E4032084E3032000007A4400507D4413
:104DA00010E5032058E5032030B58DB0044606F029
:104DB0009FFB142207A90A2003F04CFE07A903A8B1
:104DC00004F0FEFA01A800F0FCFFB748012100F052
:104DD0007BFF0121B44800F06FFFB34803F0F6FBFE
:104DE0000A22B148052100F064FFAF48002100F01D
:104DF00068FFAD4807A905F0E5FCAC4B1B78002B1C
:104E000000F04A81AA49A84805F0DCFCA949A64857
:104E100005F0D8FCA84BA44819680A2205F0EFFC5D
:104E20001422A148052100F044FFA4499E4805F042
:104E3000C9FCFFF725FF02219B4805F0C7FDA049EB
:104E4000994805F0BFFC14229748692100F031FF12
:104E50009C49954805F0B6FC9FED9B0A92480221BB
:104E600005F0B4FD9949904805F0ACFC694607206F
:104E7000FFF7E2FE051E03DB009D002D80F20E8190
:104E80002D21894805F0A2FC69420A22864805F0D6
:104E9000B6FC1E228448052100F00BFF8248002149
:104EA00000F00FFF8A49804805F08CFC61887E483D
:104EB0000A2205F0A4FC1E227B48692100F0F9FEBD
:104EC0008449794805F07EFCE18977480A2205F09B
:104ED00096FC28227448052100F0EBFE7E497248BA
:104EE00005F070FCA18870480A2205F088FC282291
:104EF0006D48692100F0DDFE78496B4805F062FCE1
:104F0000218A69480A2205F07AFC32226648052186
:104F100000F0CFFE7249644805F054FCE188624815
:104F20000A2205F06CFC32225F48692100F0C1FEC4
:104F30006C495D4805F046FC618A5B480A2205F031
:104F40005EFC3C225848052100F0B3FE66495648F5
:104F500005F038FC218954480A2205F050FC3C2217
:104F60005148692100F0A5FE60494F4805F02AFC30
:104F7000A18A4D480A2205F042FC46224A480521F2
:104F800000F097FE5A49484805F01CFC61894648E4
:104F90000A2205F034FC46224348692100F089FECC
:104FA0005449414805F00EFCE18A3F480A2205F0C9
:104FB00026FC50223C48052100F07BFE4E493A4831
:104FC00005F000FCA18938480A2205F018FC50229F
:104FD0003548692100F06DFE4849334805F0F2FB81
:104FE000218B31480A2205F00AFC5A222E4805215D
:104FF00000F05FFE42492C4805F0E4FB94ED070AFF
:105000002948022105F0E2FC3E49274805F0DAFB79
:10501000D4ED087AFDEEE77A17EE905A002D3FDACC
:105020002D21214805F0D2FB69420A221E4805F0D5
:10503000E6FB35491C4805F0C5FB94ED090A1A4802
:10504000022105F0C3FC3149174805F0BBFB64227F
:105050001548052100F02DFE2D49134805F0B2FB3F
:105060002C4B114819680A2205F0C9FB2A490E4841
:1050700005F0A8FB294B0C4819680A2205F0BFFB74
:105080002749094805F09EFB074803F09AFB03A84F
:1050900004F04BF90DB030BD2249B4E62946F4E6E0
:1050A00017EE901AC1E700BFDCE30320C0E2032043
:1050B000BAE00D00C4E00D00C8E30320CEE00D000F
:1050C000D7E00D00DBE00D0000000000E1E00D0086
:1050D000E9E00D00F2E00D00FDE00D0006E10D003D
:1050E00011E10D001AE10D0025E10D002EE10D008A
:1050F00039E10D0042E10D004DE10D0056E10D00DA
:1051000061E10D0068E10D0070E10D0077E10D0037
:105110007BE10D00C4E2032082E10D0030DE0320BC
:105120008EE10D00BFE00D0070B5CCB003F082FC45
:10513000054603F07FFC234E044603F07BFC03F09E
:1051400079FC03F077FC3368EA1A1F4B19684FF4B7
:105150007A734B439A4225D31C48FFF7A3FD1C4B9F
:105160001A48002209A91A70FFF7BEF9194901A8C7
:1051700004F026F909A905A804F022F905A901A857
:10518000FFF74EFA05A804F0D0F801A804F0CDF816
:10519000114B196801311960072001F0010106F077
:1051A0007AF935600D4D2B68E21A0D4B19684FF4F2
:1051B0007A734B439A4203D30448FFF7F5FD2C6002
:1051C0004CB070BD08E50320C4E2032034E40320A2
:1051D000C0E2032091E00D00C8E303200CE50320AA
:1051E00030DE0320F0B5164691B00022C0E900225F
:1051F00004460D460BAF194606A804F047FB169966
:10520000384604F043FB33788DF81430189B029332
:10521000179B2046CDE9007305AA06AB294605F089
:1052200067F8204611B0F0BD10B50446FEF7A2FFA6
:105230002046502106F0F7F9204610BD70B5664BA8
:10524000664D012600241E70654BAB6092B02C6049
:10525000AC80AC71022003F0DFFD624A624928464F
:1052600006F0DCF92146304603F0E6FD21465F48B2
:105270005F4D05F0E1FC5B4A5E495C4806F0CEF903
:105280005D4800F0A4FD4FF0FF330322CDE9022377
:105290000422CDE90032FA2105237A22574802F090
:1052A00035FD504A5649554806F0B8F9554800F0C2
:1052B000E1F8554B642283F86024544ADC71A3F86A
:1052C0003C4483F86A44C3F87844A3F87C44C3F8A8
:1052D000702483F874642978BFF35B8F31401C46D7
:1052E0000BD128460591FEF7E7FE059928B14848FD
:1052F00003F0EAFE2846FEF7E4FE454BC4F86C34A2
:10530000384A4449404806F089F94348354A4349F8
:105310004FF47A7300248360414B0482446003603D
:1053200006F07CF93F4B40491C70A3F844403F4BCA
:105330003F481C70A3F844403E4B1C803E4B1C80F1
:105340003E4B1C8004F03CF8264A3D49384806F0A4
:1053500065F93C493C4804F07FFB3C493C4804F07B
:105360007BFB3C493C4804F077FB10233A498DF81D
:105370001C3008A804F08AFA33490DA804F086FA14
:105380000DAB009307AA08ABCDE90144334934487B
:10539000FFF728FF134A3349314806F03FF9042349
:1053A0002B498DF81C3008A804F070FA26490DA886
:1053B00004F06CFA2C4B01930DAB009307AA08ABD9
:1053C0002A4902942A48FFF70DFF064A2549284832
:1053D00006F024F912B070BD10E30320C8E20320E8
:1053E0000000FFFF20DE032089410D002CE4032094
:1053F00024DE032059AC0D0084E30320DCE303200A
:1054000075410D00A0E403203CDE032018E20D00EE
:1054100028DE0320EB400D006CE40320E9400D0082
:105420002CE20D0058E50320FBDD0D0010E5032004
:10543000CCE3032034E403204CE3032014E30320F3
:105440002B930D0099E10D00D4E20320BEE10D0085
:10545000E8E20320E3E10D00FCE2032008E20D0096
:10546000A8E50320839E0D00E9420D000BE20D002C
:10547000A0E50320704710B50446006E05F0B4FEA9
:10548000A31E00221C3423F8022FA342FBD10120CB
:1054900010BD10B5122380F86430044606F06EF893
:1054A00020662046BDE81040FFF7E5BFF8B5202292
:1054B00004461221006E05F0C6FE00252E46206E21
:1054C00003681B6998476F1C50B1206E03685B69C5
:1054D0009847EDB204EB45050126E8833D46EEE72B
:1054E0002046A31E04F11C01448C828C02EB042292
:1054F00023F8022F994200F10400F5D13046F8BD9F
:105500004088704780887047C0887047008970471E
:105510004089704780897047C0897047008A70470A
:10552000408A7047808A7047C08A7047008B7047F6
:105530002DE9F04F85B01F46BDF93880BDF83C30ED
:10554000A8EB0209A7EB010AB9F1000FB8BFC9F136
:105550000009BAF1000FB8BFCAF1000AD14583466D
:105560000C46154604DD3A462C4647460D46904605
:10557000BC4205DD2A464546904622463C46174633
:105580003E1BB2B20092A8EB0502002AB8BF5242FD
:105590000192C6F3C03202FA86F64545B4BF012235
:1055A0004FF0FF3276100292BC421CDCDBF8002088
:1055B0000393D145D2F81880C7BF294622462A4610
:1055C00021465846C047019A039BB61AB1B236B27B
:1055D000002E05DA029A1544009A56182DB236B2FA
:1055E000013424B2E0E705B0BDE8F08F704710B495
:1055F00004682469A4465DF8044B604730B404682D
:10560000BDF808500295A46BA44630BC604730B486
:105610000468BDF808500295E46BA44630BC6047AE
:1056200070B4BDF90C50BDF810600468CDE90356A4
:10563000246CA44670BC60472DE9F3411C46036806
:10564000BDF820805B6905461646013C34440F4690
:1056500024B298472B68CDF8048000949C6A2846B1
:105660003B4632463946A0472B68DB6A284602B0E3
:10567000BDE8F04118472DE9F3411D460368BDF828
:1056800020805B69044617460E469847CDE90078AE
:1056900022686B1E3344956A20461BB23A46314657
:1056A000A8472368DB6A204602B0BDE8F0411847EE
:1056B0002DE9F3471E460368BDF928905B69BDF8E4
:1056C0002C800C460546174698472644B4422B6862
:1056D0000BDACDF80080D3F820A021464B463A469D
:1056E00028460134D04724B2F0E7DB6A284602B0EE
:1056F000BDE8F047184713B502680191B0F90E10E4
:105700000091146CB0F90C3000221146A04702B091
:1057100010BD2DE9F3471D460368BDF82C805B6979
:10572000BDF9289004460F46164698472368CDF8E1
:105730000080D3F824A032462B4639462046D04775
:105740002368CDF8008009F1FF323244D3F824A059
:1057500039462B46204612B2D0472368CDF8008048
:10576000D3F820A032464B4639462046D0476B1E20
:10577000D9192368CDF800801D6A20464B46324671
:1057800009B2A8472368DB6A204602B0BDE8F047AB
:10579000184770472DE9F74399421646BDF928701E
:1057A000BDF82C90026880460D461C4613D1BE42BF
:1057B000C8BF3346CDF82890C4BF3E461F467B1C69
:1057C000946B9B1B1BB2324629464046A44603B04D
:1057D000BDE8F0436047BE420AD19942C2BF0B46C2
:1057E00025461C46631CCDF82890D46B5B1BE9E76B
:1057F00053699847CDE90079D8F8003040469F6A50
:10580000324623462946B847D8F80030DB6A40467E
:1058100003B0BDE8F043184701F00303B0F90A20D4
:105820004376C907B0F9083059BF8381C2818281AC
:10583000C381704730B501810024074D42818181C9
:10584000C2814FF0FF314FF00112C0E905124460F0
:1058500005600461C46130BD04E80D002DE9F04F1E
:1058600089B0CDE902120268BDF948800493BDF900
:105870004C3052690593BDF850A00446904718F18A
:1058800007024FF0000648BF08F10E024FEAE20B94
:1058900001963546039B019ABDF904109A18059BA1
:1058A0008B4212B227DD049B33444FF0000906936C
:1058B0000FFA89F080451FFA89F117DD4F0705BF00
:1058C000069BC0106D001D5C18BFEDB22B060AD5FB
:1058D000029B206807921944836909B21F4620463B
:1058E0005346B847079A09F10109E1E7019B0133E3
:1058F00001935E44CEE72368DB6A204609B0BDE829
:10590000F04F18472DE9F04F2DED028B91B0164660
:10591000C269BDF874709DF878409846BDF8703043
:10592000029382460D46002A40F0B780B0F90C3051
:105930008B4240F33C81B0F90E30B34240F33781E3
:10594000062313FB0413002B40F3318106EBC40341
:10595000002B40F32C81C37E33B9B8F1AF0F84BF65
:1059600008F101085FFA88F8DAF8003050465B6900
:10597000984705230993002303938F4B08EB88086E
:1059800043440A93B3B20793039A0A9B9B5C069322
:1059900002FB04F9A3B219FA85F90593ABB2089397
:1059A0000FFA89F308EE103A079B049313462B4431
:1059B0001BB208EE903A4FF000080FFA84F9069AED
:1059C000DAF80030D1074AD5012C3AD1079AD3F83A
:1059D00018B0029B424418EE901A12B25046D847B3
:1059E000069B5B080693DDE9043208F101081344C5
:1059F0009BB2B8F1080F0493E1D1039B01335BB272
:105A00000393099B013B13F0FF030993BCD1029B55
:105A1000BB420CD0012CDAF800202DD10899009758
:105A20000531146A4346324609B25046A047DAF8B7
:105A30000030DB6A504611B0BDEC028BBDE8F04F80
:105A40001847029A0192CDF80090D3F81CB0BDF926
:105A5000102018EE101A4B465046D847C0E7029A5D
:105A6000BA42BDD0012C05D1079AD3F818B04244F0
:105A70003B46B0E70197E6E7059B019703EB8301FF
:105A8000089B0B441946059BDB000093D569234610
:105A9000324609B25046A847C9E7137A51681268DE
:105AA0000992A8EB03085FFA88F801EBC80331F804
:105AB00038B09A7893F906800A92012CDA780B9222
:105AC00093F90520069295BF00230FFA88F31F462D
:105AD000039398BF0393036888BFBDF918705B698F
:105AE00098476743A3B20593ABB217FA85F5B2B2F4
:105AF0000893ABB20D930E92002318FA86F21F465C
:105B00001D460F920B9A954291D2039A05990E98D1
:105B1000DDF834802A4402FB010212B208EE102A9A
:105B20000699089A5618B2B204920A9A9A18D2B2F2
:105B300007920F9A02EB05090FFA89F9079A9A4220
:105B400032D05A1CD2B20C925A0701BF099A12F8ED
:105B50000B700BF101031FFA83FB3B060BD5012CE5
:105B6000DAF8002013D19369BDF910101E464A4699
:105B7000029B5046B047049E0136B3B20493059B86
:105B80007F009844FFB20C9B1FFA88F8D6E7029971
:105B900023B2CDE90031D2690FFA88F1164650469A
:105BA00018EE102AB047E6E70135EDB2AAE711B0CA
:105BB000BDEC028BBDE8F08FFBE20D007FB5C26942
:105BC00004460B46002A32D10A2908D1438A0282B0
:105BD000027E03EBC2036382012004B070BD0D2975
:105BE000FAD0017E807E70B1B4F91050062010FB0F
:105BF0000150B4F90C50A842C1BFB4F9120022827E
:105C000000EBC1026282E28A0192A28A02910092B2
:105C1000B4F91010B4F912202046FFF773FE237E6A
:105C2000228A03EB430302EB43032382D4E70A29CE
:105C300007D100230382937A017E428A01FB03236A
:105C4000C9E70D29C8D0157AA942C5D3517A99421E
:105C5000C2D351685D1B01EBC505AE781EB3E97870
:105C600009B3A17E007E91B195F905103144B4F9D4
:105C7000106000FB0161B4F90C60B14207DD002641
:105C80002682B4F91210927A02FB00126282E28A32
:105C90000192A28A02900092B4F91010B4F9122075
:105CA0002046FFF72FFE2979237E228A01FB03235A
:105CB000BBE7018242827047012938BF012101768A
:105CC0007047C1828182704781767047407E7047FD
:105CD000B0F90C007047B0F90E0070472DE9F84399
:105CE000044605F04BFC682105F0B4FA05F046FCCB
:105CF000036800219B68984705F040FC05F0B1FA65
:105D000005F03CFC0722682105F09DFA05F036FC01
:105D100003685B69984700F07F09C0F30210A0EBAD
:105D2000800009EB40005FFA80F905F027FC03686A
:105D30005B699847C0F30315A5EB850500EB4500AB
:105D4000C5B205F01BFC03685B699847C0F30316F6
:105D5000A6EB860600EB4600C6B205F00FFC036812
:105D60005B69984705F00AFC03685B699847C0F3D4
:105D70000317A7EB870700EB4700C7B205F0FEFB50
:105D800003685B699847C0F30318A8EB880800EB29
:105D900048005FFA80F805F0F1FB03685B699847FB
:105DA000C0F30313A3EB830300EB4300207084F8DC
:105DB0000180A770E670257184F805902046BDE843
:105DC000F88310B50446FFF789FF204610BD4FF059
:105DD000FF33C3607047000013B50B4C2178BFF34D
:105DE0005B8F11F001010BD120460191FEF764F9A0
:105DF000019928B1054803F067F92046FEF761F9DB
:105E0000024802B010BD00BF24DE032028DE0320BC
:105E10002DE9F04190F90F30013305460F4606D1C8
:105E2000FFF7DAFF3946BDE8F04103F0EFB900248F
:105E300007264FF0010895F90F00002180B205F008
:105E40002AFB95F90D0008FA06F1394080B205F0F9
:105E500022FB95F90F00012180B205F01CFB95F99A
:105E60000E00640080B2E4B205F02EFB08B144F0ED
:105E70000104013EDFD22046BDE8F08108B5FFF7FE
:105E8000ABFFBDE8084003F03AB907B50190FFF752
:105E9000A3FF019903B05DF804EB03F049B90000DA
:105EA00030B590F90C30013385B004460D462AD147
:105EB00005F064FB217805F0C9F905F05FFB036884
:105EC00029469B68984705F059FB05F0CAF905F08B
:105ED00055FB2178032205F0B6F905F04FFB036866
:105EE0005B699847050205F049FB03685B699847C1
:105EF0002843050205F042FB03685B6998470543A8
:105F0000284605B030BD90F90F3001330CD11A4B43
:105F1000009300238DF80430184B02936846012348
:105F2000ADF80C30FFF7B1FF94F90C00002180B2FE
:105F300005F0B1FA45F080012046FFF769FF002126
:105F40002046FFF765FF002105022046FFF760FFAE
:105F50002843050200212046FFF75AFF054394F924
:105F60000C00012180B205F096FA94F90F3001334C
:105F7000C6D1FFF783FFC3E718E20D0020A1070099
:105F800010B5FA210446FFF78BFFB0F5000F1ED0C5
:105F9000218A9FED107A4B00C1EB2022C3EBE01168
:105FA000B4F9123052435943B4F914301213534325
:105FB0009B1303EBE123A36003EB830380331B12EA
:105FC00007EE903AF8EEE77A87EE870A10BD9FED6C
:105FD000020AFBE70000C8420000C07F2DE9F84339
:105FE0000446FFF7CDFFF7212046FFF759FFB0F534
:105FF000000F054600F0BF80A068B4F91860B0F546
:10600000FA334FEAE07141F1FF32A3FB038903FB4E
:1060100002F109EB4109F71706FB02F103FB071137
:10602000A6FB03670F44390341EA16513003B4F964
:106030001A60F71706FB09FC08FB07CCA6FB0867EC
:1060400067444FEA162C4CEA076CE68A4FEA272E83
:106050001CEB00004EEB010E00304EF5004EA0FB95
:10606000060106FB0E114E10CF1756EA070100F08D
:106070008580B4F9200000FB09FCC11708FB01CCA6
:10608000A0FB0801B4F91E804FEAE87908FB02F290
:1060900003FB0922A8FB0389914461444FEA48426B
:1060A0004FEA494C2D111218C5F580154CEAD83C21
:1060B000B4F91C804CEB010C0023E9179B184FEA44
:1060C000C17E4FEAC5704FEAC80141EB0C0C4EEAA5
:1060D000550EC01A40F635436EEB0C0EA0FB0301C3
:1060E00003FB0E1132463B4607F066FBB4F926204F
:1060F0004D13460B46EAC14602FB05F7D31706FBD4
:106100000377A2FB06233B44554306FB0355A2FB42
:1061100006232B44550E45EAC315B4F92420B4F9DF
:1061200022402D184FEA636641EB0606D317514310
:1061300000FB0311A2FB00230B44D10C41EA4331C5
:106140006D184FEAE34046EB00032A0AE51742EADE
:106150000362191220012B0143EA1473801843EBE8
:10616000010107F0EBFA9FED070A07EE900A27EE10
:10617000800ABDE8F8839FED040AFAE79FED030A61
:10618000F7E700BF0000803B0000C07F0000000078
:1061900008B52DED028BB0EE408AFFF71FFF9FED93
:1061A000167AC0EE077AC7EE887A17EE900A06F0E4
:1061B00055FE9FED0D1B41EC100B05F04DFB0F49FB
:1061C00053EC102B002006F0E9FC09A3D3E90023CF
:1061D00006F09CFE07F092F9BDEC028B00EE100A6F
:1061E00008BD00BFAFF30080EBE2361AC05BC83FCA
:1061F0000000000040A5E5400000C8420000F03F5C
:1062000030B590F90C30013385B004460D4625D1E8
:1062100005F0B4F9217805F019F805F0AFF9036835
:1062200029469B68984705F0A9F905F01AF805F08A
:10623000A5F92178022205F006F805F09FF9036818
:106240005B699847054605F099F903685B699847CB
:1062500040EA052085B2284605B030BD90F90F30E0
:1062600001330CD1184B009300238DF80430174BE9
:10627000029368460123ADF80C30FFF706FE94F94F
:106280000C00002180B205F006F945F0800120469F
:10629000FFF7BEFD00212046FFF7BAFD00210546AD
:1062A0002046FFF7B5FD40EA052085B294F90C00C1
:1062B000012180B205F0EFF894F90F300133CAD113
:1062C000FFF7DCFDC7E700BF18E20D0020A10700C3
:1062D00008B5FFF795FF40BA80B208BD38B504464F
:1062E000FFF74EFEFD212046FFF78AFFB0F5004F75
:1062F00038D0B4F92E50A268B4F930302D05A2F58B
:106300009632C5EB803002FB130303F58043D913AB
:1063100094F82C305343DB1203F5004094F93230EB
:1063200053439B1243439B1203F50012B4F92A30E6
:10633000534303F500539B134B43DA1394F828108F
:106340005243D2114A43A3EB221323EAE373B3F17E
:10635000C85FA8BF4FF0C8531B1300EE103ABAEE47
:10636000CB0A38BD9FED010AFBE700BF0000C07FEC
:1063700030B590F90C30013385B004460D461DD17F
:1063800005F0FCF8217804F061FF05F0F7F80368E8
:1063900029469B68984705F0F1F804F062FF05F084
:1063A000EDF82178012204F04EFF05F0E7F80368CC
:1063B0005B699847C5B2284605B030BD90F90F30EB
:1063C00001330CD1144B009300238DF80430134B90
:1063D000029368460123ADF80C30FFF756FD94F99F
:1063E0000C00002180B205F056F845F080012046EF
:1063F000FFF70EFD00212046FFF70AFD054694F940
:106400000C00012180B205F046F894F90F300133F9
:10641000D1D1FFF733FDCEE718E20D0020A1070030
:1064200008B5F321FFF7A4FF00F0010008BD38B55F
:1064300088210446FFF74CFF8A2120822046FFF77F
:1064400047FF8C2160822046FFF742FF8E21A08209
:106450002046FFF73DFF9021E0822046FFF738FFFE
:10646000922120832046FFF733FF9421608320464A
:10647000FFF72EFF9621A0832046FFF729FF9821E2
:10648000E0832046FFF724FF9A2120842046FFF76F
:106490001FFF9C2160842046FFF71AFF9E21A084E5
:1064A0002046FFF715FFA121E0842046FFF760FF9B
:1064B000E12184F828002046FFF70AFFE3216085E8
:1064C0002046FFF755FFE42184F82C002046FFF713
:1064D0004FFFE52105462046FFF74AFF00F00F0376
:1064E00043EA0510E085E6212046FFF741FFE5215C
:1064F00005462046FFF73CFF031143EA05102086BE
:10650000E7212046FFF734FF84F8320038BD000051
:106510007FB590F90C30013304460E46154616D16E
:1065200005F02CF8217804F091FE05F027F80368B7
:1065300031469B68984705F021F8036829469B6817
:10654000984705F01BF804F08CFE04B070BD90F97C
:106550000F3001330CD1144B009300238DF804301D
:10656000124B029368460123ADF80C30FFF78DFC07
:1065700094F90C00002180B204F08DFF06F07F0139
:106580002046FFF745FC29462046FFF741FC94F9D9
:106590000C00012180B204F07EFF94F90F3001332A
:1065A000D3D1FFF76BFCD0E718E20D0020A1070064
:1065B000F8B5DB0002F0070203F03803134343EAA7
:1065C00081139DF8186080F8383090F83C309DF8C1
:1065D0001C509DF8207066F3471380F83C30ED00A6
:1065E00090F8343007F0070705F0380523F03F0333
:1065F0003D4304461D4380F8345006F00702F22163
:10660000FFF786FF94F8342002F0070102F0380308
:1066100043EA411343EAD2122046F521FFF778FFFF
:1066200094F8382002F0070102F0380343EA4113DE
:1066300043EA92122046F421BDE8F840FFF768BF14
:1066400030B50446017090F90C00421C85B019D198
:1066500004F094FF04F0C8FDD0212046FFF788FE27
:10666000602842D12046B622E021FFF751FF4FF4C7
:10667000967004F0BDFA2046FFF7D2FE054628B317
:106680006420F6E7012180B204F005FF94F90C00C4
:10669000012180B204F0EEFE94F90F00431C04D1F6
:1066A000FFF79AFB02F01AFDD6E7012180B204F051
:1066B000E1FE94F90D00012180B204F0DBFE94F9B3
:1066C0000E00002180B204F0D5FEC5E72046FFF79A
:1066D000AEFE05232046CDE9015500931A4603215D
:1066E000FFF766FF012005B030BD0020FBE710B5C5
:1066F0000446243000F076FE28B104F50C70BDE8A5
:10670000104000F06FBE10BD411E00F10A030020D2
:10671000420842EAC01011F8012F52FA80F08B4271
:10672000C0B2F5D1704700002DE9F047064610F8D9
:10673000013B202BFAD06B4D8E600024335DC3B13A
:106740002F2B16D05C2B02D10020BDE8F087A3F1DF
:106750002200C0B21D2803D825FA00F0C007F3D4E8
:1067600003F0BF003C28EFD0203B5E2BECD8013477
:10677000E4E733191846074610F8015B202DFAD0DC
:106780002F2DF8D017604CB113F8012D2E2A01D00F
:10679000202A01D1013CF6E7FF2CD5DC4C6001F149
:1067A0000D0301F11802202003F8010B9342FBD1E5
:1067B0004FF0000816F808302E2B01D0202B02D104
:1067C00008F10108F6E7B8FA88F04009651E6B1C6D
:1067D00002D0735D2E2B14D14FF0000907274A46D3
:1067E000CA464FF0080EA04569DA16F80830202B8B
:1067F00003D02E2B07D1A84512D0002008F10108A4
:10680000F1E7013DE3E7222B08D07C2B06D0A3F172
:106810002A0CBCF1050F0BD82D2B13D0A8455CD149
:106820000A2F4BD0A8460A2708224FF0100EE5E7A2
:10683000A3F13A0CBCF1050FF0D9A3F15B0CBCF14C
:10684000020FEBD9A3F1210CBCF15D0FE6D8A845EE
:10685000E6D0BA4230D8A3F1610CBCF1190F1AD8B6
:10686000203B4EEA0909DBB25FFA89F902F1010C1B
:106870005FFA8CFC0A44BCF1060F537301D881F80F
:106880000CC06246BAE7A84518DCA8460A270822C9
:106890004FF0100EB1E7A3F1410CBCF1190F98BFF6
:1068A0004EEA0A0AE2E70B7B0120087019447E23B6
:1068B0004B7331238B7348E70A2FE4D100204B7BC5
:1068C000202B3FF441AF0028EDD01AEA090F18BF82
:1068D0004FF0020981F8009037E7BA42ECD85F2305
:1068E0000020C3E7010100312DE9F84391F80C9035
:1068F00006460C4602257E2701F10D086168A26854
:106900006B189BB21144914206D012F8010B03EBB5
:10691000431343409BB2F6E7B9F1030F28BF4FF092
:10692000030909F10402D2B203F00F01A018013AE1
:106930000929D2B294BF30313731914541734FEAC2
:106940001313F1D104EB090300215F73304600F00B
:1069500037FB0121304600F014FB014628B970785E
:10696000B0FA80F04009BDE8F88303786BB1C37AD0
:106970001B07EED40B22404607F0E4F80028E8D1CC
:106980000135ADB2642DB9D1EDE70120EBE7000090
:106990002DE9F04F2DED028B89B00D4605930B7854
:1069A000069013F0700F904605D1002009B0BDECA1
:1069B000028BBDE8F08F069B1B78002BF5D1536846
:1069C0000493137899071CBF049B03F10C074FF045
:1069D000000118BF0D2328461DBFB7FBF3F7013791
:1069E000FFB2012700F0ECFA08F10D02002308EED7
:1069F000102A9B461C461E4603939A466A690793D3
:106A000001212846C2F34F1900F0BBFA079B00286A
:106A10006ED16B78002BC8D1059B9A05C5D503F0C4
:106A20000303013B012BC0D8039B002C08BF4B463E
:106A30000393BC42C0F00381BAF1000F40F01B8108
:106A4000039B2846590100F0BBFA0028ADD0013F56
:106A50005FFA87FA56464FF000090F27002E00F024
:106A600021810021284600F08CFA044600289CD0A1
:106A7000AA6892F82430564543F001030CBF46F053
:106A8000400BB34682F8243080F800B0C77280F81B
:106A90000C9008F10D00FFF737FE0BF01F0B607331
:106AA00084F81A9084F81B900BF1FF3B0D22D8F864
:106AB00008C002FB0BF200230499914240F2E380EC
:106AC0001CF80210042B5FFA83FE03F1010000F2B0
:106AD000E08004EB4303A3F801100D2802F101024A
:106AE0000346E9D1013EF6B2B8E74FF0010A85E767
:106AF0000278E52A00D07AB90399002C08BF4946EC
:106B0000BC4238BF0134039138BFE4B2002A83D0BD
:106B1000E52A04D1002671E7BC4238BF00242E2AA2
:106B2000F8D0C17A0F295DD13EBB12F040063FF488
:106B300065AF02F01F06437BB3460BF1FF324FF007
:106B40000D0E0EFB02FE049A7245E3D9A2EB0E0273
:106B500007924FF0000CBCF1040F0CEB0E095FFA2A
:106B60008CF214D800EB4C02B2F8012007998C4546
:106B70001BD1002A18BF002640E70BF1FF3B5FFA4C
:106B80008BFB5A45C6D1427B9A42D6D0C2E70A2A2D
:106B900095BF0CF1FF320CF1010200EB420200EB59
:106BA000420294BFD2889288E0E7FF2AB2D8D2B2DC
:106BB000A2F141011929D8F8081011F8091098BF5D
:106BC0002032A1F1410998BFD2B2B9F1190F9CBF8F
:106BD0002031C9B291429DD10CF1010CBCF10D0FD5
:106BE000B9D10BE70A0795D466B1BBF1010F039346
:106BF0007FF4DBAEFFF788FD039B98427FF4D5AEB0
:106C0000B2460FE018EE101A0B22079306F09AFF17
:106C1000079B00287FF4F2AE98F800A01AF0010A52
:106C20007FF463AF059B19053FF5BFAE059B069842
:106C3000CDF800A04A46294600F005FAB6E6002144
:106C4000284600F09EF998B96B78002B7FF4ADAE22
:106C5000284600F06FF800283FF4A7AEAB681B7918
:106C6000012B3FF6E9AE1034E4B2A742F0D8E3E6D8
:106C70000134E4B2DDE641462846FFF735FE002840
:106C80007FF4DEAE91E614BF4FF0FF31002189B2F0
:106C900018E7BEF10A0F94BF04EB430304EB400373
:106CA00099801AE7314628466F6900F06AF9044670
:106CB00000283FF47AAE2022314606F079FF4346A1
:106CC00053F80D2F22605A6862601A8922819B7ADC
:106CD000A37298F8003003F0180323730F4B1B685E
:106CE0009BB104F10E0104F110009847238A6382DE
:106CF0002383E389E382AA6892F8243043F00103F6
:106D0000C7F34F1982F8243090E7212323742823F6
:106D100063740823A673E373E8E700BFB0E50320BC
:106D20008378016943F00403837000F110028068E6
:106D300000F00EBC2DE9F041017811F02005044669
:106D400003D000263046BDE8F0814269174B9A42D5
:106D5000F7D2FFF7E5FF06460028F2D02169A068C8
:106D600000F08BFB0746A06805223946243000F06E
:106D700061FB80460028E4D029464FF4007206F0FB
:106D800017FF0125A3681A79AA4209D91868424653
:106D9000E91900F0B8FE0028D3D00135EDB2F1E7D3
:106DA000636903EB42236361CCE700BF00FE1F0071
:106DB00010B5044680680A462430A16900F03AFB09
:106DC00020B1A38803F00F0300EB431010BD70B592
:106DD000047805460E464CB92422214606F0E8FE0A
:106DE000AE60F379102B03D0202B07D0002004E0F5
:106DF000202301242B70AC70204670BD4023F8E79F
:106E00002DE9F74F0378044688461546002B5DD0E0
:106E10008278D1075AD51A072DD5C36942699B1AC2
:106E20009D4228BF1D462E464FF0000904F1100B6D
:106E3000002E00F08F8022786369A0689706C3F364
:106E4000080A4FEA53211FD5006A0144A068BAF12D
:106E5000000F42D1B6F5007F3FD3C36A99423CD0C0
:106E6000B6F5806F52D20068424600F0C3FD68B3A9
:106E70004FF4007744E09B06D5D583681A894369AF
:106E8000C3EB42139BB2CBE790F8059009EA0109E6
:106E9000BAF1000F08D1B9F1000F05D15BB9510665
:106EA0004CBF036A236A23612169A06800F0E5FAF8
:106EB00009EB0001CAE721695A4600F0E4FA00280C
:106EC00004DBF1D1237813F0700F43D1637843F0E2
:106ED000020363704FF0FF303DE0CAF50077B74220
:106EE0004FF0000200F1240028BF374600F0A2FA5C
:106EF0000028EBD000EB0A013A46404606F030FE8F
:106F000063693B44B8446361F61B91E722789206BB
:106F10004FEA562A06D40279A2EB0902D2B2924570
:106F200028BF924699424FEA4A2708D2A0685346A2
:106F30000068424600F0A6FD0028E1D1C6E75344B0
:106F40008B42F3D92430019100F04CFA01990028CA
:106F5000ECD1BBE7A81B03B0BDE8F08F73B50122ED
:106F60000DF10701D0E904560446FFF749FF012857
:106F70000ABF9DF807004FF0FF30C4E9045602B085
:106F800070BD37B5436913F4F07F0446C3F343156E
:106F900000D099B901220DF107012046FFF730FF1B
:106FA00040B2012802D0002003B030BD63691F3316
:106FB000A0686361303000EB4510F5E72033F7E758
:106FC0002DE9F0410278076904460D4662B1406937
:106FD000884202D019B921616561012006E01607D7
:106FE00006D5E3698B420BD227610020BDE8F08112
:106FF000910605D5A3681B89B5EB431FECD9F3E7D0
:10700000D4F808C09CF80660431E06F109016E1E04
:10701000CB40CE40B34200D898B953064CBFDCF801
:107020002030236A236104F11008002ED4D0216996
:10703000A068424600F027FA002806F1FF36F4DC8B
:10704000D2E7F61AEFE7F8B50F46164600212422DC
:1070500004461D4606F0ACFDB868A060A68000F1AD
:10706000300206F00F063B6AE360710102EB461640
:10707000F37A1F0746D4431893F83B3003F0170305
:107080002370F27A12F0180F04BF43F00803237044
:107090009DF81830E37005F00303012B2CD0022B70
:1070A00028D07BBB6A052DD40123A370A278930757
:1070B00004D52378DF0625D4DE0723D4AB1123F0D3
:1070C0007F0305F0080633431343A370C36AA3612B
:1070D0004318B3F84420B3F84A1041EA02416A0564
:1070E00013D559B9A37843F00403A3706B0410D4EB
:1070F0000120F8BD0323D8E70223D6E700F063FAA6
:107100000028EFD100202070F3E72162DB6CE361FF
:10711000ECE7E1692046FFF753FF0028E8D1F1E7EB
:1071200038B5037804460BB9012038BD83785A0777
:1071300023D50121FFF73CFE054628B9637843F0CB
:10714000010363700020F0E70378E52BF6D0237885
:107150001B0744BFE369C361238C4383638C838231
:10716000094B1B682BB100F11601183098472B8B87
:107170006B82A37823F00403A370A068FFF7B7FA2B
:107180000028DBD0D0E700BFB0E5032010B50446EF
:10719000FFF7C6FF0023237010BDF0B593B01F4664
:1071A0000023ADF824300378019206460C4613B153
:1071B000002013B0F0BD0B7813F0700FF8D01378E7
:1071C0002F2B12D1019A13782F2B02D10132019269
:1071D000F8E7A1681BB93046FFF7F9FDE9E709A810
:1071E000FFF7F5FD0028E3D009AC019801AA03A937
:1071F000FFF79AFA0028DBD0019B1B789BB1002394
:1072000003AA21463046FFF7C3FB0028D0D03546FD
:107210000FCD09AC0FC40FCD0FC42B6823603046CF
:10722000FFF7B4FFE0E73B4603AA21463046FFF7ED
:10723000AFFBBEE72DE9F0470378894619070446FE
:1072400017465BD583789A0758D51B0751D46369D5
:10725000DB43BB4252D3B84604F1100A6669B8F169
:10726000000F00F09180A0684379C6F3080513EA87
:1072700056260ED16DB92169002946D0524600F03C
:1072800002F900283ADB04D12046FFF749FD002827
:1072900034D02169A06800F0F0F83118A06815B961
:1072A000B8F5007F3FD2C5F50076464528BF464673
:1072B000002D36D16269E3699A4234BF012205226A
:1072C000243000F0B7F8C8B1284432464946354466
:1072D00006F046FCB5F5007F04D1A068243000F02C
:1072E00081F858B1636933446361B144A8EB06087F
:1072F000B4E7C169FFF764FE0028A8D1637843F0C2
:10730000010363704FF0FF3050E0236A3BB9204621
:10731000FFF706FD0028F1D023692362B9E7236156
:10732000B7E70122CCE7B8F5806FC26A1BD390F8AB
:1073300004C0ACEB0606F3B24FEA582E734528BFE3
:10734000734691424FEA432607D31A448A4282BFCA
:107350004FF0FF3280F82450C262A5684A46286880
:1073600000F047FCBDE7914202BF4FF0FF3380F8C9
:107370002450C362A3684A46186800F0C4FB002882
:10738000BCD04FF40076ADE7E269A378B24204D2F4
:10739000E66143F00403A37003E0084A1268002A80
:1073A000F7D194F90230002B02DB3846BDE8F087B4
:1073B0002046FFF7B5FE0028F7D19FE7B0E5032090
:1073C00013B50446084659B1019106F02FFC236815
:1073D0000199DB680246204602B0BDE8104018471C
:1073E00002B010BD37B50378DA07044620D54368EC
:1073F000816800F10C021868019200F084FB019A88
:10740000054618B90025284603B030BD23789B07F0
:1074100004D4237823F001032370F4E7D4E9013086
:1074200019690144186800F06EFB0028F1D1E9E702
:107430000125E8E770B583688B4204460E46154681
:1074400009D0FFF7CFFF08B9002070BD6B070AD540
:1074500000232370A660227805F00305204615431B
:1074600000F80C5BF1E7636804F10C021868314620
:1074700000F0C0FA0028EBD1E6E7837940690239D1
:10748000994008447047012970B505460C461646D8
:1074900002D84FF0FF3070BDC3698B42F9D3C37976
:1074A000202B16D18169022201EBD41100F50C705A
:1074B000FFF7C0FF0028ECD004F07F0450F8243020
:1074C00023F07043EA699A4226BF3360012000200E
:1074D000E1E7102BDDD18369C1F3072102221944B2
:1074E00000F50C70FFF7A6FF0028D2D0E4B230F808
:1074F0001430E7E7012938B50C46154601D80020BD
:1075000038BDC3698B42FAD3C379202B0FD181696F
:10751000032201EBD41100F50C70FFF78BFF00285C
:10752000EDD004F07F0440F824500120E8E7102B50
:10753000E5D18369C1F307210322194400F50C70DA
:10754000FFF778FF0028DAD0E4B220F81450ECE717
:107550002DE9F341C4688C4205460E46904601D39E
:10756000012701E00C460027EB690134A34202D257
:10757000C7B9EC68F4E7A64214D001AA2146284610
:10758000FFF781FF00280DDBEED0019B002BEBD134
:1075900007B1EC606FF0704221462846FFF7AAFF62
:1075A000074620B90027384602B0BDE8F08116B979
:1075B000C8F80040F7E7224631462846FFF79AFF11
:1075C0000028F5D1EEE773B505460C4601AA214621
:1075D0002846FFF758FF061E10DB002221462846EA
:1075E000FFF788FF50B1EB68A34224BF04F1FF34DA
:1075F000EC60019C002EE9D102B070BD0020FBE7D9
:10760000012370B50022C3604FF0FF330446C271FE
:1076100000F12406806280F82420C362C0F834029E
:1076200080F83022C0F838320D46B9B1042901D9AA
:10763000002070BD11463046FFF7FCFE0028F7D051
:1076400000EB051393F8AE315B06F1D105F11B0198
:1076500000EB0111D1F80650002DE9D00022294697
:107660003046FFF7E7FE0028E2D0B0F80B30B3F564
:10767000007FDDD1037C022BDAD1C389002BD7D068
:10768000417B21714B1E63710023A37109260123E5
:10769000994207D0013ECBD0A2795B000132DBB228
:1076A000A271F5E7C18A01B9416A2161C3892B44FE
:1076B000A361B0F81120228103EB41032362B0F8EB
:1076C0001110490101F2FF1103EB51236361B0F87E
:1076D000132002B9026AE91AA3791144D9404B1C5C
:1076E000E36140F6F473994202D80C23E3719FE7FB
:1076F0004FF6F473994285BFC36A23621023202397
:10770000E371012095E7000070B50E4E0D4614465A
:1077100001F088F93368C01A0B4B984208D901F080
:1077200089F90A4B186001F01BFC01F07BF930600D
:1077300001F080F980B2401BA042D4BF002001209C
:1077400070BD00BFB8E50320A0860100B8E70320A4
:1077500038B5057A04464DB9406800F06BFA6368A5
:107760002946187D03F097FE0123237238BD10B51A
:10777000037A04466BB143680121187D03F08BFE48
:107780006068FF2100F088FA606800F067FA002363
:10779000237210BDF8B504460D46164601F04AF9AD
:1077A00087B2606800F05DFAFF2860720ED14FF476
:1077B0007A7239462046FFF7A7FF0028F1D05523FB
:1077C00020462370FFF7D3FF0020F8BDFE2801D02C
:1077D0005023F5E760683246294600F047FA6072A8
:1077E00008B16023ECE7606800F03BFA606800F0E5
:1077F00038FA0120E9E770B504460E4601F01AF99F
:1078000085B2324629462046FFF77EFF30B96068D0
:1078100000F027FAFF28F4D1012070BD0020FCE71A
:10782000F7B5037A019204460D460BB9FFF790FFB6
:1078300025B14FF496712046FFF7DDFF606845F0F3
:10784000400100F029FA032601AFB95D606800F03D
:1078500023FA013EF9D2002D60680CBF95218721E3
:1078600000F01AFA606800F0FCF90B25606800F07F
:10787000F8F90306607203D5013D15F0FF05F5D157
:1078800003B0F0BD70B504460D4616463721002200
:10789000FFF7C6FF324629462046BDE87040FFF795
:1078A000BFBF00002DE9F04100250572057085720B
:1078B0004160044690461E4601F0BCF8414607462A
:1078C000606800F0BBF96368494A1D720125DA60FF
:1078D0001D822046FFF73CFF63682946187D03F0B0
:1078E000DAFD0A256068FF21013D00F0D5F915F0A9
:1078F000FF05F7D163682946187D03F0CCFD0A2502
:10790000002211462046FFF78BFF0128804618D041
:10791000013D15F0FF0507D1202320462370FFF716
:1079200026FF0020BDE8F0816068FD2100F0B4F979
:107930004FF40278606800F094F9B8F10108F9D1C9
:10794000DEE74FF4D57208212046FFF769FF0528CE
:1079500014D184F80A800025BFB22A462921204686
:10796000FFF790FF0246D8B14FF4FA62394620463D
:10797000FFF7CAFE0028F0D04323CEE70425606855
:1079800000F06FF9013D15F0FF056072F7D1AA28EC
:1079900004D10223A3724FF08045DDE72523BCE725
:1079A000A37A022B18D13A212046FFF739FF08B1FC
:1079B0003723B2E7606800F054F900F0C000C02837
:1079C00004BF0323A372606800F04BF9606800F005
:1079D00048F9606800F045F92046FFF7C8FE636883
:1079E0003079B168B2891A821872D960012099E79A
:1079F00090D0030038B5837A032B18BF490215468F
:107A00000A4611210446FFF70BFF30B130232370E3
:107A10002046FFF7ACFE00250BE029464FF400722C
:107A20002046FFF7B7FE05460028F1D02046FFF7B5
:107A30009EFE284638BD10B5837A032B0A4618BF30
:107A40004A0212210446FFF7EBFE30B131232046F3
:107A50002370FFF78CFE002010BD0120FCE710B55D
:107A600000220C210446FFF7DBFE30B1282320461C
:107A70002370FFF77CFE002010BD2046FFF777FE45
:107A80000120F9E7F8B5044616461F46FFF7D3FF75
:107A900068B10025ABB29F4206EB452109D94FF4EE
:107AA00000722046FFF776FE01350028F2D1002053
:107AB000F8BD2046BDE8F840FFF7D1BF38B5044611
:107AC0001546406800F0E8F84FF4007260682946F7
:107AD00000F0E6F86068FF2100F0DEF86068FF2142
:107AE00000F0DAF8606800F0BCF8607200F01F0087
:107AF000052806D0572320462370FFF738FE0020C4
:107B000038BD0120FCE770B5837A032B18BF49020A
:107B100015460A4618210446FFF782FE064630B194
:107B2000322323702046FFF722FE00251FE02A465D
:107B3000FE212046FFF7C2FF0028F3D04FF4FA6180
:107B40002046FFF758FE054608B95A23E9E73246B2
:107B50000D212046FFF764FE08B12923E1E76068A4
:107B600000F07FF80028F8D12046FFF700FE2846F5
:107B700070BD13B501914FF4FA610446FFF73BFE67
:107B8000019A30B95B2323702046FFF7F0FD0020F7
:107B900005E0FC212046FFF791FF0028F4D002B059
:107BA00010BD10B5837A032B0A4618BF4A0219216B
:107BB0000446FFF735FE30B1332320462370FFF72C
:107BC000D6FD002010BD0120FCE738B54FF4FA6166
:107BD0000446FFF710FE054630B9562323702046B1
:107BE000FFF7C5FD284638BD6068FD2100F054F858
:107BF000F5E7F8B5044616461F46FFF7D2FF70B109
:107C00000025BD4206EB4521204604D0FFF7B1FF19
:107C100028B10135F5E7BDE8F840FFF7D6BF2046AB
:107C2000FFF7A5FD0020F8BD014B01221A70704737
:107C3000BCE50320011D006801F07ABA10B50446C6
:107C40000175006801F04AFA207D012103F012FC61
:107C5000207D0121BDE8104003F01DBC006801F04B
:107C60004EBA0068FF2101F0D1BA000037B51346C3
:107C7000074A00920025074C006825700A462946ED
:107C800001F0CAFA2378002BFCD0002003B030BDED
:107C9000297C0D00BCE50320006801F0B7BA0000A4
:107CA00037B51346064A00920025064C0068257039
:107CB0002A4601F0B1FA2378002BFCD003B030BD86
:107CC000297C0D00BCE5032013B500238DF804309A
:107CD00001AA01234E21044600F055FEF923ADF818
:107CE000043001AA02234F21204600F04CFE02B0CE
:107CF00010BD0A4611B9242100F02DBE012902D180
:107D000000222621F8E7002070470000F0B585B07A
:107D100004469DF934C09DF93070CDE9027C9DF98F
:107D20002CC0CDF804C09DF928C0CDF800C016467F
:107D30000D4600F0ADFB174B236016F0070307D08C
:107D4000724202F0070258BF5342C3F108031E44B7
:107D5000754348BF0735C5F3CF01002F4FEAE50053
:107D6000E18521860CDB012384F84C300023C4E933
:107D70000D33A4F84430A4F84610204605B0F0BDF9
:107D800080B201F015F96063208E01F011F9A06353
:107D9000F3E700BFA8E80D0010B590F92530002BDF
:107DA000044609DB94F9250080B203F08DFB48B14D
:107DB0000A2002F01DFFF5E7BDE810404FF4FA700D
:107DC00002F016BF10BD13B5C72304468DF804306A
:107DD00001AA0123222100F0D6FD01222021204604
:107DE00000F0B9FD2046FFF7D7FF94F92530002BAE
:107DF00003DA4FF47A7002F0FBFE02B010BD00000F
:107E00002DE9F341044600F089FB642002F0F0FE06
:107E10002046FFF7C1FF01221221204600F09BFD02
:107E20002046FFF7B9FF54238DF800306A462046FC
:107E30000123742100F0A7FD4FF03B086A4620465D
:107E400001237E218DF8008000F09DFD4FF4FD732D
:107E5000ADF8003000266A462046032301210325A1
:107E60008DF8026000F08FFD6A4620460123112143
:107E70008DF8005000F087FD4FF47063ADF80030CE
:107E80006A4620460223442100F07DFD4FF4790329
:107E900000936A4620460423452100F074FD6A469B
:107EA000204601233C218DF8005000F06CFD70232A
:107EB0008DF800306A46204601232C2100F063FD36
:107EC00015238DF800306A4629462046012300F02C
:107ED0005AFD4AF64103ADF8003032272B466A4678
:107EE000204604218DF8027000F04DFD30238DF8FE
:107EF00000306A46204601233A2100F044FD0A235F
:107F00008DF800306A4641462046012300F03BFDD3
:107F1000394620460D4A462300F035FD6A46204684
:107F200001234E218DF8006000F02DFDF923ADF8FE
:107F300000306A4602234F21204600F024FD2046EF
:107F4000FFF72AFF02B0BDE8F08100BF54E80D0042
:107F500013B590F92330002B04460BDB012301AA53
:107F600010218DF8043000F00EFD642002F040FE78
:107F700002B010BD0122122100F0EDFC2046FFF7F7
:107F80000BFFF5E710B5044600F074FB2046012214
:107F9000002100F0EBFA20460122002100F0FEFA59
:107FA000236820461B6EBDE810401847012241702F
:107FB0000270704707B50190FDF70EFF019903B0FD
:107FC0005DF804EB01F022B910B50446FDF704FF9B
:107FD00001F095F894F901000121BDE8104080B24C
:107FE00003F059BA30B585B00B4B00930B4B02939D
:107FF000044601230025ADF80C308DF80450FDF740
:10800000EBFE694601F094F894F90100294680B22C
:1080100003F041FA05B030BD18E20D0000093D0043
:1080200070B5044690F90100012180B203F022FAF4
:108030002046FFF7C9FF23789BB1FDF7CDFE01F085
:108040004DF82046FFF7CEFF03252378CBB1FF2064
:10805000FFF7B0FF013DF8D12046BDE87040FFF7C3
:10806000B3BF94F90200012180B203F003FA94F93E
:108070000400012180B203F0FDF92378002BE0D049
:10808000DBE7082694F90400002180B203F003FA2C
:1080900094F90200012180B203F0FDF994F9040083
:1080A000012180B203F0F7F9013EEBD1D2E72DE9CF
:1080B000F04F85B00D469DF838B001921E4604463B
:1080C000FFF790FF2B128DF80CB08DF80D308DF866
:1080D0000E500DF10C0A002723781AF8019B9BB172
:1080E0004846FFF767FFBBF1020F02D10137032FAC
:1080F000F2D10025AE4225DD23781BB1019B585DEE
:10810000FFF758FF0135F5E74FF00808802594F98F
:108110000400002180B203F0BEF994F9020019EACC
:10812000050118BF012180B203F0B5F994F90400EC
:10813000012180B203F0AFF9B8F101084FEA55050B
:10814000E5D1D0E7204605B0BDE8F04FFFF73CBFD2
:108150001FB58DF80F2000930DF10F020123FFF7DB
:10816000A6FF05B05DF804FB2DE9F04F85B00E4683
:108170009DF838B0019304461546FFF733FF3312DC
:108180008DF80CB08DF80D308DF80E600DF10C0AE5
:10819000002723781AF8019BABB14846FFF70AFF86
:1081A000BBF1030F02D10137032FF2D1019B2B4406
:1081B0009846A8453FD023781BB30020FFF7FAFE6E
:1081C00028700135F5E74FF00808802694F904007F
:1081D000002180B203F05FF994F9020019EA060168
:1081E00018BF012180B203F056F994F9040001216F
:1081F00080B203F050F9B8F101084FEA5606E5D114
:10820000CEE7082794F90400002180B203F043F977
:1082100094F90400012180B203F03DF994F90300C0
:108220002E7880B203F050F9760076B23043013FE9
:108230002870E7D1C5E7204605B0BDE8F04FFFF74D
:10824000C3BE1FB5012300920DF10F02FFF78CFF93
:108250009DF80F0005B05DF804FB2DE9F74F0E46C1
:108260001D4604469046FFF7BDFE02238DF80430FC
:1082700033128DF805308DF806600DF1040B0027E0
:1082800023781BF801AB7BB15046FFF793FE013713
:10829000032FF5D10027B84542D0237813B32846E1
:1082A000FFF788FE0137F6E74FF00809802694F9BA
:1082B0000400002180B203F0EEF894F902001AEAFB
:1082C000060118BF012180B203F0E5F894F904001B
:1082D000012180B203F0DFF8B9F101094FEA560637
:1082E000E5D1D4E74FF00809802694F90400002175
:1082F00080B203F0D0F894F9020015EA060118BF25
:10830000012180B203F0C7F894F90400012180B282
:1083100003F0C1F8B9F101094FEA5606E5D1C1E70A
:10832000204603B0BDE8F04FFFF74EBE2DE9F743FE
:108330000F1E054614469946C0F2A680FDF7C8FCFC
:10834000B84240F3A180002CC0F29E802846FDF781
:10835000C2FCA04240F39880B5F80A8018F0070FDD
:108360001CBF28F0070808F10808284618BF1FFAA4
:1083700088F8FDF7ABFC022831D0032837D001285C
:1083800004D12A89E44322443C4617B2B5F9086077
:1083900095F84C30013EF61B08FB0646A9F1030791
:1083A000F008BFB2C6F3CF0633B3012F94BFB5F8C0
:1083B0004810B5F84A100E44B6B20322314605F112
:1083C0002700FFF73EFF012F8DF807000DF1070092
:1083D00017D9B9F1000F45D195F82C3013E0298950
:1083E000E4430139CF1B44443FB224B2CEE7F94302
:1083F000414427460CB2C9E7012F80B214D8EB6B79
:10840000184495F82D3093B1634203F0070304F04C
:10841000070458BF5C42C4F107040123A340047859
:1084200024EA0304047010E02B6C1844D1E7634283
:1084300003F0070304F0070458BF5C420278C4F15C
:1084400007040123A3401343037095F84C30DBB1BC
:1084500002780223314605F1270003B0BDE8F0435E
:10846000FFF776BEB9F1020FEFD1634203F00703C5
:1084700004F0070458BF5C42C4F10704012303FA67
:1084800004F403785C40CDE703B0BDE8F08300005E
:1084900070B512B2044609B29DF918501E46FDF798
:1084A000C9F92046134B40F8273B2946FFF77EFDCC
:1084B0009DF9143084F824309DF9103084F823306D
:1084C0009DF91C3084F82530ED430123ED0F84F82D
:1084D0004D300023C4E90D33C4E90F33C4E911332F
:1084E00084F8226084F84C5084F826302386E38593
:1084F000204670BD14E90D0010B5074B036004461B
:10850000406B18B100F05CFD00236363A06B08B101
:1085100000F056FD204610BD14E90D0010B50446CC
:1085200090F92300002820DB012180B202F0A2FF95
:1085300094F92300012180B202F0ADFF0A2002F07D
:1085400057FB94F92300002180B202F0A4FF0A2017
:1085500002F04EFB94F92300012180B202F09BFF50
:10856000BDE810400A2002F043BB10BD61B990F88D
:108570004C3033B1B0F84430A0F84A3080F82C20A9
:108580007047436B0364F9E70129F7D190F84C3049
:1085900013B1B0F84630EFE7836BF3E761B990F8B9
:1085A0004C3033B1B0F84430A0F8483080F82D207A
:1085B0007047436BC363F9E70129F7D190F84C305A
:1085C00013B1B0F84630EFE7836BF3E710B590F8DE
:1085D0004C300446C3B1C28D42B194F82C30B4F88B
:1085E0004410273003B1FF23FFF737FE228EFAB184
:1085F00094F82D30B4F8461004F1270003B1FF239E
:10860000BDE81040FFF729BE406B30B194F82C1044
:10861000E28D01B1FF2105F0CBFAA06B40B194F8D7
:108620002D10228E01B1FF21BDE8104005F0C0BA27
:1086300010BD90F92200012180B202F02CBF90F908
:108640002200002180B202F026BF000010B50446CF
:10865000FDF7C2FB00F053FD054B94F92400002206
:108660001A70BDE81040012180B202F014BF00BFB3
:10867000BDE5032037B501220D4600210446FFF772
:1086800075FF00220121FFF789FF90F84C304BB1B4
:1086900027300190FFF7C4FC0198012340220021FC
:1086A000FFF756FD94F92200012180B202F0E2FEAC
:1086B00094F92400012180B202F0DCFE2046FFF78D
:1086C000C5FF94F84D30D3B994F92000012180B250
:1086D00002F0D0FE94F92100012180B202F0CAFE1E
:1086E00015B12046FFF71AFF94F9250000280BDB8F
:1086F000002180B203B0BDE8304002F0BBBEFDF700
:108700006BFB00F0EBFCEBE703B030BD7FB50D4D2C
:108710002B78044673B90C4A8DF8043001260B4BB4
:1087200000920293ADF80C60FDF756FB694600F02D
:10873000FFFC2E7094F92400002180B202F0ABFE01
:1087400004B070BDBDE5032018E20D0000093D0036
:10875000F8B590F84D3005460E46B3B190F8263086
:1087600063B1FFF7D3FFFDF737FB314600F04EFD55
:1087700004462846FFF76AFF2046F8BDFDF72CFBAC
:108780003146BDE8F84000F041BD0824802795F946
:108790002100002180B202F07EFE95F9200016EA49
:1087A000070118BF012180B202F075FE95F9210082
:1087B000012180B202F06FFE013C4FEA5707E6D17B
:1087C000DAE72DE9F041036804469B6D984723687A
:1087D00000225B6D11462046984794F84C50B5B383
:1087E00004F127073846FFF7FDFB03212046FFF77A
:1087F000AFFFB4F844102046090AFFF7A9FF94F828
:1088000044102046FFF7A4FF236800211B6D20467B
:10881000984705462046FFF70CFF0026E28DB3B2CD
:108820009A4206D929462046FFF792FF01360546AF
:10883000F4E72046FFF70AFF3846FFF7C5FB238E13
:10884000E3B92368DB6D2046BDE8F0411847236893
:1088500029461B6D204698472046FFF7EAFEE28D29
:10886000ABB29A4206D9626B2046D15CFFF770FF2B
:108870000135F4E72046FFF7E9FEE0E7022002F0C9
:10888000B7F9236800225B6D11462046984794F89B
:108890004C50ADB304F127073846FFF7A3FB032183
:1088A0002046FFF755FFB4F846102046090AFFF7A7
:1088B0004FFF94F846102046FFF74AFF2368012136
:1088C0001B6D2046984705462046FFF7B2FE00265E
:1088D000228EB3B29A4206D929462046FFF738FFC6
:1088E00001360546F4E72046FFF7B0FE3846FFF7AD
:1088F0006BFB23682046DB6D984723681B6EA2E75D
:10890000236801211B6D204698472046FFF791FE02
:10891000228EABB29A4206D9A26B2046D15CFFF7F9
:1089200017FF0135F4E72046FFF790FEE1E770B549
:108930000C4615460646FFF77CFE2544AC4205D0A2
:1089400014F8011B3046FFF703FFF7E73046BDE898
:108950007040FFF77BBE73B5044601911646FFF7E2
:1089600075FE2046FFF76BFE2046FFF7CFFE01990C
:108970002046FFF7EDFE054616B12046FFF766FEDE
:10898000284602B070BD70B5044615461E4600224A
:10899000FFF7E1FF324629462046BDE87040FFF769
:1089A000C6BF000008B5024B1B689B68019308BD59
:1089B0006802030008B5024B1B68DB68019308BD21
:1089C0006802030008B5024B1B689B68019308BD51
:1089D0002C02030008B5024B1B68DB68019308BD3D
:1089E0002C02030008B5024B1B681B69019308BDEC
:1089F0002C02030008B5024B1B685B69019308BD9C
:108A00002C02030008B5024B1B685B68019308BD8C
:108A10001802030008B5024B1B68DB68019308BD10
:108A20001802030008B5024B1B681B69019308BDBF
:108A30001802030008B5024B1B685B69019308BD6F
:108A40001802030008B5024B1B689B6A019308BD1E
:108A50001802030008B5024B1B685B6C019308BD4C
:108A60001802030008B5024B1B689B6C019308BDFC
:108A70001802030008B5024B1B689B6D019308BDEB
:108A80001802030008B5024B1B685B6E019308BD1A
:108A90001802030008B5024B1B689B68019308BDD0
:108AA0007802030008B5024B1B681B6D019308BDDB
:108AB0007802030008B5024B1B689B6D019308BD4B
:108AC0007802030008B5024B1B681B6E019308BDBA
:108AD0007802030008B5034B1B68D3F89830019364
:108AE00008BD00007802030008B5034B1B68D3F8EB
:108AF000A830019308BD00007802030008B5034BBD
:108B00001B68D3F8EC30019308BD00007802030025
:108B100008B5034B1B68D3F8F030019308BD000083
:108B20007802030008B5024B1B685B6C019308BD1B
:108B30004802030008B5024B1B689B6C019308BDFB
:108B40004802030008B5024B1B68DB6C019308BDAB
:108B50004802030008B5024B1B685B6D019308BD1A
:108B60004802030008B5024B1B685B69019308BD0E
:108B70006402030008B5024B1B681B68019308BD23
:108B80003C02030008B5024B1B68DB68019308BD7B
:108B90003C02030008B5024B1B681B69019308BD2A
:108BA0003C02030008B5024B1B685B69019308BDDA
:108BB0003C02030008B5024B1B689B69019308BD8A
:108BC0003C02030008B5024B1B68DB69019308BD3A
:108BD0003C02030008B5024B1B681B6A019308BDE9
:108BE0003C02030008B5024B1B689B6A019308BD59
:108BF0003C02030008B5024B1B68DB68019308BD0B
:108C00002802030008B5024B1B689B69019308BD4D
:108C10002802030008B5024B1B68DB69019308BDFD
:108C20002802030008B5024B1B681B6A019308BDAC
:108C30002802030008B5024B1B685B6A019308BD5C
:108C40002802030008B5024B1B689B6A019308BD0C
:108C50002802030008B5024B1B68DB6A019308BDBC
:108C60002802030008B5024B1B681B6B019308BD6B
:108C70002802030008B5024B1B685B6B019308BD1B
:108C80002802030008B5024B1B681B6C019308BD4A
:108C90002802030008B5024B1B689B6C019308BDBA
:108CA0002802030008B5024B1B68DB6C019308BD6A
:108CB0002802030008B5024B1B681B6D019308BD19
:108CC0002802030008B5024B1B681B68019308BD0E
:108CD0003002030008B5024B1B685B69019308BDB5
:108CE0003002030008B5024B1B68DB69019308BD25
:108CF0003002030008B5024B1B681B6A019308BDD4
:108D00003002030008B5024B1B685B6A019308BD83
:108D10003002030008B5024B1B689B6A019308BD33
:108D20003002030008B5024B1B689B6B019308BD22
:108D30003002030008B5024B1B68DB6B019308BDD2
:108D40003002030008B5024B1B681B6C019308BD81
:108D50003002030008B5024B1B685B6C019308BD31
:108D60003002030008B5024B1B681B68019308BD65
:108D70004C02030008B5024B1B685B68019308BDF9
:108D80004C02030008B5024B1B681B69019308BD28
:108D90004C02030008B5024B1B685B69019308BDD8
:108DA0004C02030008B5024B1B689B69019308BD88
:108DB0004C02030008B5024B1B68DB69019308BD38
:108DC0004C02030008B5024B1B681B6A019308BDE7
:108DD0004C02030008B5024B1B685B6B019308BD96
:108DE0006002030008B5024B1B681B6D019308BDB0
:108DF0006002030008B5034B1B68D3F89830019359
:108E000008BD00006002030008B5024B1B681B6828
:108E1000019308BD2002030008B5024B1B685B6884
:108E2000019308BD2002030008B5024B1B685B6973
:108E3000019308BD2002030008B5024B1B68DB6AE2
:108E4000019308BD2002030008B5024B1B689B6D0F
:108E5000019308BD2002030008B5034B1B68D3F83B
:108E60008830019308BD00002002030008B5034BC1
:108E70001B68D3F89430019308BD00002002030062
:108E800008B5024B1B685B68019308BD40020300F4
:108E900008B5024B1B689B68019308BD40020300A4
:108EA00008B5024B1B68DB68019308BD4002030054
:108EB00008B5024B1B681B69019308BD4002030003
:108EC00008B5024B1B685B69019308BD40020300B3
:108ED00008B5024B1B689B69019308BD4002030063
:108EE00008B5024B1B68DB69019308BD4002030013
:108EF00008B5024B1B681B6A019308BD40020300C2
:108F000008B5024B1B681B6B019308BD40020300B0
:108F100008B5024B1B685B6B019308BD4002030060
:108F200008B5024B1B681B6C019308BD400203008F
:108F300008B5024B1B685B6C019308BD400203003F
:108F400008B5024B1B681B68019308BD440203006F
:108F500008B5024B1B685B68019308BD440203001F
:108F600008B5024B1B689B68019308BD44020300CF
:108F700008B5024B1B685B69019308BD44020300FE
:108F800008B5024B1B68DB69019308BD440203006E
:108F900008B5024B1B681B6B019308BD440203001C
:108FA00008B5024B1B68DB6B019308BD440203004C
:108FB00008B5024B1B681B68019308BD1C02030027
:108FC00008B5024B1B685B68019308BD1C020300D7
:108FD00008B5024B1B689B68019308BD1C02030087
:108FE00008B5024B1B68DB68019308BD1C02030037
:108FF00008B5024B1B685B6A019308BD1C020300A5
:1090000008B5024B1B68DB6A019308BD1C02030014
:1090100008B5024B1B68DB6B019308BD1C02030003
:1090200008B5024B1B685B6C019308BD1C02030072
:1090300008B5024B1B68DB6C019308BD1C020300E2
:10904000002240681146FFF753BF002240681146D6
:10905000FFF75EBF40680022FFF752BF4068002262
:1090600081F00101FFF73CBF002340681A46194612
:10907000FFF72EBF002340681A461946FFF720BFAE
:10908000002240681146FFF713BF002240681146D6
:10909000FFF7FEBE406800220221FFF701BF002358
:1090A00040681A46FFF7ECBE024B03225A60024AA0
:1090B0001A607047C0E5032080E90D000021FFF72A
:1090C00041BE0021FFF746BE10B504460846217098
:1090D000FFF708FE00236360204610BD10B504466C
:1090E0000078FFF7EBFF48B920784FF6FF71FFF7E4
:1090F000E9FD2078BDE81040FFF7E3BF10BD007820
:10910000FFF7DFBF400830B51860002418688842B8
:10911000E5B206D90134082C02D040081860F5E702
:109120000725024B5B5D137030BD00BFB4E90D0035
:109130002DE9F04306468FB000780C46FFF7BEFFDE
:1091400000281BDB35781422002109A804F030FD2B
:109150000B23002209A92846ADF82430FFF7D2FDE1
:109160009DF82D3013B19DF82C5055B10027B9460C
:10917000B846012523795DB1C3B100200FB0BDE829
:10918000F083DDF830809DF834909DF83570F1E77C
:10919000002B35D1A368434508D18DF820908DF878
:1091A0002170BDF82020A3899A42E6D00023A1684F
:1091B0008DF80F300A9804AB0DF10F02FFF7A2FFF4
:1091C000217985B989B9A36843450ED38DF82090DC
:1091D0008DF82170BDF82020A3899A4205D1049B07
:1091E000434502D1C9E70029F9D100230193637BEC
:1091F00000939DF80F20237B3078FFF79BFDBCE7A1
:10920000CDE900552B462A460121F5E708B500783F
:10921000FFF760FDC0B208BD30B587B004460A9DB7
:1092200000950078FFF776FD3DB9207802A9FFF799
:1092300079FD9DF81430DB07F7D407B030BD00008E
:1092400010B5094B094C022200201A60084B20601F
:10925000A080A071A360FFF7DFFD2046054A064904
:10926000BDE8104002F0DAB9D4E50320C8E50320D8
:109270000000FFFF20DE032089410D0010B50446E9
:1092800004F0D4FC013823182046834206D9027822
:10929000197800F8011B03F80129F6E710BD70B535
:1092A0000C46911E2229054622D820466DB1B5FBF9
:1092B000F2F602FB1655E9B2092D94BF3031573151
:1092C000C9B200F8011B3546F0E7024623443021BD
:1092D000934202D902F8011BFAE71A1A834238BFF7
:1092E0000022002383542046FFF7C8FF204670BDAC
:1092F0000020FCE738B5031E0C4615460EDAB3F124
:10930000004F4FF02D0214BF5842184601230A7037
:109310002A461944FFF7C3FF204638BD0123F9E769
:1093200008B50123FFF7BBFF08BD10B50446006870
:10933000FFF746FE204610BD10B50446006808B190
:10934000FFF73EFE0023C4E90133236010BD38B5AA
:1093500004460D4600680131FFF73AFE10B1C4E93A
:109360000005012038BD10B50368044623B14368E9
:109370008B4201D3012010BD2046FFF7E8FF0028F3
:10938000F9D0A368002BF5D122681370F2E737B546
:109390000D46114601920446FFF7E5FF019A28B9F0
:1093A0002046FFF7C9FF204603B030BDA260294622
:1093B000206804F0D5FB2268A3680021D154F2E7AD
:1093C000002313B5C0E9003304468360037341B141
:1093D0000846019104F02AFC019902462046FFF755
:1093E000D6FF204602B010BD38B5054600680C46D1
:1093F00068B16A688B689A4207D3096804F00EFC6A
:10940000A368AB600023A36038BDFFF7D9FD2368D4
:109410002B6063686B60A368AB600023C4E9003312
:10942000F1E7884210B5044605D00B682BB18A6875
:109430001946FFF7ACFF204610BDFFF77DFFFAE7A6
:1094400010B500230446C0E9003383600373FFF7BF
:10945000E8FF204610BD884210B5044601D0FFF752
:10946000C3FF204610BD13B5044659B1084601910B
:1094700004F0DCFB019902462046FFF788FF2046F6
:1094800002B010BDFFF758FFF9E710B504468AB0E7
:109490000023C4E90033A3602373084601A9FFF742
:1094A00029FF01A92046FFF7DEFF20460AB010BDC4
:1094B00010B504468AB00023C4E90033A3602373C7
:1094C000084601A9FFF72CFF01A92046FFF7CBFFB3
:1094D00020460AB010BD70B505460E4609B90020F9
:1094E00070BD6AB1846814442146FFF73CFF002830
:1094F000F5D02868AB683146184404F08FFBAC60A7
:109500000120EDE710B58A6809680446FFF7E3FF1C
:1095100010B92046FFF710FF204610BD13B50446D2
:1095200029B92046FFF708FF204602B010BD0846C3
:10953000019104F07BFB019902462046FFF7CBFF27
:109540000028EED0F0E758B50E462AB121B1846864
:10955000A34202D300230B7058BDE41A013A0168FC
:10956000944228BF144619442246304604F066FB54
:1095700000233355F0E7006808B104F0D1BA704712
:109580007047704770477047064B994210B500F11D
:109590000C0405D0084602F04DF8002808BF00244E
:1095A000204610BD04EB0D00064B994210B500F1AA
:1095B0000C0405D0084602F03DF8002808BF00243E
:1095C000204610BD04EB0D00064B994210B500F18A
:1095D0000C0405D0084602F02DF8002808BF00242E
:1095E000204610BD04EB0D0010B56821044602F0C2
:1095F0001AF8204610BD10B52821044602F013F8D1
:10960000204610BD10B53021044602F00CF820466B
:1096100010BDFAF744BDFAF742BDFAF740BD10B5E8
:10962000036804469B689847A368013BA3602BB975
:1096300023682046DB68BDE81040184710BD10B510
:109640000446006808B1FFF775FA204610BD000017
:1096500010B5044B04461868FFF774FA0123237011
:1096600010BD00BFE0E5032010B5044B04461868A8
:10967000FFF770FA0023237010BD00BFE0E5032060
:10968000F0B50025EC1C8C420DD86E1C445D875D46
:10969000974205D12644B14205D31D60601CF0BD40
:1096A00001342544EEE70020F9E72DE9F3470446AD
:1096B0009DF828701E46894601AB90460A46016A0D
:1096C000FFF7DEFF256AB31C17BB08B35F193F1A0B
:1096D0001F2F19D8DDF8049009F1020AA5EB090241
:1096E000121A00EB090106EB0A0092B22144204451
:1096F00004F044FA731C04F809303246414604EB86
:109700000A0004F02DFA2762206A02B0BDE8F08753
:109710002B441F2BF8D8731C6355A81C25442062CA
:10972000324685F801904146204404F019FA236A34
:1097300033442362E8E70000024A00210A20FFF7D1
:1097400049BB00BF158A0D00022A38B5044607D070
:10975000032A11D0012A01D10B682360002038BDF3
:1097600008200D68FAF797FC03460028F5D095E825
:10977000030083E80300F0E700680028EED008212A
:1097800001F051FFEAE730B40D4611461A4603686E
:1097900009682868D3E90043A44630BC604710B587
:1097A0008368044613B1032201469847204610BD42
:1097B00010B504465830FFF7F2FF04F14800BDE849
:1097C0001040FFF7B2BDA0F13003DAB2092A01D888
:1097D00018467047A0F16103052B01D85738704730
:1097E000A0F14103052B94BF37384FF0FF3070478D
:1097F00010B5002304460370FFF72AFF204610BD72
:1098000010B5037804460BB1FFF72EFF204610BDBC
:1098100082B00346086849686A4603C26A4603CABA
:1098200018601846596002B0704708B582798B7984
:109830009A4206D1062204F085F9B0FA80F0400978
:1098400008BD0020FCE74FF0FF3303608380002059
:109850007047002108B5016041600246FFF7F3FF41
:109860009171104608BD000001220261064A11688C
:109870000160516841601189927A827200220181EF
:10988000C0F80B20C27370470CEB0D0010B50B69CC
:10989000036101F11002034651F8044B43F8044BF5
:1098A0009142F9D110BD10B50B460446B1B1012A61
:1098B00001F110020AD1014653F8040B41F8040BE0
:1098C0009342F9D101232361204610BD411E12F8B5
:1098D000010D01F8010F9A42F9D1F3E7102204F0CB
:1098E00067F9F1E738B5044615461A46FFF7DBFF7E
:1098F000A581204638BD000008B5026922B98089DB
:10990000003818BF012008BD0249102204F01AF9DE
:10991000F6E700BF2CEB0D000069704738B50C4628
:1099200014220021054604F043F923693BB9627B08
:109930002B74237B43EA02232B80284638BD012366
:109940002B7404F110022B4654F8041B43F8041B3B
:109950009442F9D1F1E7427B007B40EA0220704754
:10996000704708B502690B699A4206D1102204F0CB
:10997000E9F8B0FA80F0400908BD0020FCE70000DB
:1099800001232DE9F3410361324B1A6802605A68E2
:10999000426000251A899B7A028104468372C0F8CE
:1099A0000B50C5730E4621B32421304604F059F9FB
:1099B000042821D1ADF8045001AFB51C063615F8C6
:1099C000020CFFF700FFB0F1000810DB15F8010CE6
:1099D000FFF7F9FE00280ADB023540EA0810AE4224
:1099E00007F8010BEBD1BDF804305BBAA38100236B
:1099F000236102B0BDE8F08110272421304604F035
:109A000030F9A84206D827440023BC42F1D007F819
:109A1000013DFAE7002FECD0705DFFF7D4FE03069E
:109A200015D40001013F5FFA80F804F80780242173
:109A3000304604F016F90135A84208D9705DFFF7E9
:109A4000C2FE40B20028A4BF40EA0800E05501353C
:109A5000D3E700BF0CEB0D0013B504460191FFF7EF
:109A600003FF20460199FFF78BFF204602B010BD8F
:109A700030B49DF8085012B9006A30BC70470295A6
:109A800030BCFFF712BE1FB50446024600F11F01AD
:109A9000002302F8013B9142FBD12362009306228E
:109AA00001238DF80F2019460DF10F022046FFF714
:109AB000DFFF204604B010BD1FB50A46044614213E
:109AC0001046039204F0CDF8002103460091039A5A
:109AD00009212046FFF7CCFF04B010BD0968FFF74D
