:02000002D0002C
:1040000000400D00C4FB0D00000006000D0005017E
:084010000401DB0700000000C1
:0440180054EA0D0059
:1040200009480A49884208B505D0094A824202D0A7
:10403000121A0AF0D1FB0748074A0021121A0AF0A7
:10404000F3FB014808BD00BFACDD03202CFB0D00D5
:104050001CDE032020DE0320F4E7032070B5074EAA
:10406000074C07F0CDF9A41BA4080025A54200D1F8
:1040700070BD56F8043B98470135F7E7FCFA0D0090
:1040800020FB0D0000F09ABD08B501F095FABDE8DF
:10409000084007F077B905F00DBB05F00BBB05F044
:1040A00011BB000008B5034A00210C2005F0F4F90B
:1040B000FEE700BF2D900D000078B0FA80F04009B7
:1040C0007047012303707047106870477047037C86
:1040D00013F008031EBFC36A406A1B1A002BACBF53
:1040E00018466FF00040704710B5014400230A24C1
:1040F000884205D010F8012B04FB0323303BF7E77F
:104100001D2BC4BF014A136010BD00BF38DE032061
:104110007047704710B51021044608F0BEF82046DD
:1041200010BD10B53421044608F0B7F8204610BD84
:10413000103003F0EFBA103003F009BA07B50122CE
:104140000DF10701103003F01FF901280CBF9DF895
:1041500007004FF0FF3003B05DF804FB103003F0B0
:1041600075BB07B501228DF8071010300DF107015E
:1041700003F06CFB03B05DF804FB000010B5034BCB
:104180000360044604F0C4FC204610BDD8F40D00C2
:1041900010B50446006808B105F094FA204610BD39
:1041A00008B5002005F06EFA28B105F04BFA80F052
:1041B0000100C0B208BD0120FCE7000010B586B0C8
:1041C000002301A91422044605F02FFD07F0CAFFC1
:1041D000142201A90A2004F051FF2146024805F0EB
:1041E000A5FC002006B010BDC4E3032007B505F010
:1041F00034FDC0B2022817D0032805D0012815D0FD
:10420000012003B05DF804FB0523019307F0AAFF2A
:1042100004220DEB02014FF4827004F02FFF044BD7
:10422000019A1A600020ECE70A23EEE71423ECE77A
:10423000C4E2032007B505F010FDC0B2022817D074
:10424000032805D0012815D0012003B05DF804FB38
:104250000523019307F086FF04220DEB02014FF4C2
:10426000827004F00BFF044B019A1A600020ECE707
:104270000A23EEE71423ECE730DE032007B505F050
:10428000ECFCC0B2022817D0032805D0012816D0B4
:10429000012003B05DF804FB3C23019307F062FFAB
:1042A00004220DEB020140F2091004F0E7FE054B79
:1042B000019A1A600020ECE74FF49673EDE74FF493
:1042C0001673EAE738DE03200EB403B503AB002112
:1042D00053F8042B019306F03AFE02B05DF804EBAC
:1042E00003B0704773B5044608462279A36832B11B
:1042F000A3B90B4902B0BDE8704006F015BD094AEC
:10430000267B094D0949647B012E18BF2946CDE95A
:1043100000140749FFF7D8FF02B070BD054AEFE768
:1043200079EA0D0009ED0D0075EA0D0071EA0D0046
:104330008FEA0D0068EA0D0030B585B01B4B009385
:1043400013798DF804309368029300F58C65938996
:10435000ADF80C3004460A466B4600F26C41284624
:1043600003F0ACFD10B9002005B030BD256004F2AB
:104370003C45284603F004FA0121204603F04CFC9A
:10438000014668B12146284602F0E5FF0028EAD040
:1043900094F83C3413F0700FE5D0054B1D60E3E753
:1043A000204603F039FC0028ECD1DCE748EE0D0094
:1043B000B8E503202DE9F04F2DED028BA7B00446A0
:1043C00008EE101A0A22418822A805F0E3FB002318
:1043D0000AA9062222A805F028FC22A805F02AFB3B
:1043E000A1880A2222A805F0D5FB00230CA90622E9
:1043F00022A805F01AFC22A805F01CFB0EADE188EE
:104400000A2222A805F0C6FB00232946062222A87C
:1044100005F00BFC22A805F00DFB21890A2222A839
:1044200005F0B8FB002310A9062222A805F0FDFB29
:1044300022A805F0FFFA61890A2222A805F0AAFB4A
:10444000002312A9062222A805F0EFFB22A805F0FE
:10445000F1FA14AEA1890A2222A805F09BFB0023E1
:104460003146062222A805F0E0FB22A805F0E2FA78
:1044700016AFA18A0A2222A805F08CFB0023394638
:10448000062222A805F0D1FB22A805F0D3FA0DF1EF
:104490006008E18A0A2222A805F07CFB002341463D
:1044A000062222A805F0C1FB22A805F0C3FA0DF1EF
:1044B0006809218B0A2222A805F06CFB00234946DB
:1044C000062222A805F0B1FB22A805F0B3FA0DF1EF
:1044D000700AE1890A2222A805F05CFB00235146FC
:1044E000062222A805F0A1FB22A805F0A3FA0DF1EF
:1044F000780B218A0A2222A805F04CFB002359469A
:10450000062222A805F091FB22A805F093FA618A01
:104510000A2220AC22A805F03DFB214600230622FA
:1045200022A805F082FB22A805F084FA12AB0293C0
:1045300010ABCDE90053CDE908B4CDE9069ACDE939
:1045400004780649039618EE100A0CAB0AAA05F087
:10455000C9F827B0BDEC028BBDE8F08F31EB0D0040
:104560002DE9F04F2DED028B0446CDB008EE101A68
:1045700026A9FFF71FFFE069394D09F0ABFA0246A3
:104580000B4610A8294605F0ADF8206A09F0A2FAFA
:104590000DF14C0902460B464846294605F0A2F8A3
:1045A000606A09F097FA0DF1640A02460B4650461C
:1045B000294605F097F8A06A09F08CFA0DF1580B1E
:1045C00002460B465846294605F08CF894F82C30E4
:1045D000009394F82D3094F82E2022491CA805F061
:1045E00081F894F82F30009394F83030628E1E4991
:1045F0000AAE21A805F076F80DF12C081B4900221F
:10460000304605F06FF80CAF18490022404605F01F
:1046100069F800221549384605F064F8606B09F026
:1046200059FA0DAC02460B462046294605F05AF8C9
:1046300010AB059326ABCDE90383CDE907ABCDE9FC
:1046400001760B49CDF8189018EE100A00941CABB7
:1046500021AA05F047F84DB0BDEC028BBDE8F08F04
:10466000ACEA0D00B1EA0D00BAEA0D00C0EA0D0097
:10467000C3EA0D00F0B50024D7B00268ADF854408D
:10468000054623460F4615A84149424E03F07FF8E0
:104690002A68414B4FF47A7100285ED1CDE91601AA
:1046A000ADF864003A49159319A844F2022319ADF4
:1046B00003F06DF80FCD06F110040FC40FCD0FC439
:1046C0002B682360169B7360179BB360189BF36085
:1046D000324B1393324B1293324B1193324B109354
:1046E000324B0F93324B0E93324B0D93324B0C9354
:1046F000324B0B93324B0A93324B0993324B089354
:10470000324B0793324B0693324B0593324B049353
:10471000324B0393324B0293324B0193324B334A69
:104720003349009315A8334B04F0DCFF324B30467D
:10473000196806F00CFB15A9304606F008FB337C1F
:104740002E4C3BB13968134806F001FB2C4803F0AE
:1047500017F80123237057B0F0BDCDE91641ADF82D
:1047600064400B49159319A844F2022319AC03F0D5
:104770000EF80FCC06F110050FC50FCC0FC523683E
:104780002B60169B7360179BB360189BF360D6E792
:1047900078E2032064E403205CEE0D006DEB0D0075
:1047A00075EB0D007CEB0D0082EB0D008AEB0D002C
:1047B00093EB0D009DEB0D00A5EB0D00AEEB0D0096
:1047C000B8EB0D00C0EB0D00C8EB0D00CFEB0D00FA
:1047D000D6EB0D00DDEB0D00E4EB0D00EBEB0D0077
:1047E000F5EB0D00FEEB0D0002EC0D00FBEA0D00F9
:1047F00000EB0D00F6EA0D00C4E30320C0E2032045
:1048000074E4032042884B6813444B6082888B68B1
:1048100013448B60C288CB681344CB6002890B6958
:1048200013440B6142894B6913444B6182898B6944
:1048300013448B61C289CB691344CB61028A0B6A32
:1048400013440B62428A4B6A13444B62828A8B6A1E
:1048500013448B62C28ACB6A1344CB62028B0B6B0C
:10486000D1ED0D7A13440B6390ED077AB1F8443023
:1048700077EE877A0133C1ED0D7A90ED087AD1EDAC
:104880000E7A77EE877AC1ED0E7A90ED097AD1ED46
:104890000F7A77EE877AC1ED0F7A90ED0A7AD1ED33
:1048A000107AA1F8443077EE877AC1ED107A70471C
:1048B000536810B5B2F84440B3FBF4F34B80B2F840
:1048C00044409368B3FBF4F38B80B2F84440D36860
:1048D000B3FBF4F3CB80B2F844401369B3FBF4F3B9
:1048E0000B81B2F844405369B3FBF4F34B81B2F847
:1048F00044409369B3FBF4F38B81B2F84440D3692D
:10490000B3FBF4F3CB81B2F84440136AB3FBF4F386
:104910000B82B2F84440536AB3FBF4F34B82B2F813
:104920004440936AB3FBF4F38B82B2F84440D36AF9
:10493000B3FBF4F3CB82B2F84440136BB3FBF4F354
:104940000B83B2F84430D2ED0D6A07EE903AF8EEE0
:10495000E77A86EEA77A81ED077AB2F84430D2ED95
:104960000E6A07EE903AF8EEE77A86EEA77A81EDC6
:10497000087AB2F84430D2ED0F6A07EE903AF8EEBA
:10498000E77A86EEA77A81ED097AB2F84430D2ED63
:10499000106A07EE903AF8EEE77A86EEA77A81ED94
:1049A0000A7A90F82C3081F82C3090F82D3081F86C
:1049B0002D3090F82E3081F82E3090F82F3081F87D
:1049C0002F3090F8303081F83030438E4B8610BD58
:1049D00000230022C0E90133C0E90333C0E90533F5
:1049E000C0E90733C0E90933C0E90B330370426300
:1049F0008263C2630264A0F84430704730B5264C2D
:104A0000B7B0204604F0EEF82046012101F037F956
:104A10002249AF220AA809F0DFFE0025282223231D
:104A2000CDE9013500920DEB020320465F2101F034
:104A3000D9F92D232946102206A8059309F0F4FE82
:104A400007F090FB14220DEB02010A2004F00EFB8C
:104A50002046012101F0F4FB50222046612101F0A3
:104A6000ECFB2946204601F0F0FB0D49204606F0FC
:104A70005BF95A222046492101F0DFFB0949204613
:104A800006F052F905A9204606F04EF9204604F03A
:104A9000A4F937B030BD00BFD4E303207CEE0D0095
:104AA0000AEC0D0011EC0D0010B5A0B005F088FC6B
:104AB00005F0D0FC05F084FC394A014617A806F041
:104AC0000DF817A805F04BFD05F07AFC354A0146B4
:104AD00017A806F003F817A805F041FD17A805F080
:104AE000F3FA31490AA805F09BF90AA90FA805F0C5
:104AF00097F90FA805F0DAF904460FA8002C47D162
:104B000005F0F3F90094ADF81800022306AA03217A
:104B100017A805F091FA02A804F09CFD23490FA8FC
:104B200005F013F822490FA805F06AF802A905F06C
:104B30005BF8014606A805F008F80FA804F07AFF14
:104B40001C490AA804F0C1FF184917A805F0E7FAA4
:104B5000194B0F9300244FF47F430FA9ADF8403059
:104B60000722234617A88DF8424005F0DBFA05F02E
:104B700027FC224617A905F0A3FC0AA804F05AFF57
:104B800006A804F057FF02A804F054FF20B010BD9F
:104B900005F0B0F900230093024610230721B7E780
:104BA000ACE50320A4E50320D4E20320C4E3032002
:104BB00008ED0D001AEC0D00FFFF55002DE9F04146
:104BC00001218AB0132007F08FFA0121082007F095
:104BD0008BFA0121132007F098FA0121082007F031
:104BE00094FA6E4A6E496F486F4F704E704D06F0E2
:104BF00094FC704A70496B4806F08FFC6F4A70490C
:104C0000684806F08AFC6F4A6F49664806F085FCE2
:104C10000023022239466D4804F0F4FC00230222EE
:104C200031466B4804F0EEFC002302222946694815
:104C300004F0E8FC00240C230594ADF81430664B16
:104C400066490693042205AB6548079404F0DAFC34
:104C50002146012004F0D4FB4FF00108204604F067
:104C6000D9FB424641F6C6710DF103008DF8038071
:104C700004F0DAFB5B48234622462146406804F0F4
:104C800091FC04F0D7FC4FF47A7006F063FA564BAF
:104C9000059305AA554B5648079302218DF81840F5
:104CA000ADF82080FFF748FB4FF47A7006F052FA17
:104CB0007621504801F010FF4F4800F0AEFE41460B
:104CC0004E4803F06BFC41F2883006F043FA07F0DF
:104CD00049FA14220DEB02010A2004F0C7F905A9D4
:104CE00001A804F0F2FE01A93C4804F039FF01A834
:104CF00004F0A0FE07F036FA022201A940F20910E2
:104D000004F0B4F9BDF804204FF6FF739A4224D0A2
:104D100007F028FA04223946FF2004F0A7F907F02B
:104D200021FA042231464FF4827004F09FF907F013
:104D300019FA0422294640F2091004F097F9FFF706
:104D4000B3FE2F4B01221A70FFF758FE41F2883054
:104D500006F000FA0AB0BDE8F0814FF461733B60E1
:104D60001E23336048F6A0432B6007F0FBF9394659
:104D70000422FF2004F082F907F0F4F931460422FE
:104D80004FF4827004F07AF907F0ECF90422294616
:104D900040F2091004F072F9D1E700BF20EC0D00D9
:104DA000BD410D00EFB40D0030DE0320C4E203204E
:104DB00038DE03202EEC0D0035420D0045EC0D00D1
:104DC0007D420D005CEC0D00ED410D0072EC0D001C
:104DD00087EC0D009AEC0D00C9400D00C4E30320E0
:104DE000A7EC0D0060E6032048EE0D0080F0FA020B
:104DF0003CDE032084E3032098E40320D4E3032073
:104E000034DE032070B5C4B00546002401AE284648
:104E100009F073FDA04203D92B5DA3550134F6E7D9
:104E20002CB104480023224601A905F0D3F944B06F
:104E300070BD00BFACE50320F0B591B04FF47A72BD
:104E40000592274A274903920023274AADF81C30D0
:104E5000074607AD07A8049302F099FC0FCD234E37
:104E600006F110040FC40FCD0FC42B682360049B00
:104E70007360059BB360069BF360337C5BB31C4A95
:104E80001068516803AB03C390681A4A18605168F0
:104E9000106812896B4603C303A81A80FFF7B2FF9C
:104EA000203C3046FFF713F958B1002340F20912B5
:104EB0003946204602F016FB18B13846FFF7A2FF2C
:104EC000EFE70D4802F05CFC6846FFF79BFF0649E0
:104ED000044802F0A9FC094B00221A7011B0F0BD81
:104EE0005CEE0D0078E20320B1EC0D0064E40320D9
:104EF000BCEC0D00C8EC0D0074E4032034DE03208C
:104F000010B5CEB004281AD8DFE800F003291B55ED
:104F100078003C480BA9FFF723FB3B4903A804F0AA
:104F2000D4FD0BA907A804F0D0FD07A903A8FFF73B
:104F3000A1FB07A804F07EFD03A804F07BFD4EB0A2
:104F400010BD0BA92F48FFF70BFB05F039FA05F050
:104F5000D4FA0028F3D00BA8FFF754FFEFE72B4A51
:104F60002B492848FFF7A4FC29480BA9FFF7F8FABA
:104F7000284B29491B788DF800300BAA3C2307A841
:104F800006F0BEFB089C7CB16368013B63605BB9C3
:104F9000236820469B689847A368013BA3601BB920
:104FA00023682046DB689847194B184801221A707D
:104FB000FFF70EFDC3E705F003FA05F09EFA00289F
:104FC000BDD1164A16490F48FFF772FC14480BA9C9
:104FD000FFF7C6FA134903A804F077FD0BA907A849
:104FE00004F073FD07A903A8FFF744FB07A804F02A
:104FF00021FD03A804F01EFD0848D9E70BA8FFF720
:105000001BFF9CE72CE40320D2EC0D005CE50320A1
:105010004CE3032010E30320DBEC0D0014E5032038
:1050200014E30320B1EC0D0030B585B00D4600222D
:105030006946009204F040FAB0B9009C0CB12369B3
:1050400023B90A4A00210A2004F026FA0023ADF809
:1050500006300C23ADF80430042303930295236932
:1050600001AA01212046984705B030BD2D900D00C2
:1050700007B5032001A9FFF7D7FF40B9BDF80430F9
:1050800000EE103ABBEECC0A03B05DF804FBBFEEB5
:10509000000AF9E710B50446374800F0CBFC05F0EC
:1050A000DDFFB0B106F020F884F82C0006F010F80F
:1050B00084F82D0006F000F884F82E0006F020F8A1
:1050C00084F82F0006F028F884F8300006F02CF859
:1050D0006086294800F0E4FC6080274800F0E2FC8C
:1050E000A080254800F0E0FCE080234800F0DEFCD2
:1050F0002081214800F0DCFC60811F4800F0DAFCD0
:10510000A0811D4800F0C6FCE0811B4800F0C4FCF3
:105110002082194800F0C2FC6082174800F0B4FCFD
:10512000A082154800F0B2FCE082134800F0B0FC09
:105130002083124801F06EF9104884ED070A01F04F
:1051400019FB0E4884ED080A01F092F90B4884ED32
:10515000090A9FED0B0A01F067FA84ED0A0AFFF7CE
:1051600087FF084984ED0D0A2046FFF74BFBBDE899
:1051700010400549FFF746BB98E4032084E3032071
:1051800000507D4414E503205CE5032030B52DED8F
:10519000028B95B0C04904460AA806F04FFD0AA844
:1051A00006F014F8B0EE408A06F0DCFF14220DEB96
:1051B00002010A2003F05AFF05A901A804F085FCAA
:1051C000B648012101F044F80121B44801F038F853
:1051D000B24803F007FD0A22B048052101F02DF87E
:1051E000AE48002101F031F8AC4805A905F09CFD5E
:1051F000AB4B1B78002B00F0C481AA49A74805F0EF
:1052000093FDA6480A226E2101F017F80A2294F8AD
:105210003010A24805F0A5FDA349A04805F084FD83
:105220000A2294F82F109D4805F09BFD9E499B484B
:1052300005F07AFD0A22618E984805F092FD9B499F
:10524000964805F071FD0A2294F82E10934805F057
:1052500088FD9749914805F067FD0A2294F82D10C2
:105260008E4805F07EFD92498C4805F05DFD94F86E
:105270002C108A480A2205F074FD14228748052163
:1052800000F0DBFF8B49854805F04EFDFFF7F0FE8F
:105290000221824805F04CFE8749804805F044FD14
:1052A00014227E486E2100F0C8FF84497B4805F037
:1052B0003BFDB0EE480A0221784805F039FE8049EE
:1052C000764805F031FD69460720FFF7ADFE051E63
:1052D00003DB009D002D80F256812D216F4805F0E3
:1052E00027FD69420A226D4805F03BFD1E226B48EE
:1052F000052100F0A2FF6948002100F0A6FF7149D6
:10530000664805F011FD618864480A2205F029FD10
:105310001E2262486E2100F090FF6B495F4805F045
:1053200003FDE1895D480A2205F01BFD28225B4848
:10533000052100F082FF6549584805F0F5FCA18879
:1053400056480A2205F00DFD282254486E2100F02F
:1053500074FF5F49514805F0E7FC218A4F480A2253
:1053600005F0FFFC32224D48052100F066FF594947
:105370004A4805F0D9FCE18848480A2205F0F1FCCA
:10538000322246486E2100F058FF5349434805F049
:10539000CBFC618A41480A2205F0E3FC3C223F48ED
:1053A000052100F04AFF4D493C4805F0BDFC21892C
:1053B0003A480A2205F0D5FC3C2238486E2100F01C
:1053C0003CFF4749354805F0AFFCA18A33480A2223
:1053D00005F0C7FC46223148052100F02EFF414967
:1053E0002E4805F0A1FC61892C480A2205F0B9FC81
:1053F00046222A486E2100F020FF3B49274805F04D
:1054000093FCE18A25480A2205F0ABFC5022234890
:10541000052100F012FF3549204805F085FCA189DF
:105420001E480A2205F09DFC50221C486E2100F007
:1054300004FF2F49194805F077FC218B17480A22F1
:1054400005F08FFC5A221548052100F0F6FE294987
:10545000124805F069FC94ED070A1048022105F096
:1054600067FD25490D4805F05FFCD4ED087AFDEE97
:10547000E77A17EE905A002D80F287802D21074899
:1054800005F056FC69420A22044805F06AFC1B49F3
:10549000024805F049FC35E060E60320D4E3032030
:1054A000C0E20320EFEC0D00FBEC0D0007ED0D005A
:1054B0000EED0D00FDEC0D0006ED0D000AED0D00EA
:1054C00010ED0D0018ED0D0021ED0D002CED0D007F
:1054D00035ED0D0040ED0D0049ED0D0054ED0D00D2
:1054E0005DED0D0068ED0D0071ED0D007CED0D0022
:1054F00085ED0D0090ED0D0097ED0D009FED0D0079
:1055000000007A445FED027A94ED090A204880EEAB
:10551000270A022105F00CFD1E491D4805F004FC78
:1055200064221B48052100F088FE1B49184805F03D
:10553000FBFB1A4B164819680A2205F012FC1849A1
:10554000134805F0F1FB174B114819680A2205F0C2
:1055500008FC15490E4805F0E7FB144B0C48196888
:105560000A2205F0FEFB1249094805F0DDFB084858
:1055700003F033FC01A804F05DFA15B0BDEC028B1A
:1055800030BD0C493AE62946ACE617EE901A7AE7A8
:10559000D4E30320A6ED0D00AAED0D0030DE0320BC
:1055A000B1ED0D00C4E20320BDED0D0038DE032097
:1055B000C8ED0D00F5EC0D002DE9F04F5E4CDFF865
:1055C000A88123685D4E5E4D87B033B1D8F80030B6
:1055D0001BB133680BB12B6883B903F037FD206032
:1055E00003F034FDC8F8000003F030FD306003F034
:1055F0002DFD286003F02AFD524B186003F026FDB4
:10560000824603F023FD814603F020FD074603F0A8
:105610001DFD834603F01AFD00230022054604A960
:105620000020CDE9042304F035F8474BABEB000034
:10563000984225D904F006F810B1002004F01AF8B9
:10564000002003F02BFD4FF0000B0390002003F02F
:1056500025FD039BC31A009361EB0B030193DDE966
:105660000001002342F20F728B4208BF824205D331
:10567000FEF796FD10B903F0D5FFE7E7FEF790FDC2
:105680002368AAEB0302314B19684FF47A734B433A
:105690009A4217D32E48FFF7FDFC2E4B00201870BE
:1056A000FFF72EFC0220FFF72BFC2B4B1B783BB1A6
:1056B00004F086FE04F021FF10B10420FFF720FC67
:1056C000C4F800A0D8F80030A9EB0302234B1968F6
:1056D0004FF47A734B439A4204D31D48FFF756FDAB
:1056E000C8F800903368FA1A1D4B19684FF47A73A2
:1056F0004B439A4203D30120FFF702FC3760114C61
:105700002268A91A174A10684FF47A7242439142EC
:105710000FD304F055FE04F0F0FE0F4B28B9012220
:105720001A700320FFF7ECFB02E01B78002BF8D186
:10573000256007B0BDE8F08F08E5032004E50320ED
:105740000CE5032000E50320FF5B2605C4E20320EF
:105750002CE40320C0E2032034DE032030DE0320EB
:1057600038DE0320ACDD032010E50320F0B516463B
:1057700091B00022C0E9002204460D460BAF194645
:1057800006A804F04DFB1699384604F049FB33781F
:105790008DF81430189B0293179B2046CDE90073B7
:1057A00005AA06AB294604F02FFF204611B0F0BD34
:1057B00010B50446FEF7E2FC2046502106F06DFDD0
:1057C000204610BD70B5664B664D012600241E7044
:1057D000654BAB6092B02C60AC80AC71022003F0E2
:1057E0007DFE624A6249284606F052FD2146304657
:1057F00003F084FE21465F485F4D05F088FD5B4A5B
:105800005E495C4806F044FD5D4800F02BFD4FF01A
:10581000FF330322CDE902230422CDE90032FA212D
:1058200005237A22574802F07DFD504A56495548D3
:1058300006F02EFD554800F0E1F8554B642283F840
:105840006024544ADC71A3F83C4483F86A44C3F8EA
:105850007844A3F87C44C3F8702483F874642978EE
:10586000BFF35B8F31401C460BD128460591FEF7F4
:1058700023FC059928B1484803F0B0FF2846FEF7FD
:1058800020FC454BC4F86C34384A4449404806F083
:10589000FFFC4348354A43494FF47A730024836040
:1058A000414B04824460036006F0F2FC3F4B4049E8
:1058B0001C70A3F844403F4B3F481C70A3F8444081
:1058C0003E4B1C803E4B1C803E4B1C8004F0FDF880
:1058D000264A3D49384806F0DBFC3C493C4804F088
:1058E0009FFB3C493C4804F09BFB3C493C4804F08E
:1058F00097FB10233A498DF81C3008A804F090FA61
:1059000033490DA804F08CFA0DAB009307AA08AB3D
:10591000CDE9014433493448FFF728FF134A33499E
:10592000314806F0B5FC08232B498DF81C3008A837
:1059300004F076FA26490DA804F072FA2C4B019374
:105940000DAB009307AA08AB2A4902942A48FFF737
:105950000DFF064A2549284806F09AFC12B070BD92
:1059600010E30320C8E203200000FFFF20DE032035
:1059700091410D0024E4032024DE03202FB30D0009
:1059800084E30320D4E303207D410D0098E4032049
:105990003CDE032048EE0D0028DE032013410D00FD
:1059A00064E4032011410D005CEE0D005CE5032072
:1059B00009ED0D0014E50320C4E303202CE40320CB
:1059C0004CE3032014E30320359A0D00CAED0D00CB
:1059D000D4E20320EFED0D00E8E2032014EE0D0009
:1059E000FCE2032039EE0D00ACE503205FA50D00BD
:1059F000E9400D003CEE0D00A4E50320704710B512
:105A00000446006E06F03CFAA31E00221C3423F864
:105A1000022FA342FBD1012010BD10B5122380F844
:105A20006430044606F0E4FB20662046BDE81040E2
:105A3000FFF7E5BFF8B5202204461221006E06F0FC
:105A40004EFA00252E46206E03681B6998476F1C8E
:105A500050B1206E03685B699847EDB204EB4505D1
:105A60000126E8833D46EEE72046A31E04F11C0113
:105A7000448C828C02EB042223F8022F994200F11D
:105A80000400F5D13046F8BD4088704780887047E3
:105A9000C088704700897047408970478089704787
:105AA000C0897047008A7047408A7047808A704773
:105AB000C08A7047008B70472DE9F04F85B01F46B4
:105AC000BDF93880BDF83C30A8EB0209A7EB010A0C
:105AD000B9F1000FB8BFC9F10009BAF1000FB8BFA2
:105AE000CAF1000AD14583460C46154604DD3A4604
:105AF0002C4647460D469046BC4205DD2A464546A3
:105B0000904622463C4617463E1BB2B20092A8EB96
:105B10000502002AB8BF52420192C6F3C03202FA0F
:105B200086F64545B4BF01224FF0FF32761002924F
:105B3000BC421CDCDBF800200393D145D2F818806E
:105B4000C7BF294622462A4621465846C047019AE1
:105B5000039BB61AB1B236B2002E05DA029A15448A
:105B6000009A56182DB236B2013424B2E0E705B0DF
:105B7000BDE8F08F704710B404682469A4465DF84E
:105B8000044B604730B40468BDF808500295A46B1C
:105B9000A44630BC604730B40468BDF80850029594
:105BA000E46BA44630BC604770B4BDF90C50BDF83E
:105BB00010600468CDE90356246CA44670BC6047AD
:105BC0002DE9F3411C460368BDF820805B6905465A
:105BD0001646013C34440F4624B298472B68CDF852
:105BE000048000949C6A28463B4632463946A047CA
:105BF0002B68DB6A284602B0BDE8F04118472DE962
:105C0000F3411D460368BDF820805B6904461746D2
:105C10000E469847CDE9007822686B1E3344956A9A
:105C200020461BB23A463146A8472368DB6A204625
:105C300002B0BDE8F04118472DE9F3471E4603685E
:105C4000BDF928905B69BDF82C800C4605461746C7
:105C500098472644B4422B680BDACDF80080D3F87D
:105C600020A021464B463A4628460134D04724B26C
:105C7000F0E7DB6A284602B0BDE8F047184713B5E5
:105C800002680191B0F90E100091146CB0F90C305B
:105C900000221146A04702B010BD2DE9F3471D4672
:105CA0000368BDF82C805B69BDF9289004460F4657
:105CB000164698472368CDF80080D3F824A03246D2
:105CC0002B4639462046D0472368CDF8008009F19D
:105CD000FF323244D3F824A039462B46204612B274
:105CE000D0472368CDF80080D3F820A032464B4639
:105CF00039462046D0476B1ED9192368CDF800805D
:105D00001D6A20464B46324609B2A8472368DB6A23
:105D1000204602B0BDE8F047184770472DE9F74329
:105D200099421646BDF92870BDF82C90026880464D
:105D30000D461C4613D1BE42C8BF3346CDF828904D
:105D4000C4BF3E461F467B1C946B9B1B1BB2324656
:105D500029464046A44603B0BDE8F0436047BE4232
:105D60000AD19942C2BF0B4625461C46631CCDF89A
:105D70002890D46B5B1BE9E753699847CDE900791C
:105D8000D8F8003040469F6A324623462946B84735
:105D9000D8F80030DB6A404603B0BDE8F04318474E
:105DA00001F00303B0F90A204376C907B0F90830BF
:105DB00059BF8381C2818281C381704730B501811F
:105DC0000024074D42818181C2814FF0FF314FF0A5
:105DD0000112C0E90512446005600461C46130BD70
:105DE00034F40D002DE9F04F89B0CDE902120268BC
:105DF000BDF948800493BDF94C3052690593BDF854
:105E000050A00446904718F107024FF0000648BF23
:105E100008F10E024FEAE20B01963546039B019A08
:105E2000BDF904109A18059B8B4212B227DD049B22
:105E300033444FF0000906930FFA89F080451FFAAA
:105E400089F117DD4F0705BF069BC0106D001D5C73
:105E500018BFEDB22B060AD5029B206807921944A1
:105E6000836909B21F4620465346B847079A09F18D
:105E70000109E1E7019B013301935E44CEE723680A
:105E8000DB6A204609B0BDE8F04F18472DE9F04F16
:105E90002DED028B91B01646C269BDF874709DF865
:105EA00078409846BDF87030029382460D46002A2D
:105EB00040F0B780B0F90C308B4240F33C81B0F930
:105EC0000E30B34240F33781062313FB0413002B3B
:105ED00040F3318106EBC403002B40F32C81C37ED9
:105EE00033B9B8F1AF0F84BF08F101085FFA88F841
:105EF000DAF8003050465B69984705230993002380
:105F000003938F4B08EB880843440A93B3B207937B
:105F1000039A0A9B9B5C069302FB04F9A3B219FA4D
:105F200085F90593ABB208930FFA89F308EE103A9E
:105F3000079B049313462B441BB208EE903A4FF094
:105F400000080FFA84F9069ADAF80030D1074AD52A
:105F5000012C3AD1079AD3F818B0029B424418EEAC
:105F6000901A12B25046D847069B5B080693DDE9AB
:105F7000043208F1010813449BB2B8F1080F0493EE
:105F8000E1D1039B01335BB20393099B013B13F007
:105F9000FF030993BCD1029BBB420CD0012CDAF861
:105FA00000202DD1089900970531146A43463246E6
:105FB00009B25046A047DAF80030DB6A504611B00B
:105FC000BDEC028BBDE8F04F1847029A0192CDF864
:105FD0000090D3F81CB0BDF9102018EE101A4B46F3
:105FE0005046D847C0E7029ABA42BDD0012C05D12D
:105FF000079AD3F818B042443B46B0E70197E6E76A
:10600000059B019703EB8301089B0B441946059BF5
:10601000DB000093D5692346324609B25046A847B3
:10602000C9E7137A516812680992A8EB03085FFA6E
:1060300088F801EBC80331F838B09A7893F90680F4
:106040000A92012CDA780B9293F90520069295BFFB
:1060500000230FFA88F31F46039398BF0393036846
:1060600088BFBDF918705B6998476743A3B2059371
:10607000ABB217FA85F5B2B20893ABB20D930E929C
:10608000002318FA86F21F461D460F920B9A95427E
:1060900091D2039A05990E98DDF834802A4402FBC8
:1060A000010212B208EE102A0699089A5618B2B2E6
:1060B00004920A9A9A18D2B207920F9A02EB050933
:1060C0000FFA89F9079A9A4232D05A1CD2B20C922E
:1060D0005A0701BF099A12F80B700BF101031FFA5E
:1060E00083FB3B060BD5012CDAF8002013D1936912
:1060F000BDF910101E464A46029B5046B047049E0A
:106100000136B3B20493059B7F009844FFB20C9B09
:106110001FFA88F8D6E7029923B2CDE90031D26997
:106120000FFA88F11646504618EE102AB047E6E7F7
:106130000135EDB2AAE711B0BDEC028BBDE8F08FDE
:106140002BEF0D007FB5C26904460B46002A32D101
:106150000A2908D1438A0282027E03EBC2036382CA
:10616000012004B070BD0D29FAD0017E807E70B18F
:10617000B4F91050062010FB0150B4F90C50A8429D
:10618000C1BFB4F91200228200EBC1026282E28A2E
:106190000192A28A02910092B4F91010B4F912206F
:1061A0002046FFF773FE237E228A03EB430302EBB4
:1061B00043032382D4E70A2907D100230382937A79
:1061C000017E428A01FB0323C9E70D29C8D0157A55
:1061D000A942C5D3517A9942C2D351685D1B01EBE4
:1061E000C505AE781EB3E97809B3A17E007E91B1F2
:1061F00095F905103144B4F9106000FB0161B4F960
:106200000C60B14207DD00262682B4F91210927AA2
:1062100002FB00126282E28A0192A28A029000923C
:10622000B4F91010B4F912202046FFF72FFE297997
:10623000237E228A01FB0323BBE70182428270474F
:10624000012938BF012101767047C18281827047E0
:1062500081767047407E7047B0F90C007047B0F906
:106260000E0070474FF0FF33C360704713B50B4CFF
:106270002178BFF35B8F11F001010BD12046019112
:10628000FDF71AFF019928B1054803F0A7FA204647
:10629000FDF717FF024802B010BD00BF24DE032047
:1062A00028DE03202DE9F04190F90F300133054637
:1062B0000F4606D1FFF7DAFF3946BDE8F04103F09B
:1062C0002FBB002407264FF0010895F90F0000218D
:1062D00080B205F01AFF95F90D0008FA06F1394071
:1062E00080B205F012FF95F90F00012180B205F090
:1062F0000CFF95F90E00640080B2E4B205F01EFFB9
:1063000008B144F00104013EDFD22046BDE8F0812F
:1063100008B5FFF7ABFFBDE8084003F07ABA07B550
:106320000190FFF7A3FF019903B05DF804EB03F0C0
:1063300089BA000030B590F90C30013385B00446BD
:106340000D462AD105F054FF217805F0CBFD05F06C
:106350004FFF036829469B68984705F049FF05F001
:10636000C9FD05F045FF2178032205F0B8FD05F0D1
:106370003FFF03685B699847050205F039FF036832
:106380005B6998472843050205F032FF03685B69A3
:1063900098470543284605B030BD90F90F300133CA
:1063A0000CD11A4B009300238DF80430184B029344
:1063B00068460123ADF80C30FFF7B1FF94F90C00EB
:1063C000002180B205F0A1FE45F080012046FFF7D4
:1063D00069FF00212046FFF765FF002105022046E6
:1063E000FFF760FF2843050200212046FFF75AFF10
:1063F000054394F90C00012180B205F086FE94F962
:106400000F300133C6D1FFF783FFC3E748EE0D001D
:1064100020A1070010B5FA210446FFF78BFFB0F565
:10642000000F1ED0218A9FED107A4B00C1EB202275
:10643000C3EBE011B4F9123052435943B4F91430AC
:10644000121353439B1303EBE123A36003EB83037A
:1064500080331B1207EE903AF8EEE77A87EE870A50
:1064600010BD9FED020AFBE70000C8420000C07F9C
:106470002DE9F8430446FFF7CDFFF7212046FFF74B
:1064800059FFB0F5000F054600F0BF80A068B4F9D1
:106490001860B0F5FA334FEAE07141F1FF32A3FB27
:1064A000038903FB02F109EB4109F71706FB02F12F
:1064B00003FB0711A6FB03670F44390341EA16519A
:1064C0003003B4F91A60F71706FB09FC08FB07CC88
:1064D000A6FB086767444FEA162C4CEA076CE68A6D
:1064E0004FEA272E1CEB00004EEB010E00304EF55C
:1064F000004EA0FB060106FB0E114E10CF1756EA08
:10650000070100F08580B4F9200000FB09FCC117E9
:1065100008FB01CCA0FB0801B4F91E804FEAE87922
:1065200008FB02F203FB0922A8FB038991446144A2
:106530004FEA48424FEA494C2D111218C5F5801513
:106540004CEAD83CB4F91C804CEB010C0023E91751
:106550009B184FEAC17E4FEAC5704FEAC80141EB74
:106560000C0C4EEA550EC01A40F635436EEB0C0E7D
:10657000A0FB030103FB0E1132463B4607F058FF18
:10658000B4F926204D13460B46EAC14602FB05F737
:10659000D31706FB0377A2FB06233B44554306FBB8
:1065A0000355A2FB06232B44550E45EAC315B4F947
:1065B0002420B4F922402D184FEA636641EB060609
:1065C000D317514300FB0311A2FB00230B44D10C52
:1065D00041EA43316D184FEAE34046EB00032A0AD3
:1065E000E51742EA0362191220012B0143EA1473F2
:1065F000801843EB010107F0DDFE9FED070A07EE6F
:10660000900A27EE800ABDE8F8839FED040AFAE7B6
:106610009FED030AF7E700BF0000803B0000C07F4A
:10662000000000000000000008B52DED028BB0EE68
:10663000408AFFF71DFF9FED167AC0EE077AC7EE7E
:10664000887A17EE900A07F045FA9FED0D1B41EC92
:10665000100B05F03DFF0F4953EC102B002007F005
:10666000D9F809A3D3E9002307F08CFA07F082FDDB
:10667000BDEC028B00EE100A08BD00BFAFF3008036
:10668000EBE2361AC05BC83F0000000040A5E540C1
:106690000000C8420000F03F30B590F90C300133E3
:1066A00085B004460D4625D105F0A2FD217805F000
:1066B00019FC05F09DFD036829469B68984705F085
:1066C00097FD05F017FC05F093FD2178022205F0F7
:1066D00006FC05F08DFD03685B699847054605F0EB
:1066E00087FD03685B69984740EA052085B2284624
:1066F00005B030BD90F90F3001330CD1184B009329
:1067000000238DF80430174B029368460123ADF83F
:106710000C30FFF704FE94F90C00002180B205F064
:10672000F4FC45F080012046FFF7BCFD0021204627
:10673000FFF7B8FD002105462046FFF7B3FD40EA0C
:10674000052085B294F90C00012180B205F0DDFC32
:1067500094F90F300133CAD1FFF7DAFDC7E700BF64
:1067600048EE0D0020A1070008B5FFF795FF40BADD
:1067700080B208BD38B50446FFF74CFEFD21204627
:10678000FFF78AFFB0F5004F38D0B4F92E50A26859
:10679000B4F930302D05A2F59632C5EB803002FBFE
:1067A000130303F58043D91394F82C305343DB12C1
:1067B00003F5004094F9323053439B1243439B123C
:1067C00003F50012B4F92A30534303F500539B1329
:1067D0004B43DA1394F828105243D2114A43A3EBE7
:1067E000221323EAE373B3F1C85FA8BF4FF0C85385
:1067F0001B1300EE103ABAEECB0A38BD9FED010A2A
:10680000FBE700BF0000C07F30B590F90C300133CA
:1068100085B004460D461DD105F0EAFC217805F04F
:1068200061FB05F0E5FC036829469B68984705F085
:10683000DFFC05F05FFB05F0DBFC2178012205F0B1
:106840004EFB05F0D5FC03685B699847C5B2284646
:1068500005B030BD90F90F3001330CD1144B0093CB
:1068600000238DF80430134B029368460123ADF8E2
:106870000C30FFF754FD94F90C00002180B205F0B4
:1068800044FC45F080012046FFF70CFD0021204626
:10689000FFF708FD054694F90C00012180B205F0D0
:1068A00034FC94F90F300133D1D1FFF731FDCEE73D
:1068B00048EE0D0020A1070008B5F321FFF7A4FF63
:1068C00000F0010008BD38B588210446FFF74CFFF1
:1068D0008A2120822046FFF747FF8C2160822046D4
:1068E000FFF742FF8E21A0822046FFF73DFF902157
:1068F000E0822046FFF738FF922120832046FFF7F1
:1069000033FF942160832046FFF72EFF9621A0835A
:106910002046FFF729FF9821E0832046FFF724FF58
:106920009A2120842046FFF71FFF9C216084204687
:10693000FFF71AFF9E21A0842046FFF715FFA12133
:10694000E0842046FFF760FFE12184F8280020461C
:10695000FFF70AFFE32160852046FFF755FFE4219A
:1069600084F82C002046FFF74FFFE521054620461E
:10697000FFF74AFF00F00F0343EA0510E085E62128
:106980002046FFF741FFE52105462046FFF73CFF83
:10699000031143EA05102086E7212046FFF734FF64
:1069A00084F8320038BD00007FB590F90C30013317
:1069B00004460E46154616D105F01AFC217805F05E
:1069C00091FA05F015FC036831469B68984705F07D
:1069D0000FFC036829469B68984705F009FC05F001
:1069E00089FA04B070BD90F90F3001330CD1144B0B
:1069F000009300238DF80430124B02936846012364
:106A0000ADF80C30FFF78BFC94F90C00002180B23C
:106A100005F07BFB06F07F012046FFF743FC29468B
:106A20002046FFF73FFC94F90C00012180B205F0ED
:106A30006CFB94F90F300133D3D1FFF769FCD0E739
:106A400048EE0D0020A10700F8B5DB0002F00702B8
:106A500003F03803134343EA81139DF8186080F86C
:106A6000383090F83C309DF81C509DF8207066F34B
:106A7000471380F83C30ED0090F8343007F00707FA
:106A800005F0380523F03F033D4304461D4380F8DD
:106A9000345006F00702F221FFF786FF94F8342005
:106AA00002F0070102F0380343EA411343EAD2122D
:106AB0002046F521FFF778FF94F8382002F007010F
:106AC00002F0380343EA411343EA92122046F421CC
:106AD000BDE8F840FFF768BF30B50446017090F993
:106AE0000C00421C85B019D105F082FB05F0C8F9F5
:106AF000D0212046FFF788FE602842D12046B622EA
:106B0000E021FFF751FF4FF4967004F023FB20467D
:106B1000FFF7D2FE054628B36420F6E7012180B2D4
:106B200005F0F3FA94F90C00012180B205F0DCFACB
:106B300094F90F00431C04D1FFF798FB02F058FEB4
:106B4000D6E7012180B205F0CFFA94F90D000121BA
:106B500080B205F0C9FA94F90E00002180B205F068
:106B6000C3FAC5E72046FFF7AEFE05232046CDE970
:106B7000015500931A460321FFF766FF012005B077
:106B800030BD0020FBE710B50446243000F036FF8E
:106B900028B104F50C70BDE8104000F02FBF10BD07
:106BA000411E00F10A030020420842EAC01011F819
:106BB000012F52FA80F08B42C0B2F5D1704738B540
:106BC000CB6804460D4623B9BDE83840896800F01B
:106BD000C2BB2422002107F027FE102301202370CE
:106BE000A070AB68A360EB68236238BD2DE9F04765
:106BF000064610F8013B202BFAD06B4D8E60002426
:106C0000335DC3B12F2B16D05C2B02D10020BDE821
:106C1000F087A3F12200C0B21D2803D825FA00F0A6
:106C2000C007F3D403F0BF003C28EFD0203B5E2B1D
:106C3000ECD80134E4E733191846074610F8015B35
:106C4000202DFAD02F2DF8D017604CB113F8012D5C
:106C50002E2A01D0202A01D1013CF6E7FF2CD5DCF9
:106C60004C6001F10D0301F11802202003F8010B23
:106C70009342FBD14FF0000816F808302E2B01D0BC
:106C8000202B02D108F10108F6E7B8FA88F0400994
:106C9000651E6B1C02D0735D2E2B14D14FF00009C2
:106CA00007274A46CA464FF0080EA04569DA16F88B
:106CB0000830202B03D02E2B07D1A84512D000205E
:106CC00008F10108F1E7013DE3E7222B08D07C2B16
:106CD00006D0A3F12A0CBCF1050F0BD82D2B13D035
:106CE000A8455CD10A2F4BD0A8460A2708224FF0AE
:106CF000100EE5E7A3F13A0CBCF1050FF0D9A3F1B2
:106D00005B0CBCF1020FEBD9A3F1210CBCF15D0FC0
:106D1000E6D8A845E6D0BA4230D8A3F1610CBCF160
:106D2000190F1AD8203B4EEA0909DBB25FFA89F93C
:106D300002F1010C5FFA8CFC0A44BCF1060F53739C
:106D400001D881F80CC06246BAE7A84518DCA8460D
:106D50000A2708224FF0100EB1E7A3F1410CBCF155
:106D6000190F98BF4EEA0A0AE2E70B7B0120087070
:106D700019447E234B7331238B7348E70A2FE4D1E8
:106D800000204B7B202B3FF441AF0028EDD01AEAC6
:106D9000090F18BF4FF0020981F8009037E7BA4297
:106DA000ECD85F230020C3E7010100312DE9F04159
:106DB0008AB00023ADF804300378190704460AD5D9
:106DC00083789A0707D5016A39B90121204600F076
:106DD000B3FA054638B9002048E0806800F0FFFEAD
:106DE0000028F2D1F7E7FFF7DBFEE5262E7000233F
:106DF00007462370A068FFF7C6FE0028EBD0E378B3
:106E0000002B33D0214601A8FFF7D9FE0028E2D09D
:106E10000125E3785FFA85F84345DCD3A188491B57
:106E2000490101A800F0C5FB0028D4D0002101A829
:106E300000F0A0FB0028CED0C37A0F2BCBD1027874
:106E400002F01F034345C6D1437BBB42C3D106704A
:106E5000A16891F8243043F0010381F824305306EF
:106E600005F10105D5D5A068FFF78DFE0AB0BDE894
:106E7000F0812DE9F84391F80C9006460C46022566
:106E80007E2701F10D086168A2686B189BB211445E
:106E9000914206D012F8010B03EB431343409BB21F
:106EA000F6E7B9F1030F28BF4FF0030909F1040217
:106EB000D2B203F00F01A018013A0929D2B294BF4F
:106EC00030313731914541734FEA1313F1D104EB5F
:106ED000090300215F73304600F06BFB012130464F
:106EE00000F048FB014628B97078B0FA80F04009FC
:106EF000BDE8F88303786BB1C37A1B07EED40B228D
:106F0000404607F05BFC0028E8D10135ADB2642DA6
:106F1000B9D1EDE70120EBE72DE9F04F2DED028B24
:106F200089B00D4605930B78069013F0700F9046CC
:106F300005D1002009B0BDEC028BBDE8F08F069BA7
:106F40001B78002BF5D153680493137899071CBF65
:106F5000049B03F10C074FF0000118BF0D232846D6
:106F60001DBFB7FBF3F70137FFB2012700F021FB8C
:106F700008F10D02002308EE102A9B461C461E460F
:106F800003939A466A69079301212846C2F34F1971
:106F900000F0F0FA079B00286ED16B78002BC8D167
:106FA000059B9A05C5D503F00303013B012BC0D80F
:106FB000039B002C08BF4B460393BC42C0F00381E7
:106FC000BAF1000F40F01B81039B2846590100F0E5
:106FD000F0FA0028ADD0013F5FFA87FA56464FF02D
:106FE00000090F27002E00F021810021284600F023
:106FF000C1FA044600289CD0AA6892F8243056456D
:1070000043F001030CBF46F0400BB34682F8243036
:1070100080F800B0C77280F80C9008F10D00FFF7FF
:10702000BFFD0BF01F0B607384F81A9084F81B905F
:107030000BF1FF3B0D22D8F808C002FB0BF2002336
:107040000499914240F2E3801CF80210042B5FFA8D
:1070500083FE03F1010000F2E08004EB4303A3F898
:1070600001100D2802F101020346E9D1013EF6B2FA
:10707000B8E74FF0010A85E70278E52A00D07AB92F
:107080000399002C08BF4946BC4238BF0134039124
:1070900038BFE4B2002A83D0E52A04D1002671E784
:1070A000BC4238BF00242E2AF8D0C17A0F295DD106
:1070B0003EBB12F040063FF465AF02F01F06437B73
:1070C000B3460BF1FF324FF00D0E0EFB02FE049A99
:1070D0007245E3D9A2EB0E0207924FF0000CBCF10F
:1070E000040F0CEB0E095FFA8CF214D800EB4C0283
:1070F000B2F8012007998C451BD1002A18BF002641
:1071000040E70BF1FF3B5FFA8BFB5A45C6D1427B50
:107110009A42D6D0C2E70A2A95BF0CF1FF320CF191
:10712000010200EB420200EB420294BFD288928837
:10713000E0E7FF2AB2D8D2B2A2F141011929D8F86A
:10714000081011F8091098BF2032A1F1410998BF29
:10715000D2B2B9F1190F9CBF2031C9B291429DD171
:107160000CF1010CBCF10D0FB9D10BE70A0795D456
:1071700066B1BBF1010F03937FF4DBAEFFF710FDA7
:10718000039B98427FF4D5AEB2460FE018EE101A7A
:107190000B22079307F012FB079B00287FF4F2AE47
:1071A00098F800A01AF0010A7FF463AF059B190557
:1071B0003FF5BFAE059B0698CDF800A04A4629468C
:1071C00000F03AFAB6E60021284600F0D3F998B963
:1071D0006B78002B7FF4ADAE284600F06FF80028E6
:1071E0003FF4A7AEAB681B79012B3FF6E9AE103434
:1071F000E4B2A742F0D8E3E60134E4B2DDE641466A
:107200002846FFF736FE00287FF4DEAE91E614BF75
:107210004FF0FF31002189B218E7BEF10A0F94BF89
:1072200004EB430304EB400399801AE731462846F8
:107230006F6900F09FF9044600283FF47AAE2022DF
:10724000314607F0F1FA434653F80D2F22605A6891
:1072500062601A8922819B7AA37298F8003003F049
:10726000180323730F4B1B689BB104F10E0104F14B
:1072700010009847238A63822383E389E382AA6804
:1072800092F8243043F00103C7F34F1982F82430F9
:1072900090E721232374282363740823A673E373E0
:1072A000E8E700BFB4E503208378016943F00403F5
:1072B000837000F11002806800F056BC2DE9F041A7
:1072C000017811F02005044603D000263046BDE8C1
:1072D000F0814269174B9A42F7D2FFF7E5FF064665
:1072E0000028F2D02169A06800F0D3FB0746A0680F
:1072F00005223946243000F0A9FB80460028E4D05E
:1073000029464FF4007207F08FFA0125A3681A7915
:10731000AA4209D918684246E91900F000FF00287E
:10732000D3D00135EDB2F1E7636903EB422363612A
:10733000CCE700BF00FE1F0010B5044680680A4677
:107340002430A16900F082FB20B1A38803F00F0371
:1073500000EB431010BD70B5047805460E464CB9DD
:107360002422214607F060FAAE60F379102B03D097
:10737000202B07D0002004E0202301242B70AC70C8
:10738000204670BD4023F8E72DE9F74F0378044607
:1073900088461546002B5DD08278D1075AD51A074A
:1073A0002DD5C36942699B1A9D4228BF1D462E46B2
:1073B0004FF0000904F1100B002E00F08F802278AE
:1073C0006369A0689706C3F3080A4FEA53211FD5E3
:1073D000006A0144A068BAF1000F42D1B6F5007FFF
:1073E0003FD3C36A99423CD0B6F5806F52D2006851
:1073F000424600F00BFE68B34FF4007744E09B0672
:10740000D5D583681A894369C3EB42139BB2CBE796
:1074100090F8059009EA0109BAF1000F08D1B9F115
:10742000000F05D15BB951064CBF036A236A236183
:107430002169A06800F02DFB09EB0001CAE7216972
:107440005A4600F02CFB002804DBF1D1237813F01E
:10745000700F43D1637843F0020363704FF0FF3045
:107460003DE0CAF50077B7424FF0000200F124007A
:1074700028BF374600F0EAFA0028EBD000EB0A01FB
:107480003A46404607F0A8F963693B44B844636153
:10749000F61B91E7227892064FEA562A06D4027923
:1074A000A2EB0902D2B2924528BF924699424FEA16
:1074B0004A2708D2A06853460068424600F0EEFD15
:1074C0000028E1D1C6E753448B42F3D9243001911F
:1074D00000F094FA01990028ECD1BBE7A81B03B097
:1074E000BDE8F08F2DE9F34780460E4691461F46D2
:1074F0004FF0FF354FF0000A0AF101044C451FDA46
:1075000001220DF107014046FFF73EFF05B2012DB4
:1075100016D19DF807100D29F0D006F80A1024B2F4
:107520003FB90A290AD100233355204602B0BDE8ED
:10753000F087384607F0A4F90028F4D1A246DBE72B
:10754000002D01DB5446EEE74FF0FF34EDE773B555
:1075500001220DF10701D0E904560446FFF714FF9C
:1075600001280ABF9DF807004FF0FF30C4E9045618
:1075700002B070BD37B5436913F4F07F0446C3F31E
:10758000431500D099B901220DF107012046FFF7FC
:10759000FBFE40B2012802D0002003B030BD636979
:1075A0001F33A0686361303000EB4510F5E72033EE
:1075B000F7E72DE9F0410278076904460D4662B10C
:1075C0004069884202D019B921616561012006E055
:1075D000160706D5E3698B420BD227610020BDE870
:1075E000F081910605D5A3681B89B5EB431FECD943
:1075F000F3E7D4F808C09CF80660431E06F10901C1
:107600006E1ECB40CE40B34200D898B953064CBF53
:10761000DCF82030236A236104F11008002ED4D056
:107620002169A068424600F03AFA002806F1FF36C8
:10763000F4DCD2E7F61AEFE7F8B50F46164600215C
:10764000242204461D4607F0EFF8B868A060A68023
:1076500000F1300206F00F063B6AE360710102EBB5
:107660004616F37A1F0746D4431893F83B3003F0CD
:1076700017032370F27A12F0180F04BF43F00803C7
:1076800023709DF81830E37005F00303012B2CD014
:10769000022B28D07BBB6A052DD40123A370A278CE
:1076A000930704D52378DF0625D4DE0723D4AB1156
:1076B00023F07F0305F0080633431343A370C36A26
:1076C000A3614318B3F84420B3F84A1041EA0241D9
:1076D0006A0513D559B9A37843F00403A3706B046A
:1076E00010D40120F8BD0323D8E70223D6E700F029
:1076F00076FA0028EFD100202070F3E72162DB6CDE
:10770000E361ECE7E1692046FFF753FF0028E8D189
:10771000F1E7000038B5037804460BB9012038BD05
:1077200083785A0723D50121FFF706FE054628B9BD
:10773000637843F0010363700020F0E70378E52BE2
:10774000F6D023781B0744BFE369C361238C4383CE
:10775000638C8382094B1B682BB100F11601183032
:1077600098472B8B6B82A37823F00403A370A06847
:10777000FFF709FA0028DBD0D0E700BFB4E503200B
:1077800010B50446FFF7C6FF0023237010BDF0B507
:1077900093B01F460023ADF82430037801920646CB
:1077A0000C4613B1002013B0F0BD0B7813F0700F2E
:1077B000F8D013782F2B12D1019A13782F2B02D1E6
:1077C00001320192F8E7A1681BB93046FFF7C3FD0B
:1077D000E9E709A8FFF7BFFD0028E3D009AC01984D
:1077E00001AA03A9FFF702FA0028DBD0019B1B784E
:1077F0009BB1002303AA21463046FFF78DFB0028EA
:10780000D0D035460FCD09AC0FC40FCD0FC42B68B7
:1078100023603046FFF7B4FFE0E73B4603AA21466A
:107820003046FFF779FBBEE700B58BB000230A4670
:10783000ADF804300146012301A8FFF7A8FF10B1FD
:1078400001A8FFF7B3FA0BB05DF804FB2DE9F04790
:10785000037889461907044617465BD583789A074B
:1078600058D51B0751D46369DB43BB4252D3B8469A
:1078700004F1100A6669B8F1000F00F09180A06869
:107880004379C6F3080513EA56260ED16DB921696E
:10789000002946D0524600F002F900283ADB04D114
:1078A0002046FFF701FD002834D02169A06800F0D0
:1078B000F0F83118A06815B9B8F5007F3FD2C5F5CA
:1078C0000076464528BF4646002D36D16269E369F9
:1078D0009A4234BF01220522243000F0B7F8C8B123
:1078E000284432464946354406F076FFB5F5007F18
:1078F00004D1A068243000F081F858B163693344A2
:107900006361B144A8EB0608B4E7C169FFF751FE13
:107910000028A8D1637843F0010363704FF0FF3073
:1079200050E0236A3BB92046FFF7BEFC0028F1D0A7
:1079300023692362B9E72361B7E70122CCE7B8F5F1
:10794000806FC26A1BD390F804C0ACEB0606F3B29A
:107950004FEA582E734528BF734691424FEA43269B
:1079600007D31A448A4282BF4FF0FF3280F8245076
:10797000C262A5684A46286800F047FCBDE791420C
:1079800002BF4FF0FF3380F82450C362A3684A4619
:10799000186800F0C4FB0028BCD04FF40076ADE7B7
:1079A000E269A378B24204D2E66143F00403A37013
:1079B00003E0084A1268002AF7D194F90230002B3C
:1079C00002DB3846BDE8F0872046FFF7A3FE00281B
:1079D000F7D19FE7B4E5032013B50446084659B133
:1079E000019106F08AFF23680199DB680246204670
:1079F00002B0BDE81040184702B010BD37B503789B
:107A0000DA07044620D54368816800F10C02186843
:107A1000019200F084FB019A054618B9002528461A
:107A200003B030BD23789B0704D4237823F00103EF
:107A30002370F4E7D4E9013019690144186800F0B3
:107A40006EFB0028F1D1E9E70125E8E770B583680E
:107A50008B4204460E46154609D0FFF7CFFF08B902
:107A6000002070BD6B070AD500232370A660227822
:107A700005F003052046154300F80C5BF1E7636849
:107A800004F10C021868314600F0C0FA0028EBD16E
:107A9000E6E7837940690239994008447047012933
:107AA00070B505460C46164602D84FF0FF3070BD43
:107AB000C3698B42F9D3C379202B16D18169022285
:107AC00001EBD41100F50C70FFF7C0FF0028ECD0DB
:107AD00004F07F0450F8243023F07043EA699A429E
:107AE00026BF336001200020E1E7102BDDD1836940
:107AF000C1F307210222194400F50C70FFF7A6FF1D
:107B00000028D2D0E4B230F81430E7E7012938B5C4
:107B10000C46154601D8002038BDC3698B42FAD304
:107B2000C379202B0FD18169032201EBD41100F519
:107B30000C70FFF78BFF0028EDD004F07F0440F8B5
:107B400024500120E8E7102BE5D18369C1F3072118
:107B50000322194400F50C70FFF778FF0028DAD0F3
:107B6000E4B220F81450ECE72DE9F341C4688C42EC
:107B700005460E46904601D3012701E00C4600273A
:107B8000EB690134A34202D2C7B9EC68F4E7A6421C
:107B900014D001AA21462846FFF781FF00280DDBFB
:107BA000EED0019B002BEBD107B1EC606FF070427F
:107BB00021462846FFF7AAFF074620B90027384686
:107BC00002B0BDE8F08116B9C8F80040F7E72246D8
:107BD00031462846FFF79AFF0028F5D1EEE773B546
:107BE00005460C4601AA21462846FFF758FF061E07
:107BF00010DB002221462846FFF788FF50B1EB68D2
:107C0000A34224BF04F1FF34EC60019C002EE9D1B3
:107C100002B070BD0020FBE7012370B50022C360F5
:107C20004FF0FF330446C27100F12406806280F8F1
:107C30002420C362C0F8340280F83022C0F8383201
:107C40000D46B9B1042901D9002070BD1146304656
:107C5000FFF7FCFE0028F7D000EB051393F8AE31D8
:107C60005B06F1D105F11B0100EB0111D1F80650C3
:107C7000002DE9D0002229463046FFF7E7FE002814
:107C8000E2D0B0F80B30B3F5007FDDD1037C022BDE
:107C9000DAD1C389002BD7D0417B21714B1E637190
:107CA0000023A37109260123994207D0013ECBD0BE
:107CB000A2795B000132DBB2A271F5E7C18A01B99A
:107CC000416A2161C3892B44A361B0F8112022814C
:107CD00003EB41032362B0F81110490101F2FF11D7
:107CE00003EB51236361B0F8132002B9026AE91A69
:107CF000A3791144D9404B1CE36140F6F4739942D7
:107D000002D80C23E3719FE74FF6F473994285BFC5
:107D1000C36A236210232023E371012095E700004A
:107D200070B50E4E0D46144601F088F93368C01A3E
:107D30000B4B984208D901F089F90A4B186001F001
:107D400071FC01F07BF9306001F080F980B2401BDA
:107D5000A042D4BF0020012070BD00BFBCE50320BD
:107D6000A0860100B8E7032038B5057A04464DB96E
:107D7000406800F06BFA63682946187D04F0C5F985
:107D80000123237238BD10B5037A04466BB14368F2
:107D90000121187D04F0B9F96068FF2100F088FA2C
:107DA000606800F067FA0023237210BDF8B504463E
:107DB0000D46164601F04AF987B2606800F05DFA98
:107DC000FF2860720ED14FF47A7239462046FFF7D1
:107DD000A7FF0028F1D0552320462370FFF7D3FFDB
:107DE0000020F8BDFE2801D05023F5E76068324638
:107DF000294600F047FA607208B16023ECE760683A
:107E000000F03BFA606800F038FA0120E9E770B54D
:107E100004460E4601F01AF985B23246294620463C
:107E2000FFF77EFF30B9606800F027FAFF28F4D131
:107E3000012070BD0020FCE7F7B5037A01920446EB
:107E40000D460BB9FFF790FF25B14FF49671204610
:107E5000FFF7DDFF606845F0400100F029FA0326D6
:107E600001AFB95D606800F023FA013EF9D2002D40
:107E700060680CBF9521872100F01AFA606800F055
:107E8000FCF90B25606800F0F8F90306607203D571
:107E9000013D15F0FF05F5D103B0F0BD70B5044606
:107EA0000D46164637210022FFF7C6FF3246294607
:107EB0002046BDE87040FFF7BFBF00002DE9F0414C
:107EC00000250572057085724160044690461E4685
:107ED00001F0BCF841460746606800F0BBF96368F2
:107EE000494A1D720125DA601D822046FFF73CFFDA
:107EF00063682946187D04F008F90A256068FF21A7
:107F0000013D00F0D5F915F0FF05F7D1636829466A
:107F1000187D04F0FAF80A25002211462046FFF7E2
:107F20008BFF0128804618D0013D15F0FF0507D1D1
:107F3000202320462370FFF726FF0020BDE8F081B4
:107F40006068FD2100F0B4F94FF40278606800F039
:107F500094F9B8F10108F9D1DEE74FF4D5720821A0
:107F60002046FFF769FF052814D184F80A80002510
:107F7000BFB22A4629212046FFF790FF0246D8B11A
:107F80004FF4FA6239462046FFF7CAFE0028F0D0C7
:107F90004323CEE70425606800F06FF9013D15F03A
:107FA000FF056072F7D1AA2804D10223A3724FF013
:107FB0008045DDE72523BCE7A37A022B18D13A21BF
:107FC0002046FFF739FF08B13723B2E7606800F0B9
:107FD00054F900F0C000C02804BF0323A3726068F6
:107FE00000F04BF9606800F048F9606800F045F96E
:107FF0002046FFF7C8FE63683079B168B2891A82FB
:108000001872D960012099E790D0030038B5837ABF
:10801000032B18BF490215460A4611210446FFF7F3
:108020000BFF30B1302323702046FFF7ACFE002554
:108030000BE029464FF400722046FFF7B7FE0546D5
:108040000028F1D02046FFF79EFE284638BD10B527
:10805000837A032B0A4618BF4A0212210446FFF70F
:10806000EBFE30B1312320462370FFF78CFE002059
:1080700010BD0120FCE710B500220C210446FFF7DB
:10808000DBFE30B1282320462370FFF77CFE002062
:1080900010BD2046FFF777FE0120F9E7F8B504464A
:1080A00016461F46FFF7D3FF68B10025ABB2BB42AF
:1080B00006EB452109D24FF400722046FFF776FE09
:1080C00001350028F2D10020F8BD2046BDE8F84077
:1080D000FFF7D1BF38B504461546406800F0E8F810
:1080E0004FF400726068294600F0E6F86068FF21EE
:1080F00000F0DEF86068FF2100F0DAF8606800F058
:10810000BCF8607200F01F00052806D057232046F7
:108110002370FFF738FE002038BD0120FCE770B562
:10812000837A032B18BF490215460A4618210446D4
:10813000FFF782FE064630B1322323702046FFF758
:1081400022FE00251FE02A46FE212046FFF7C2FF3F
:108150000028F3D04FF4FA612046FFF758FE054699
:1081600008B95A23E9E732460D212046FFF764FE9D
:1081700008B12923E1E7606800F07FF80028F8D112
:108180002046FFF700FE284670BD13B501914FF45D
:10819000FA610446FFF73BFE019A30B95B23237076
:1081A0002046FFF7F0FD002005E0FC212046FFF708
:1081B00091FF0028F4D002B010BD10B5837A032BD4
:1081C0000A4618BF4A0219210446FFF735FE30B1AE
:1081D000332320462370FFF7D6FD002010BD012079
:1081E000FCE738B54FF4FA610446FFF710FE054688
:1081F00030B9562323702046FFF7C5FD284638BD09
:108200006068FD2100F054F8F5E7F8B5044616461D
:108210001F46FFF7D2FF70B10025BD4206EB452196
:10822000204604D0FFF7B1FF28B10135F5E7BDE8DE
:10823000F840FFF7D6BF2046FFF7A5FD0020F8BDA8
:10824000014B01221A707047C0E50320011D006830
:1082500001F0F8BA10B504460175006801F0C8FADB
:10826000207D012103F040FF207D0121BDE8104069
:1082700003F04BBF006801F0CCBA0068FF2101F0A9
:108280004FBB000037B51346074A00920025074C44
:10829000006825700A46294601F048FB2378002B28
:1082A000FCD0002003B030BD41820D00C0E50320AA
:1082B000006801F035BB000037B51346064A00924E
:1082C0000025064C006825702A4601F02FFB237814
:1082D000002BFCD003B030BD41820D00C0E503206F
:1082E00013B500238DF8043001AA01234E21044662
:1082F00000F055FEF923ADF8043001AA02234F2106
:10830000204600F04CFE02B010BD0A4611B92421EF
:1083100000F02DBE012902D100222621F8E700201D
:1083200070470000F0B585B004469DF934C09DF952
:108330003070CDE9027C9DF92CC0CDF804C09DF9C8
:1083400028C0CDF800C016460D4600F0ADFB174B17
:10835000236016F0070307D0724202F0070258BFED
:108360005342C3F108031E44754348BF0735C5F3A4
:10837000CF01002F4FEAE500E18521860CDB0123C8
:1083800084F84C300023C4E90D33A4F84430A4F839
:108390004610204605B0F0BD80B201F08BF9606355
:1083A000208E01F087F9A063F3E700BFD8F40D0039
:1083B00010B590F92530002B044609DB94F925000F
:1083C00080B203F0BBFE48B10A2002F0C3FEF5E71D
:1083D000BDE810404FF4FA7002F0BCBE10BD13B5FA
:1083E000C72304468DF8043001AA0123222100F09E
:1083F000D6FD01222021204600F0B9FD2046FFF7DE
:10840000D7FF94F92530002B03DA4FF47A7002F08D
:10841000A1FE02B010BD00002DE9F341044600F0BA
:1084200089FB642002F096FE2046FFF7C1FF01227F
:108430001221204600F09BFD2046FFF7B9FF542390
:108440008DF800306A4620460123742100F0A7FD14
:108450004FF03B086A46204601237E218DF80080BC
:1084600000F09DFD4FF4FD73ADF8003000266A4624
:1084700020460323012103258DF8026000F08FFDC3
:108480006A462046012311218DF8005000F087FD37
:108490004FF47063ADF800306A4620460223442151
:1084A00000F07DFD4FF4790300936A4620460423D3
:1084B000452100F074FD6A46204601233C218DF8D9
:1084C000005000F06CFD70238DF800306A462046A5
:1084D00001232C2100F063FD15238DF800306A463E
:1084E00029462046012300F05AFD4AF64103ADF823
:1084F000003032272B466A46204604218DF8027050
:1085000000F04DFD30238DF800306A4620460123EF
:108510003A2100F044FD0A238DF800306A464146B6
:108520002046012300F03BFD394620460D4A4623F4
:1085300000F035FD6A46204601234E218DF800608B
:1085400000F02DFDF923ADF800306A4602234F21DB
:10855000204600F024FD2046FFF72AFF02B0BDE8C8
:10856000F08100BF84F40D0013B590F92330002B87
:1085700004460BDB012301AA10218DF8043000F022
:108580000EFD642002F0E6FD02B010BD01221221B2
:1085900000F0EDFC2046FFF70BFFF5E710B50446B1
:1085A00000F074FB20460122002100F0EBFA204687
:1085B0000122002100F0FEFA236820461B6EBDE870
:1085C00010401847012241700270704707B50190B2
:1085D000FDF74CFE019903B05DF804EB01F0A0B982
:1085E00010B50446FDF742FE01F013F994F90100BD
:1085F0000121BDE8104080B203F087BD30B585B0E1
:108600000B4B00930B4B0293044601230025ADF85E
:108610000C308DF80450FDF729FE694601F012F97F
:1086200094F90100294680B203F06FFD05B030BD1A
:1086300048EE0D0000093D0070B5044690F90100B8
:10864000012180B203F050FD2046FFF7C9FF2378D7
:108650009BB1FDF70BFE01F0CBF82046FFF7CEFFF4
:1086600003252378CBB1FF20FFF7B0FF013DF8D100
:108670002046BDE87040FFF7B3BF94F90200012126
:1086800080B203F031FD94F90400012180B203F0BF
:108690002BFD2378002BE0D0DBE7082694F90400BB
:1086A000002180B203F031FD94F90200012180B273
:1086B00003F02BFD94F90400012180B203F025FDA5
:1086C000013EEBD1D2E72DE9F04F85B00D469DF884
:1086D00038B001921E460446FFF790FF2B128DF82A
:1086E0000CB08DF80D308DF80E500DF10C0A0027EE
:1086F00023781AF8019B9BB14846FFF767FFBBF14F
:10870000020F02D10137032FF2D10025AE4225DD41
:1087100023781BB1019B585DFFF758FF0135F5E742
:108720004FF00808802594F90400002180B203F07E
:10873000ECFC94F9020019EA050118BF012180B28E
:1087400003F0E3FC94F90400012180B203F0DDFCA6
:10875000B8F101084FEA5505E5D1D0E7204605B04C
:10876000BDE8F04FFFF73CBF1FB58DF80F20009319
:108770000DF10F020123FFF7A6FF05B05DF804FB22
:108780002DE9F04F85B00E469DF838B001930446B0
:108790001546FFF733FF33128DF80CB08DF80D300E
:1087A0008DF80E600DF10C0A002723781AF8019B52
:1087B000ABB14846FFF70AFFBBF1030F02D1013707
:1087C000032FF2D1019B2B449846A8453FD0237834
:1087D0001BB30020FFF7FAFE28700135F5E74FF0D4
:1087E0000808802694F90400002180B203F08DFC73
:1087F00094F9020019EA060118BF012180B203F0C2
:1088000084FC94F90400012180B203F07EFCB8F1ED
:1088100001084FEA5606E5D1CEE7082794F904008F
:10882000002180B203F071FC94F90400012180B2B0
:1088300003F06BFC94F903002E7880B203F07EFC09
:10884000760076B23043013F2870E7D1C5E7204675
:1088500005B0BDE8F04FFFF7C3BE1FB5012300927E
:108860000DF10F02FFF78CFF9DF80F0005B05DF8CA
:1088700004FB2DE9F74F0E461D4604469046FFF7D0
:10888000BDFE02238DF8043033128DF805308DF8CB
:1088900006600DF1040B002723781BF801AB7BB1B8
:1088A0005046FFF793FE0137032FF5D10027B84557
:1088B00042D0237813B32846FFF788FE0137F6E746
:1088C0004FF00809802694F90400002180B203F0DB
:1088D0001CFC94F902001AEA060118BF012180B2BB
:1088E00003F013FC94F90400012180B203F00DFCA5
:1088F000B9F101094FEA5606E5D1D4E74FF008096E
:10890000802694F90400002180B203F0FEFB94F964
:10891000020015EA060118BF012180B203F0F5FB41
:1089200094F90400012180B203F0EFFBB9F10109D1
:108930004FEA5606E5D1C1E7204603B0BDE8F04F47
:10894000FFF74EBE2DE9F7430F1E05461446994624
:10895000C0F2A680FDF780FCB84240F3A180002C55
:10896000C0F29E802846FDF77AFCA04240F3988032
:10897000B5F80A8018F0070F1CBF28F0070808F1A7
:108980000808284618BF1FFA88F8FDF763FC02287C
:1089900031D0032837D0012804D12A89E443224466
:1089A0003C4617B2B5F9086095F84C30013EF61B0D
:1089B00008FB0646A9F10307F008BFB2C6F3CF06CD
:1089C00033B3012F94BFB5F84810B5F84A100E44E0
:1089D000B6B20322314605F12700FFF73EFF012F13
:1089E0008DF807000DF1070017D9B9F1000F45D137
:1089F00095F82C3013E02989E4430139CF1B444416
:108A00003FB224B2CEE7F943414427460CB2C9E74E
:108A1000012F80B214D8EB6B184495F82D3093B128
:108A2000634203F0070304F0070458BF5C42C4F13B
:108A300007040123A340047824EA0304047010E02F
:108A40002B6C1844D1E7634203F0070304F00704DA
:108A500058BF5C420278C4F107040123A3401343CA
:108A6000037095F84C30DBB102780223314605F1F2
:108A7000270003B0BDE8F043FFF776BEB9F1020F5F
:108A8000EFD1634203F0070304F0070458BF5C42D0
:108A9000C4F10704012303FA04F403785C40CDE732
:108AA00003B0BDE8F083000070B512B2044609B20D
:108AB0009DF918501E46FDF781F92046134B40F8EA
:108AC000273B2946FFF77EFD9DF9143084F82430BA
:108AD0009DF9103084F823309DF91C3084F825303E
:108AE000ED430123ED0F84F84D300023C4E90D332D
:108AF000C4E90F33C4E9113384F8226084F84C5080
:108B000084F826302386E385204670BD44F50D00A9
:108B100010B5074B03600446406B18B100F0D2FD5E
:108B200000236363A06B08B100F0CCFD204610BDAC
:108B300044F50D0010B5044690F92300002820DB11
:108B4000012180B203F0D0FA94F92300012180B210
:108B500003F0DBFA0A2002F0FDFA94F92300002169
:108B600080B203F0D2FA0A2002F0F4FA94F923005A
:108B7000012180B203F0C9FABDE810400A2002F0DA
:108B8000E9BA10BD61B990F84C3033B1B0F8443057
:108B9000A0F84A3080F82C207047436B0364F9E753
:108BA0000129F7D190F84C3013B1B0F84630EFE717
:108BB000836BF3E761B990F84C3033B1B0F84430CF
:108BC000A0F8483080F82D207047436BC363F9E765
:108BD0000129F7D190F84C3013B1B0F84630EFE7E7
:108BE000836BF3E710B590F84C300446C3B1C28DE7
:108BF00042B194F82C30B4F84410273003B1FF236D
:108C0000FFF737FE228EFAB194F82D30B4F84610F3
:108C100004F1270003B1FF23BDE81040FFF729BE90
:108C2000406B30B194F82C10E28D01B1FF2105F0BA
:108C3000FBFDA06B40B194F82D10228E01B1FF21F5
:108C4000BDE8104005F0F0BD10BD90F922000121F3
:108C500080B203F05ABA90F92200002180B203F0EA
:108C600054BA000010B50446FDF700FB00F0D1FD3A
:108C7000054B94F9240000221A70BDE81040012130
:108C800080B203F042BA00BFC1E5032037B501222C
:108C90000D4600210446FFF775FF00220121FFF772
:108CA00089FF90F84C304BB127300190FFF7C4FC9E
:108CB0000198012340220021FFF756FD94F922007C
:108CC000012180B203F010FA94F92400012180B24E
:108CD00003F00AFA2046FFF7C5FF94F84D30D3B9E8
:108CE00094F92000012180B203F0FEF994F92100EB
:108CF000012180B203F0F8F915B12046FFF71AFF01
:108D000094F9250000280BDB002180B203B0BDE8F8
:108D1000304003F0E9B9FDF7A9FA00F069FDEBE78F
:108D200003B030BD7FB50D4D2B78044673B90C4AA6
:108D30008DF8043001260B4B00920293ADF80C60C5
:108D4000FDF794FA694600F07DFD2E7094F9240039
:108D5000002180B203F0D9F904B070BDC1E5032051
:108D600048EE0D0000093D00F8B590F84D3005467D
:108D70000E46B3B190F8263063B1FFF7D3FFFDF78D
:108D800075FA314600F0CCFD04462846FFF76AFF2D
:108D90002046F8BDFDF76AFA3146BDE8F84000F01C
:108DA000BFBD0824802795F92100002180B203F07F
:108DB000ACF995F9200016EA070118BF012180B22D
:108DC00003F0A3F995F92100012180B203F09DF988
:108DD000013C4FEA5707E6D1DAE72DE9F041036895
:108DE00004469B6D9847236800225B6D1146204620
:108DF000984794F84C50B5B304F127073846FFF76D
:108E0000FDFB03212046FFF7AFFFB4F844102046D6
:108E1000090AFFF7A9FF94F844102046FFF7A4FFC2
:108E2000236800211B6D2046984705462046FFF722
:108E30000CFF0026E28DB3B29A4206D9294620469D
:108E4000FFF792FF01360546F4E72046FFF70AFFD9
:108E50003846FFF7C5FB238EE3B92368DB6D204658
:108E6000BDE8F0411847236829461B6D2046984706
:108E70002046FFF7EAFEE28DABB29A4206D9626B5A
:108E80002046D15CFFF770FF0135F4E72046FFF77D
:108E9000E9FEE0E7022002F05DF9236800225B6D45
:108EA00011462046984794F84C50ADB304F127077B
:108EB0003846FFF7A3FB03212046FFF755FFB4F820
:108EC00046102046090AFFF74FFF94F84610204647
:108ED000FFF74AFF236801211B6D2046984705468E
:108EE0002046FFF7B2FE0026228EB3B29A4206D980
:108EF00029462046FFF738FF01360546F4E72046AD
:108F0000FFF7B0FE3846FFF76BFB23682046DB6DAA
:108F1000984723681B6EA2E7236801211B6D20463A
:108F200098472046FFF791FE228EABB29A4206D9AF
:108F3000A26B2046D15CFFF717FF0135F4E720460E
:108F4000FFF790FEE1E770B50C4615460646FFF7C1
:108F50007CFE2544AC4205D014F8011B3046FFF7D7
:108F600003FFF7E73046BDE87040FFF77BBE73B5FF
:108F7000044601911646FFF775FE2046FFF76BFE8B
:108F80002046FFF7CFFE01992046FFF7EDFE05468C
:108F900016B12046FFF766FE284602B070BD70B5D8
:108FA000044615461E460022FFF7E1FF32462946D9
:108FB0002046BDE87040FFF7C6BF000008B5024B71
:108FC0001B689B68019308BD6802030008B5024B4B
:108FD0001B68DB68019308BD6802030008B5024BFB
:108FE0001B689B68019308BD2C02030008B5024B67
:108FF0001B68DB68019308BD2C02030008B5024B17
:109000001B681B69019308BD2C02030008B5024BC5
:109010001B685B69019308BD2C02030008B5024B75
:109020001B685B68019308BD1802030008B5024B7A
:109030001B68DB68019308BD1802030008B5024BEA
:109040001B681B69019308BD1802030008B5024B99
:109050001B685B69019308BD1802030008B5024B49
:109060001B689B6A019308BD1802030008B5024BF8
:109070001B685B6C019308BD1802030008B5024B26
:109080001B689B6C019308BD1802030008B5024BD6
:109090001B689B6D019308BD1802030008B5024BC5
:1090A0001B68DB6D019308BD1802030008B5024B75
:1090B0001B685B6E019308BD1802030008B5024BE4
:1090C0001B689B68019308BD7802030008B5024B3A
:1090D0001B681B6D019308BD7802030008B5024BA5
:1090E0001B689B6D019308BD7802030008B5024B15
:1090F0001B681B6E019308BD7802030008B5034B83
:109100001B68D3F89830019308BD00007802030073
:1091100008B5034B1B68D3F8A830019308BD0000C5
:109120007802030008B5034B1B68D3F8B4300193F1
:1091300008BD00007802030008B5034B1B68D3F894
:10914000D830019308BD00007802030008B5034B36
:109150001B68D3F8DC30019308BD000078020300DF
:1091600008B5034B1B68D3F8EC30019308BD000031
:109170007802030008B5034B1B68D3F8F030019365
:1091800008BD00007802030008B5034B1B68D3F844
:109190000031019308BD00007802030008B5034BBD
:1091A0001B68D3F80431019308BD00007802030066
:1091B00008B5024B1B685B6C019308BD48020300B5
:1091C00008B5024B1B689B6C019308BD4802030065
:1091D00008B5024B1B68DB6C019308BD4802030015
:1091E00008B5024B1B685B6D019308BD4802030084
:1091F00008B5024B1B685B69019308BD640203005C
:1092000008B5024B1B681B68019308BD3C020300B4
:1092100008B5024B1B68DB68019308BD3C020300E4
:1092200008B5024B1B681B69019308BD3C02030093
:1092300008B5024B1B685B69019308BD3C02030043
:1092400008B5024B1B689B69019308BD3C020300F3
:1092500008B5024B1B68DB69019308BD3C020300A3
:1092600008B5024B1B681B6A019308BD3C02030052
:1092700008B5024B1B689B6A019308BD3C020300C2
:1092800008B5024B1B68DB68019308BD2802030088
:1092900008B5024B1B689B69019308BD28020300B7
:1092A00008B5024B1B68DB69019308BD2802030067
:1092B00008B5024B1B681B6A019308BD2802030016
:1092C00008B5024B1B685B6A019308BD28020300C6
:1092D00008B5024B1B689B6A019308BD2802030076
:1092E00008B5024B1B68DB6A019308BD2802030026
:1092F00008B5024B1B681B6B019308BD28020300D5
:1093000008B5024B1B685B6B019308BD2802030084
:1093100008B5024B1B681B6C019308BD28020300B3
:1093200008B5024B1B689B6C019308BD2802030023
:1093300008B5024B1B68DB6C019308BD28020300D3
:1093400008B5024B1B681B6D019308BD2802030082
:1093500008B5024B1B681B68019308BD300203006F
:1093600008B5024B1B685B69019308BD300203001E
:1093700008B5024B1B68DB69019308BD300203008E
:1093800008B5024B1B681B6A019308BD300203003D
:1093900008B5024B1B685B6A019308BD30020300ED
:1093A00008B5024B1B689B6A019308BD300203009D
:1093B00008B5024B1B689B6B019308BD300203008C
:1093C00008B5024B1B68DB6B019308BD300203003C
:1093D00008B5024B1B681B6C019308BD30020300EB
:1093E00008B5024B1B685B6C019308BD300203009B
:1093F00008B5024B1B685B6C019308BD7402030047
:1094000008B5034B1B68D3F88830019308BD0000F2
:109410007402030008B5034B1B68D3F89030019326
:1094200008BD00007402030008B5024B1B685B68AE
:10943000019308BD5802030008B5024B1B681B6866
:10944000019308BD4C02030008B5024B1B681B6961
:10945000019308BD4C02030008B5024B1B685B6911
:10946000019308BD4C02030008B5024B1B689B69C1
:10947000019308BD4C02030008B5024B1B68DB6971
:10948000019308BD4C02030008B5024B1B681B6A20
:10949000019308BD4C02030008B5024B1B685B6BCF
:1094A000019308BD6002030008B5024B1B681B6DE9
:1094B000019308BD6002030008B5034B1B68D3F895
:1094C0009830019308BD00006002030008B5024B0C
:1094D0001B681B68019308BD2002030008B5024BFE
:1094E0001B685B68019308BD2002030008B5024BAE
:1094F0001B685B69019308BD2002030008B5024B9D
:109500001B68DB6A019308BD2002030008B5024B0B
:109510001B68DB6C019308BD2002030008B5024BF9
:109520001B685B6D019308BD2002030008B5024B68
:109530001B689B6D019308BD2002030008B5034B17
:109540001B68D3F88830019308BD00002002030097
:1095500008B5034B1B68D3F89430019308BD000095
:109560002002030008B5024B1B685B68019308BD2D
:109570004002030008B5024B1B689B68019308BDBD
:109580004002030008B5024B1B68DB68019308BD6D
:109590004002030008B5024B1B681B69019308BD1C
:1095A0004002030008B5024B1B685B69019308BDCC
:1095B0004002030008B5024B1B689B69019308BD7C
:1095C0004002030008B5024B1B68DB69019308BD2C
:1095D0004002030008B5024B1B681B6A019308BDDB
:1095E0004002030008B5024B1B681B6B019308BDCA
:1095F0004002030008B5024B1B685B6B019308BD7A
:109600004002030008B5024B1B681B68019308BDAC
:109610004402030008B5024B1B685B68019308BD58
:109620004402030008B5024B1B689B68019308BD08
:109630004402030008B5024B1B68DB68019308BDB8
:109640004402030008B5024B1B685B69019308BD27
:109650004402030008B5024B1B68DB69019308BD97
:109660004402030008B5024B1B681B6A019308BD46
:109670004402030008B5024B1B68DB6A019308BD76
:109680004402030008B5024B1B681B6B019308BD25
:109690004402030008B5024B1B685B6B019308BDD5
:1096A0004402030008B5024B1B68DB6B019308BD45
:1096B0004402030008B5024B1B681B68019308BDF8
:1096C0001C02030008B5024B1B685B68019308BDD0
:1096D0001C02030008B5024B1B689B68019308BD80
:1096E0001C02030008B5024B1B68DB68019308BD30
:1096F0001C02030008B5024B1B685B6A019308BD9E
:109700001C02030008B5024B1B68DB6A019308BD0D
:109710001C02030008B5024B1B681B6B019308BDBC
:109720001C02030008B5024B1B68DB6B019308BDEC
:109730001C02030008B5024B1B685B6C019308BD5B
:109740001C02030008B5024B1B68DB6C019308BDCB
:109750001C020300002240681146FFF73BBF0022B5
:1097600040681146FFF746BF40680022FFF73ABF46
:109770004068002281F00101FFF724BF0023406808
:109780001A461946FFF716BF002340681A461946C5
:10979000FFF708BF002240681146FFF7FBBE00221A
:1097A00040681146FFF7E6BE406800220221FFF73D
:1097B000E9BE002340681A46FFF7D4BE024B0322DD
:1097C0005A60024A1A607047C4E50320B0F50D00E4
:1097D0000021FFF7FDBD0021FFF702BE10B50446D2
:1097E00008462170FFF7C4FD00236360204610BDCA
:1097F00010B504460078FFF7EBFF48B920784FF624
:10980000FF71FFF7A5FD2078BDE81040FFF7E3BF2B
:1098100010BD0078FFF7DFBF400830B518600024A6
:1098200018688842E5B206D90134082C02D04008F5
:109830001860F5E70725024B5B5D137030BD00BF74
:10984000DCF50D002DE9F04306468FB000780D469B
:10985000FFF7BEFF00281BDB34781422002109A883
:1098600004F0E2FF0B23002209A92046ADF82430C2
:10987000FFF78EFD9DF82D3013B19DF82C4054B1AB
:109880000027B946B84601242B795CB1C3B100204A
:109890000FB0BDE8F083DDF830809DF834909DF87E
:1098A0003570F1E7002B35D1AB68434508D18DF811
:1098B00020908DF82170BDF82020AB899A42E6D027
:1098C0000023A9688DF80F300A9804AB0DF10F0240
:1098D000FFF7A2FF297984B989B9AB6843450ED354
:1098E0008DF820908DF82170BDF82020AB899A4228
:1098F00005D1049B434502D1C9E70029F9D10023D2
:1099000001936B7B00939DF80F202B7B3078FFF742
:1099100057FDBCE7CDE90044234622460121F5E787
:1099200008B50078FFF71CFDC0B208BD30B587B0A0
:1099300004460A9D00950078FFF732FD3DB9207876
:1099400002A9FFF735FD9DF81430DB07F7D407B007
:1099500030BD000010B5094B094C022200201A60EE
:10996000084B2060A080A071A360FFF7B7FD2046E0
:10997000054A0649BDE8104002F08ABCD8E503203C
:10998000CCE503200000FFFF20DE032091410D0005
:1099900010B5044604F0B1FF013823182046834275
:1099A00006D90278197800F8011B03F80129F6E7B7
:1099B00010BD70B50C46911E2229054622D82046BE
:1099C0006DB1B5FBF2F602FB1655E9B2092D94BF55
:1099D00030315731C9B200F8011B3546F0E7024675
:1099E00023443021934202D902F8011BFAE71A1AE4
:1099F000834238BF0022002383542046FFF7C8FF6C
:109A0000204670BD0020FCE738B5031E0C46154605
:109A10000EDAB3F1004F4FF02D0214BF5842184632
:109A200001230A702A461944FFF7C3FF204638BDB8
:109A30000123F9E710B504460068FFF743FE20460E
:109A400010BD10B50446006808B1FFF73BFE0023C7
:109A5000C4E90133236010BD38B504460D460068E3
:109A60000131FFF737FE10B1C4E90005012038BD10
:109A700010B50368044623B143688B4201D301202B
:109A800010BD2046FFF7E8FF0028F9D0A368002B9F
:109A9000F5D122681370F2E737B50D4611460192F1
:109AA0000446FFF7E5FF019A28B92046FFF7C9FFF2
:109AB000204603B030BDA2602946206804F08CFE29
:109AC0002268A3680021D154F2E7002313B5C0E94E
:109AD000003304468360037341B10846019104F0EA
